:020000040800F2
:10000000900400209D0100082B120008D70C000866
:1000100029120008D5020008E114000800000000C1
:10002000000000000000000000000000A91200080D
:10003000D7020008000000002D120008AB120008D3
:10004000B7010008B7010008B7010008B7010008B0
:10005000B7010008B7010008B7010008B7010008A0
:10006000B7010008B7010008B7010008B701000890
:10007000B7010008B7010008B7010008B701000880
:10008000B7010008B7010008B7010008B701000870
:10009000B7010008B7010008B7010008B701000860
:1000A000B7010008B7010008B7010008B701000850
:1000B000B7010008B7010008B7010008B701000840
:1000C000B7010008B7010008B7010008B701000830
:1000D000B7010008B7010008B7010008B701000820
:1000E000B7010008B7010008B7010008B701000810
:1000F000B7010008B7010008B7010008B701000800
:10010000B7010008B7010008B7010008B7010008EF
:10011000B7010008B7010008B7010008B7010008DF
:10012000B7010008B7010008B7010008B7010008CF
:10013000B7010008B7010008B7010008B7010008BF
:10014000B7010008B7010008B7010008B7010008AF
:10015000B7010008B7010008B7010008B70100089F
:10016000B7010008B7010008B7010008B70100088F
:10017000B7010008B7010008B7010008000000003F
:10018000B7010008B7010008DFF80CD000F090F8C4
:1001900000480047011700089004002006488047E7
:1001A00006480047FEE7FEE7FEE7FEE7FEE7FEE75C
:1001B000FEE7FEE7FEE7FEE73913000889010008C5
:1001C0002DE9F05F0546002092469B46884606468C
:1001D000814640241BE0284641464746224600F01F
:1001E00057F853465A46C01A914110D31146184643
:1001F000224600F03EF82D1A67EB01084F462246D2
:100200000120002100F035F817EB00094E41201EB7
:10021000A4F10104DFDC484631462A464346BDE8E6
:10022000F09FD2B201E000F8012B491EFBD27047CB
:100230000022F6E710B513460A4604461946FFF7B2
:10024000F0FF204610BD30B50B46014600202022AD
:10025000012409E021FA02F59D4205D303FA02F5D3
:10026000491B04FA02F52844151EA2F10102F1DC33
:1002700030BD202A04DB203A00FA02F1002070474A
:100280009140C2F1200320FA03F3194390407047D4
:10029000202A04DB203A21FA02F00021704721FADB
:1002A00002F3D040C2F12002914008431946704742
:1002B000064C074D06E0E06840F0010394E80700B3
:1002C00098471034AC42F6D3FFF762FF04190008D8
:1002D00024190008FEE770477047000070B5044617
:1002E00000F0F4F80546601C02D00448007804448D
:1002F00000F0ECF8401BA042FAD370BD380000209B
:100300002DE9F84F00224FF0010803254FF00F0EA2
:100310000B6808FA02F42340A3426ED14E68012E06
:1003200005D0022E03D0112E01D0122E12D18668D4
:100330004FEA420C05FA0CF7BE43CF6807FA0CF7F8
:10034000374387604668A6430C79C4F30014944091
:1003500034434460C668570005FA07FC8C6826EAF7
:100360000C06BC403443C4604C68022C01D0122CF3
:1003700013D1D40800EB8404A346D4F8209054078A
:100380004FEAD46A0EFA0AF629EA06090E6906FA55
:100390000AF646EA0906CBF8206006680C7926EAD8
:1003A0000C0604F00304BC40344304604C68E400D1
:1003B00065D5364C266846F480462660246822F0CF
:1003C000030604F480440094314C3444A446D4F829
:1003D00008489607370F0EFA07F6B4432D4EB04281
:1003E00001D1002624E02C4EB04201D101261FE0AD
:1003F0002A4EB04202D102261AE040E0284EB04216
:1004000001D1032614E0274EB04201D104260FE0AB
:10041000254EB04201D105260AE0244EB04201D15A
:10042000062605E0224EB04201D1072600E008264C
:10043000BE402643CCF808681E4E34684F689C4383
:10044000FF0300D51C4334601A4C241D26684F68F6
:100450009E43BF0300D51E432660164E08363468FF
:100460004F689C43FF0200D51C433460114E0C368C
:1004700034684F689C43BF0200D51C433460521C53
:10048000102AFFF445AFBDE8F88F00004438024061
:100490000030014000000240000402400008024019
:1004A000000C0240001002400014024000180240FC
:1004B000001C0240003C01400069084000D00120BF
:1004C00070470AB1816170470904FBE70148806801
:1004D000704700003800002002488168027811440B
:1004E00081607047380000200B4810B5016841F466
:1004F00000710160016841F480610160016841F4AC
:1005000080710160032000F061F8002000F006F81F
:1005100000F024F8002010BD003C024070B50D4DE5
:1005200004464FF47A712878B1FBF0F00A49096863
:10053000B1FBF0F000F0F6FA48B9102C07D2002217
:100540002146501E00F022F800206C6070BD012092
:1005500070BD000038000020440000200A4808B5A3
:10056000016841F480410160006800F4804000901F
:100570000548001F016841F080510160006800F0EB
:100580008050009008BD000044380240F0B40E4B8B
:100590001B680C46C3F30223C3F10705042D00D9E1
:1005A0000425191D072901D2002300E0DB1E0126C6
:1005B00006FA05F1491E214099409E40761E1640DC
:1005C0003143F0BC00F09EBF0CED00E0064900F0A6
:1005D000070208684FF6FF03184040EA0220034A6A
:1005E00010430860704700000CED00E00000FA05C1
:1005F0002DE9F0470E46050065D0DFF81481D8F8E4
:100600000000F7B200F00F00B04207D288F8007087
:10061000D8F8000000F00F00B04254D128683D4CDB
:10062000810712D5400703D5206840F4E0502060D0
:100630002878000703D5206840F4604020602068D7
:10064000A96820F0F000084320602878C0072DD06A
:10065000304968680839012812D0022813D00328CD
:1006600011D00968890700292DDA216821F00301DA
:1006700001432160FFF72AFF814641F2883A0EE0EC
:1006800009688903EFE709688901ECE7FFF71EFFB6
:10069000A0EB0901514502D90320BDE8F08720688D
:1006A000696800F00C00B0EB810FEFD1D8F80010B2
:1006B000404601F00F01B14207D90770006800F011
:1006C0000F00B04201D00120E7E72878400705D5A8
:1006D0002068E96820F4E05008432060287800078B
:1006E00006D52068296920F4604040EAC1002060F6
:1006F00000F038F82168084AC1F30311515CC84082
:100700000649086006480068FFF708FF0020C4E7B4
:10071000003C024008380240EC1800084400002069
:100720003C0000200448054900680968044AC1F3F8
:100730008221515CC84070474400002008380240C4
:10074000FC1800080448054900680968044AC1F318
:100750004231515CC84070474400002008380240D4
:10076000FC180008154810B5006810F00C02144879
:1007700013D01449042A0FD0082A0ED10F4C241F7D
:100780002268236802F03F025B0207D52068C0F3AD
:100790008810A0FB010106E0084610BD2168C1F3E6
:1007A0008811A1FB00010023FFF70AFD2168C1F3B6
:1007B0000141491C4900B0FBF1F010BD083802406E
:1007C0000024F40040787D012DE9F84F04006ED03C
:1007D0002078DFF83C93C007A9F104054AD009F15D
:1007E00004000168C1F38101012908D00068C0F349
:1007F000810002280AD1D9F80000400206D52868F5
:10080000800337D560680028E1D033E06068B0F538
:10081000803F10D0B0F5A02F286810D020F4803091
:100820002860286820F4802028606068A8B1FFF75D
:100830004DFE06460DE0286840F48030F4E740F4B1
:1008400080202860F7E700BFFFF740FE801B642888
:1008500073D828688003F7D50CE0FFF737FE06460B
:1008600005E000BFFFF732FE801B6428F0D828683F
:100870008003F7D42078DFF89C8280074FF0000ACD
:100880003ED5A348001D016811F00C0F08D0006888
:10089000C0F3810002280BD1D9F80000400207D430
:1008A0002868800716D5E068012800D112E02BE106
:1008B000E068B8B10120C8F80000FFF707FE06465F
:1008C00005E000BFFFF702FE801B0228C0D82868A1
:1008D0008007F7D52868216920F0F80040EAC100B8
:1008E00028600DE0C8F800A0FFF7F0FD064604E020
:1008F000FFF7ECFD801B02281FD828688007F7D47B
:100900002078000722D5824E83486169703671B124
:1009100001210160FFF7DAFD074604E0FFF7D6FD8D
:10092000C01B022809D830688007F7D50EE0C0F850
:1009300000A0FFF7CBFD074605E082E0FFF7C6FD0C
:10094000C01B02287DD830688007F7D42078400784
:1009500068D5DFF8BCB100270BF13C0BDBF80000D9
:10096000C0000BD4DBF8001041F08051CBF8001030
:10097000DBF80000012700F080500090674E3068DF
:10098000C00510D4306840F480703060FFF79EFDE1
:10099000009005E0FFF79AFD0099401A022850D810
:1009A0003068C005F6D55A4EA0686C3601280FD0C5
:1009B0000528306810D020F001003060306820F049
:1009C00004003060A068B8B1FFF780FD00900FE030
:1009D000306840F00100F4E740F004003060F7E7D1
:1009E000FFF774FD0099411A41F28830814266D8C0
:1009F00030688007F4D50EE0FFF768FD009007E04F
:100A0000FFF764FD0099411A41F28830814256D8BF
:100A100030688007F4D42FB1DBF8001021F080514A
:100A2000CBF80010A069C8B33949091D0968C1F3A2
:100A3000810102294AD00228504607D0C8F8600038
:100A400000E03CE0FFF742FD04463BE04746C8F8C3
:100A50006000FFF73BFD064605E000BFFFF736FDEF
:100A6000801B02282BD828688001F7D4D4E907011D
:100A70000843A16A2A4A490802EB0141626A41EA35
:100A80008211084394F82C1040EA0161C9F8001063
:100A900001203866FFF71AFD044606E036E000BF85
:100AA000FFF714FD001B022809D828688001F7D53C
:100AB0002CE000BFFFF70AFD001B022802D903202B
:100AC000BDE8F88F28688001F4D41FE00128F7D032
:100AD000D9F80000E26900F48001914214D1226A41
:100AE00000F03F0191420FD147F6C071626A0140A8
:100AF000914209D1A26A00F44031914204D1E16AE5
:100B000000F07060884201D00120D9E70020D7E7CB
:100B10000438024000004742800E47420070004007
:100B20000000FFFF10B5401EB0F1807F01D301200F
:100B300010BD4FF0E02460610F21601700F0E2FC6F
:100B40000020A06107202061002010BD70B50400C6
:100B500004D094F83900002510B106E0012070BDE2
:100B600084F83850204600F023F8242084F8390017
:100B70002068C16821F40051C160204600F0EAFB02
:100B80002068016921F4904101612068416921F0E8
:100B90002A0141612068C16841F40051C160E563E8
:100BA000202084F8390084F83A00002070BD00004D
:100BB00010B586B0044614216846FFF739FB144986
:100BC0002068884221D113480021026842F01002B7
:100BD0000260006800F0100005900E4814380268AA
:100BE00042F001020260006800F0010005904FF43D
:100BF000C06000900220CDE901010320039007208E
:100C0000049069460448FFF77BFB06B010BD000066
:100C10000010014044380240000002402DE9F84332
:100C2000044690F839001F4616460D46202850D13C
:100C3000B5B1AEB194F8380001284AD0012084F84B
:100C400038004FF00008C4F83C80212084F83900B7
:100C5000FFF73CFCA6848146E68484F8388026E0D1
:100C60000120BDE8F883E08C401EE084A0684B467C
:100C7000B0F5805F4FF000024FF0800120460097F2
:100C800003D000F0FBFBE8B90DE000F0F7FBC8B9BA
:100C900028882168C0F308004860206908B16D1CED
:100CA00005E0AD1C03E0216815F8010B4860E08CFD
:100CB0000028D8D14B46002240212046009700F062
:100CC000DDFB08B10320CCE7202084F839000020A8
:100CD000C7E70220C5E7FEE770B5104D4FF480442A
:100CE000002221462846FFF7ECFB00F0BFFA002265
:100CF00061002846FFF7E5FB022000F0DBFC012243
:100D000021462846FFF7DDFB022000F0D3FC2146F8
:100D10002846BDE870400022FFF7D3BB0004024024
:100D200070B5104D4FF48044002221462846FFF74D
:100D3000C8FB00F09BFA0122D1032846FFF7C1FB54
:100D4000022000F0B7FC012221462846FFF7B9FB3C
:100D5000022000F0AFFC21462846BDE8704000228A
:100D6000FFF7AFBB000402402DE9F04780460024A6
:100D700000F05EFA164F00254FF480464FF400490C
:100D8000002231463846FFF79CFB022000F092FC1F
:100D9000012231463846FFF794FB6006040E4946AF
:100DA0003846FFF789FB08B1641CE4B2012000F06B
:100DB00081FC6D1CEDB2082DE2D3B8F1000F04D018
:100DC000FFF78AFF2046BDE8F087FFF7A9FFF9E7A4
:100DD000000402402DE9F041054600F047FA194FA2
:100DE0004FF48046002231463846FFF76AFB052063
:100DF00000F060FC00244FF40048E80901D0012213
:100E000000E0002241463846FFF75BFB6806050E0E
:100E1000052000F04FFC012231463846FFF751FB18
:100E2000052000F047FC002231463846FFF749FB19
:100E3000052000F03FFC641CE4B2082CDDD3BDE8C3
:100E4000F08100000004024070B500F00FFA0122AA
:100E50000E4DD40321462846FFF733FB01229603AB
:100E600031462846FFF72DFB052000F023FC002229
:100E700021462846FFF725FB052000F01BFC3146E4
:100E80002846BDE870400022FFF71BBB000402406B
:100E900070B500F0EBF9104D4FF48044002221466C
:100EA0002846FFF70EFB6600002231462846FFF772
:100EB00008FB052000F0FEFB012221462846FFF733
:100EC00000FB012231462846FFF7FBFABDE87040DF
:100ED000052000F0EFBB0000000402402DE9F041C6
:100EE000002400F0A5F90122144DD603314628460E
:100EF000FFF7E7FA042000F0DDFB012297033946F3
:100F00002846FFF7DEFA042000F0D4FB08E0641C5A
:100F1000E4B2FA2C04D9FFF7BBFF0120BDE8F08151
:100F200031462846FFF7C8FA0028F0D1002239469A
:100F30002846FFF7C6FA0020F0E700000004024050
:100F4000F0B5384800214FF0010E4378FA22A3B3E0
:100F5000837800F1280CB3B15B1CDDB2857000F121
:100F60001C034668B3F90040FB2D34444460B3F9D8
:100F7000026087683E448660B3F90430C7683B442A
:100F8000C3600CD019E0ACF80010ACF80210ACF85B
:100F9000041041608160C16080F802E0F0BD94FB04
:100FA000F2F4ACF8004096FBF2F493FBF2F3ACF8E9
:100FB0000240ACF80430817041700378002BEDD012
:100FC000184BC4782E331CB3641CE7B2C770A3F16E
:100FD0000C050669B5F90040FB2F26440661B5F9FA
:100FE0000240D0F814C064444461B5F90450D0F80C
:100FF00018C065448561D1D196FBF2F694FBF2F4FA
:1010000095FBF2F21E805C809A80C1700170F0BD89
:1010100019805980998001614161816180F803E004
:10102000F0BD00000400002010B50446FFF70CFFDF
:10103000042000F03FFBD220FFF7CCFEFFF74EFF6D
:101040002046FFF7C7FEFFF749FFFFF7FDFED3205D
:10105000FFF7C0FEFFF742FF0020FFF785FE0446C2
:10106000FFF716FF204610BD2DE9F0411D4614463E
:101070000F460646FFF7E8FE042000F01BFB700653
:10108000000EFFF7A7FEFFF729FF20B1FFF700FFD3
:101090000120BDE8F0813846FFF79CFEFFF71EFFF8
:1010A000FFF7D2FE012000EB4600C0B2FFF792FE30
:1010B000FFF714FF08E0012C0CD00120FFF754FECD
:1010C000641E05F8010BE4B2002CF4D1FFF7E0FE3A
:1010D0000020DEE70020F1E7C006010E1C2000F032
:1010E00034B8C006010E1B2000F02FB8BC2801D375
:1010F000012110E0622801D302210CE02A2801D34B
:10110000032108E0142801D3042104E00A2801D3B4
:10111000052100E006211A2000F017B810B504469A
:101120004FF47A70844201D9044602E0042C00D2C4
:101130000424B0FBF4F0401EC1B2192000F005F801
:101140006008BDE81040FFF7D1BF70B50C460546FA
:10115000FFF77AFED220FFF73DFEFFF7BFFE50B942
:101160002846FFF737FEFFF7B9FE2046FFF732FEAD
:10117000FFF7B4FE18B1FFF78BFE012070BDFFF73B
:1011800087FE002070BD0000F0B587B014216846CE
:10119000FFF74EF814480024016841F00201016095
:1011A0000068012200F00200104F950305902946C7
:1011B0003846FFF786F90122D60331463846FFF755
:1011C00080F900950125CDE901546946384603941C
:1011D000FFF796F80096CDE9015469463846039426
:1011E000FFF78EF807B0F0BD30380240000402402F
:1011F0000C4810B50A4901604FF4E131416000210B
:1012000081600C22C160C0E904128161C161FFF7F5
:101210009DFC002803D0BDE81040FFF75DB810BD6D
:10122000001001404C000020FEE7704770470000AE
:1012300000B587B014216846FEF7FAFF094800217F
:10124000026842F002020260006800F002000590AD
:101250004FF40040CDE9000169460348FFF750F81C
:1012600007B000BD303802400004024000B587B02E
:1012700014216846FEF7DCFF0948016841F00201CD
:1012800001600068694600F0020005904FF40040DC
:101290000090012001900348FFF732F807B000BD2D
:1012A00030380240000402407047FFF715B90000D3
:1012B00030B593B030216846FEF7BAFF14210CA870
:1012C000FEF7B6FF1A480025016841F08051016021
:1012D000006800F0805011901648016841F4804188
:1012E00001600068022400F4804011900120009009
:1012F000000401908001CDE90640192008904FF4C8
:10130000A870CDE9090404200B906846FFF75CFA49
:101310000CA90F2081E831004FF4A0500F90E0029B
:10132000109005210CA8FFF763F913B030BD000041
:1013300040380240007000400548016841F47001E7
:10134000016003494FF00060803908607047000079
:1013500088ED00E02DE9F041044600680169E2688B
:1013600021F44051114301612169A068E2690843F9
:101370006169114308432168CA6849F20C639A43C2
:101380000243CA6020684169A26921F44071114397
:101390004161E069192764253226B0F5004F354ACE
:1013A000354920684FF0000806D0884201D09042AD
:1013B00036D1FFF7C7F935E0884201D0904202D11B
:1013C000FFF7C0F901E0FFF7ADF961684A18A0FB2B
:1013D000070148EB0803FEF7F3FE0146B0FBF5F00A
:1013E0000201B1FBF5F06FF01803584301EB8000E8
:1013F00006EBC000B0FBF5F000F0F80002EB400295
:10140000B1FBF5F0584301EB800006EBC000B0FBE8
:10141000F5F000F00700216810448860BDE8F08115
:10142000FFF780F961688B0F8A00A0FB0701FEF7C8
:10143000C7FE0146B0FBF5F06FF01802504301EB18
:10144000800006EB0010B0FBF5F000F0F002B1FBFD
:10145000F5F002EB0012B1FBF5F06FF01803584302
:1014600001EB800006EB0010B0FBF5F000F00F0080
:10147000D1E7000000140140001001402DE9F041C7
:10148000984617460E460446069D1DE0681C1BD074
:101490002DB1FFF71BF8A0EB0800A84214D9206873
:1014A000C16821F4D071C1602068416921F0010157
:1014B0004161202084F8390084F83A00002084F843
:1014C00038000320BDE8F0812068006836EA00009B
:1014D00004D00020B842D9D00020F3E70120F9E77A
:1014E000FEE700000FB4054B10B503A9044A0298AB
:1014F00000F028F810BC5DF814FB0000E9160008A5
:10150000480000200907090E002804DB00F1E02054
:1015100080F80014704700F00F0000F1E02080F820
:10152000141D704702E008C8121F08C1002AFAD132
:1015300070477047002001E001C1121F002AFBD153
:10154000704700002DE9FF4F89B09B4604460025F7
:1015500006E025280BD05A460B999047641C6D1C59
:1015600020780028F5D10DB02846BDE8F08F00277F
:10157000B8460122474900E0074314F8013F203BE9
:1015800002FA03F00842F7D120782E2819D114F876
:10159000010F47F004072A280ED06FF02F022078A1
:1015A000A0F1300109290CD808EB880102EB4101B8
:1015B00000EB0108641CF2E70A98641C50F8048BE5
:1015C0000A9020780028CED0642808D0692806D058
:1015D00075281ED05A460B9990476D1C58E00A9901
:1015E0004FF00A0901C90A91002802DA40422D2170
:1015F00002E0390504D52B218DF82010012103E0EC
:10160000F90704D02021F7E78A4608AE0DE0002153
:10161000FAE70A994FF00A0901C90A91F7E7494622
:10162000FEF711FE303106F8011D0028F7D1ADEBB1
:10163000060000F12009780701D44FF00108C845E1
:1016400002DDA8EB090000E000208046002706E04C
:1016500008A85A46C05D0B9990476D1C7F1C5745E2
:10166000F6DB04E030205A460B9990476D1CB8F128
:101670000001A8F10108F5DC05E016F8010B5A4657
:101680000B9990476D1CB9F10001A9F10109F4DC37
:10169000641C65E70928010070B5054600244FF475
:1016A0007A7603E0304600F005F8641CAC42F9D3CA
:1016B00070BD000070B54FF0E02400226569094953
:1016C000A36909684843A1699942FCD002D2A3EBFF
:1016D000010302E0A5EB010633441A440B468242A3
:1016E000F1D370BD0000002013B5642301226946C8
:1016F0000248FFF793FA00981CBD00004C00002040
:10170000FEF7F2FEFFF7D4FDFFF73EFDFFF770FD99
:101710001349A820086000F06BF8124C124D4FF4EA
:10172000FA7600BF00F09EF8002814D10FA0FFF752
:10173000D9FEB4F90430B4F90220B4F9001019A0AC
:10174000FFF7D0FEB5F90430B5F90220B5F9001065
:101750001DA0FFF7C7FE3046FEF7C0FDE2E7000020
:101760000000002020000020260000202D2D2D2D1F
:101770002D2D2D2D2D2D2D2D2D2D2D2D2D2D2D2D99
:101780002D2D2D2D2D2D2D2D2D2D2D2D2D2D2D2D89
:101790002D2D2D2D2D2D2D2D2D2D2D2D2D2D2D0D99
:1017A0000A0000006163632D783A2025642C2061D3
:1017B00063632D793A2025642C206163632D7A3A86
:1017C0002025640D0A0000006779726F2D783A2099
:1017D00025642C206779726F2D793A2025642C209E
:1017E0006779726F2D7A3A2025640D0A0000000097
:1017F00010B500F005F808B1002010BD012010BDA3
:1018000010B580216B20FFF7A0FC6420FFF744FF98
:1018100000216B20FFF799FC0320FFF762FC0320F7
:10182000FFF75AFCC820FFF779FC00213820FFF7AA
:101830008CFC00216A20FFF788FC7520FFF7F4FB81
:10184000682801D0012010BD01216B20FFF77DFC2D
:1018500000216C20FFF779FCC820FFF75FFC002017
:1018600010BD00001FB56B460E223B216920FFF71B
:10187000FBFB040035D1BDF8000041BA1A480288CC
:101880008A1AA0F10C010A80BDF80220438852BADE
:10189000D21A4A80BDF80420808852BA101A888073
:1018A00011489DF80910801D0288891A9DF80820AA
:1018B00041EA0222A0F10C010A809DF80B20438826
:1018C000D21A9DF80A3042EA03224A809DF80D2080
:1018D0008088101A9DF80C2040EA02208880FFF7CB
:1018E0002FFB04B0204610BD2C000020000000009B
:1018F00000000000010203040607080900000000C0
:101900000102030424190008000000204C0000001C
:1019100024150008701900084C0000204404000041
:101920003415000800000000000000000000000066
:1019300000000000000000000000000000000000A7
:101940000000000000000000000000000000000097
:101950000000000000000000000000000100000086
:1019600010000000000000000024F400000000004F
:040000050800018965
:00000001FF
