:020000040800F2
:10000000A84100209D01000847180008611700085A
:1000100045180008A7030008BD24000800000000E0
:10002000000000000000000000000000B3220008F3
:10003000A90300080000000049180008B5220008C4
:10004000B7010008B7010008B7010008B7010008B0
:10005000B7010008B7010008B7010008B7010008A0
:10006000B7010008B7010008B7010008B701000890
:10007000B7010008B7010008B7010008B701000880
:10008000B7010008B7010008B7010008B701000870
:10009000B7010008B7010008B7010008B701000860
:1000A000B7010008B7010008B7010008B701000850
:1000B000B7010008B7010008B7010008B701000840
:1000C000B7010008B7010008B7010008B701000830
:1000D000B7010008B7010008B7010008B701000820
:1000E000B7010008B7010008B7010008B701000810
:1000F000B7010008B7010008B7010008B701000800
:10010000B70100087D180008B7010008B701000812
:10011000B7010008B7010008B7010008B7010008DF
:10012000B7010008B7010008B7010008B7010008CF
:10013000B7010008B7010008B7010008B7010008BF
:10014000B7010008B7010008B7010008B7010008AF
:10015000B7010008B7010008B7010008B70100089F
:10016000B7010008B7010008B7010008B70100088F
:10017000B7010008B7010008B7010008000000003F
:10018000B7010008B7010008DFF80CD000F090F8C4
:1001900000480047254B0008A8410020064880473A
:1001A00006480047FEE7FEE7FEE7FEE7FEE7FEE75C
:1001B000FEE7FEE7FEE7FEE74123000889010008AD
:1001C0002DE9F05F0546002092469B46884606468C
:1001D000814640241BE0284641464746224600F01F
:1001E00057F853465A46C01A914110D31146184643
:1001F000224600F03EF82D1A67EB01084F462246D2
:100200000120002100F035F817EB00094E41201EB7
:10021000A4F10104DFDC484631462A464346BDE8E6
:10022000F09FD2B201E000F8012B491EFBD27047CB
:100230000022F6E710B513460A4604461946FFF7B2
:10024000F0FF204610BD30B50B46014600202022AD
:10025000012409E021FA02F59D4205D303FA02F5D3
:10026000491B04FA02F52844151EA2F10102F1DC33
:1002700030BD202A04DB203A00FA02F1002070474A
:100280009140C2F1200320FA03F3194390407047D4
:10029000202A04DB203A21FA02F00021704721FADB
:1002A00002F3D040C2F12002914008431946704742
:1002B000064C074D06E0E06840F0010394E80700B3
:1002C00098471034AC42F6D3FFF762FFBCFE020839
:1002D000DCFE020810B501240821034800F08AF969
:1002E00000B10024204610BD000C02407047000001
:1002F0000146014800F00ABEB820002010B50448AD
:1003000000F016FE042801D0012010BD002010BD11
:10031000B820002010B500F015F8012801D0012008
:1003200010BD074800F01EFF040006D14FF4006125
:10033000034800F0A3FC00B10124204610BD0000DA
:10034000B820002008B501208DF80000FFF7C2FF9B
:1003500010B900208DF800009DF8000008BD0000D5
:1003600038B50024009313460A460146034800F0BE
:1003700091FF00B10124204638BD0000B8200020C4
:100380007047000038B50024009313460A46014622
:10039000034801F083F800B10124204638BD000075
:1003A000B82000207047FEE770477047002200F039
:1003B00001B8000030B50E4B054601205C7A002CD8
:1003C00014D1587A1C54587A03EB800045605D7A4A
:1003D00003F108002A54587A421C5A7230300870CF
:1003E0003A2048702F208870CC70002030BD00006B
:1003F0009C21002090F83510022903D0802141650E
:1004000001207047052180F835100068016821F04F
:10041000010101600020704770B5044600F0F0F85B
:100420000546601C02D004480078044400F0E8F857
:10043000401BA042FAD370BD080000202DE9F84F00
:1004400000224FF0010803254FF00F0E0B6808FA49
:1004500002F42340A3426ED14E68012E05D0022E35
:1004600003D0112E01D0122E12D186684FEA420C11
:1004700005FA0CF7BE43CF6807FA0CF737438760DD
:100480004668A6430C79C4F3001494403443446096
:10049000C668570005FA07FC8C6826EA0C06BC40C3
:1004A0003443C4604C68022C01D0122C13D1D40800
:1004B00000EB8404A346D4F8209054074FEAD46A92
:1004C0000EFA0AF629EA06090E6906FA0AF646EA5B
:1004D0000906CBF8206006680C7926EA0C0604F0C1
:1004E0000304BC40344304604C68E40065D5364CDA
:1004F000266846F480462660246822F0030604F449
:1005000080440094314C3444A446D4F808489607FB
:10051000370F0EFA07F6B4432D4EB04201D1002634
:1005200024E02C4EB04201D101261FE02A4EB042F9
:1005300002D102261AE040E0284EB04201D1032643
:1005400014E0274EB04201D104260FE0254EB04200
:1005500001D105260AE0244EB04201D1062605E06D
:10056000224EB04201D1072600E00826BE402643B5
:10057000CCF808681E4E34684F689C43FF0300D5D2
:100580001C4334601A4C241D26684F689E43BF03E9
:1005900000D51E432660164E083634684F689C43CB
:1005A000FF0200D51C433460114E0C3634684F688E
:1005B0009C43BF0200D51C433460521C102AFFF438
:1005C00045AFBDE8F88F00004438024000300140DC
:1005D000000002400004024000080240000C0240FB
:1005E000001002400014024000180240001C0240AB
:1005F000003C01400069084000D001207047000025
:1006000001488068704700000800002002488168A7
:100610000278114481607047080000200B4810B533
:10062000016841F400710160016841F4806101607A
:10063000016841F480710160032000F06FF8002030
:1006400000F006F800F024F8002010BD003C024045
:1006500070B50D4D04464FF47A712878B1FBF0F077
:100660000A490968B1FBF0F000F0FEFF48B9102C10
:1006700007D200222146501E00F030F800206C60A6
:1006800070BD012070BD0000080000201400002093
:100690000A4808B5016841F480410160006800F42F
:1006A000804000900548001F016841F080510160C2
:1006B000006800F08050009008BD000044380240FF
:1006C000002809DB00F01F02012191404009800051
:1006D00000F1E020C0F8001170470000F0B40E4BAC
:1006E0001B680C46C3F30223C3F10705042D00D990
:1006F0000425191D072901D2002300E0DB1E012675
:1007000006FA05F1491E214099409E40761E16408A
:100710003143F0BC01F0E4BE0CED00E0064900F00E
:10072000070208684FF6FF03184040EA0220034A18
:1007300010430860704700000CED00E00000FA056F
:100740002DE9F0470E46050065D0DFF81481D8F892
:100750000000F7B200F00F00B04207D288F8007036
:10076000D8F8000000F00F00B04254D128683D4C8A
:10077000810712D5400703D5206840F4E05020607F
:100780002878000703D5206840F460402060206886
:10079000A96820F0F000084320602878C0072DD019
:1007A000304968680839012812D0022813D003287C
:1007B00011D00968890700292DDA216821F0030189
:1007C00001432160FFF71CFF814641F2883A0EE0A9
:1007D00009688903EFE709688901ECE7FFF710FF73
:1007E000A0EB0901514502D90320BDE8F08720683C
:1007F000696800F00C00B0EB810FEFD1D8F8001061
:10080000404601F00F01B14207D90770006800F0BF
:100810000F00B04201D00120E7E72878400705D556
:100820002068E96820F4E050084320602878000739
:1008300006D52068296920F4604040EAC1002060A4
:1008400000F038F82168084AC1F30311515CC84030
:100850000649086006480068FFF7FAFE0020C4E772
:10086000003C024008380240C45200081400002036
:100870000C0000200448054900680968044AC1F3D7
:100880008221515CC84070471400002008380240A3
:10089000D45200080448054900680968044AC1F3B5
:1008A0004231515CC84070471400002008380240B3
:1008B000D4520008154810B5006810F00C02144816
:1008C00013D01449042A0FD0082A0ED10F4C241F2C
:1008D0002268236802F03F025B0207D52068C0F35C
:1008E0008810A0FB010106E0084610BD2168C1F395
:1008F0008811A1FB00010023FFF762FC2168C1F30E
:100900000141491C4900B0FBF1F010BD083802401C
:100910000024F40040787D012DE9F84F04006ED0EA
:100920002078DFF83C93C007A9F104054AD009F10B
:1009300004000168C1F38101012908D00068C0F3F7
:10094000810002280AD1D9F80000400206D52868A3
:10095000800337D560680028E1D033E06068B0F5E7
:10096000803F10D0B0F5A02F286810D020F4803040
:100970002860286820F4802028606068A8B1FFF70C
:100980003FFE06460DE0286840F48030F4E740F46E
:1009900080202860F7E700BFFFF732FE801B642845
:1009A00073D828688003F7D50CE0FFF729FE0646C8
:1009B00005E000BFFFF724FE801B6428F0D82868FC
:1009C0008003F7D42078DFF89C8280074FF0000A7C
:1009D0003ED5A348001D016811F00C0F08D0006837
:1009E000C0F3810002280BD1D9F80000400207D4DF
:1009F0002868800716D5E068012800D112E02BE1B5
:100A0000E068B8B10120C8F80000FFF7F9FD06461C
:100A100005E000BFFFF7F4FD801B0228C0D828685E
:100A20008007F7D52868216920F0F80040EAC10066
:100A300028600DE0C8F800A0FFF7E2FD064604E0DC
:100A4000FFF7DEFD801B02281FD828688007F7D437
:100A50002078000722D5824E83486169703671B1D3
:100A600001210160FFF7CCFD074604E0FFF7C8FD58
:100A7000C01B022809D830688007F7D50EE0C0F8FF
:100A800000A0FFF7BDFD074605E082E0FFF7B8FDD7
:100A9000C01B02287DD830688007F7D42078400733
:100AA00068D5DFF8BCB100270BF13C0BDBF8000088
:100AB000C0000BD4DBF8001041F08051CBF80010DF
:100AC000DBF80000012700F080500090674E30688E
:100AD000C00510D4306840F480703060FFF790FD9E
:100AE000009005E0FFF78CFD0099401A022850D8CD
:100AF0003068C005F6D55A4EA0686C3601280FD074
:100B00000528306810D020F001003060306820F0F7
:100B100004003060A068B8B1FFF772FD00900FE0EC
:100B2000306840F00100F4E740F004003060F7E77F
:100B3000FFF766FD0099411A41F28830814266D87C
:100B400030688007F4D50EE0FFF75AFD009007E00B
:100B5000FFF756FD0099411A41F28830814256D87C
:100B600030688007F4D42FB1DBF8001021F08051F9
:100B7000CBF80010A069C8B33949091D0968C1F351
:100B8000810102294AD00228504607D0C8F86000E7
:100B900000E03CE0FFF734FD04463BE04746C8F880
:100BA0006000FFF72DFD064605E000BFFFF728FDBA
:100BB000801B02282BD828688001F7D4D4E90701CC
:100BC0000843A16A2A4A490802EB0141626A41EAE4
:100BD0008211084394F82C1040EA0161C9F8001012
:100BE00001203866FFF70CFD044606E036E000BF42
:100BF000FFF706FD001B022809D828688001F7D5F9
:100C00002CE000BFFFF7FCFC001B022802D90320E8
:100C1000BDE8F88F28688001F4D41FE00128F7D0E0
:100C2000D9F80000E26900F48001914214D1226AEF
:100C300000F03F0191420FD147F6C071626A014056
:100C4000914209D1A26A00F44031914204D1E16A93
:100C500000F07060884201D00120D9E70020D7E77A
:100C60000438024000004742800E474200700040B6
:100C70000000FFFF10B5FFF739FB10BD2DE9FE4363
:100C8000044603200F4684F83400606C03285AD0D1
:100C9000B7F5805F57D04FF4006600254FF08068AD
:100CA000B7421CD1009501950021206800F0E3FDBA
:100CB000800121D46946204601F05EF998BB019875
:100CC000400332D5B4F850000104206800F00EFE55
:100CD00048BB0221206822E0A06B284327E01FB117
:100CE000A06B40F0006022E0009501950021206893
:100CF00000F0C1FD800101D53546EDE7694620468B
:100D000001F03AF978B90198C0030ED5B4F8500053
:100D10000104206800F0EAFD28B90021206800F0F5
:100D200032FE0028D8D00546D6E74546D4E7A06372
:100D3000A06B012558B121680C48886384F83450B1
:100D40000120BDE8FE83A06B40F08050EFE7211D3D
:100D5000D4E905060EC90097CDE90106206800F028
:100D600093FD84F834500020EBE70000FF054000BD
:100D700070470000F0B5426E920F0A70426EC2F3E7
:100D800083624A70426EC2F301628A70426E120C34
:100D9000CA70B0F86420120A0A7190F864204A718F
:100DA000826E120DCA80826EC2F303420A72B0F8DC
:100DB0006820C2F3C0324A72B0F86820C2F38032B1
:100DC0008A72B0F86820C2F34032CA72B0F8682064
:100DD000C2F300320A7300264E73426C4FF4007562
:100DE000012462B1012A3AD0026847499163816BBC
:100DF00041F08051816380F834400120F0BDB0F8AB
:100E00006820C36E9205120D42EA93720A61C26EA7
:100E1000C2F3C2620A75C26EC2F302624A75C26E42
:100E2000C2F342528A75C26EC2F38242CA75C26E62
:100E3000C2F3C2320A760A69521C42650B7E03F085
:100E400007039B1C9A4042650B7A03F00F0704FAD4
:100E500007F383655B0A5A43C0E917250EE090F853
:100E60006820C36E9206920A42EA13420A610A6936
:100E7000521C92024265C0E91652056630F86C2F8A
:100E8000C2F3803201F8192F0288C2F3C6124A70E9
:100E9000027802F07F028A704268D20FCA704268FC
:100EA000C2F341720A714268C2F382624A714268B7
:100EB000C2F383528A714268C2F34052CA710E7201
:100EC0004268C2F300424A728288C2F3C0328A7218
:100ED0008288C2F38032CA728288C2F340320A73B7
:100EE0008288C2F300324A738288C2F381228A73F5
:100EF0008288C2F30122CA730079C0F346000874E5
:100F00004C740020F0BD0000FF054000426C0A60F8
:100F1000826C4A60C26C8A60026DCA60426D0A616E
:100F2000826D4A61C26D8A61006EC861002070479F
:100F300070B50446B0F8500000250104206800F0A8
:100F40002CFE18B1A16B0143A16304E000212068CD
:100F500000F091FC0546C5F3432070BDF8B5056B64
:100F600004460068416B09041BD5290719D5D4E94B
:100F70000A56002E14D00027206800F09FFC05F8C8
:100F8000010B010A05F8011B010C05F8021B000EFC
:100F9000361F7F1C05F8010C082FEDD3C4E90A5653
:100FA000F8BD416B4FF00006C9054FF0010744D56D
:100FB000390281632068C16B4CF23A329143C163BC
:100FC0002068C16A21F00101C16228071DD515F012
:100FD000220F09D0206800F011FE28B1A16B014357
:100FE000A1632046FFF7C4FE216840F23A508863AF
:100FF00084F834702663A80703D0204600F046FA30
:10100000F8BD204600F046FAF8BD2806FCD5A80633
:1010100009D5206800F0F2FD28B1A16B0143A1635E
:101020002046FFF7A5FEA807EED12068C16A21F08F
:101030000801C16284F83470E3E7416B490424D5A8
:10104000290722D5D4E90856002EDDD05FF000072D
:1010500015F8010B009015F8011B361F40EA01201E
:10106000009015F8021B40EA0140009015F8011CA1
:1010700040EA016000906946206800F032FC7F1C65
:10108000082FE5D3C4E90856F8BD416B40F23A2277
:101090001142F9D0416B890703D5A16B41F00201E0
:1010A000A163416B090703D5A16B41F00801A1635E
:1010B000416B890603D5A16B41F02001A163416B0F
:1010C000C90603D5A16B41F01001A163416B8905ED
:1010D00003D5A16B41F00801A16340F23A7181632D
:1010E0002068C16B40F23A329143C163206800F03E
:1010F00085FDA16B0843A063280706D584F83470EA
:1011000026632046FFF734FEF8BD2806FCD515F00F
:10111000300F0CD0E16B11480865E06BFFF76AF9FE
:101120000028F1D0E06BBDE8F84000F003BFA8074D
:101130000CD0216C0A480865206CFFF75BF9002889
:10114000E2D0206CBDE8F84000F0D2BEA66384F87F
:10115000347026632046FFF78DFDF8BD351F00086B
:10116000F11E000870B504000ED094F8340000257C
:1011700018B92577204600F03BF8032084F83400A6
:10118000204600F00BF808B1012070BDA56325636F
:10119000012084F83400002070BD0000FEB5002559
:1011A000044676200095CDE9015029460B460A46B3
:1011B000206800F069FB08B10120FEBD0B4E46F827
:1011C000A05F206800F072FB01253560204600F02A
:1011D000B5FF20B9204600F039FF0028EDD084F893
:1011E0003450A16B0143A163E6E700000080254273
:1011F000F0B587B0044614216846FFF719F8214975
:10120000206888423BD120480024016841F40061F5
:101210000160006800F4006005901B481438016804
:1012200041F004010160016801F0040105910168C9
:1012300041F0080101600068022500F008000590F7
:101240004FF4F850CDE9000502AA03260C2782E8E6
:10125000D00069460D48FFF7F1F80420CDE90005FC
:1012600002AA694682E8D0000948FFF7E7F80022A1
:1012700011463120FFF732FA3120FFF721FA07B08B
:10128000F0BD0000002C014044380240000802403C
:10129000000C02402DE9F04F87B09B4616460D46E4
:1012A0000446FFF7ADF900903DB194F834000128F1
:1012B00007D0A06B40F000500DE0A06B40F0006044
:1012C00009E00027A763E16D06EB0B00884204D913
:1012D000A06B40F00070A06395E0032084F8340018
:1012E0002068C762606C012800D076024FF400715C
:1012F000206800F02FFBDFF890A1012140B12368A6
:10130000C3F838A0A26B0243A26384F834107AE0D9
:101310004FF0FF3001904FEA4B2002909020039055
:101320000220CDE9040706918846B94601A9206844
:1013300000F08BFABBF1010F06D902202063314681
:10134000206800F09BFB05E0C4F83080314620683F
:1013500000F0ADFB30B12268C2F838A0A16B0143A8
:10136000A1634CE0029E1EE0406B000413D596B1D1
:101370000027206800F0A2FA05F8010B010A05F821
:10138000011B010C05F8021B000E361F7F1C05F81F
:10139000010C082FEDD3FFF733F90099411A10988B
:1013A00081421DD2E0B12068426B40F22A310A42EC
:1013B000DAD0416BC90509D5BBF1010F06D9616CC3
:1013C000032903D000F01AFC0028C4D12068416B27
:1013D00009071AD5C0F838A0A06B40F0080051E00A
:1013E0002168C1F838A0A06B40F00040A06384F8E9
:1013F0003480C4F83090032007B0BDE8F08F84F843
:101400003480C4F830900120F6E7416B890705D598
:10141000C0F838A0A06B40F0020033E0416B8906B1
:101420001CD5C0F838A0A06B40F020002AE000BF17
:1014300000F044FA05F8010B010A05F8011B010C44
:1014400005F8021B000E05F8010C361FFFF7D8F84F
:101450000099411A109881420ED268B12068416B00
:10146000890201D5002EE3D1216840F23A50886309
:1014700084F834800020BFE72168C1F838A0A06B51
:1014800040F00040A063BAE7FF05400010B5FEF74A
:1014900077FF10BD10B5FEF785FF10BD2DE9FF4F9A
:1014A0008DB016460D460446FFF7AAF80B903DB1E5
:1014B00094F83400012807D0A06B40F000500DE0F4
:1014C000A06B40F0006009E00027A7631098E16D71
:1014D0003044884204D9A06B40F00070A0638BE0D8
:1014E000032084F834002068C762606C012800D0B3
:1014F00076024FF40071206800F02CFADFF864B136
:10150000012140B12368C3F838B0A26B0243A26343
:1015100084F8341070E04FF0FF3003901098894643
:10152000400204909020CDE90507CDE90771BA4645
:1015300003A9206800F089F91098012806D9202015
:1015400020633146206800F073FB05E01020206323
:101550003146206800F085FB5FEA000806D021686C
:10156000C1F838B0A06B40EA080071E0049E27E0A3
:10157000406B40041CD5DEB15FF0000715F8010B8D
:10158000009015F8011B361F40EA0120009015F865
:10159000021B40EA0140009015F8011C40EA01607E
:1015A00000906946206800F09CF97F1C082FE5D365
:1015B000FFF726F80B99411A1A98814220D2F8B108
:1015C0002068416B40F21A321142D1D0416BC905FB
:1015D00023D51099012920D9616C03291DD000F071
:1015E0000DFBD0B12268C2F838B0A16B0143A163F2
:1015F00084F83490C4F830A0012011B0BDE8F08F19
:101600002168C1F838B0A06B40EA0800A06384F8F4
:101610003490C4F830A00320EFE72068416B09073D
:1016200005D5C0F838B0A06B40F0080010E0416B61
:10163000890705D5C0F838B0A06B40F0020007E07C
:10164000416BC90606D5C0F838B0A06B40F0100059
:10165000A063CDE740F23A51816384F834900020D2
:10166000CBE70000FF05400010B5401EB0F1807FC1
:1016700001D3012010BD4FF0E02460610F216017FD
:1016800000F02EFF0020A06107202061002010BD87
:1016900070B5040004D094F83900002510B106E0BC
:1016A000012070BD84F83850204600F023F8242033
:1016B00084F839002068C16821F40051C1602046D7
:1016C00000F068FE2068016921F490410161206802
:1016D000416921F02A0141612068C16841F400514B
:1016E000C160E563202084F8390084F83A000020C6
:1016F00070BD000010B586B0044614216846FEF7A0
:1017000097FD14492068884221D1134800210268BE
:1017100042F010020260006800F0100005900E48D0
:101720001438026842F001020260006800F0010013
:1017300005904FF4C06000900220CDE90101032024
:1017400003900720049069460448FEF777FE06B030
:1017500010BD00000010014044380240000002406B
:10176000FEE7000010B504490448FEF71FFE0249D9
:10177000491E087010BD000002000020B052000891
:1017800000B587B014216846FEF752FD15480021C8
:10179000026842F004020260026802F0040205924C
:1017A000026842F008020260026802F00802059234
:1017B000026842F001020260026802F00102059232
:1017C000026842F0800202600068029100F080002E
:1017D00005900820CDE9000169460348FEF72EFE7A
:1017E00007B000BD30380240000C024006480549F1
:1017F0000160002141608160C160016141618161DE
:1018000070470000002C0140B82000200C4810B5A3
:101810000A4901604FF4E1314160002181600C22EE
:10182000C160C0E904128161C161FFF731FF002886
:1018300003D0BDE81040FEF7B8BD10BD0010014058
:101840003C210020FEE7704770470A6842624A6800
:101850008262D1E902231A43D1E904310B43C16A00
:101860001A4321F0F7011143C1620020704700685C
:1018700000F0030070470844406970470148FFF7D3
:101880006DBB0000B820002070B50DF1100C1143A5
:101890009CE870002343194329434268314347F6CB
:1018A000FF639A430A434260002070BD10B50321D4
:1018B00001600220FEF7B0FD002010BDD0F88000CE
:1018C00070470A688260D1E901231A43D1E90331E4
:1018D0000B43C1681A436FF30B011143C160002031
:1018E00070470968C0F880100020704710B586B0B6
:1018F00004463720CDE900104020029000200390DC
:101900004FF48060049069462046FFF7DAFF41F209
:1019100088323721204600F0BDF906B010BD000026
:1019200010B504460A4886B001432920CDE90010CD
:1019300040200290002003904FF48060049069469C
:101940002046FFF7BEFF204600F05CFA06B010BD4F
:101950000000108010B586B004461020CDE90010BC
:1019600040200290002003904FF48060049069466C
:101970002046FFF7A6FF41F288321021204600F0F2
:1019800089F906B010BD10B586B004460620CDE931
:10199000001040200290002003904FF480600490DB
:1019A00069462046FFF78DFF41F288320621204626
:1019B00000F070F906B010BD30B585B000240546C2
:1019C000009401944FF480600294CDE9034069468D
:1019D0002846FFF776FF0B484FF4FA510068B0FB3A
:1019E000F1F041F288314843401E03D24FF00040ED
:1019F00005B030BD696B0906F6D5C520A863204641
:101A0000F6E700001400002070B585B004464FF4DE
:101A1000D570009001A908204025002681E86100CA
:101A2000C001049069462046FFF74BFF12484FF46F
:101A3000FA510068B0FBF1F041F288314843401E92
:101A400003D24FF0004005B070BD616B11F0450F3F
:101A5000F5D00905F3D4606B400701D5042003E0FD
:101A6000606BC00702D00120A063ECE7606B40060A
:101A700000D5A5633046E6E71400002010B586B017
:101A800004461220CDE9001040200290002003906F
:101A90004FF48060049069462046FFF712FF41F240
:101AA00088321221204600F0F5F806B010BD10B5BE
:101AB00086B004461120CDE900104020029000209D
:101AC00003904FF48060049069462046FFF7F9FECA
:101AD00041F288321121204600F0DCF806B010BD3A
:101AE00010B586B004460720CDE9002040200290C2
:101AF000002003904FF48060049069462046FFF771
:101B0000E0FE41F288320721204600F0C3F806B01B
:101B100010BD10B586B0044600210220CDE90010AA
:101B2000C020CDE902014FF4806004906946204650
:101B3000FFF7C7FE204600F03DF906B010BD10B516
:101B400086B004460920CDE90010C0200290002094
:101B500003904FF48060049069462046FFF7B1FE81
:101B6000204600F027F906B010BD10B586B0044637
:101B700000213320CDE900104020CDE90201000111
:101B8000049069462046FFF79CFE41F288323321DB
:101B9000204600F07FF806B010BD10B586B00446B0
:101BA0000D20CDE9001040200290002003904FF45A
:101BB0008060049069462046FFF783FE41F2883238
:101BC0000D21204600F066F806B010BD30B585B096
:101BD0000C46054600210320CDE900104020CDE948
:101BE00002010001049069462846FFF76AFE22467A
:101BF0000321284600F028F905B030BD10B586B0A5
:101C0000044600210C20CDE900104020CDE902015E
:101C10000001049069462046FFF753FE034A0C2159
:101C2000204600F037F806B010BD000000E1F505D1
:101C300010B586B004461920CDE90010402002906E
:101C4000002003904FF48060049069462046FFF71F
:101C500038FE41F288321921204600F01BF806B008
:101C600010BD10B586B004461820CDE90010402004
:101C70000290002003904FF4806004906946204653
:101C8000FFF71FFE41F288321821204600F002F8CB
:101C900006B010BD454B10B51B684FF4FA54B3FBAA
:101CA000F4F353435B1E02D24FF0004010BD426B71
:101CB00012F0450FF6D01205F4D4426B520703D54B
:101CC00004218163084610BD426BD20702D0012176
:101CD000816305E0C52282630269D2B28A4201D0E3
:101CE000012010BD0021FFF7C6FD3149084201D196
:101CF000002010BD002802DA4FF0007010BD410036
:101D000001D5402010BD810001D5802010BDC1004B
:101D100002D54FF4807010BD010102D54FF4007060
:101D200010BD410102D54FF4806010BDC10102D544
:101D30004FF4006010BD010202D54FF4805010BD79
:101D4000410202D54FF4005010BD810202D54FF47C
:101D5000804010BDC10202D54FF4004010BD4103C8
:101D600002D54FF4003010BD810302D54FF480201E
:101D700010BDC10302D54FF4002010BD010402D5EF
:101D80004FF4801010BD410402D54FF4001010BD77
:101D9000810402D54FF4800010BD000702D54FF436
:101DA000000010BD4FF4803010BD00001400002072
:101DB00008E0FFFD12494FF4FA520968B1FBF2F155
:101DC00041F288325143491E02D24FF00040704721
:101DD000426B12F0450FF6D01205F4D4416B49075F
:101DE00003D50421816308467047416BC90703D0BE
:101DF0000121816308467047C52181630020704737
:101E0000140000200F494FF4FA520968B1FBF2F1B7
:101E100041F288325143491E02D24FF000407047D0
:101E2000426B12F0450FF6D01205F4D4416B49070E
:101E300003D50421816308467047C52181630020D2
:101E4000704700001400002030B5204B4FF4FA54C6
:101E50001B68B3FBF4F341F2883463435B1E02D288
:101E60004FF0004030BD446B14F0450FF6D0240510
:101E7000F4D4436B5B0703D504218163084630BD6E
:101E8000436BDB0702D00121816303E00369DBB20E
:101E90008B4201D0012030BDC52181630021FFF7B5
:101EA000EAFC10F4604F04D0410406D54FF4005012
:101EB00030BD000C1080002030BD000402D54FF46E
:101EC000805030BD4FF4803030BD00001400002041
:101ED00010B5064C01202070FEF710FA18B92078D2
:101EE00020F001002070207810BD000000000020CC
:101EF00010B5846B40F23A50216888632046FFF7A2
:101F000017F8012184F8341000212163062801D03C
:101F1000052805D12068FFF771FEA16B0843A06377
:101F2000A06B0028204602D0FEF722FF10BDFEF76E
:101F3000A1FE10BD10B5846B40F23A502168886351
:101F40002046FEF7F5FF012184F8341000212163BB
:101F5000062801D0052805D12068FFF74FFEA16BA8
:101F60000843A063A06B0028204602D0FEF700FFC4
:101F700010BDFEF77FFE10BD2DE9F04F89B00D4674
:101F80000446FEF73DFB0026834600960196374641
:101F900008212068FFF7DEFC002834D1B4F8500097
:101FA00001042068FFF7A2FC00282CD1401E4FF04E
:101FB0000808CDE9020830204FF00209CDE90409F4
:101FC0000120CDE9067002A92068FFF73EFC2068D9
:101FD000FFF7CBFD002816D1EA4640F22A472068D9
:101FE000416B394212D1416B890204D5FFF766FC7F
:101FF0004AF82600761CFEF703FBA0EB0B00401C02
:10200000EDD14FF0004009B0BDE8F08F416B0907FA
:1020100003D5C0F838800820F5E7416B890703D560
:10202000C0F838900220EEE7416B890603D52021E5
:1020300081630846E7E740F23A518163019800BAAC
:102040002860009800BA68600020DCE710B590B006
:1020500004460120ADF838002068FFF708FC00288E
:1020600054D0606C032842D02068FFF752FD00284E
:102070004AD100212068FFF7FEFB60670421206839
:10208000FFF7F9FBA06708212068FFF7F4FBE06782
:102090000C212068FFF7EFFBC4F88000606C032878
:1020A00025D00EA92068FFF791FD00282CD1606C87
:1020B00003281CD0BDF83800206501042068FFF714
:1020C0003EFD002820D100212068FFF7D4FB606688
:1020D00004212068FFF7CFFBA06608212068FFF7E6
:1020E000CAFBE0660C212068FFF7C5FB20670421CE
:1020F0002068FFF7C0FB000DE06403A92046FEF74F
:1021000039FE30B14FF0805010B010BD4FF08060FC
:10211000FAE7B4F85000002302042068FFF7E0FC5F
:102120000028F1D104F1100007C88DE8070094E8F9
:102130000F00FFF7A9FB0020E6E700002DE9F84FAC
:102140000026044600963546B0460068FFF734FC8A
:10215000002827D12068FFF757FC4FF0805B4FF035
:1021600001094FF6FF7748B1A6642068FFF724FC09
:10217000002817D1A06C012802D020E0C4F84890B4
:1021800000212068FFF7B2FB58B918E00021206851
:10219000FFF7ACFB002805D151462068FFF7C0FBD4
:1021A00010B15846BDE8F88F00212068FFF763FBA7
:1021B00005464FEAD0780098401C009002E0DFF816
:1021C0002CA00098B84202D2B8F1000FDED00098DF
:1021D000B84202D34FF08070E4E7680002D5C4F83B
:1021E000449000E066640020DCE70000000010C1BD
:1021F00070B5064C054601202070FEF78BF818B923
:102200002846FFF765FE2070207870BD0000002092
:1022100010B5124888B014460078C00702D00320D9
:1022200008B010BDC1B1012905D0022908D0032989
:102230000CD00420F4E76846FEF75AF806980AE046
:102240006846FEF755F80798208005E06846FEF7D7
:102250004FF80798400A20600020E1E700000020C6
:1022600070B51D46164608460124A31E2A4631466F
:10227000FEF776F828B900BFFEF740F80028FBD13A
:102280000024204670BDFFF723BE000070B51D4638
:10229000164608460124A31E2A463146FEF772F868
:1022A00028B900BFFEF72AF80028FBD100242046F9
:1022B00070BD7047FEF7AAB930B593B030216846BB
:1022C000FDF7B6FF14210CA8FDF7B2FF1A48002550
:1022D000016841F080510160006800F08050119069
:1022E0001648016841F4804101600068022400F44E
:1022F0008040119001200090000401908001CDE900
:102300000640192008904FF4A870CDE90904072071
:102310000B906846FEF700FB0CA90F2081E8310006
:102320004FF4A0500F90E002109005210CA8FEF78A
:1023300007FA13B030BD0000403802400070004082
:102340001048016841F4700101600F48016841F0D4
:10235000010101600C4A00210832116002680B4B38
:102360001A400260031D0A4A1A60026822F48022A1
:10237000026005480C300160024958068039086047
:102380007047000088ED00E000380240FFFFF6FED5
:10239000103000242DE9F041044600680169E2682C
:1023A00021F44051114301612169A068E2690843A9
:1023B0006169114308432168CA6849F20C639A4372
:1023C0000243CA6020684169A26921F44071114347
:1023D0004161E069192764253226B0F5004F354A7E
:1023E000354920684FF0000806D0884201D090425D
:1023F00036D1FEF74FFA35E0884201D0904202D143
:10240000FEF748FA01E0FEF735FA61684A18A0FBCA
:10241000070148EB0803FDF7D3FE0146B0FBF5F0DA
:102420000201B1FBF5F06FF01803584301EB800097
:1024300006EBC000B0FBF5F000F0F80002EB400244
:10244000B1FBF5F0584301EB800006EBC000B0FB98
:10245000F5F000F00700216810448860BDE8F081C5
:10246000FEF708FA61688B0F8A00A0FB0701FDF7F1
:10247000A7FE0146B0FBF5F06FF01802504301EBE8
:10248000800006EB0010B0FBF5F000F0F002B1FBAD
:10249000F5F002EB0012B1FBF5F06FF018035843B2
:1024A00001EB800006EB0010B0FBF5F000F00F0030
:1024B000D1E700000014014000100140FEE70000D9
:1024C0000FB4054B10B503A9044A029800F028F890
:1024D00010BC5DF814FB0000B1460008200000208D
:1024E0000907090E002804DB00F1E02080F8001441
:1024F000704700F00F0000F1E02080F8141D7047D5
:1025000002E008C8121F08C1002AFAD170477047BC
:10251000002001E001C1121F002AFBD1704700001A
:102520002DE9FF4F89B09B460446002506E025288B
:102530000BD05A460B999047641C6D1C20780028DC
:10254000F5D10DB02846BDE8F08F0027B84601222E
:10255000474900E0074314F8013F203B02FA03F02B
:102560000842F7D120782E2819D114F8010F47F02E
:1025700004072A280ED06FF02F022078A0F1300136
:1025800009290CD808EB880102EB410100EB010896
:10259000641CF2E70A98641C50F8048B0A902078B7
:1025A0000028CED0642808D0692806D075281ED00F
:1025B0005A460B9990476D1C58E00A994FF00A094A
:1025C00001C90A91002802DA40422D2102E03905B2
:1025D00004D52B218DF82010012103E0F90704D048
:1025E0002021F7E78A4608AE0DE00021FAE70A99B4
:1025F0004FF00A0901C90A91F7E74946FDF723FEA2
:10260000303106F8011D0028F7D1ADEB060000F1CE
:102610002009780701D44FF00108C84502DDA8EB76
:10262000090000E000208046002706E008A85A467E
:10263000C05D0B9990476D1C7F1C5745F6DB04E08D
:1026400030205A460B9990476D1CB8F10001A8F153
:102650000108F5DC05E016F8010B5A460B99904786
:102660006D1CB9F10001A9F10109F4DC641C65E7F6
:10267000092801002DE9F04705469046891ECA0841
:1026800080899946B2FBF0F36C6B01F007011E19CB
:10269000B2FBF0F300FB13274FF0010A0AFA01F036
:1026A000C4B23146761C284602F025FB10B1012049
:1026B000BDE8F0875146EA1992F83C00204202D06A
:1026C0004FF0010C01E04FF0000CCC4501D102208D
:1026D000EEE7604082F83C00B8F10100E970804606
:1026E000E6D0600010F0FF04E5D1A88901247F1C2A
:1026F0008742E0D30027D4E710B504460020E070FD
:10270000401EA063204602F0F6FA08B1042010BD76
:1027100004F23A2002F081F9A0F52A41553901D09E
:10272000032010BD94F83C00E92805D0EB2814D113
:1027300094F83E00902810D104F1720002F037F9AD
:102740000B49B1EB002F06D004F18E0002F02FF9F7
:102750000849884201D1002010BD0B2206A104F1D6
:102760003C0002F0ABFA08B1022010BD012010BD00
:102770000046415446415433EB7690455846415407
:102780002020200000E0401C02780AB18A42FAD1E1
:10279000D0B27047F0B50022144D134605EB021479
:1027A00026685EB10768BE4209D166688768BE4286
:1027B00005D1A468066BB44204D000E00123521C8A
:1027C000022AEBD3022A01D069B904E04BB90229ED
:1027D00007D01220F0BD05EB02108089B0F5807F94
:1027E00001D00020F0BD1020F0BD00007C210020B1
:1027F00030B50021054B0C4603EB011215688542EC
:1028000000D11460491C0229F6D330BD7C21002080
:1028100070B505681646046D1946AA89002330462E
:10282000241DFDF7CDFC6A890023FDF7C9FC02CC0D
:1028300021B1884204D3401A241DF8E7002070BD5E
:102840002168084470BD026A891E921E8A4201D81E
:1028500000207047426B408901FB00207047000058
:102860002DE9F05F82460C4601F11A0002F0D5F81E
:1028700078BB2078012700F03F00401E00EB80016C
:10288000DFF8589001EBC00500264FF6FF7B00BF34
:1028900019F80600204402F0C0F880466FB1FF2D01
:1028A00017D201F01DFC07463AF815006D1C01F027
:1028B00017FC87420DD1474601E0D84509D1761C67
:1028C0000D2EE5D32078400606D52FB13AF8150035
:1028D00010B10020BDE8F09F0120FBE7DC520008AA
:1028E0002DE9F04706685FEA0108074626D0414611
:1028F000384601F02DFF022841D3411C1CD0316A1B
:10290000814219D8454630784FF0FF3904281CD051
:102910002C46306A641CA04202D80224022D0AD33D
:102920002146384601F014FF80B3012804D0411C31
:1029300002D0AC42EDD10020BDE8F087B56915B1F9
:10294000306AA842DFD80125DDE70122294630465A
:1029500001F036FC04004BD0601C49D001231A461C
:1029600021463046FFF786FE022808D0012808D00D
:10297000B8F1000F07D0F979022908D00FE0012043
:10298000DAE74846D8E70221F9712DE01EE0691C1C
:102990008C4229D0B968691AB9610321F97108F12B
:1029A00001018C4206D1F96909B1491C00E00221FC
:1029B000F96119E0F869012500B9FD612246414637
:1029C000384601F0E4FB80B9FD6113E04A46214638
:1029D000304602F0E3F940B9B8F100000AD00146F0
:1029E0002246304602F0DAF920B101280FD0012446
:1029F0002046A1E7B461D6E90701891E884201D8C3
:102A0000401EF061307940F001003071F0E74C4633
:102A1000EEE700002DE9F84F824600680F680024B9
:102A2000066988462546785D6D1C20282AD32F2804
:102A300023D05C2821D0FF2C49D2A0F181017D292F
:102A40000BD8795D6D1C01EB0020A1F1400280B232
:102A50003F2A02D380397F2939D2012101F01AFBA4
:102A60005FEA000933D0B9F1800F12D2014675A098
:102A7000FFF788FE58BB0CE06D1C795D2F29FBD059
:102A80005C29F9D07A19C8F80020202805D204253D
:102A90000FE026F81490641CC5E7002509E000BF8C
:102AA00006EB440030F8020C202801D02E2802D179
:102AB000641E002CF4D1002026F814003CB10B2237
:102AC00020210AF1400002F00FF9002703E0062060
:102AD000BDE8F88F7F1C36F817002028FAD02E2882
:102AE000F8D01FB145F0030500E0641E2CB106EBE1
:102AF000440030F8020C2E28F7D14FF000094FF0B7
:102B0000080BCDF8009000BF36F8170007F1010759
:102B10005FEA000824D0B8F1200F04D0B8F12E0FDE
:102B200004D1A74202D045F00305EDE700985845CF
:102B300001D2A74219D1BBF10B0F0FD0A74201D090
:102B400045F003050CD84FF0080000904FEA89606B
:102B500027464FF00B0B4FEA1069D5E745F0030508
:102B60009AF84000E52849D04BE04046B8F1800F84
:102B700007D301F0B5FA002101F08CFA804645F048
:102B80000205B8F1FF0F13D90099ABF101008142A2
:102B900004D345F00305CDF800B0B5E70AEB01001A
:102BA0004FEA182280F840200098401C00901CE05A
:102BB000B8F1000F04D0014625A0FFF7E3FD20B1D6
:102BC0004FF05F0845F003050FE0A8F14100192818
:102BD00002D849F0020908E0A8F16100192804D8D8
:102BE000413049F001091FFA80F8009A0AEB02010E
:102BF00081F840800098401C009085E705218AF804
:102C00004010BBF1080F03D14FEA89604FEA106909
:102C1000C9F38100032803D06FEA0901890701D1B4
:102C200045F00205A90709D409F00301012901D1E2
:102C300045F01005012801D145F008058AF84B50F0
:102C4000002045E7222A3A3C3E3F7C7F00000000FE
:102C50002B2C3B3D5B5D00002DE9F05F894605466E
:102C60004022002102F040F885202870C020002674
:102C7000012785F82000B8464024B2464FF0C10B2A
:102C800005F804B0641C05F804A0641CB8F1000F3A
:102C900006D039F816005FEA000801D0761CF6B2BB
:102CA0002819414602F0FDF9A41CE006EED17F1C74
:102CB00039F81600FFB20028E2D185F823606F7062
:102CC000484602F0D6FA014605F12400BDE8F05F5F
:102CD00002F0E7B9401E022812D20A4901EB0011A6
:102CE0008889B0F5807F05D008B1401E80B2888108
:102CF00010B103E00020FAE70020086000207047D0
:102D0000022070477C2100202DE9F0410F46044647
:102D10000021066800F0E2FAE8B900253046A16B10
:102D200001F0E9FFB8B931780429E16B097803D0E3
:102D3000E52905D021B107E041F3C011491C03D0BA
:102D40006D1CBD420AD000E000250121204600F0A4
:102D5000AAF80028E2D0042800D10720BDE8F081BD
:102D60002DE9F05F04460021056800F0B7FA00285D
:102D70004CD1287804280CD0FF264FF0FF38B146FC
:102D8000C4F84C802846A16B01F0B5FF07004ED176
:102D90003EE0286902F06DFA82462FE0686924302F
:102DA00001F03BFE504529D1686940264FF00009EB
:102DB00090F8238017E0F00600D1B61C6869304413
:102DC00001F02BFE01F08CF92969074631F8190052
:102DD00001F086F987420AD1A8F1010000F0FF084E
:102DE00009F10109B61CB8F1000FE4D102E0B8F115
:102DF000000F03D1296931F8190030B100212046B4
:102E000000F0DCF85FEA000BC8D05846BDE8F09F40
:102E1000E16B087850B1CA7AE52802F03F02A2714E
:102E200035D0130704D50F2A31D105E0042738E047
:102E30000F2A01D0DEB11FE094F84B20520629D4AE
:102E4000420606D591F80D9000F0BF00226B0646B1
:102E5000E264B04208D14A7B4A4505D12869FFF7B0
:102E6000FFFC08B1761E00E0FF26F6B212E008462D
:102E700002F050F9484514D094F84B00C00706D131
:102E80000B2204F14001E06B01F018FF48B1FF266E
:102E9000C4F84C800021204600F005F807003FF4FC
:102EA00071AF3846B2E72DE9F0470546076B046875
:102EB000806B8946203730B12178042906D04FF441
:102EC0000011B94205D80420BDE8F0874FF08051C9
:102ED000F7E7A189B7FBF1F201FB1271002962D17A
:102EE000401CA863696B4FF0000839B3A089628960
:102EF000B7FBF0F0521E104255D1284601F028FCD5
:102F00000646012823D9701C39D0206AB04244D823
:102F1000B9F1000F16D02846696BFFF7E1FC0600F7
:102F200013D0012E13D0701C29D0E87940F0040092
:102F3000E871204602F040F908BB0AE02089B0EBB6
:102F4000571F30D8C5F83880BDE70720BCE70220FE
:102F5000BAE7A289002104F13C0001F0C5FE4FF060
:102F6000000831462046FFF76EFC4FF00109A063D0
:102F70000CE084F80390204602F01EF908B101200D
:102F8000A2E7A06B08F10108401CA06361894145DC
:102F9000EFD8A16BA1EB0800A063314620466E6319
:102FA000FFF751FCA8632F63A089B7FBF0F100FB8A
:102FB000117020443C30E863002085E72DE9F0479C
:102FC0000426FF2489460546A046076859E038468E
:102FD00001F091FE060058D1E96B087898B13A7873
:102FE000042A12D0CA7AE52802F03F02AA7108D05A
:102FF0002E2806D022F02003082B15D0B446CC454D
:1030000015D0FF242DE004263FE0852829D1286B28
:10301000E864284601F022FD060036D1786900797F
:1030200000F03F00A87132E04FF0010CE7E70F2AF3
:1030300001D014BB1CE0420606D591F80D8000F0CB
:10304000BF002A6B0446EA64A04208D14A7B42458D
:1030500005D1386901F068FE08B1641E00E0FF2464
:10306000E4B200212846FFF71EFF060009D00CE05D
:10307000084602F04FF8404509D04FF0FF30E864B1
:1030800005E0A96B0029A2D10EB10020A86330464B
:10309000BDE8F0872DE9F04F0446056890F84B0035
:1030A000A1B010F0A00F03D0062021B0BDE8F08F32
:1030B0000026286900E0761C30F816100029FAD1A5
:1030C0002878042819D004F140010C2207A80B919C
:1030D00001F001FE9DF82700C0076CD0402084F865
:1030E0004B0001273B4607A92A690B9801F0EAFA31
:1030F0002046FFF735FEE8BB52E00F200E36B6FB48
:10310000F0F6B61C31462046FFF7FEFD0028CCD174
:1031100071422022206B02EB41110844E064A06858
:1031200048B3E079400735D56989A889D4E90423F3
:103130004143891843F10000C4E90410204601F01E
:103140000FF80028B1D1421E2046616B01F01FF834
:103150000028AAD121460CA801F064FC0028A4D1C3
:10316000D4E904236869383001F076FFD4E90423F8
:10317000686901E017E00DE0283001F06DFFE079AB
:10318000696940F0010081F821000CA801F08DFF71
:1031900000288AD1D5E90410FFF75EFD002084E7FE
:1031A0007F1C642F9ED3642F0FD00428F7D19DF885
:1031B000270084F84B009DF82700800707D50D20D5
:1031C0000C36B6FBF0F77F1C02E007206DE7012705
:1031D00039462046FFF798FD06007AD17F1E0A97F0
:1031E0005FD0216B784201EB4011204600F076F869
:1031F00006006ED10B9801F08DFF4FF6FF7B0C900F
:103200002846A16B01F077FD060062D12869039082
:103210000A98D4F83C90C0B204900C9989F80D102B
:103220000F2189F80B10002189F80C1009F11A0000
:1032300001F037FF0498DFF8A0A0401E00EB8001EA
:1032400001EBC008002701E05E4504D0039830F888
:10325000186008F101081AF8071001EB090031465F
:1032600001F01FFF06B95E467F1C0D2FECD35E45B3
:1032700005D0039830F8180008B1049803E00498CA
:1032800040F04000049089F800000120E87000211F
:103290002046FFF708FE06001BD10A98401E0A9040
:1032A000AED12846A16B01F026FD060011D12022E7
:1032B0000021E06B01F018FD0B22E06B0B9901F08F
:1032C0000AFD94F84B00E16B00F018000873012030
:1032D000E8703046E9E60000DC5200082DE9F041D4
:1032E000046806460F462078042806D04FF40010E4
:1032F000B84242D9F80640D102E04FF08050F7E7DB
:103300003763B56835B92078032808D30020256BCA
:10331000F07125B16089A18900FB01F812E02089D4
:10332000B0EB571F29D9206B12E0304601F010FA9C
:103330000546401C1FD0022D1FD3206AA8421CD96D
:10334000A7EB080747452946EFD22046FFF77BFA4F
:10335000C6E90D5088B1A189B7FBF1F10844B0630B
:10336000A089B7FBF0F100FB117020443C30F06302
:103370000020BDE8F0810120FBE70220F9E7000012
:10338000084910B50B5C002253B901220A540A18EF
:1033900001EB8000127A40680168104688470246B7
:1033A000104610BD9C21002030B4054C231804EBBE
:1033B00080001B7A406804691846A44630BC604708
:1033C0009C21002030B4054D2C1805EB8000247A98
:1033D000406885682046AC4630BC60479C21002090
:1033E000044A111802EB8000097A406842680846D6
:1033F000104700009C21002030B4054D2C1805EB2F
:103400008000247A4068C5682046AC4630BC6047DE
:103410009C21002038B5044600F088FC00280CD11F
:103420006946204601F0F1FE002806D1E06AFFF768
:1034300051FC002801D10021216038BD2DE9F04F59
:1034400089B090461F46044601A901F0DEFE5FEAFE
:10345000000A7CD194F831A05FEA0A00F9D1019802
:103460000078042807D1421F2046216C00F08FFE0F
:103470005FEA000AEDD1206D04F154014FF0010B19
:103480000091002877D06FEA080171EA070145D062
:10349000D4E90410B1EB080270EB070201D2074631
:1034A0008846C4E90E8758EA070050D0B8F10102F7
:1034B00047F1FF3315461F462046FFF7A9F901469D
:1034C00020640198FFF7BFF906007DD001983946C6
:1034D0008046B0F80C9028464A460023FCF770FE60
:1034E0000146B8F80A004A46401E01408D19D4E949
:1034F0000E010023FCF764FE1A43D6D0626CAA4288
:10350000D3D094F8300000063FD598F8010001238D
:103510000099FFF771FF00287ED130E050F8049B3E
:10352000A16880460225F1B10026AD1C04910F462A
:103530002046761C01F00CF90146012844D9481CAC
:103540006AD07F1CB942F2D04D4508D800E022E194
:10355000C8F8006008F10400049A04C0804601988D
:10356000006A8842E0D8206D4D45056004D80020EF
:10357000C8F800000FE113E04FF0110A0BE194F8D6
:10358000300000F07F0084F83000019801232A46C3
:1035900040780099FFF716FF0028BDD16564FAE076
:1035A000019A1078042804D0012F02D34FF0FF387D
:1035B0000027D4E90410B1EB080370EB070307D22E
:1035C00094F830309B0700E0C4E001D488460746F9
:1035D000D4E90E01CDE9020100200490C4E90E00F7
:1035E00058EA07003CD05089918900FB01F9DDE9D8
:1035F0000201084326D0B8F1010047F1FF314A46E5
:103600000023FCF7DDFD05460E46DDE90201401E04
:1036100041F1FF314A4600E09DE00023CDE902017F
:10362000FCF7CEFD281A8E410CD3DDE90210A9F17A
:1036300001029143C4E90E10B8EB010867EB0007E3
:10364000256C0CE0A5684DB900212046FFF748F92C
:10365000054601287ED0681C7DD0A560256495BBF9
:1036600057E000BFD4E90E31B2EB090867EB000761
:1036700013EB09024141C4E90E2194F8300083079D
:1036800013D5D4E90463B61A8B4105D2C4E90421E9
:1036900040F0400084F8300029462046FFF720F92A
:1036A000050007D10746804614E02946204601F070
:1036B0004FF80546681C68D0012D52D90198006A60
:1036C000A8424ED9256442460020B9EB020170EBB6
:1036D0000701C7D3D4E90E2012EB08017841C4E9F1
:1036E0000E10019E00234046B2893946FCF768FD62
:1036F0001A430ED029463046FFF7A5F8050030D012
:1037000001980023394682894046FCF759FD284438
:103710000490D4E90E01D4E904321B1A8A4107D27D
:10372000C4E9040194F8302042F0400284F83020CB
:10373000019D0023AA89FCF743FD1A432BD0626C3C
:103740000498824227D094F83000000615D5687896
:10375000012301E005E018E00099FFF74DFEA0B954
:1037600005E0022084F8310009B0BDE8F08F94F83C
:10377000300000F07F0084F8300001980123049AA3
:1037800040780099FFF71EFE18B184F831B001208F
:10379000EAE7049860645046E6E700002DE9F74147
:1037A00081B0904602980090684601F08EF80400BF
:1037B00003D50B2004B0BDE8F0810D4E002756F86C
:1037C00024501DB12846FFF713F82F7001980028E8
:1037D00000D0077046F8240002D0B8F1010F01D0E4
:1037E0000020E7E7002201A902A800F037FDE1E789
:1037F0001C0000202DE9F74FADF5976D04000CD0AB
:1038000002F03F06324601A90DF2BC4000F026FD51
:1038100005004FF0000A05D099E109200DF2C44DD2
:10382000BDE8F08F0198AEA90290016116A941612F
:1038300002A8DDF8BC1400F0DDFE05000ED19DF8F5
:103840005300000601D5062508E0700801D00121CB
:1038500000E0002102A8FEF79DFF054616F01C0FB0
:103860007ED04FF00109C5B1042D10D10020BB4915
:1038700002E0401C022804D201EB00121268002A68
:10388000F7D1022807D002A8FFF704FC054646F04E
:1038900008065DB15BE1122559E19DF80E0010F0BC
:1038A000110F7CD1700701D5082550E1300777D57D
:1038B00001F009F8074601984FF020080178042923
:1038C0002AD0119839460E3001F0BEFB11983946C6
:1038D000163001F0B9FB119981F80B80119901980C
:1038E00001F052F8074600221199019801F098FB67
:1038F000119800211C3001F0A7FB0199002F81F8DD
:1039000003907CD0D1F838800022394602A801F01B
:1039100015FB050058D01AE1206001984069343049
:1039200001F045F8A06001984069383001F04AF88C
:10393000C4E9040101985546416991F8211001F04C
:103940000201E171C4F81CA040693946083001F059
:103950007BFB019841690D75406939460C3000E0E8
:103960003CE001F071FB019841694D75426900210D
:1039700082F804804069343001F066FB019800222F
:1039800013464069383001F067FB01980022134666
:103990004069283001F060FB0199496901E02AE0A3
:1039A0002FE081F8219002A801F07FFB0500B2D141
:1039B000A168D9B10022204601F0C0FA0546A068EE
:1039C0000199401E886107E04146019801F093F992
:1039D000054601987F1E87617DB1B8E0002D04D1B6
:1039E0009DF80E00C10602D50425B0E007E0B1073E
:1039F00003D5C00701D00725A9E0300701D546F05F
:103A000040060198806BA0641198E064700801D0B2
:103A1000012100E0002102A800F076FFE06200280A
:103A20007ED001980178042933D0119900F0ACFFC1
:103A3000A06011981C3000F0BAFFC4E9040A00BF6E
:103A4000C4F850A001992160019900204FF48052E0
:103A5000C988A18084F8306084F831A0C4F844A0FB
:103A6000C4E90E00014604F15400834601F03CF91C
:103A7000B0066ED5D4E9046756EA070069D0C4E9F8
:103A80000E670198D4F808804189808901FB00F90C
:103A90002FE00499216206999DF80F2021F0FF0183
:103AA000114361621599A1624069343000F07FFFD3
:103AB000A06001984069383000F084FFC4E9040137
:103AC0000198406990F8210000F00200E071B7E72A
:103AD0004146204600F03CFE8046012800D80225E1
:103AE000B8F1FF3F00D10125B6EB090667EB0A07E5
:103AF00025B9B9EB06017AEB0700E9D3C4F8408099
:103B00002DBB019800238146828930463946FCF757
:103B100057FB1A431DD041464846FEF794FE00E08D
:103B200019E05FEA000816D00198002381468289D7
:103B300030463946FCF744FB00EB0802626499F812
:103B4000010001235946FFF73DFC10B10125C4F8DF
:103B500000A0284662E60225F9E700007C2100204B
:103B60000FB42DE9F0479CB00DF1980900900020AA
:103B700001900DF14C080290259810F8011B25903A
:103B8000002976D0252903D0684601F09FF9F3E794
:103B9000002510F8011B2E462590302902D02D2932
:103BA00002D010E0012500E0022510F8011B25904D
:103BB00009E000BF06EB860001EB40062598303E89
:103BC00010F8011B2590A1F130000928F2D96C29C9
:103BD00001D04C2905D1259845F0040510F8011BAA
:103BE0002590002945D0A1F161000A46192801D885
:103BF000203AD2B24F2A42D006DC422A3DD0432A94
:103C000038D0442AC0D13CE0532A0DD0552A38D0B0
:103C1000582AB9D11023680701D4442A33D059F85F
:103C2000040B442A31D035E059F8047B002400E02D
:103C3000641C385D0028FBD1A80704D50CE02021C6
:103C4000684601F043F92046641CB042F7D303E014
:103C500068467F1C01F03AF939780029F8D103E071
:103C60002021684601F032F92046641CB04283D21C
:103C7000F6E753E019F8041B86E70223CBE7082395
:103C8000C9E70A23C7E759F8040B002802DA4042C3
:103C900045F0080500244746B0FBF3F203FB12028F
:103CA000B0FBF3F0D2B2092A05D9782914D04FF02D
:103CB000070C6244D2B230323A55641C08B1202C51
:103CC000EAD3280703D52D2008F80400641C2746F2
:103CD000E80704D0302003E04FF0270CE9E720206C
:103CE000824603E05146684601F0F0F8A80703D485
:103CF00038467F1CB042F5D34546641E6846295DB0
:103D000001F0E4F8002CF8D103E05146684601F0D8
:103D1000DDF838467F1CB042A9D2F6E7684601F0CC
:103D2000F8F81CB0BDE8F0075DF814FB70B5ADF510
:103D3000976D04460DF5966101F067FA002810D1E1
:103D400094F830104A060CD5080613D5DDF8B004F7
:103D5000626C0123407804F15401FFF74DFB18B168
:103D600001200DF5976D70BD94F8300000F07F00D4
:103D700084F8300000F0A7FD0546DDF8B0040178B6
:103D800004292AD0A16C00F0B6FF0028E9D1E66C26
:103D90003146F07A40F02000F072A268206801F00D
:103DA0003FF906F11C00216901F04EF9294606F1A0
:103DB000160001F049F9002106F1120001F071F935
:103DC000DDF8B0040121C17001F0B2F994F83010AF
:103DD00001F0BF0184F83010C3E7204600F0C0F9BD
:103DE0000028BED1421E2046216C00F0D0F90028E8
:103DF000B7D1DDF8B00498A90161C0F814D021460C
:103E00000DF58C6000F00EFE0028AAD1DDF8B0049C
:103E100041690A7942F020020A71E179426941F070
:103E2000010182F821104069A168343001F00CF9D9
:103E3000D4E90423DDF8B0044069383001F00CF90E
:103E4000D4E90423DDF8B0044069283001F004F916
:103E5000DDF8B004294640690C3001F0F5F8DDF8D2
:103E6000B0040021426951754069103001F0ECF84E
:103E70000DF58C6001F019F90028ADD1DDF8B00422
:103E800001F056F914F8301F01F0BF01217068E706
:103E90002DE9FF5F89464FF0000B9A46164604460F
:103EA00002A9C3F800B001F0B0F9002808D194F8D5
:103EB0003100002804D194F83000800703D4072093
:103EC00004B0BDE8F09F0298012704F15401007886
:103ED0000191042804D0A06B8119814200D2C6430D
:103EE000CDE00298002380468289D4E90E01054680
:103EF0000091FCF765F91A436DD1B8F80A10491E14
:103F0000084003901CD10098284307D0206D48B189
:103F10002A462046009BFEF77BFC07E0A06838B9E4
:103F2000002100E0216C2046FEF7DAFC00287CD05E
:103F3000012837D0411C65D02064A16801B9A06078
:103F400094F8300000060DD50298626C0123407889
:103F50000199FFF751FAE8BB94F8300000F07F00B8
:103F600084F83000216C0298FEF76DFCD0B1039903
:103F70000844009002988189B6FBF1F8B8F1000F6F
:103F80002ED0039901EB080241898A4202D9039A93
:103F9000A1EB0208407843464946009AFFF72CFA05
:103FA000C0B903E0022084F8310089E7616C009811
:103FB000081A40450CD202998A8900FB02910198A7
:103FC00000F089FE94F8300000F07F0084F83000A3
:103FD000029801E016E01BE0858905FB08F535E055
:103FE000626C00998A4211D0D4E90423D4E90E51BD
:103FF000AA1A99410AD2DDE9002140780123FFF78E
:10400000E1F918B184F83170012059E70098606433
:104010000299A06B8A89B0FBF2F102FB1100151A1C
:10402000B54200D93546002300E02BE0D4E90E016B
:10403000FCF7C6F810192A464946543000F04BFEEA
:1040400094F8300040F0800084F83000D4E90E107D
:10405000491940EB0B00C4E90E10D4E90423B2EB7C
:10406000010CA94473EB000C01D311461846C4E9B6
:104070000410DAF800004119761BCAF80010002E6F
:104080007FF42FAF14F8300F40F040002070002074
:1040900016E7000070B580281BD345F2205309B104
:1040A0000D4D00E00D4D002110245A1A02EBD27282
:1040B00001EB620235F82260864206D001D2114639
:1040C00000E01346641EF0D104E01CB105EB820051
:1040D000408870BD002070BD8AA701080653000803
:1040E00030B5B0F5805F01D21B4900E01B4931F8C3
:1040F000022B002A15D0904213D331F8024B230A29
:10410000E5B252FA84F4844221D9092B09D2DFE8BE
:1041100003F005090E11131517191B00801A31F849
:10412000100030BD811A01F00101401A00E0103882
:1041300080B230BD2038FBE73038F9E71A38F7E7AE
:104140000830F5E75038F3E7A0F5E350F0E7002B2F
:10415000CDD101EB4501CAE70EFC020800FE0208C2
:1041600070B50446C07903280FD1A669A56808E098
:104170006A1C2946206800F011FE002806D16D1C3B
:10418000761E002EF4D10020E071002070BD70B5C5
:10419000044616460D46C0690FE0012802D92A1AC6
:1041A000921C00E03246291A491C206800F0F6FDF6
:1041B000002804D1E069401EE0610028EDD170BD07
:1041C0002DE9F0470646006A8D1E801E9246A842E1
:1041D00000D800252C46A8465FF00007B1894FEAB9
:1041E000D409B9FBF1F0716B0144304600F083FD56
:1041F00018B14FF0FF30BDE8F087B38904F0070233
:10420000B9FBF3F103FB119001219140326AC9B26D
:10421000B2F1020206EB000C641C9CF83CC00CEAF4
:10422000010C4906090E944202D300242146184687
:10423000BCF1000F05D0A0460027AC4207D10020FA
:10424000D9E77F1C5745F8D108F10200D3E70029D0
:10425000E0D10121401C9842DCD3BFE72DE9FF47A4
:10426000002790460E460F6000F02FFB050003D597
:104270000B2004B0BDE8F087DA4850F825409CB127
:104280003460207808F0FE0620B16078FFF7A8F8C7
:10429000C1070BD02770E8B2B8466070FFF770F81E
:1042A000C10708D00320E4E70C20E2E70EB1400785
:1042B00004D40020DDE71EB1400701D50A20D8E76D
:1042C000607804F10C020221FFF76EF800287DD11E
:1042D000A089A0F50071B1F5606F77D8411E084242
:1042E00074D1002529462046FEF706FA022821D17E
:1042F0004FEA0D0704EB051090F8FE1100F5FD7074
:1043000019B1083000F053FB00E0002047F8250009
:104310006D1C042DEED3002657F8265035B12946E2
:104320002046FEF7E9F9022801D203E00320761CBB
:10433000042EF1D304287BD002287BD24FF0FF3A21
:1043400001280DD004F1470000F067FBA1898842E5
:1043500070D104F1520000F060FB00286BD088E0BF
:104360000B2002E0401C402806D2211891F83C1096
:104370000029F7D040285DD304F1A40000F04DFBE4
:10438000B0F5807F56D194F8A8000127A18907FADB
:1043900000F088424ED104F1840000F013FBC146C6
:1043A00010EB050841EB0906012E43D204F1900001
:1043B00000F0FDFA606294F8AA00A070012839D1DB
:1043C00094F8A90087403804000C00E030E06081D8
:1043D00030D004F1980000F0EAFA83490746884299
:1043E00028D8B81CA562206204F1940000F0DFFA1E
:1043F0002844606304F18C0000F0D9FA2844E0629C
:104400006189626B7943521849EB0900B8EB0201EC
:1044100086410FD304F19C0000F0C9FA01462063E5
:104420002046FEF710FA0146204600F064FC18B161
:1044300001201EE768E018E000250AE0601990F806
:104440003C10812904D1503000F0B1FA022803D089
:104450002035A089A842F1D8A089A8426DD0C4F81F
:104460001CA00427C4F818A0B1E004F1600000F01B
:104470009EFA606294F84C60A670012E01D0022E64
:104480005BD1464394F849006081E8B3411E08427D
:1044900053D104F14D0000F0C0FA2081A1894909EF
:1044A000B0FBF1F201FB120070BB04F14F0000F011
:1044B000B4FA070004D104F15C0000F078FA074672
:1044C00004F14A0000F0A9FA010036D0A08923893E
:1044D0004009B3FBF0F08A19024497422DD3B81A71
:1044E0006789B0FBF7F078B103274FF6F57C60459C
:1044F00000D8022740F6F57C604500D801272A4401
:10450000801C2944626300E017E02062C4E90A517C
:10451000032F14D08BB131442163022F20D000F03F
:10452000010100EB400001EB5000A189401E08444E
:10453000B0FBF1F0616A884214D90D2099E604F1CC
:10454000660000F06AFA0028F7D120890028F4D12B
:1045500004F1680000F02BFA2063206A8000E4E791
:104560004000E2E7C4F81CA08020C4F818A0207125
:10457000032F2CD104F16C0000F04FFA012826D152
:10458000691C204600F0B7FB08BB84F8048004F2E5
:104590003A2000F042FAA0F52A41553917D104F12A
:1045A0003C0000F004FA1149884210D104F508706B
:1045B00000F0FDF90E49884209D104F5097000F0B8
:1045C000F6F9E06104F50A7000F0F1F9A06105491F
:1045D0002770091F0888401C0880E0802046FEF7ED
:1045E00007F966E61C000020FDFFFF7F5252614183
:1045F0007272416173B504460568019801E0401C80
:10460000019001782F29FAD05C29F8D00020A06011
:10461000E06101980078202807D2802084F84B00C0
:1046200000212046FEF75AFE7CBD01A92046FEF778
:10463000F1F90028F8D12046FEF792FB94F84B10D0
:1046400028B10428F0D14907EED405207CBD4907E4
:10465000FCD4A079C006F8D5287804280CD0A98904
:10466000206BB0FBF1F201FB1200411928463C31EE
:1046700000F08AF9A060D8E7A16821622069E17999
:1046800020F0FF0008436062E16CA1626869343089
:1046900000F08DF9A060686990F8210000F0020137
:1046A000E1716869383000F08DF9C4E90401BCE7B4
:1046B00003490A685206FCD5C2B24A60704700003E
:1046C000001001407CB516461C4605460B2200F042
:1046D00002FB052C11D91D4A0CE00021B61C234613
:1046E000044663F35F044008E30300D55440491CCB
:1046F0001029F4D330880028EFD107214FEA0D03A9
:1047000004F00F003030392800D9C01D5854491E1C
:104710002409F5D17E20002258544C1E06E0813831
:104720007D2802D8A24206D0521C521C8A4202D2D4
:10473000A85C2028F3D1082902D2585C491C00E06B
:104740002020A854521C082AF5D37CBD211001005A
:104750002DE9F04704680D46074602297DD3206AFB
:10476000A8427AD921784FF0FF36012908D00229D2
:1047700035D04FEA8509032947D004296DD15AE085
:10478000A08905EB5507B7FBF0F0E16A014420462C
:1047900000F0B1FA00281ED1A089B7FBF0F100FBB0
:1047A00011717F1CB7FBF0F0214491F83C80E16A65
:1047B0000144204600F09FFA00280CD1A089B7FBE5
:1047C000F0F100FB1170204490F83C1048EA012001
:1047D000E90701D0060973E0C0F30B0670E0A08979
:1047E000E16A4008B5FBF0F00144204600F083FA8E
:1047F00000BBA1896800B0FBF1F201FB120020446C
:104800003C3000F00AF906465AE0A089E16A8008C7
:10481000B5FBF0F00144204600F06DFA50B9A189D3
:10482000B9FBF1F201FB129020443C3000F0BFF8DC
:1048300020F0704644E0D7E9040150EA01023ED07E
:10484000BA68401EA5EB0208A28941F1FF319246E9
:104850000023FBF7B5FC618900E030E0B0FBF1F22A
:10486000F8796FF00041022806D003280CD0022806
:1048700025D0F86918B90CE0904520D801D10E4632
:104880001EE005F101061BE0BA694245F1D96E1C34
:1048900016E04FEA9A00B5FBF0F0E16A01442046C9
:1048A00000F029FA60B9A189B9FBF1F201FB12907D
:1048B00020443C3000F07BF820F0004600E0012668
:1048C0003046BDE8F0870020704710B504464FF031
:1048D000FF302268002A13D0114600E0491C0B78F3
:1048E000202B0ED33A2BF9D112F8013B303B0A2B87
:1048F00006D28A4204D1002B02D1491C18462160FD
:1049000010BD002010BD0000F0B502461D4BD2F8CE
:104910000050002003EB00142668AE4207D1666801
:104920009768BE4203D1A468166BB44202D0401C03
:104930000228EFD3022814D1002002E0401C0228F4
:1049400004D203EB00142468002CF7D102280ED007
:1049500003EB0014256095686560126BA26000226D
:10496000A281002903EB0011898902D019B100202E
:10497000F0BD491C01E04FF4807103EB0012401CB4
:104980009181F0BD7C21002070B506460D4601F1F5
:104990001A0000F042F804463078032805D105F1EA
:1049A000140000F03AF844EA0044204670BDC17893
:1049B000827842EA01214278007842EA012140EA05
:1049C0000120704710B5C17983790A0E43EA0121AD
:1049D000120242EA11624379120243EA012142EAD9
:1049E00011620379120243EA012142EA1162C3789B
:1049F000120243EA0121837842EA116243EA01216B
:104A0000130243EA11630A02417800780A4319024B
:104A100041EA126140EA022010BD4178007840EA84
:104A20000120704710B5044608682060086AA0603D
:104A300091F82400E071486A002220F0FF00C4E9E8
:104A40000402896A2046E164FEF748FC002804D18C
:104A50002046BDE8104000F001B810BD2DE9F0413E
:104A600004460068A16B456900F045F9002855D15E
:104A7000E16B0878852850D12022284600F02BF9D8
:104A800068784601A6F140002036B0F5007F44D892
:104A900000212046FEF707FA00283FD1A16B2068CD
:104AA00000F029F9002839D1E16B0878C02834D109
:104AB000202205F1200000F00EF995F823000F21C7
:104AC0002C30B0FBF1F0B6EB401F26D340274FF45B
:104AD000187800212046FEF7E6F900281ED1A16BC8
:104AE000206800F008F9002818D1E16B0878C12887
:104AF00013D1474503D2E819202200F0ECF8203703
:104B0000B742E6D347450BD8284600F098FB044649
:104B1000A81CFFF782FF844202D00220BDE8F0818A
:104B20000020FBE7FBF77AFDFDF7C6FBFCF728FE4C
:104B3000FCF75CFEFCF76AFEFCF714FE01221A4942
:104B40001A48FEF72BFE1A4C011E207003D019A044
:104B5000FDF7B6FCFEE721A0FDF7B2FC122226A16C
:104B60002A48FEF747FE207018B129A0FDF7A8FCDF
:104B7000F0E733A0FDF7A4FC2448D0E90423FEF7B6
:104B80005DFC2070011E06D037A0FDF799FC1F4880
:104B9000FEF740FCDEE73BA11C48FEF7E1FF3FA02B
:104BA000FDF78EFCF3E70000020000202400002047
:104BB000010000202121534463617264206D6F75F0
:104BC0006E742066696C6573797374656D206572A7
:104BD000726F7220282564290D0A00003D3D3D4674
:104BE000696C6573797374656D206D6F756E742073
:104BF0006F6B3D3D3D0D0A0053445F436172645F3E
:104C0000746573742E7478740000000060100020C6
:104C10002121206F70656E2F437265617465206677
:104C2000696C652053445F436172645F746573749B
:104C30002E747874204661696C2E0D0A0000000005
:104C40003D3D3D6F70656E2F6372656174652053E5
:104C5000445F436172645F746573742E747874206A
:104C60004F4B3D3D3D0D0A0021212046696C6520DA
:104C70005772697465206572726F723A28256429CB
:104C80000A00000053442063617264204641544688
:104C90005320746573742E0D0A0000003D3D3D776E
:104CA00072697465206461746120746F2066696C38
:104CB00065204F4B3D3D3D0D0A0000002DE91040A1
:104CC00010F8013B11F8014B1B1B521E01D0002BA9
:104CD000F6D0184610BD002A05D011F8013B00F8A7
:104CE000013B521EF9D170475FFA81F100F8011BB8
:104CF000521EFBD1704770B50446806B0D460026EE
:104D0000A8420FD0204600F057FA06000AD160787A
:104D100001232A4604F13C01FEF754FB08B1751E3D
:104D20000126A563304670BD2DE9F04781460E4649
:104D300001F11A00FFF771FE28BB3078012520F041
:104D40004000401E00EB8001DFF84C8001EBC00406
:104D500000274FF6FF7A00BF18F807003044FFF72E
:104D60005CFE35B1FF2C0ED229F814000546641CF8
:104D700001E0504507D17F1C0D2FEDD33078400660
:104D800007D5FF2C02D30020BDE8F087002129F8C9
:104D900014100120F8E70000DC5200082DE9F0476C
:104DA000022617460D46044602297CD3206AA842F3
:104DB00079D920784FF00109012806D0022842D085
:104DC000032857D004287ED154E0A18905EB55086B
:104DD000B8FBF1F0E16A01442046FFF78CFF0600C2
:104DE00071D1A189B8FBF1F201FB128020443C3063
:104DF00008F10108E90704D00178FAB262F31F1143
:104E000000E03946017084F80390A189B8FBF1F005
:104E1000E16A01442046FFF76EFF060053D1A189E5
:104E2000B8FBF1F201FB128020443C30E90702D0CC
:104E3000C7F3071105E00178C7F3032201F0F00181
:104E4000114301703DE0A089E16A4008B5FBF0F034
:104E500001442046FFF74FFF060034D1A1896800C6
:104E6000B0FBF1F201FB12002044B9B23C3000F07B
:104E700018F926E0A089E16A8008B5FBF0F001444A
:104E80002046FFF738FF06001DD12078AD0004282A
:104E90000DD0A089B5FBF0F100FB115020443C304F
:104EA000FFF785FD00E00EE067F31B000746A089D1
:104EB000B5FBF0F100FB1150204439463C3000F0C6
:104EC000C3F884F803903046BDE8F087F8B50E4685
:104ED00004460A2902D10D21FFF7F8FF6568002D6D
:104EE00016DB60196D1C06733D2D0DDB6B462A46E3
:104EF00004F10C012068FEF7CBFF0098A84201D115
:104F0000002501E04FF0FF356560A068401CA060FF
:104F1000F8BD38B542680446002A0CDB6B4604F144
:104F20000C012068FEF7B4FF28B960680099884238
:104F300001D1A06838BD4FF0FF3038BD2DE9F047F2
:104F40008A460568904607460E46D146022938D360
:104F5000286AB04235D9B8F1000F0DD0287804285E
:104F600002D1F879022807D04FF0FF324146284697
:104F7000FFF714FF002825D131463846FFF7E8FB3C
:104F8000040036D0012C1CD0601C1DD028780428C9
:104F900006D0002231462846FFF700FF002811D135
:104FA000D5E90701891E884205D2401CE8612879AD
:104FB00040F00100287109F10100A04206D1A1468C
:104FC00013E00220BDE8F0870120FBE728780428E1
:104FD00009D1A9EB0A02514600232846521CFDF7CD
:104FE00049FB0028EED1A146CA46286A2646B042AF
:104FF000C2D82878042811D1B8F1000F03D0F8796D
:10500000032802D00AE0002007E0B868404505D830
:10501000B9690144414501D30220F8710020D1E76C
:1050200070B50C460646154691B204F11A0000F020
:1050300038F83078032806D1290C04F11400BDE8B3
:10504000704000F02EB870BD0170090A4170090A65
:105050008170090AC170704710B5110A027041EAE7
:10506000036141701A0A090A41EA02618170120A59
:10507000090A41EA0261C170120A090A41EA0261A1
:105080000171120A090A41EA02614171120A090A10
:1050900041EA0261120A8171090A41EA0261C171A1
:1050A00010BD0170090A417070472DE9F0410546B5
:1050B00000684669304600F0C2F80146B01CFFF7B0
:1050C000F0FF777828467F1CE96CFEF707F9044665
:1050D0004FF0010815E0A96B2868FFF70CFE0400EB
:1050E00011D120223146E86BFFF7F5FD29687F1EBC
:1050F00081F803800CD0002128462036FDF7D3FE2E
:105100000446002CE7D0012C02D00220BDE8F0813B
:105110002046FBE7014600200B22430803EBC010AA
:1051200011F8013B521E1844C0B2F6D1704700007E
:1051300070B5044600F040F8050036D12078032809
:105140002CD12079012829D104F13C00A289002129
:105150000646FFF7C9FD4AF6552104F23A20FFF74B
:10516000A0FF13493046FFF76FFF124904F508709E
:10517000FFF76AFF04F50970E169FFF765FF04F5C1
:105180000A70A169FFF760FFA26A0123521CA263A3
:1051900060783146FEF730F90020207100226078F7
:1051A0001146FEF701F900B10125284670BD000047
:1051B00052526141727241612DE9F0410446C0785A
:1051C0000027F8B1A56B04F13C01607801232A4661
:1051D0008846FEF711F908B1012713E00020E070BE
:1051E000E06A616A281A88420CD2A67808E0606AF0
:1051F0000123054460782A464146FEF7FDF8761EF5
:10520000022EF4D23846BDE8F08170B50E46040097
:105210004FF009050CD0206850B1017841B1A18848
:10522000C288914204D14078FEF7DAF8C00703D073
:1052300000203060284670BD00252068F9E730B5B1
:10524000034640784FF400444201002001462032DA
:105250000AE002290BD0C50700D0254605EB500017
:105260005D5C284480B2491C9142F2D330BD0321D9
:10527000F9E770B5054600244FF4004611E0FEF74B
:105280002FFFE10700D0314601EB5401C2B21144B7
:1052900089B2CA0700D0324602EB510101EB10205F
:1052A00084B235F8020B0028E9D1204670BD000019
:1052B000F121000887220008612200088D220008E1
:1052C0001122000800000000000000000102030499
:1052D0000607080900000000010203040103050796
:1052E000090E10121416181C1E00010004001000F4
:1052F000400000010002000001000200040008005C
:10530000100020000000A400E8A1A700ECA1A80064
:10531000A7A1B000E3A1B100C0A1B700A4A1D7002C
:10532000C1A1E000A4A8E100A2A8E800A8A8E900A3
:10533000A6A8EA00BAA8EC00ACA8ED00AAA8F20062
:10534000B0A8F300AEA8F700C2A1F900B4A8FA0013
:10535000B2A8FC00B9A80101A1A81301A5A81B01CE
:10536000A7A82B01A9A84401BDA84801BEA84D01CA
:10537000ADA86B01B1A8CE01A3A8D001ABA8D20102
:10538000AFA8D401B3A8D601B5A8D801B6A8DA0150
:10539000B7A8DC01B8A85102BBA86102C0A8C70227
:1053A000A6A1C902A5A1CA0240A8CB0241A8D90260
:1053B00042A89103A1A69203A2A69303A3A69403D5
:1053C000A4A69503A5A69603A6A69703A7A6980349
:1053D000A8A69903A9A69A03AAA69B03ABA69C0319
:1053E000ACA69D03ADA69E03AEA69F03AFA6A003E9
:1053F000B0A6A103B1A6A303B2A6A403B3A6A503B6
:10540000B4A6A603B5A6A703B6A6A803B7A6A90384
:10541000B8A6B103C1A6B203C2A6B303C3A6B40320
:10542000C4A6B503C5A6B603C6A6B703C7A6B803E8
:10543000C8A6B903C9A6BA03CAA6BB03CBA6BC03B8
:10544000CCA6BD03CDA6BE03CEA6BF03CFA6C00388
:10545000D0A6C103D1A6C303D2A6C403D3A6C50355
:10546000D4A6C603D5A6C703D6A6C803D7A6C90324
:10547000D8A60104A7A71004A1A71104A2A712048B
:10548000A3A71304A4A71404A5A71504A6A716048C
:10549000A8A71704A9A71804AAA71904ABA71A0458
:1054A000ACA71B04ADA71C04AEA71D04AFA71E0428
:1054B000B0A71F04B1A72004B2A72104B3A72204F8
:1054C000B4A72304B5A72404B6A72504B7A72604C8
:1054D000B8A72704B9A72804BAA72904BBA72A0498
:1054E000BCA72B04BDA72C04BEA72D04BFA72E0468
:1054F000C0A72F04C1A73004D1A73104D2A732041A
:10550000D3A73304D4A73404D5A73504D6A73604CB
:10551000D8A73704D9A73804DAA73904DBA73A0497
:10552000DCA73B04DDA73C04DEA73D04DFA73E0467
:10553000E0A73F04E1A74004E2A74104E3A7420437
:10554000E4A74304E5A74404E6A74504E7A7460407
:10555000E8A74704E9A74804EAA74904EBA74A04D7
:10556000ECA74B04EDA74C04EEA74D04EFA74E04A7
:10557000F0A74F04F1A75104D7A710205CA913206E
:1055800043A81420AAA1152044A81620ACA11820D5
:10559000AEA11920AFA11C20B0A11D20B1A12520D2
:1055A00045A82620ADA13020EBA13220E4A1332074
:1055B000E5A1352046A83B20F9A1AC2080000321BD
:1055C000E6A1052147A8092148A81621EDA121211E
:1055D00059A96021F1A26121F2A26221F3A2632103
:1055E000F4A26421F5A26521F6A26621F7A2672143
:1055F000F8A26821F9A26921FAA26A21FBA26B2113
:10560000FCA27021A1A27121A2A27221A3A27321E6
:10561000A4A27421A5A27521A6A27621A7A2772112
:10562000A8A27821A9A27921AAA29021FBA1912167
:10563000FCA19221FAA19321FDA1962149A89721CD
:105640004AA898214BA899214CA80822CAA10F2248
:10565000C7A11122C6A115224DA81A22CCA11D2234
:10566000D8A11E22DEA11F224EA82022CFA12322D4
:105670004FA82522CEA12722C4A12822C5A12922D4
:10568000C9A12A22C8A12B22D2A12E22D3A1342221
:10569000E0A13522DFA13622C3A13722CBA13D22D2
:1056A000D7A14822D6A14C22D5A1522250A86022CF
:1056B000D9A16122D4A16422DCA16522DDA16622E8
:1056C00051A8672252A86E22DAA16F22DBA195228F
:1056D00092A89922D1A1A522CDA1BF2253A812231D
:1056E000D0A16024D9A26124DAA26224DBA26324BF
:1056F000DCA26424DDA26524DEA26624DFA2672486
:10570000E0A26824E1A26924E2A27424C5A275245F
:10571000C6A27624C7A27724C8A27824C9A2792475
:10572000CAA27A24CBA27B24CCA27C24CDA27D2445
:10573000CEA27E24CFA27F24D0A28024D1A2812415
:10574000D2A28224D3A28324D4A28424D5A28524E5
:10575000D6A28624D7A28724D8A28824B1A28924DD
:10576000B2A28A24B3A28B24B4A28C24B5A28D2425
:10577000B6A28E24B7A28F24B8A29024B9A29124F5
:10578000BAA29224BBA29324BCA29424BDA29524C5
:10579000BEA29624BFA29724C0A29824C1A2992495
:1057A000C2A29A24C3A29B24C4A20025A4A90125B5
:1057B000A5A90225A6A90325A7A90425A8A9052509
:1057C000A9A90625AAA90725ABA90825ACA90925D9
:1057D000ADA90A25AEA90B25AFA90C25B0A90D25A9
:1057E000B1A90E25B2A90F25B3A91025B4A9112579
:1057F000B5A91225B6A91325B7A91425B8A9152549
:10580000B9A91625BAA91725BBA91825BCA9192518
:10581000BDA91A25BEA91B25BFA91C25C0A91D25E8
:10582000C1A91E25C2A91F25C3A92025C4A92125B8
:10583000C5A92225C6A92325C7A92425C8A9252588
:10584000C9A92625CAA92725CBA92825CCA9292558
:10585000CDA92A25CEA92B25CFA92C25D0A92D2528
:10586000D1A92E25D2A92F25D3A93025D4A93125F8
:10587000D5A93225D6A93325D7A93425D8A93525C8
:10588000D9A93625DAA93725DBA93825DCA9392598
:10589000DDA93A25DEA93B25DFA93C25E0A93D2568
:1058A000E1A93E25E2A93F25E3A94025E4A9412538
:1058B000E5A94225E6A94325E7A94425E8A9452508
:1058C000E9A94625EAA94725EBA94825ECA94925D8
:1058D000EDA94A25EEA94B25EFA9502554A851253D
:1058E00055A8522556A8532557A8542558A85525DC
:1058F00059A856255AA857255BA858255CA85925AC
:105900005DA85A255EA85B255FA85C2560A85D257B
:1059100061A85E2562A85F2563A8602564A861254B
:1059200065A8622566A8632567A8642568A865251B
:1059300069A866256AA867256BA868256CA86925EB
:105940006DA86A256EA86B256FA86C2570A86D25BB
:1059500071A86E2572A86F2573A8702574A871258B
:1059600075A8722576A8732577A8812578A8822541
:1059700079A883257AA884257BA885257CA88625F7
:105980007DA887257EA8882580A8892581A88A25C5
:1059900082A88B2583A88C2584A88D2585A88E2593
:1059A00086A88F2587A8932588A8942589A895255A
:1059B0008AA8A025F6A1A125F5A1B225F8A1B325B5
:1059C000F7A1BC258BA8BD258CA8C625F4A1C725A9
:1059D000F3A1CB25F0A1CE25F2A1CF25F1A1E2259F
:1059E0008DA8E3258EA8E4258FA8E52590A8052697
:1059F000EFA10626EEA1092691A84026E2A14226A3
:105A0000E1A10030A1A10130A2A10230A3A1033085
:105A1000A8A10530A9A1063065A9073096A90830CC
:105A2000B4A10930B5A10A30B6A10B30B7A10C3032
:105A3000B8A10D30B9A10E30BAA10F30BBA1103002
:105A4000BEA11130BFA1123093A81330FEA11430B3
:105A5000B2A11530B3A11630BCA11730BDA11D30C5
:105A600094A81E3095A8213040A9223041A92330A6
:105A700042A9243043A9253044A9263045A927301E
:105A800046A9283047A9293048A94130A1A442306D
:105A9000A2A44330A3A44430A4A44530A5A4463016
:105AA000A6A44730A7A44830A8A44930A9A44A30E6
:105AB000AAA44B30ABA44C30ACA44D30ADA44E30B6
:105AC000AEA44F30AFA45030B0A45130B1A4523086
:105AD000B2A45330B3A45430B4A45530B5A4563056
