:020000040800F2
:10000000900400209D0100084B12000851110008C7
:1000100049120008D50200088514000800000000FD
:10002000000000000000000000000000B312000803
:10003000D7020008000000004D120008B5120008A9
:10004000B7010008B7010008B7010008B7010008B0
:10005000B7010008B7010008B7010008B7010008A0
:10006000B7010008B7010008B7010008B701000890
:10007000B7010008B7010008B7010008B701000880
:10008000B7010008B7010008B7010008B701000870
:10009000B7010008B7010008B7010008B701000860
:1000A000B7010008B7010008B7010008B701000850
:1000B000B7010008B7010008B7010008B701000840
:1000C000B7010008B7010008B7010008B701000830
:1000D000B7010008B7010008B7010008B701000820
:1000E000B7010008B7010008B7010008B701000810
:1000F000B7010008B7010008B7010008B701000800
:10010000B7010008B7010008B7010008B7010008EF
:10011000B7010008B7010008B7010008B7010008DF
:10012000B7010008B7010008B7010008B7010008CF
:10013000B7010008B7010008B7010008B7010008BF
:10014000B7010008B7010008B7010008B7010008AF
:10015000B7010008B7010008B7010008B70100089F
:10016000B7010008B7010008B7010008B70100088F
:10017000B7010008B7010008B7010008000000003F
:10018000B7010008B7010008DFF80CD000F090F8C4
:1001900000480047411800089004002006488047A6
:1001A00006480047FEE7FEE7FEE7FEE7FEE7FEE75C
:1001B000FEE7FEE7FEE7FEE74113000889010008BD
:1001C0002DE9F05F0546002092469B46884606468C
:1001D000814640241BE0284641464746224600F01F
:1001E00057F853465A46C01A914110D31146184643
:1001F000224600F03EF82D1A67EB01084F462246D2
:100200000120002100F035F817EB00094E41201EB7
:10021000A4F10104DFDC484631462A464346BDE8E6
:10022000F09FD2B201E000F8012B491EFBD27047CB
:100230000022F6E710B513460A4604461946FFF7B2
:10024000F0FF204610BD30B50B46014600202022AD
:10025000012409E021FA02F59D4205D303FA02F5D3
:10026000491B04FA02F52844151EA2F10102F1DC33
:1002700030BD202A04DB203A00FA02F1002070474A
:100280009140C2F1200320FA03F3194390407047D4
:10029000202A04DB203A21FA02F00021704721FADB
:1002A00002F3D040C2F12002914008431946704742
:1002B000064C074D06E0E06840F0010394E80700B3
:1002C00098471034AC42F6D3FFF762FFEC180008F1
:1002D0000C190008FEE770477047000070B504462F
:1002E00000F0EAF80546601C02D004480078044497
:1002F00000F0E2F8401BA042FAD370BD04000020D9
:100300002DE9F84F00224FF0010803254FF00F0EA2
:100310000B6808FA02F42340A3426ED14E68012E06
:1003200005D0022E03D0112E01D0122E12D18668D4
:100330004FEA420C05FA0CF7BE43CF6807FA0CF7F8
:10034000374387604668A6430C79C4F30014944091
:1003500034434460C668570005FA07FC8C6826EAF7
:100360000C06BC403443C4604C68022C01D0122CF3
:1003700013D1D40800EB8404A346D4F8209054078A
:100380004FEAD46A0EFA0AF629EA06090E6906FA55
:100390000AF646EA0906CBF8206006680C7926EAD8
:1003A0000C0604F00304BC40344304604C68E400D1
:1003B00065D5364C266846F480462660246822F0CF
:1003C000030604F480440094314C3444A446D4F829
:1003D00008489607370F0EFA07F6B4432D4EB04281
:1003E00001D1002624E02C4EB04201D101261FE0AD
:1003F0002A4EB04202D102261AE040E0284EB04216
:1004000001D1032614E0274EB04201D104260FE0AB
:10041000254EB04201D105260AE0244EB04201D15A
:10042000062605E0224EB04201D1072600E008264C
:10043000BE402643CCF808681E4E34684F689C4383
:10044000FF0300D51C4334601A4C241D26684F68F6
:100450009E43BF0300D51E432660164E08363468FF
:100460004F689C43FF0200D51C433460114E0C368C
:1004700034684F689C43BF0200D51C433460521C53
:10048000102AFFF445AFBDE8F88F00004438024061
:100490000030014000000240000402400008024019
:1004A000000C0240001002400014024000180240FC
:1004B000001C0240003C0140014880687047000079
:1004C000040000200248816802781144816070476E
:1004D000040000200B4810B5016841F40071016070
:1004E000016841F480610160016841F4807101603C
:1004F000032000F061F8002000F006F800F024F876
:10050000002010BD003C024070B50D4D04464FF474
:100510007A712878B1FBF0F00A490968B1FBF0F074
:1005200000F09BFD48B9102C07D200222146501E36
:1005300000F022F800206C6070BD012070BD00004A
:1005400004000020100000200A4808B5016841F4AA
:1005500080410160006800F4804000900548001F61
:10056000016841F080510160006800F08050009007
:1005700008BD000044380240F0B40E4B1B680C4626
:10058000C3F30223C3F10705042D00D90425191D67
:10059000072901D2002300E0DB1E012606FA05F13F
:1005A000491E214099409E40761E16403143F0BCC2
:1005B00000F07ABF0CED00E0064900F00702086881
:1005C0004FF6FF03184040EA0220034A1043086038
:1005D000704700000CED00E00000FA052DE9F8433B
:1005E000054600684FF00109C1074FF0000601D130
:1005F000400727D5DFF80C81C8F86860FFF75CFF7B
:100600000746414C05E000BFFFF756FFC01B02281C
:1006100057D820680001F7D468688101287A41EA38
:100620000070394984310860C8F86890FFF744FFCA
:10063000074604E0FFF740FFC01B022841D82068AE
:100640000001F7D52878800752D52F48403001683F
:1006500041F08051016000682C4C00F08050009007
:10066000206840F480702060FFF726FF074604E012
:10067000FFF722FFC01B022823D82068C005F7D54A
:10068000214C7034206810F4407020D0A98901F406
:10069000407181421BD020681D4920F44070C1F890
:1006A00000900E6020602068C00710D0FFF704FFA4
:1006B000064641F2883707E0FFF7FEFE801BB8428E
:1006C00002D90320BDE8F88320688007F4D5E968E3
:1006D0000D48C1F301220830032A0BD0016821F430
:1006E000F81101602068A989C1F30B01084320605B
:1006F0000020E7E70268074B22F4F81219400A438A
:100700000260EFE7000047420038024000700040FE
:10071000400E4742FFFCFF0F2DE9F0470E46050053
:1007200065D0DFF81481D8F80000F7B200F00F00B0
:10073000B04207D288F80070D8F8000000F00F002F
:10074000B04254D128683D4C810712D5400703D5EB
:10075000206840F4E05020602878000703D5206826
:1007600040F4604020602068A96820F0F000084351
:1007700020602878C0072DD03049686808390128E2
:1007800012D0022813D0032811D009688907002944
:100790002DDA216821F0030101432160FFF78CFE6F
:1007A000814641F2883A0EE009688903EFE709685B
:1007B0008901ECE7FFF780FEA0EB0901514502D962
:1007C0000320BDE8F0872068696800F00C00B0EBFA
:1007D000810FEFD1D8F80010404601F00F01B1426F
:1007E00007D90770006800F00F00B04201D0012067
:1007F000E7E72878400705D52068E96820F4E0504D
:10080000084320602878000706D52068296920F46D
:10081000604040EAC100206000F038F82168084AD2
:10082000C1F30311515CC8400649086006480068DE
:10083000FFF76AFE0020C4E7003C0240083802408F
:10084000D4180008100000200800002004480549C2
:1008500000680968044AC1F38221515CC8407047AE
:100860001000002008380240E41800080448054938
:1008700000680968044AC1F34231515CC8407047BE
:100880001000002008380240E4180008154810B590
:10089000006810F00C02144813D01449042A0FD039
:1008A000082A0ED10F4C241F2268236802F03F0251
:1008B0005B0207D52068C0F38810A0FB010106E0A9
:1008C000084610BD2168C1F38811A1FB0001002377
:1008D000FFF776FC2168C1F30141491C4900B0FBD8
:1008E000F1F010BD083802400024F40040787D018A
:1008F0002DE9F84F04006ED02078DFF83C93C00754
:10090000A9F104054AD009F104000168C1F381018D
:10091000012908D00068C0F3810002280AD1D9F863
:100920000000400206D52868800337D5606800289B
:10093000E1D033E06068B0F5803F10D0B0F5A02F73
:10094000286810D020F480302860286820F48020A7
:1009500028606068A8B1FFF7AFFD06460DE0286883
:1009600040F48030F4E740F480202860F7E700BFCF
:10097000FFF7A2FD801B642873D828688003F7D591
:100980000CE0FFF799FD064605E000BFFFF794FD78
:10099000801B6428F0D828688003F7D42078DFF81B
:1009A0009C8280074FF0000A3ED5A348001D0168D5
:1009B00011F00C0F08D00068C0F3810002280BD1A1
:1009C000D9F80000400207D42868800716D5E068EF
:1009D000012800D112E02BE1E068B8B10120C8F88D
:1009E0000000FFF769FD064605E000BFFFF764FD64
:1009F000801B0228C0D828688007F7D5286821699D
:100A000020F0F80040EAC10028600DE0C8F800A01E
:100A1000FFF752FD064604E0FFF74EFD801B02285B
:100A20001FD828688007F7D42078000722D5824E87
:100A300083486169703671B101210160FFF73CFDA7
:100A4000074604E0FFF738FDC01B022809D83068CC
:100A50008007F7D50EE0C0F800A0FFF72DFD074690
:100A600005E082E0FFF728FDC01B02287DD8306832
:100A70008007F7D42078400768D5DFF8BCB100279D
:100A80000BF13C0BDBF80000C0000BD4DBF80010CE
:100A900041F08051CBF80010DBF80000012700F096
:100AA00080500090674E3068C00510D4306840F424
:100AB00080703060FFF700FD009005E0FFF7FCFC60
:100AC0000099401A022850D83068C005F6D55A4E11
:100AD000A0686C3601280FD00528306810D020F0AF
:100AE00001003060306820F004003060A068B8B1C8
:100AF000FFF7E2FC00900FE0306840F00100F4E7FF
:100B000040F004003060F7E7FFF7D6FC0099411A87
:100B100041F28830814266D830688007F4D50EE013
:100B2000FFF7CAFC009007E0FFF7C6FC0099411AE6
:100B300041F28830814256D830688007F4D42FB112
:100B4000DBF8001021F08051CBF80010A069C8B389
:100B50003949091D0968C1F3810102294AD00228D7
:100B6000504607D0C8F8600000E03CE0FFF7A4FC66
:100B700004463BE04746C8F86000FFF79DFC064688
:100B800005E000BFFFF798FC801B02282BD82868DF
:100B90008001F7D4D4E907010843A16A2A4A490829
:100BA00002EB0141626A41EA8211084394F82C1079
:100BB00040EA0161C9F8001001203866FFF77CFCAB
:100BC000044606E036E000BFFFF776FC001B022873
:100BD00009D828688001F7D52CE000BFFFF76CFC2E
:100BE000001B022802D90320BDE8F88F2868800185
:100BF000F4D41FE00128F7D0D9F80000E26900F42E
:100C00008001914214D1226A00F03F0191420FD13C
:100C100047F6C071626A0140914209D1A26A00F4AC
:100C20004031914204D1E16A00F07060884201D005
:100C30000120D9E70020D7E70438024000004742EE
:100C4000800E4742007000400000FFFF2DE9F74F83
:100C50000446007F934601281BD04FF0010884F81A
:100C60001C80022060772168CA20486220685321D6
:100C70004162206880684FF0000540054FF0FF0694
:100C80004FF0030A4FF47A790FD5FFF715FC0746AA
:100C900007E00220BDE8FE8FFFF70EFCC01B4845B1
:100CA00011D82068C0684007F6D42068816821F414
:100CB00080618160FFF700FC07460BE0FFF7FCFB5B
:100CC000C01B484506D92068466284F81DA02577D8
:100CD0000320DFE72068C0684007EFD520688168FF
:100CE00021F0070181602068816841EA0B01816081
:100CF0002168019848612068816841F480618160C1
:100D00002068466284F81D8025770020C2E7000035
:100D100010B500680B4641680D480140080CD870BA
:100D2000C1F304245C7001F03F049C70C1F34231B4
:100D3000197052B900F08BFAD870587800F087FA21
:100D40005870987800F083FA9870002010BD000069
:100D50003FFFFF0010B50B460168896A59600168C2
:100D60000969C1F30E019960006801680E480140ED
:100D7000C1F305401870C1F306245C7001F07F04D4
:100D80009C70402404EA1141D97052B900F05FFA16
:100D90001870587800F05BFA5870987800F057FA9D
:100DA0009870002010BD00007F7F7F0070B50400A8
:100DB00002D0607F10B106E0012070BD00202077D6
:100DC000204600F049F8022060772168CA20486276
:100DD000216853204862204600F04EFAFF25042681
:100DE00018BB206881681B4A1140816021688868AF
:100DF00062681043D4E904231A43104388602168D1
:100E0000E068086120680169228941EA02410161C4
:100E10002068C16821F08001C16020688068800678
:100E200007D4204600F0FEF818B1206845626677C6
:100E3000C2E72068016C21F4802101642068016C04
:100E4000A269114301642068456201206077002097
:100E500070BD0000BFFF8FFF00680349884202D1C8
:100E60000249012008607047002800403C0E4742BC
:100E70002DE9F0470446007F0B4601281FD04FF0B4
:100E8000010984F81C9002206077DAB19878D9784B
:100E900040EA014558781978000240EA413005439C
:100EA0002168CA204862216853204862204600F029
:100EB000E3F90026FF274FF0040860BB1AE0022088
:100EC000BDE8F0875878C10603D500F0EF000A307E
:100ED0005870D87800F0C4F90204587800F0C0F9CE
:100EE00042EA0022987800F0BBF90243187842EAFF
:100EF0004035D5E70F480540206845602068C16847
:100F000021F08001C1602068806880060AD42046F4
:100F100000F088F830B12068476284F81D80267799
:100F20000120CDE72068476284F81D9026770020D5
:100F3000C6E700003FFFFF002DE9F0470446007FB1
:100F40000D46012827D04FF0010A84F81CA002208A
:100F500060772068002680684FEA4060F2B1002880
:100F600000DBEE70A878297840EA01476878E978D4
:100F7000000240EA014007432168CA204862216814
:100F800053204862204600F077F94FF0FF084FF0F9
:100F90000409A0BB16E00220BDE8F087002800DBB2
:100FA000EE70287800F05CF90204687800F058F9D7
:100FB00042EA0022A87800F053F90243E87842EAB6
:100FC0000047D9E716480740206807602068816815
:100FD00021F480218160D5E90301084321688A68F2
:100FE000104388602068C16821F08001C1602068DA
:100FF000806880060BD4204600F014F838B12168D0
:10100000C1F8248084F81D9026770120C4E7216868
:10101000C1F8248084F81DA026770020BCE70000DA
:101020007F7F7F0070B504460068C16821F0A00191
:10103000C160FFF741FA05464FF47A7607E000BF3A
:10104000FFF73AFA401BB04201D9032070BD206877
:10105000C0688006F4D5002070BD10B5401EB0F108
:10106000807F01D3012010BD4FF0E02460610F218B
:10107000601700F019FA0020A0610720206100200D
:1010800010BD70B5040004D094F83900002510B1EB
:1010900006E0012070BD84F83850204600F022F8A8
:1010A000242084F839002068C16821F40051C1600F
:1010B000204600F053F92068016921F49041016154
:1010C0002068416921F02A0141612068C16841F42A
:1010D0000051C160E563202084F8390084F83A00AB
:1010E000002070BD10B586B0044614216846FFF795
:1010F0009FF814492068884221D1134800210268D2
:1011000042F010020260006800F0100005900E48E6
:101110001438026842F001020260006800F0010029
:1011200005904FF4C06000900220CDE9010103203A
:1011300003900720049069460448FFF7E1F806B0E1
:1011400010BD000000100140443802400000024081
:10115000FEE70000094808B5016841F0010101609F
:10116000016801F001010091016841F00401016092
:10117000006800F00400009008BD00003038024014
:1011800010B586B014216846FFF752F81F480024B6
:101190001D490594C0E900147F218160FF21C0E949
:1011A000031444618461FFF701FE08B1FFF794F86E
:1011B0008DF800408DF801408DF802400394012223
:1011C000694612480494FFF7B7FE08B1FFF784F8A8
:1011D00001208DF814008DF815008DF816000246D8
:1011E0008DF8174005A90948FFF742FE08B1FFF73F
:1011F00073F8002211460548FFF728FD002801D0AA
:10120000FFF76AF806B010BD002800402C0000204F
:101210000C4810B50A4901604FF4E13141600021EA
:1012200081600C22C160C0E904128161C161FFF7D5
:1012300028FF002803D0BDE81040FFF74DB810BDCF
:10124000001001404C000020FEE770477047010984
:1012500001EB810100F00F0000EB4100C0B27047CC
:10126000002102E00A38C0B2491C0A28FAD2090754
:1012700040EA11607047000070B504460068C1681C
:10128000490614D44FF0FF31C160FFF715F9054648
:101290004FF47A7607E000BFFFF70EF9401BB0422B
:1012A00001D9032070BD2068C0684006F4D5002035
:1012B00070BD7047FFF706B910B596B0302168468B
:1012C000FEF7B6FF14210CA8FEF7B2FF00241A485F
:1012D0001194129413941494016841F080510160A8
:1012E000006800F0805015901448016841F4804176
:1012F0000160006800F480401590062000900120F5
:10130000029003901020049006946846FFF7F0FACC
:101310000F20CDE90C040E940F9400210CA810941A
:10132000FFF7FAF902201190C001149011A8FFF7FD
:1013300055F916B010BD0000403802400070004062
:101340000548016841F47001016003494FF00060F5
:10135000803908607047000088ED00E02DE9F04119
:10136000044600680169E26821F4405111430161BB
:101370002169A068E2690843616911430843216853
:10138000CA6849F20C639A430243CA602068416903
:10139000A26921F4407111434161E0691927642574
:1013A0003226B0F5004F354A354920684FF0000825
:1013B00006D0884201D0904236D1FFF757FA35E087
:1013C000884201D0904202D1FFF750FA01E0FFF7C6
:1013D0003DFA61684A18A0FB070148EB0803FEF7D5
:1013E000EFFE0146B0FBF5F00201B1FBF5F06FF046
:1013F0001803584301EB800006EBC000B0FBF5F08A
:1014000000F0F80002EB4002B1FBF5F0584301EBAD
:10141000800006EBC000B0FBF5F000F0070021688B
:1014200010448860BDE8F081FFF710FA61688B0F07
:101430008A00A0FB0701FEF7C3FE0146B0FBF5F0F2
:101440006FF01802504301EB800006EB0010B0FB78
:10145000F5F000F0F002B1FBF5F002EB0012B1FB89
:10146000F5F06FF01803584301EB800006EB001015
:10147000B0FBF5F000F00F00D1E7000000140140D0
:1014800000100140FEE700000FB4054B10B503A9A2
:10149000044A029800F028F810BC5DF814FB000024
:1014A0002D180008140000200907090E002804DB8D
:1014B00000F1E02080F80014704700F00F0000F108
:1014C000E02080F8141D704702E008C8121F08C110
:1014D000002AFAD170477047002001E001C1121FB5
:1014E000002AFBD1704700002DE9FF4F8BB08846E2
:1014F0000546002606E025280BD0DDE90D129047B1
:101500006D1C761C28780028F5D10FB03046BDE858
:10151000F08F0024A146A2460122AE4900E0044318
:1015200015F8013F203B02FA03F00842F7D1287872
:101530002A2810D06FF02F022878A0F13001092955
:1015400015D809EB890102EB410144F0020400EBDC
:1015500001096D1CF0E758F8041B5FEA010903D587
:1015600044F40054C9F1000944F002046D1C2878C9
:101570002E2817D115F8010F44F004042A280ED0A4
:101580006FF02F022878A0F1300109290AD80AEB60
:101590008A0102EB410100EB010A6D1CF2E758F8E9
:1015A00004AB6D1C28786C280FD006DC4C2817D0B3
:1015B00068280DD06A2814D104E0742810D07A2845
:1015C0000FD10DE044F400140AE044F4801401E06B
:1015D00044F440146978814202D104F580146D1CF2
:1015E0006D1C2878692865D006DC00288DD063281A
:1015F00027D0642806D15DE06E2808D073282AD051
:10160000752877D0DDE90D129047761CE0E0C4F331
:101610000250022809D003280DD0D8F80010042861
:101620000DD00E6008F10408D2E0D8F80010F217CF
:10163000C1E90062F6E7D8F800100E80F2E70E70FC
:10164000F0E718F8041B8DF8001000208DF8010059
:10165000EB46012003E058F804BB4FF0FF30610770
:101660004FF0000701D40AE07F1C57450DDA87428E
:10167000FADB1BF807100029F6D106E07F1C874231
:10168000FCDB1BF807100029F8D1DDE90D23A9EBDD
:1016900007008146214600F0B1F83044C61904E045
:1016A000DDE90D121BF8010B90477F1EF8D2214691
:1016B000484688E058F8040BC4F302514FF00A0B77
:1016C000032900D100B2042900D140B2002802DA77
:1016D00040422D2102E0210505D52B218DF8241053
:1016E000012104E006E0E10710D02021F6E708AF71
:1016F000089113E058F8040BC4F302514FF00A0BA1
:10170000032900D180B2042900D1C0B20021EEE744
:101710005946FEF798FD303107F8011D0028F7D132
:10172000ADEB070000F1200B600702D524F48034F4
:1017300001E04FF0010ADA4502DDAAEB0B0000E000
:101740000020824600EB0B0108980144A9EB010040
:101750000A90E00306D4DDE90D2321460A9800F043
:101760004DF806444FF0000908E009A911F80900F6
:10177000DDE90D12904709F10109761C08998945A8
:10178000F3DBE0030CD5DDE90D2321460A9800F0D8
:1017900035F8064404E0DDE90D1230209047761C50
:1017A000BAF10001AAF1010AF5DC05E0DDE90D124C
:1017B00017F8010B9047761CBBF10001ABF1010B50
:1017C000F4DC0A982146DDE90D2300F005F8064413
:1017D0006D1C97E6092801002DE9F041044600251B
:1017E0001E461746880404D405E039462020B04739
:1017F0006D1C641EF9D52846BDE8F0812DE9F04145
:10180000044600251E469046C80301D5302700E057
:101810002027880404D505E041463846B0476D1CB2
:10182000641EF9D52846BDE8F081000003490A6826
:101830005206FCD5C2B24A60704700000010014059
:10184000FEF748FEFFF738FDFFF784FCFFF798FC32
:10185000FFF7DEFC114D124C4FF47A7600220F494F
:101860001048FFF777FA00220D490E48FFF750FAAB
:10187000E178A37862780CA001F5FA61FFF704FE25
:10188000AB786A7829780DA0FFF7FEFD10A0FFF76E
:10189000FBFD3046FEF722FDE0E7000018000020C7
:1018A000000000202C000020253032642F2530322B
:1018B000642F253032640D0A0000000025303264A8
:1018C0003A253032643A253032640D0A00000000B7
:1018D0000D0A0000000000000000000001020304E7
:1018E0000607080900000000010203040C190008A3
:1018F0000000002018000000C81400082419000887
:101900001800002078040000D8140008000000002F
:101910000100000010000000000000000024F4009E
:0419200000000000C3
:040000050800018965
:00000001FF
