:020000040800F2
:10000000380600209D0100080F3F0008192800084D
:100010000D3F0008E90A00084D42000800000000FA
:10002000000000000000000000000000133F000876
:10003000D50E000800000000113F0008153F000821
:10004000B7010008B7010008B7010008B7010008B0
:10005000B7010008B7010008B7010008B7010008A0
:10006000B7010008B7010008B7010008B701000890
:10007000B7010008B7010008B7010008B701000880
:10008000B7010008B7010008B7010008B701000870
:10009000B7010008B7010008B7010008B701000860
:1000A000B7010008B7010008B7010008B701000850
:1000B000B7010008BD3F0008B7010008B7010008FC
:1000C000B7010008B7010008B7010008B701000830
:1000D000B7010008B7010008B7010008B701000820
:1000E000B7010008B7010008B7010008B701000810
:1000F000B7010008B7010008B7010008B701000800
:10010000B7010008B7010008B7010008B7010008EF
:10011000B7010008B7010008B7010008B7010008DF
:10012000250E0008B7010008B7010008B701000854
:10013000B7010008B7010008B7010008B7010008BF
:10014000B7010008B7010008B7010008B7010008AF
:10015000B7010008B7010008B7010008B70100089F
:10016000B7010008B7010008B7010008B70100088F
:10017000B7010008B7010008B7010008000000003F
:10018000B7010008B7010008DFF80CD000F01AFB37
:10019000004800473D4F00083806002006488047C9
:1001A00006480047FEE7FEE7FEE7FEE7FEE7FEE75C
:1001B000FEE7FEE7FEE7FEE7A13F00088901000831
:1001C0002DE9F05F0546002092469B46884606468C
:1001D000814640241BE0284641464746224600F01F
:1001E00075F953465A46C01A914110D31146184624
:1001F000224600F05CF92D1A67EB01084F462246B3
:100200000120002100F053F917EB00094E41201E98
:10021000A4F10104DFDC484631462A464346BDE8E6
:10022000F09FD2B201E000F8012B491EFBD27047CB
:100230000022F6E710B513460A4604461946FFF7B2
:10024000F0FF204610BD10B5002200E0521C835C78
:100250008C5CA34201D1002BF8D1D8B2E1B2401A94
:1002600010BD2DE9FE4F81EA030404F0004421F0A3
:10027000004100944FF0000B23F0004350EA0104CA
:100280005ED052EA03045BD0C3F30A54C1F30A55AB
:100290002C44A4F2F3340194A0FB0254C1F31301E3
:1002A00041F48011C3F3130343F4801301FB0244B0
:1002B00000FB034E840A970A44EA815447EA8357B5
:1002C000A4FB076802958D0A05FB07854FEA932C6E
:1002D00004FB0C542705029D4FEA065847EA1637DF
:1002E000B5EB08056EEB070C870E920E47EA8117F7
:1002F00042EA8312A7FB0201B6EB0B0164EB000498
:100300002B0D43EA0C335E1844EB1C50DA46514681
:10031000E7FB0201C5F313044FEA0B3343EA14531E
:100320004FEA0432019C43EA0603A4F10C04029450
:10033000009CCDE900B400F01FF903B0BDE8F08FD8
:1003400000200146F9E72DE9F04D81EA030404F0AD
:10035000004B21F0004514464FF0000A23F0004105
:1003600050EA050220D054EA01021DD0C5F30A5715
:100370000246C5F31303C1F31300C1F30A5640F458
:10038000801543F48013A7EB0608101BD64608F22D
:10039000FD3873EB050002D308F1010801E0921863
:1003A0005B41B8F1000F03DA00200146BDE8F08D93
:1003B00000204FF48011064684460EE0171B73EBB5
:1003C000050705D3121B63EB050306434CEA010C3A
:1003D00049084FEA300092185B4150EA0107EDD11D
:1003E00052EA030012D082EA040083EA05010843BE
:1003F00005D0101BAB4106D20122002306E00022EB
:100400004FF0004302E06FF0010253101AEB0600B8
:100410004CEB085110EB0A0041EB0B01BDE8F04D2D
:1004200000F09BB800F0004230F000400AD0C10D4F
:1004300001F56071C0F3160042EA0151C20840079D
:100440001143704700200146704701F0004330B46B
:1004500021F0004150EA010206D00A0DA2F56072B7
:10046000C1F31301002A02DC30BC00207047440FA6
:1004700044EAC104C100E01830BC00EBC25000F0F7
:1004800035B830B50B46014600202022012409E092
:1004900021FA02F59D4205D303FA02F5491B04FA3D
:1004A00002F52844151EA2F10102F1DC30BD202A1C
:1004B00004DB203A00FA02F1002070479140C2F1BB
:1004C000200320FA03F3194390407047202A04DBED
:1004D000203A21FA02F00021704721FA02F3D040BD
:1004E000C2F1200291400843194670470029A8BF75
:1004F0007047401C490008BF20F00100704710B44D
:10050000B0FA80FC00FA0CF050EA010404BF10BC01
:10051000704749B1CCF1200421FA04F411FA0CF12E
:1005200018BF012121430843A3EB0C01CB1D4FEA67
:1005300000614FEA102042BF002010BC704700EB62
:10054000C35010440029A4BF10BC7047401C490090
:1005500008BF20F0010010BC704710B5141E73F1E5
:10056000000408DA401C41F1000192185B411A4373
:1005700001D120F0010010BD2DE9F04D92469B46BF
:1005800011B1B1FA81F202E0B0FA80F22032904665
:10059000FFF78DFF04460F4640EA0A0041EA0B01CF
:1005A00053465A46084313D0114653EA010019D066
:1005B000C8F140025046FFF789FF05460E465046F7
:1005C00059464246FFF773FF084305D0012004E077
:1005D00020463946BDE8F08D0020054346EAE07626
:1005E0002C4337430A986305E40AA0EB0800002275
:1005F000FD0A44EA47540A3002D500200146E9E7E3
:10060000010510196941DDE9084500196941BDE896
:10061000F04DA2E72DE9FE4F804681EA0300C00FAE
:100620000C46009021F0004123F00045B8EB020099
:10063000A94105D24046214690461C460B4602463B
:1006400023F00040104347D0270DC7F30A00C3F33F
:100650000A510290401A019040286BDAC3F313004C
:1006600040F4801B0098924620B10023D2EB030A8D
:1006700063EB0B0B01985946C0F140025046FFF75F
:1006800016FF06460D4650465946019A00F0ACF852
:1006900010EB08006141002487EA115284EAE773F5
:1006A0001A4340D0009A62B3019A012A4FEA0752D6
:1006B00015DC001B61EB02014FF0004202EA075219
:1006C000CDE90042001C41F5801132462B46FFF770
:1006D00053FF03B0BDE8F08F40462146F9E7001B09
:1006E00061EB0201001C41F5801300185B412018EA
:1006F000A2F5001747EB030140EAD570B6196D412A
:1007000011E06D084FEA360645EAC0754FEA075218
:10071000001B61EB0201001C41F5801149084FEA02
:1007200030000019514132462B4603B0BDE8F04F6E
:10073000FFF713BF0098012240000023D0EB020214
:1007400063EBE073009821464FEAE074B8EB0000D9
:1007500061EB0401E9E783F000435BE781F00041CE
:1007600058E7C1F30A52C1F3130140F2FF3341F4D9
:1007700080119A4202DA00200146704740F233436A
:100780009A42A2F2334202DC5242FFF79FBEFFF7C9
:100790008EBE000030B5041E71F1000404DB4FF082
:1007A0000044404264EB0101141E73F1000405DBB8
:1007B0001C464FF00043524263EB0403994208BFCA
:1007C000904230BD064C074D06E0E06840F0010362
:1007D00094E8070098471034AC42F6D3FFF7D8FCF2
:1007E000AC200C08CC200C08202A06DBCB17203AC2
:1007F00041FA02F043EAE07306E041FA02F3D04026
:10080000C2F12002914008431946704710B50146D5
:10081000806B026C12F0500F05D0026CD20626D508
:1008200000F064FE10BD016C41F4007101640168C8
:100830008A6812F0405F17D1027EAAB9CA6A12F420
:10084000700F02D08A6852050ED44A6822F0200246
:100850004A60016C21F480710164016CC90403D405
:10086000016C41F00101016400F03EFE10BD806B9F
:10087000C26CBDE810400846104710B5806B40219F
:100880000164416C41F00401416400F02FFE10BD91
:1008900010B5806B00F029FE10BD0000464910B570
:1008A0004A6822F440324A604A6843681A434A6000
:1008B00001684A6822F480724A6001684A680369E4
:1008C00042EA03224A6001684A6822F040724A60A4
:1008D00001684A6883681A434A6001688A6822F49A
:1008E00000628A6001688A68C3681A438A60816A04
:1008F0006FF07062D14201688A6822F070628A608B
:1009000001688A680CD0836A1A438A6001688A6821
:1009100022F040528A6001688A68C36A1A4301E083
:1009200022F040528A6001688A6822F002028A60DE
:1009300001688A68037E42EA43028A6090F82010C8
:10094000002901684A680FD042F400624A600168D9
:100950004A6822F460424A6001684A68174C436A58
:1009600004EB43331A4301E022F400624A60016859
:10097000CA6A22F47002CA620168CA6A838B104C88
:1009800004EB03531A43CA6201688A6822F40072B6
:100990008A6001688A6890F8303042EA43228A60AF
:1009A00001688A6822F480628A6001688A68406906
:1009B00042EA8020886010BD0023014000E0FFFF74
:1009C0000000F0FF7CB5364C0026A17A0A2900D140
:1009D000A672344DA17A45F82100491CA1720A2162
:1009E000284601F01AFFD5E903010844D5E90512AC
:1009F0001144084400EE100AF5EE000AB8EE400A71
:100A000020EE200A84ED060A10EE100AFFF70AFD18
:100A100041EC100B24A053EC102B03F019FCA0693F
:100A2000FFF700FD9FED241B53EC112BFFF719FC82
:100A30009FED231B53EC112BFFF713FC9FED221BA3
:100A400053EC112BFFF70DFC9FED211B53EC112BE9
:100A5000FFF779FCFFF7F9FC00EE100AF2EE040A4A
:100A600084ED070A1C4820EE200A04230680182083
:100A7000BCEEC00ACDE9000610EE102A55218C20EC
:100A800003F092F8E069FFF7CDFC02B041EC100BE7
:100A9000BDE8704053EC102B10A003F0D9BB000050
:100AA0001C000020E40100204144435F76616C7526
:100AB000653D25660A0000006666666666660A4051
:100AC0000000000000408F40000000000000303FA8
:100AD0000000000000C0624012000020495F766103
:100AE0006C75653D25660A00FEE7000010B5144CE4
:100AF00000228021204601F0B4F800F081F90220A4
:100B000004F058F8002208210E4801F0AAF802204B
:100B100004F050F8022004F04DF801228021204614
:100B200001F09FF8022004F045F8022004F042F89A
:100B300020460022BDE81040802101F092B800005C
:100B4000001802400020024070B51A4886B00168C3
:100B500041F040010160016801F040010591016828
:100B600041F4807101600068012400F480700590F8
:100B70008020CDE90004104E022569463046CDE9BB
:100B8000024500F08DFF01228021304601F069F816
:100B90000820CDE90004CDE90245084C694620460D
:100BA00000F07EFF01220821204601F05AF806B02D
:100BB00070BD0000303802400018024000200240A2
:100BC00010B5114C00228021204601F04AF800F0B7
:100BD00017F9022003F0EEFF012208210B4801F073
:100BE00040F8022003F0E6FF01228021204601F0B8
:100BF00038F8022003F0DEFF20460022BDE8104056
:100C0000802101F02EB800000018024000200240B0
:100C10002DE9F0410746002400F0E2F8144EDFF819
:100C20005480002500228021304601F01AF804206B
:100C300003F0C0FF01228021304601F012F8600667
:100C4000040E0821404601F007F808B1641CE4B224
:100C5000042003F0AFFF6D1CEDB2082DE2D327B1E5
:100C6000FFF744FF2046BDE8F081FFF7A9FFF9E751
:100C700000180240002002402DE9F041054600F036
:100C8000BFF8174E00228021304600F0EAFF022014
:100C900003F090FF134F0024280601D5012200E045
:100CA00000220821384600F0DCFF6806050E05200A
:100CB00003F080FF01228021304600F0D2FF0520A2
:100CC00003F078FF00228021304600F0CAFF0520A3
:100CD00003F070FF641CE4B2082CDDD3BDE8F081A2
:100CE000001802400020024070B500F089F80F4C57
:100CF00001220821204600F0B4FF0D4D0122802181
:100D0000284600F0AEFF052003F054FF0022082122
:100D1000204600F0A6FF052003F04CFF2846BDE862
:100D200070400022802100F09CBF000000200240A3
:100D30000018024070B500F063F80F4C01228021CA
:100D4000204600F08EFF0D4D00220821284600F0BD
:100D500088FF052003F02EFF01220821284600F01D
:100D600080FF052003F026FF2046BDE870400022EA
:100D7000802100F076BF00000018024000200240F1
:100D800070B5002400F02CF8134D012208212846EC
:100D900000F067FF022003F00DFF104E01228021BA
:100DA000304600F05EFF07E0641CE4B2FA2C03D981
:100DB000FFF7C0FF012070BD022003F0FBFE0821F9
:100DC000284600F049FF0028EED10022802130465D
:100DD00000F047FF002070BD0020024000180240D4
:100DE00000B585B0082000900020019001200290FD
:100DF0006946024800F054FE05B000BD00200240E4
:100E000000B585B0082000900120019002900220DA
:100E100003906946024800F043FE05B000BD0000A3
:100E200000200240014800F073BC0000A400002034
:100E300001681823CAB2103AB2FBF3F2054B6FF304
:100E40000901032A9B5CC36500D9091D8165084619
:100E5000704700008A200C0810B5014600208B69FD
:100E60008A6A4FF0C07453B1B3F5005F15D072B108
:100E7000012A0CD0022A0AD0032A09D104E01AB1AF
:100E8000012A06D0022A03D1C96AC90100D501206E
:100E900010BDC96AA142FAD010BD002AF7D0012ABC
:100EA000F2D0022AF3D0032AF3D010BD30B5046883
:100EB000256825F480252560046863608368402BDD
:100EC000036803D099600068C26030BD9A60006812
:100ED000C16030BD7047704770B5B3F5804F05D025
:100EE0006FF0704140F82210002070BD50F8224091
:100EF000084B8E891C40D1E9003543EA05138D6803
:100F000089692D0245EA06452B430B43234340F8EC
:100F10002230E9E70000F0CFF0B50C6850F824303B
:100F2000114A1340D1E90125D1E903672A433E4321
:100F300032434E6932438E693243CE6932430E6A80
:100F400032434E6A32438E6A3243CE6A3243CE6BAC
:100F5000096B32430A431A43082D01D142F0400283
:100F600040F824200020F0BD8000F0FF30B500EBF9
:100F7000820250688D8900F04043D1E9000440EAC4
:100F800004108C68240244EA054420430C8A074D6F
:100F900005EB045420430C7D6D0105EB0464896965
:100FA0002043084318435060002030BD0000F0FF8C
:100FB0002DE9F041404888B00024016841F4807177
:100FC0000160016801F480710791016841F004013A
:100FD00001600068042600F00400079001AA0125C2
:100FE00003270096DFF8D48082E8B00069464046C7
:100FF00000F056FDCDE902578020CDE90005304FC5
:101000006946384600F04CFDFFF79EFD0022802126
:10101000384600F026FE0A2003F0BEFD01228021A2
:10102000384600F01EFE0A2003F0B6FD0096CDE91A
:101030000154022569464046039500F031FD6420C5
:1010400003F0AAFD042205A948F2401000F04EF872
:101050008DF8184005A91BA003F0FAF81CA105A8FB
:10106000FFF7F1F818B1012008B0BDE8F0818DF864
:10107000145048F24005012205A9284600F064F901
:10108000012205A9E81D00F031F89DF8141060292F
:1010900005D211A003F0DCF8012000F02DF90A20A0
:1010A00003F07AFD8DF81440012205A9284600F0CE
:1010B0004BF90020D8E70000303802400020024001
:1010C0000008024054502049443A25730D0A00009C
:1010D000393134370000000044656661756C742056
:1010E0005665723A25640D0A000000002DE9F041B2
:1010F00015460E460446FFF7F7FD2820FFF7BCFD16
:10110000FFF73EFE200AFFF7B7FDFFF739FEE0B21A
:10111000FFF7B2FDFFF734FEFFF7E6FD2920FFF7EA
:10112000ABFDFFF72DFE00246F1E09E0BC4201D08D
:10113000012000E00020FFF76BFD3055641CE4B295
:10114000AC42F3D3BDE8F041FFF7F4BD2DE9F14F18
:10115000654E00244FF00A0B307886B0401CC0B2B8
:10116000B0FBFBF20BFB1201DFF88081A14630706F
:1011700009B10A287ED248F24E15012206A9284656
:10118000FFF7B4FF9DF818004FF0000701060AD5DD
:1011900000F00F00062806D28DF800700122694683
:1011A000284600F0D1F89DF81800010768D000F03B
:1011B0000F01062964D2FF2088408DF80000C0434B
:1011C00098F814A040F0C00088F81400B8F80000A7
:1011D000A8F80800B8F80A004546A8F812004FF031
:1011E0000109297D09FA04F001422DD0404804226A
:1011F00003A930F81400FFF779FF95F824009DF853
:101200000D10C0079DF80C0000EB01200DD005EB80
:10121000440148819DF80E009DF80F1000EB01205D
:10122000C0F5487025F814000AE025F814009DF870
:101230000E009DF80F1000EB012005EB44014881E2
:10124000288870806889B080641CE4B2052CC8D3FB
:10125000284829884FF001090288914203D86989FA
:10126000408881420BD99DF8180000F00F0001283A
:101270000DD900E004E068882880A889688137706B
:101280009DF8180000F08F0080280AD022E02889FD
:101290002880688A688180208DF8180085F814A05D
:1012A000EEE798F8140001060AD520F0800088F8CF
:1012B0001400B8F800007080B8F80A00B08009E0A7
:1012C0004FF6FF71A8F80010A8F80A1000F0E0002F
:1012D00088F814003078F02801D986F800B007B0FB
:1012E0004846BDE8F08F00000C0000200C020020F2
:1012F000B8500008D401002008B500218DF8001076
:101300008DF801000F4800BF435C9DF80020491C88
:101310001A44C9B28DF80020B829F5D3D0B2C04321
:10132000401C8DF80000B822064948F2470000F042
:101330000BF80222694648F2FF0000F005F8002091
:1013400008BD0000005000082DE9F04116460F4688
:1013500004460025FFF7C8FC2820FFF78DFCFFF7A7
:101360000FFD200AFFF788FCFFF70AFDE0B2FFF748
:1013700083FCFFF705FD002408E0385DFFF77CFCE7
:10138000FFF7FEFC050003D1641CE4B2B442F4D3C1
:10139000FFF7D0FC2846BDE8F081000078B50024B6
:1013A000009490F83C20012A19D0012280F83C20BA
:1013B0000A6807230568092A13D9EE680A3A02EB7E
:1013C000420293409E43EE600B788A680A3B03EB2F
:1013D00043039A400368DD682A43DA6010E0022084
:1013E00078BD2E6902EB420293409E432E610B783A
:1013F0008A6803EB43039A4003681D692A431A6114
:101400004A681F23072A13D205686E6B521E02EB2F
:10141000820293409E436E630B790A885B1E92B2F0
:1014200003EB83039A4003685D6B2A435A6327E00A
:1014300005680D2A12D22E6BD21F02EB8202934056
:101440009E432E630B790A88DB1F92B203EB830362
:101450009A4003681D6B2A431A6311E0EE6A0D3A45
:1014600002EB820293409E43EE620B790A880D3BA9
:1014700092B203EB83039A400368DD6A2A43DA627F
:10148000164B0568144A9D4206D10D68122D03D1F2
:10149000556845F48005556005689D4218D10B6874
:1014A000102B01D0112B13D1536843F40003536068
:1014B000096810290CD10A490A4A0968B1FBF2F1FE
:1014C00001EB8101490000E0491E00910029FBD198
:1014D00080F83C40002078BD0023014000200140FE
:1014E0005400002040420F0070477047704770B5AD
:1014F00004004FF0000503D0206C002610B107E077
:10150000012070BD204600F01DF8666484F83C6040
:10151000206CC00610D4206C20F4885040F00200EB
:1015200020642046FFF7BAF96664206C20F00200C0
:1015300040F00100206400E0012584F83C6028466A
:1015400070BD0000F0B587B0064614216846FEF76E
:101550006FFE1E493068884235D11D48002501685C
:1015600041F480610160006800F4806005901848D3
:101570001438016841F02001016000684FF4806771
:1015800000F02000009705900320CDE90105694691
:10159000104800F085FA114C0F4820608005C4E91E
:1015A0000105C013E560C4E904708000A06140112A
:1015B000C4E907052046656200F07AF908B1FFF733
:1015C0008AFCB463A66307B0F0BD000000220140AE
:1015D000443802400014024010640240A40000207D
:1015E000F8B50E4600210446009190F83C00012811
:1015F00007D0012084F83C0020688368DB0702D014
:1016000011E00220F8BD836843F00103836037488E
:10161000374B0068B0FBF3F000EB400000E0401EE9
:1016200000900028FBD120688368DB075CD0236C26
:1016300040F20165AB4343F4807323644068400586
:1016400005D5206C20F4005040F480502064206CBC
:10165000C00404D5606C20F00600606400E06164A2
:1016600084F83C10A16B2448224DC863A16B234829
:101670000864A16B2248C86421686FF022000860EA
:101680002068416841F0806141602068816841F4D0
:10169000807181602168134632464C31A06B00F0A6
:1016A00071F968681749C006206806D088421BD1C6
:1016B000816811F0405F13D016E08842F8D0124ADA
:1016C000904203D1D1F80423D206F1D00F4A9042C0
:1016D0000AD1D1F8041301F01F011029E8D303E067
:1016E000816841F0804181600020F8BD54000020F5
:1016F00040420F00002301400D0800089108000837
:101700007B08000800200140002101400022014028
:101710002DE9F84304464FF00009CDF800906348E6
:101720004FF41651A56D0068B0FBF1F72E6894F8E0
:101730005C10082000FA01F131420FD021680A68DC
:1017400052070BD50A6822F004020A6094F85C1074
:101750008840A860606D40F00100606594F85C10FE
:101760004FF0010808FA01F0304208D021684969B9
:10177000090604D5A860606D40F00200606594F829
:101780005C1004208840304208D02168096889072D
:1017900004D5A860606D40F00400606594F85C10AA
:1017A00010208840304218D021680968090714D5F4
:1017B000A86020680168490304D50068000308D5C3
:1017C000A16C07E00168C90503D4016821F0080194
:1017D0000160216C09B12046884794F85C102020F4
:1017E0008840304231D021680968C9062DD5A860EB
:1017F00094F8350005282068016806D0490347D5CC
:10180000006800031DD4616C1CE021F0160101602A
:101810002068416921F080014161206C08B9A06C09
:1018200020B12068016821F00801016094F85C1083
:101830003F208840A86084F8349084F83580216D7A
:101840001FE0E16B09B120468847606D00282BD06E
:10185000606DC00714D0052084F835002068016849
:1018600021F0010101600098401C0090B84203D8AB
:1018700020680068C007F6D184F8349084F8358079
:10188000E16C002910D001B02046BDE8F0430847C4
:101890000168C905D5D4016821F01001016084F800
:1018A000349084F83580CCE7BDE8F88354000020FC
:1018B0002DE9F041044600F0D9F906465CB1002557
:1018C00084F83450022084F835002068016821F043
:1018D000010101600DE00120BDE8F08100F0C6F9D2
:1018E000801B052805D920206065032084F8350079
:1018F000F2E720680068C007F0D12268116820482C
:101900000140D4E901031843D4E9033633431843B3
:1019100063691843A3691843E3691843236A1843AA
:101920000843616A042903D1D4E90B13194308431E
:10193000106020684069666A20F0070130460E4357
:10194000012704280CD1A06A0643E06A40B1204672
:10195000FFF782FA20B14020606584F83570BAE75D
:10196000206846612046FFF763FA94F85C203F2127
:1019700091408160656584F835700020ACE7000017
:101980003F8010F02DE9F0410446866D90F8340058
:10199000002501280DD0012084F8340094F835701A
:1019A0000020012F07D084F8340002252846BDE826
:1019B000F0810220FBE7022784F83570606520463D
:1019C000FFF774FA94F85C103F208840B0602068FC
:1019D000016841F016010160206C20B120680168A7
:1019E00041F0080101602068016841F001010160D7
:1019F000DCE700002DE9F04186B014216846FEF7CF
:101A000017FC2148016800293AD14FF00108C0F8BD
:101A100000801E480024016841F001010160006857
:101A2000022500F0010005904FF48050CDE900053B
:101A300002AA03260C2782E8D0006946144800F069
:101A40002FF84CF23370CDE9000502AA694682E80E
:101A5000D000104800F024F802AA694682E8D000BD
:101A6000CDE900850C4800F01BF84FF68070CDE9F9
:101A7000000502AA694682E8D000084800F010F884
:101A800006B0BDE8F08100000000002038380240B8
:101A900000180240000C02400014024000100240F6
:101AA0002DE9F84F00224FF0010803254FF00F0EEB
:101AB0000B6808FA02F42340A3426ED14E68012E4F
:101AC00005D0022E03D0112E01D0122E12D186681D
:101AD0004FEA420C05FA0CF7BE43CF6807FA0CF741
:101AE000374387604668A6430C79C4F300149440DA
:101AF00034434460C668570005FA07FC8C6826EA40
:101B00000C06BC403443C4604C68022C01D0122C3B
:101B100013D1D40800EB8404A346D4F820905407D2
:101B20004FEAD46A0EFA0AF629EA06090E6906FA9D
:101B30000AF646EA0906CBF8206006680C7926EA20
:101B40000C0604F00304BC40344304604C68E40019
:101B500065D5364C266846F480462660246822F017
:101B6000030604F480440094314C3444A446D4F871
:101B700008489607370F0EFA07F6B4432D4EB042C9
:101B800001D1002624E02C4EB04201D101261FE0F5
:101B90002A4EB04202D102261AE040E0284EB0425E
:101BA00001D1032614E0274EB04201D104260FE0F4
:101BB000254EB04201D105260AE0244EB04201D1A3
:101BC000062605E0224EB04201D1072600E0082695
:101BD000BE402643CCF808681E4E34684F689C43CC
:101BE000FF0300D51C4334601A4C241D26684F683F
:101BF0009E43BF0300D51E432660164E0836346848
:101C00004F689C43FF0200D51C433460114E0C36D4
:101C100034684F689C43BF0200D51C433460521C9B
:101C2000102AFFF445AFBDE8F88F000044380240A9
:101C30000030014000000240000402400008024061
:101C4000000C024000100240001402400018024044
:101C5000001C0240003C01400069084000D0012007
:101C600070470AB1816170470904FBE70148806849
:101C70007047000048000020024881680278114443
:101C800081607047480000200B4810B5016841F49E
:101C900000710160016841F480610160016841F4F4
:101CA00080710160032000F06FF8002000F006F85A
:101CB00000F024F8002010BD003C024070B50D4D2E
:101CC00004464FF47A712878B1FBF0F00A490968AC
:101CD000B1FBF0F000F03DFB48B9102C07D2002218
:101CE0002146501E00F030F800206C6070BD0120CD
:101CF00070BD000048000020540000200A4808B5CC
:101D0000016841F480410160006800F48040009067
:101D10000548001F016841F080510160006800F033
:101D20008050009008BD000044380240002809DBC4
:101D300000F01F02012191404009800000F1E020E5
:101D4000C0F8001170470000F0B40E4B1B680C4641
:101D5000C3F30223C3F10705042D00D90425191D7F
:101D6000072901D2002300E0DB1E012606FA05F157
:101D7000491E214099409E40761E16403143F0BCDA
:101D800002F076BA0CED00E0064900F007020868A0
:101D90004FF6FF03184040EA0220034A1043086050
:101DA000704700000CED00E00000FA052DE9F04757
:101DB0000E46050065D0DFF81481D8F80000F7B2B0
:101DC00000F00F00B04207D288F80070D8F8000089
:101DD00000F00F00B04254D128683D4C810712D565
:101DE000400703D5206840F4E050206028780007C1
:101DF00003D5206840F4604020602068A96820F086
:101E0000F000084320602878C0072DD0304968686A
:101E10000839012812D0022813D0032811D00968EC
:101E2000890700292DDA216821F00301014321608F
:101E3000FFF71CFF814641F2883A0EE009688903EA
:101E4000EFE709688901ECE7FFF710FFA0EB090154
:101E5000514502D90320BDE8F0872068696800F089
:101E60000C00B0EB810FEFD1D8F80010404601F024
:101E70000F01B14207D90770006800F00F00B042AF
:101E800001D00120E7E72878400705D52068E968F8
:101E900020F4E050084320602878000706D5206829
:101EA000296920F4604040EAC100206000F038F861
:101EB0002168084AC1F30311515CC8400649086013
:101EC00006480068FFF7FAFE0020C4E7003C024025
:101ED0000838024092200C08540000204C000020DA
:101EE0000448054900680968044AC1F38221515C2D
:101EF000C84070475400002008380240A2200C0857
:101F00000448054900680968044AC1F34231515C3C
:101F1000C84070475400002008380240A2200C0836
:101F2000154810B5006810F00C02144813D014497D
:101F3000042A0FD0082A0ED10F4C241F22682368D0
:101F400002F03F025B0207D52068C0F38810A0FBB7
:101F5000010106E0084610BD2168C1F38811A1FB0C
:101F600000010023FEF72CF92168C1F30141491C4F
:101F70004900B0FBF1F010BD083802400024F40025
:101F800040787D012DE9F84F04006ED02078DFF80D
:101F90003C93C007A9F104054AD009F10400016887
:101FA000C1F38101012908D00068C0F38100022833
:101FB0000AD1D9F80000400206D52868800337D539
:101FC00060680028E1D033E06068B0F5803F10D051
:101FD000B0F5A02F286810D020F480302860286841
:101FE00020F4802028606068A8B1FFF73FFE064615
:101FF0000DE0286840F48030F4E740F48020286049
:10200000F7E700BFFFF732FE801B642873D828680B
:102010008003F7D50CE0FFF729FE064605E000BF78
:10202000FFF724FE801B6428F0D828688003F7D4CB
:102030002078DFF89C8280074FF0000A3ED5A34845
:10204000001D016811F00C0F08D00068C0F381007A
:1020500002280BD1D9F80000400207D42868800775
:1020600016D5E068012800D112E02BE1E068B8B194
:102070000120C8F80000FFF7F9FD064605E000BFA3
:10208000FFF7F4FD801B0228C0D828688007F7D529
:102090002868216920F0F80040EAC10028600DE0BE
:1020A000C8F800A0FFF7E2FD064604E0FFF7DEFDFA
:1020B000801B02281FD828688007F7D420780007E3
:1020C00022D5824E83486169703671B10121016069
:1020D000FFF7CCFD074604E0FFF7C8FDC01B022850
:1020E00009D830688007F7D50EE0C0F800A0FFF7E8
:1020F000BDFD074605E082E0FFF7B8FDC01B0228E2
:102100007DD830688007F7D42078400768D5DFF89D
:10211000BCB100270BF13C0BDBF80000C0000BD476
:10212000DBF8001041F08051CBF80010DBF8000024
:10213000012700F080500090674E3068C00510D431
:10214000306840F480703060FFF790FD009005E04B
:10215000FFF78CFD0099401A022850D83068C0055E
:10216000F6D55A4EA0686C3601280FD00528306885
:1021700010D020F001003060306820F004003060A2
:10218000A068B8B1FFF772FD00900FE0306840F032
:102190000100F4E740F004003060F7E7FFF766FD68
:1021A0000099411A41F28830814266D83068800730
:1021B000F4D50EE0FFF75AFD009007E0FFF756FD5B
:1021C0000099411A41F28830814256D83068800720
:1021D000F4D42FB1DBF8001021F08051CBF80010BF
:1021E000A069C8B33949091D0968C1F381010229F1
:1021F0004AD00228504607D0C8F8600000E03CE012
:10220000FFF734FD04463BE04746C8F86000FFF79F
:102210002DFD064605E000BFFFF728FD801B0228C4
:102220002BD828688001F7D4D4E907010843A16AB4
:102230002A4A490802EB0141626A41EA82110843D5
:1022400094F82C1040EA0161C9F8001001203866AA
:10225000FFF70CFD044606E036E000BFFFF706FD81
:10226000001B022809D828688001F7D52CE000BFA0
:10227000FFF7FCFC001B022802D90320BDE8F88F01
:1022800028688001F4D41FE00128F7D0D9F80000B5
:10229000E26900F48001914214D1226A00F03F010A
:1022A00091420FD147F6C071626A0140914209D153
:1022B000A26A00F44031914204D1E16A00F07060FA
:1022C000884201D00120D9E70020D7E70438024036
:1022D00000004742800E4742007000400000FFFFB0
:1022E00070B515460E46040003D094F8490010B1AD
:1022F00007E0012070BD002084F84800204600F06F
:102300001AF804F108012068FEF706FE3146A268BB
:102310002068FEF72BFED4E901022946236BFEF765
:10232000DBFDA168206850F8212042F0010240F84E
:102330002120002070BDFFF75DBB4FF0E021042895
:10234000086903D020F004000861704740F00400E1
:10235000FAE710B5401EB0F1807F01D3012010BD17
:102360004FF0E02460610F21601701F081FF002031
:10237000A06107202061002010BD70477047000059
:1023800070B590F83C20012A32D0012480F83C40FE
:10239000022280F83D2003685A689D6822F070068A
:1023A0000A6832435A60134B02689A4214D0B2F161
:1023B000804F11D0104B9A420ED0104B9A420BD046
:1023C0000F4B9A4208D00F4B9A4205D00E4B9A42BF
:1023D00002D00E4B9A4204D1496825F0800319437C
:1023E000916080F83D40002180F83C10084670BDA7
:1023F000022070BD000001400004004000080040C1
:10240000000C004000040140004001400018004062
:1024100010B5040003D094F83D0010B107E001208E
:1024200010BD002084F83C00204600F00DF802208A
:1024300084F83D00211D206801F0C6FD012084F8CC
:102440003D00002010BD000008B500680B4988421F
:1024500012D10B48016841F00201016000680022BE
:1024600000F00200009011461D20FFF76DFCBDE852
:1024700008401D20FFF75ABC08BD000000040040C2
:10248000403802400168CA6842F00102CA60006830
:10249000816801F00701062903D0016841F00101BC
:1024A00001600020704770B5044690F83C00012898
:1024B00017D0012584F83C50022084F83D002068A4
:1024C000826822F0770222F47F42826008685028F6
:1024D00030D00DDC20284DD005DC98B310283BD13E
:1024E00048E0022070BD302844D0402834D139E083
:1024F000602828D0702806D0B0F5805F2CD0B0F5C9
:10250000005F29D10AE0CB68D1E90121206801F000
:10251000BFFD2068816841F0770109E0CB68D1E90F
:102520000121206801F0B4FD2068816841F48041F8
:10253000816011E0CA684968206801F0BBFD502144
:10254000206807E016E0CA684968206801F0C3FD0A
:102550006021206801F0A6FD84F83D50002084F839
:102560003C0070BDCA684968206801F0A3FD4021A5
:102570002068EFE7226801461046EBE7704770B528
:102580000446006801694FF00005C943890715D466
:10259000C168C943890711D4E91E01610120207770
:1025A000206880698007204602D0FFF7E7FF04E03B
:1025B00000F098F8204600F096F825772068016929
:1025C000C943490717D4C168C943490713D46FF0F9
:1025D00004010161022020772068806910F4407FA7
:1025E000204602D0FFF7CAFF04E000F07BF8204647
:1025F00000F079F8257720680169C943090716D4E6
:10260000C168C943090712D46FF0080101610420B1
:1026100020772068C0698007204602D0FFF7AEFF10
:1026200004E000F05FF8204600F05DF825772068B0
:102630000169C943C90617D4C168C943C90613D47F
:102640006FF010010161082020772068C06910F444
:10265000407F204602D0FFF791FF04E000F042F8EF
:10266000204600F040F8257720680169C943C90772
:1026700008D1C168C943C90704D1891E0161204638
:1026800000F032F820680169C943090609D4C1681D
:10269000C943090605D46FF0800101612046FFF7A8
:1026A0006CFE20680169C943490609D4C168C94361
:1026B000490605D46FF040010161204600F044F85E
:1026C00020680169C94389060BD4C168C9438906DA
:1026D00007D46FF0200101612046BDE87040FFF78C
:1026E0004DBE70BD7047704710B5006814498842F0
:1026F00024D1144C206A401C2062E079401CC3B2F3
:10270000E371207A401CC2B22272607A401CC1B2CE
:1027100000206172642B00D3E071642A00D3207220
:10272000642900D36072E07A02F026FC207B02F07C
:1027300065FA607BBDE8104002F014BA10BD0000DD
:10274000000400401C000020704770B5040004D055
:1027500094F83900002510B106E0012070BD84F81E
:102760003850204600F022F8242084F839002068F0
:10277000C16821F40051C160204601F0D3FC2068FB
:10278000016921F4904101612068416921F02A0129
:1027900041612068C16841F40051C160E5632020B7
:1027A00084F8390084F83A00002070BD10B586B076
:1027B000044614216846FDF73BFD14492068884211
:1027C00021D113480021026842F010020260006823
:1027D00000F0100005900E481438026842F0010223
:1027E0000260006800F0010005904FF4C0600090A6
:1027F0000220CDE9010103200390072004906946DF
:102800000448FFF74DF906B010BD0000001001406C
:102810004438024000000240FEE770B50023491E24
:1028200011E05A1C0CE000EB820550F8226055F8CC
:10283000044CA64206D245F8046C40F82240521ED1
:10284000002AF0DC5B1C8B42EBDB70BD70B50A49E3
:102850000646002408884D8821464543204601F05D
:1028600015F901F0F3F94FF0D84001E04680641CFF
:10287000AC42FBD370BD0000D401002070B40D4900
:102880004FF430564FF428520E814FF42C534A81A6
:102890004FF4F0744FF448758B8138B10D804C8043
:1028A0000120887170BC062001F078B80C804D8042
:1028B0000020F6E7D40100202DE9FF4F144C8A4692
:1028C0004FF0000B0D9D8046A4F806B0A3EB0A075D
:1028D00019E000BFA4F804B002990AEB0009A1EBCB
:1028E00008060AE0404435F8022B1FFA89F180B24D
:1028F00000F01EF8A088401CA080A0888642F1DC71
:10290000E088401CE080E0888742E3DCBDE8FF8F80
:102910001200002000B501F0B9F801F097F9034862
:102920004FF0D8410088488000BD00001200002010
:1029300010B5144601F0AAF801F088F94FF0D8401C
:10294000448010BD70B5154C06460D46A088A0F514
:10295000AA4110391BD1608901F070F9300A01F0E9
:1029600066F96089401C80B201F068F9F0B201F0AC
:102970005EF9A08901F062F9280A01F058F9A089EE
:10298000401C80B201F05AF9E8B201F050F94FF062
:10299000D84021890180428070BD0000D401002010
:1029A0002DE9F05F322002F0F7F80121002001F05C
:1029B00055F9322002F0F0F8002000F0E4FFFE4C60
:1029C0000146A080FDA001F043FCA0884FF6FF75F2
:1029D000FF2801D3A8421DD14FF45A4001F02EF92F
:1029E0004FF0D8425088A0804FF45B4001F026F9A8
:1029F000907805EA0020A0804FF45C4001F01EF9B9
:102A00005088A1880843A080B0F5004F02D145F25C
:102A10001050A0804FF02040D0F81C1121F00F0181
:102A2000C0F81C11D0F81C1121F47061C0F81C1101
:102A3000D0F81C1141F00301C0F81C11D0F81C1192
:102A400041F40071C0F81C11A188DFA001F000FC66
:102A500055214FF4704001F001F94FF20103AA2112
:102A6000184601F0FBF84FF202045221204601F013
:102A7000F5F8651C0821284601F0F0F8A61C012194
:102A8000304601F0EBF80D214FF4304001F0E6F84C
:102A90000D214BF2010001F0E1F80D214BF2020093
:102AA00001F0DCF84FF436473421384601F0D6F80F
:102AB0003421781C01F0D2F83421B81C01F0CEF892
:102AC0004FF431480D21404601F0C8F84BF201198E
:102AD0000D21484601F0C2F80D214BF2021001F021
:102AE000BDF84FF4374A3421504601F0B7F84BF2A5
:102AF000017B3421584601F0B1F834214BF20270C9
:102B000001F0ACF800214FF4324001F0A7F80021A9
:102B10004BF2012001F0A2F800214BF2022001F05B
:102B20009DF824214FF4384001F098F824214BF609
:102B3000010001F093F824214BF6020001F08EF819
:102B400001214FF43F4001F089F80F214FF4334049
:102B500001F084F80F214BF2013001F07FF80F21D2
:102B60004BF2023001F07AF834214FF4394001F091
:102B700075F834214BF6011001F070F834214BF652
:102B8000021001F06BF808214FF4354001F066F8AF
:102B900008214BF2015001F061F808214BF202507C
:102BA00001F05CF803214FF4424001F057F8242172
:102BB0004FF43A4001F052F824214BF6012001F085
:102BC0004DF824214BF6022001F048F800214FF483
:102BD0003C4001F043F878214BF6014001F03EF80B
:102BE00000214BF6024001F039F800214FF43D403E
:102BF00001F034F878214BF6015001F02FF8002154
:102C00004BF6025001F02AF800214FF43E4001F04B
:102C100025F864214BF6016001F020F800214FF403
:102C2000514001F01BF833214DF2011001F016F86C
:102C300000214DF2021001F011F834214DF2031081
:102C400001F00CF800214DF2041001F007F83A21D0
:102C50004DF2051001F002F800214DF2061000F0CF
:102C6000FDFF4A214DF2071000F0F8FF00214DF260
:102C7000081000F0F3FF5C214DF2091000F0EEFFA8
:102C800000214DF20A1000F0E9FF81214DF20B10F6
:102C900000F0E4FF00214DF20C1000F0DFFFA62150
:102CA0004DF20D1000F0DAFF00214DF20E1000F091
:102CB000D5FFE5214DF20F1000F0D0FF01214DF2BC
:102CC000101000F0CBFF13214DF2111000F0C6FFE1
:102CD00001214DF2121000F0C1FF54214DF21310EA
:102CE00000F0BCFF01214DF2141000F0B7FF82216B
:102CF0004DF2151000F0B2FF01214DF2161000F058
:102D0000ADFFCA214DF2171000F0A8FF02214DF2CD
:102D1000181000F0A3FF00214DF2191000F09EFFE3
:102D200002214DF21A1000F099FF01214DF21B1003
:102D300000F094FF02214DF21C1000F08FFF3421AF
:102D40004DF21D1000F08AFF02214DF21E1000F01E
:102D500085FF67214DF21F1000F080FF02214DF228
:102D6000201000F07BFF84214DF2211000F076FF4F
:102D700002214DF2221000F071FFA4214DF2231028
:102D800000F06CFF02214DF2241000F067FFB72124
:102D90004DF2251000F062FF02214DF2261000F0E6
:102DA0005DFFCF214DF2271000F058FF02214DF2B8
:102DB000281000F053FF0DE0D401002044415420BE
:102DC00049443A25780D0A004C43442049443A25A9
:102DD000780D0A00DE214DF2291000F03FFF02219C
:102DE0004DF22A1000F03AFFF2214DF22B1000F0C4
:102DF00035FF02214DF22C1000F030FFFE214DF284
:102E00002D1000F02BFF03214DF22E1000F026FFB5
:102E100010214DF22F1000F021FF03214DF2301050
:102E200000F01CFF33214DF2311000F017FF032199
:102E30004DF2321000F012FF6D214DF2331000F010
:102E40000DFF00214FF4524000F008FF33214DF2F6
:102E5000012000F003FF00214DF2022000F0FEFEF1
:102E600034214DF2032000F0F9FE00214DF2042040
:102E700000F0F4FE3A214DF2052000F0EFFE0021B3
:102E80004DF2062000F0EAFE4A214DF2072000F044
:102E9000E5FE00214DF2082000F0E0FE5C214DF23D
:102EA000092000F0DBFE00214DF20A2000F0D6FEE2
:102EB00081214DF20B2000F0D1FE00214DF20C20BB
:102EC00000F0CCFEA6214DF20D2000F0C7FE00213F
:102ED0004DF20E2000F0C2FEE5214DF20F2000F071
:102EE000BDFE01214DF2102000F0B8FE13214DF27D
:102EF000112000F0B3FE01214DF2122000F0AEFED1
:102F000054214DF2132000F0A9FE01214DF21420AE
:102F100000F0A4FE82214DF2152000F09FFE012159
:102F20004DF2162000F09AFECA214DF2172000F053
:102F300095FE02214DF2182000F090FE00214DF286
:102F4000192000F08BFE02214DF21A2000F086FEBF
:102F500001214DF21B2000F081FE02214DF21C20C8
:102F600000F07CFE34214DF21D2000F077FE02219E
:102F70004DF21E2000F072FE67214DF21F2000F07E
:102F80006DFE02214DF2202000F068FE84214DF2FA
:102F9000212000F063FE02214DF2222000F05EFEAF
:102FA000A4214DF2232000F059FE02214DF22420ED
:102FB00000F054FEB7214DF2252000F04FFE022113
:102FC0004DF2262000F04AFECF214DF2272000F0DE
:102FD00045FE02214DF2282000F040FEDE214DF298
:102FE000292000F03BFE02214DF22A2000F036FE9F
:102FF000F2214DF22B2000F031FE02214DF22C2067
:1030000000F02CFEFE214DF22D2000F027FE0321C2
:103010004DF22E2000F022FE10214DF22F2000F064
:103020001DFE03214DF2302000F018FE33214DF239
:10303000312000F013FE03214DF2322000F00EFE8D
:103040006D214DF2332000F009FE00214FF4534072
:1030500000F004FE33214DF2013000F0FFFD0021AD
:103060004DF2023000F0FAFD34214DF2033000F051
:10307000F5FD00214DF2043000F0F0FD3A214DF253
:10308000053000F0EBFD00214DF2063000F0E6FDCA
:103090004A214DF2073000F0E1FD00214DF20830E9
:1030A00000F0DCFD5C214DF2093000F0D7FD00217D
:1030B0004DF20A3000F0D2FD81214DF20B3000F0CC
:1030C000CDFD00214DF20C3000F0C8FDA6214DF2DF
:1030D0000D3000F0C3FD00214DF20E3000F0BEFDBA
:1030E000E5214DF20F3000F0B9FD01214DF2103015
:1030F00000F0B4FD13214DF2113000F0AFFD0121BD
:103100004DF2123000F0AAFD54214DF2133000F0C0
:10311000A5FD01214DF2143000F0A0FD82214DF2F9
:10312000153000F09BFD01214DF2163000F096FDA8
:10313000CA214DF2173000F091FD02214DF21830F6
:1031400000F08CFD00214DF2193000F087FD0221C6
:103150004DF21A3000F082FD01214DF21B3000F0DB
:103160007DFD02214DF21C3000F078FD34214DF23E
:103170001D3000F073FD02214DF21E3000F06EFD97
:1031800067214DF21F3000F069FD02214DF2203021
:1031900000F064FD84214DF2213000F05FFD02213A
:1031A0004DF2223000F05AFDA4214DF2233000F000
:1031B00055FD02214DF2243000F050FDB7214DF2B3
:1031C000253000F04BFD02214DF2263000F046FD87
:1031D000CF214DF2273000F041FD02214DF2283081
:1031E00000F03CFDDE214DF2293000F037FD0221D8
:1031F0004DF22A3000F032FDF2214DF22B3000F07A
:103200002DFD02214DF22C3000F028FDFE214DF263
:103210002D3000F023FD03214DF22E3000F01EFD75
:1032200010214DF22F3000F019FD03214DF2303006
:1032300000F014FD33214DF2313000F00FFD032179
:103240004DF2323000F00AFD6D214DF2333000F0C6
:1032500005FD00214FF4544000F000FD33214DF2F4
:10326000014000F0FBFC00214DF2024000F0F6FCB2
:1032700034214DF2034000F0F1FC00214DF20440F6
:1032800000F0ECFC3A214DF2054000F0E7FC002193
:103290004DF2064000F0E2FC4A214DF2074000F0FA
:1032A000DDFC00214DF2084000F0D8FC5C214DF21D
:1032B000094000F0D3FC00214DF20A4000F0CEFCA2
:1032C00081214DF20B4000F0C9FC00214DF20C4071
:1032D00000F0C4FCA6214DF20D4000F0BFFC00211F
:1032E0004DF20E4000F0BAFCE5214DF20F4000F027
:1032F000B5FC01214DF2104000F0B0FC13214DF25D
:10330000114000F0ABFC01214DF2124000F0A6FC90
:1033100054214DF2134000F0A1FC01214DF2144064
:1033200000F09CFC82214DF2154000F097FC012139
:103330004DF2164000F092FCCA214DF2174000F009
:103340008DFC02214DF2184000F088FC00214DF266
:10335000194000F083FC02214DF21A4000F07EFC7F
:1033600001214DF21B4000F079FC02214DF21C407E
:1033700000F074FC34214DF21D4000F06FFC02217E
:103380004DF21E4000F06AFC67214DF21F4000F034
:1033900065FC02214DF2204000F060FC84214DF2DA
:1033A000214000F05BFC02214DF2224000F056FC6F
:1033B000A4214DF2234000F051FC02214DF22440A3
:1033C00000F04CFCB7214DF2254000F047FC0221F3
:1033D0004DF2264000F042FCCF214DF2274000F094
:1033E0003DFC02214DF2284000F038FCDE214DF278
:1033F000294000F033FC02214DF22A4000F02EFC5F
:10340000F2214DF22B4000F029FC02214DF22C401C
:1034100000F024FCFE214DF22D4000F01FFC0321A2
:103420004DF22E4000F01AFC10214DF22F4000F01A
:1034300015FC03214DF2304000F010FC33214DF219
:10344000314000F00BFC03214DF2324000F006FC4D
:103450006D214DF2334000F001FC00214FF4554046
:1034600000F0FCFB33214DF2015000F0F7FB00218E
:103470004DF2025000F0F2FB34214DF2035000F007
:10348000EDFB00214DF2045000F0E8FB3A214DF233
:10349000055000F0E3FB00214DF2065000F0DEFB8A
:1034A0004A214DF2075000F0D9FB00214DF208509F
:1034B00000F0D4FB5C214DF2095000F0CFFB00215D
:1034C0004DF20A5000F0CAFB81214DF20B5000F082
:1034D000C5FB00214DF20C5000F0C0FBA6214DF2BF
:1034E0000D5000F0BBFB00214DF20E5000F0B6FB7A
:1034F000E5214DF20F5000F0B1FB01214DF21050CB
:1035000000F0ACFB13214DF2115000F0A7FB01219C
:103510004DF2125000F0A2FB54214DF2135000F076
:103520009DFB01214DF2145000F098FB82214DF2D9
:10353000155000F093FB01214DF2165000F08EFB68
:10354000CA214DF2175000F089FB02214DF21850AC
:1035500000F084FB00214DF2195000F07FFB0221A6
:103560004DF21A5000F07AFB01214DF21B5000F091
:1035700075FB02214DF21C5000F070FB34214DF21E
:103580001D5000F06BFB02214DF21E5000F066FB57
:1035900067214DF21F5000F061FB02214DF22050D7
:1035A00000F05CFB84214DF2215000F057FB02211A
:1035B0004DF2225000F052FBA4214DF2235000F0B6
:1035C0004DFB02214DF2245000F048FBB7214DF293
:1035D000255000F043FB02214DF2265000F03EFB47
:1035E000CF214DF2275000F039FB02214DF2285037
:1035F00000F034FBDE214DF2295000F02FFB0221B8
:103600004DF22A5000F02AFBF2214DF22B5000F02F
:1036100025FB02214DF22C5000F020FBFE214DF243
:103620002D5000F01BFB03214DF22E5000F016FB35
:1036300010214DF22F5000F011FB03214DF23050BC
:1036400000F00CFB33214DF2315000F007FB032159
:103650004DF2325000F002FB6D214DF2335000F07C
:10366000FDFA00214FF4564000F0F8FA33214DF2F4
:10367000016000F0F3FA00214DF2026000F0EEFA72
:1036800034214DF2036000F0E9FA00214DF20460AC
:1036900000F0E4FA3A214DF2056000F0DFFA002173
:1036A0004DF2066000F0DAFA4A214DF2076000F0B0
:1036B000D5FA00214DF2086000F0D0FA5C214DF2FD
:1036C000096000F0CBFA00214DF20A6000F0C6FA62
:1036D00081214DF20B6000F0C1FA00214DF20C6027
:1036E00000F0BCFAA6214DF20D6000F0B7FA0021FF
:1036F0004DF20E6000F0B2FAE5214DF20F6000F0DD
:10370000ADFA01214DF2106000F0A8FA13214DF23C
:10371000116000F0A3FA01214DF2126000F09EFA50
:1037200054214DF2136000F099FA01214DF214601A
:1037300000F094FA82214DF2156000F08FFA012119
:103740004DF2166000F08AFACA214DF2176000F0BF
:1037500085FA02214DF2186000F080FA00214DF246
:10376000196000F07BFA02214DF21A6000F076FA3F
:1037700001214DF21B6000F071FA02214DF21C6034
:1037800000F06CFA34214DF21D6000F067FA02215E
:103790004DF21E6000F062FA67214DF21F6000F0EA
:1037A0005DFA02214DF2206000F058FA84214DF2BA
:1037B000216000F053FA02214DF2226000F04EFA2F
:1037C000A4214DF2236000F049FA02214DF2246059
:1037D00000F044FAB7214DF2256000F03FFA0221D3
:1037E0004DF2266000F03AFACF214DF2276000F04A
:1037F00035FA02214DF2286000F030FADE214DF258
:10380000296000F02BFA02214DF22A6000F026FA1E
:10381000F2214DF22B6000F021FA02214DF22C60D2
:1038200000F01CFAFE214DF22D6000F017FA032182
:103830004DF22E6000F012FA10214DF22F6000F0D0
:103840000DFA03214DF2306000F008FA33214DF2F9
:10385000316000F003FA03214DF2326000F0FEF90E
:103860006D214DF2336000F0F9F95521A01E00F0F2
:10387000F5F9AA21184600F0F1F95221204600F08E
:10388000EDF90821284600F0E9F90021304600F062
:10389000E5F9CC21404600F0E1F90021484600F06E
:1038A000DDF90521384600F0D9F97021504600F0C5
:1038B000D5F97021584600F0D1F901214FF4384074
:1038C00000F0CCF903214BF6010000F0C7F9032109
:1038D0004BF6020000F0C2F903214BF6030000F0A2
:1038E000BDF902214FF43C4000F0B8F900214BF63D
:1038F000014000F0B3F900214BF6024000F0AEF9B0
:10390000D0214FF4494000F0A9F902214CF60110F2
:1039100000F0A4F950214CF6021000F09FF950215C
:103920004CF6031000F09AF950214CF6041000F008
:1039300095F94FF454530021184600F08FF90021F7
:10394000184600F08BF955214FF4685000F086F9C5
:103950004FF4885000F072F9A02001F02BF94FF4D9
:10396000245000F06BF90120FEF788FFBDE8F05FFE
:103970000020FEF76BBF0246012000E05043491EC5
:10398000C9B2FBD2704710B500F058F9052001F01C
:1039900011F94FF0D840408810BD000010B53A4CE6
:1039A0000023A188A1F5AA42103A6CD1082812D2AE
:1039B000DFE800F0110406080A0C0E1080230AE06C
:1039C000402308E0C02306E0202304E0602302E057
:1039D000A02300E0E0234FF45850194600F03EF9D0
:1039E00098062088618802D5884202D303E0884285
:1039F00001D921806080608900F020F9002000F06A
:103A000016F96089401C80B200F018F9002000F01F
:103A10000EF96089801C80B200F010F92088401EE9
:103A2000C0F30F2000F003F96089C01C80B200F0E1
:103A300005F92078401EC0B200F0F9F8A08900F026
:103A4000FDF8002000F0F3F8A089401C80B200F0DF
:103A5000F5F8002000F0EBF8A089801C80B200F09F
:103A6000EDF86088401EC0F30F2000F0E0F8A08958
:103A7000C01C80B200F0E2F8A078BDE81040401E03
:103A8000C0B200F0D4B810BDD401002030B5104A47
:103A900005460C46508900F0D1F8280A00F0C7F816
:103AA0005089401C80B200F0C9F8E8B200F0BFF8BD
:103AB000908900F0C3F8200A00F0B9F89089401C02
:103AC00080B200F0BBF8E0B2BDE8304000F0AFB823
:103AD000D40100202DE9FF4F1D460C468A465807A9
:103AE00000D0012000EBD500690810FB01F0203A5E
:103AF00000F0FF09D0B20026DFF898B0029044E051
:103B00000C2D11D0102D14D0182D40D1029822491F
:103B100000EBC00001EB80004FF00008875D380625
:103B20000CD51E4802880DE002981D4900EB4000AC
:103B3000F0E71C49029801EB0010EDE70D9828B959
:103B40001648428821460098FEF7FCFE7806070ECC
:103B5000641CBBF80200A4B2A04218D9A4EB0A006E
:103B6000A84209D100985446401C80B20090BBF88E
:103B7000001081420BD906E008F1010000F0FF08B7
:103B8000B8F1080FCBD3761CF6B24E45B8D3BDE8DA
:103B9000FF8F0000D4010020265B000812000020E7
:103BA000C2500008365500082DE9FF4F81B04FF094
:103BB0000008DDE90EBA1E46814644460AF00105BA
:103BC0004FEA5B072CE0301B401EC1B20A20FFF712
:103BD000D2FE0399B1FBF0F00A21B0FBF1F201FB38
:103BE0001200B8F1000F05D1711E8C4202DA48B103
:103BF0004FF001083030C2B207FB049080B25B4640
:103C0000009508E05FEA0A6007FB049080B25B461B
:103C100000950AD530220299FFF75CFF641CE4B2DC
:103C2000B442D0D305B0BDE8F08F2022F3E708B549
:103C3000002100914FF0D841488008BD08B500210F
:103C400000914FF0D841088008BD000002484FF0B5
:103C5000D841008908807047D40100204FF0D84235
:103C600010805180704700001FB500211648009158
:103C700001910291134A039102604FF48032C0E92E
:103C8000012101240161047680F820100F4AC0E967
:103C90000A21C461C16080F830404461FDF727FC0F
:103CA00008B1FDF718F90820CDE9000405200290BD
:103CB00069460548FDF772FB002801D0FDF70BF9B6
:103CC0001FBD0000002201405C0000200100000F29
:103CD000094808B5016841F48001016000680022CC
:103CE00000F48000009011463820FEF72DF8BDE862
:103CF00008403820FEF71AB83038024000B587B0C7
:103D00001C216846FCF794FA16484FF02041102217
:103D1000016015494160062181600021C160C0E950
:103D200004128161C16113020162C0E90913C16219
:103D30000163416381634164092000900F20019079
:103D400002AB082083E807001120CDE9050100221D
:103D500069460448FEF7C4FA002801D0FDF7BBF815
:103D600007B000BD04010020040100A02DE9F047C8
:103D700086B014216846FCF75BFA384800240168D5
:103D800041F010010160016801F010010591016826
:103D900041F040010160016801F0400105910168B6
:103DA00041F008010160016801F008010591016816
:103DB00041F080010160016801F080010591016816
:103DC00041F001010160016801F001010591016804
:103DD00041F020010160016801F0200105910168B6
:103DE00041F0020101600068DFF8748000F0020019
:103DF0000590002240214046FDF733FFDFF8649034
:103E00004AF20806002231464846FDF72AFFDFF84D
:103E100058A04FF44047002239465046FDF721FF95
:103E2000402000900125CDE90154694640460394A5
:103E3000FDF736FE0096CDE90154694648460394E5
:103E4000FDF72EFE0097CDE90154694650460394D4
:103E5000FDF726FE06B0BDE8F087000030380240CE
:103E600000100240001C02400004024010B586B061
:103E70000024174800940194029403940494134975
:103E8000059401605321C0E901144FF47A71C0E92F
:103E900003148461FEF7BCFA08B1FDF71CF84FF477
:103EA0008050009069460A48FEF7FDFA08B1FDF718
:103EB00012F8049404A906480594FEF761FA002854
:103EC00001D0FDF708F806B010BD00000004004066
:103ED000540100200C4810B50A4901604FF4E1314B
:103EE0004160002181600C22C160C0E9041281613F
:103EF000C161FEF72AFC002803D0BDE81040FCF7A2
:103F0000EABF10BD0010014094010020FEE7704799
:103F100070477047FDF7B0BE30B593B030216846AA
:103F2000FCF786F914210CA8FCF782F91A48002541
:103F3000016841F080510160006800F080501190EC
:103F40001648016841F4804101600068022400F4D1
:103F50008040119001200090000401908001CDE983
:103F60000640192008904FF4A870CDE909040420F8
:103F70000B906846FEF706F80CA90F2081E8310087
:103F80004FF4A0500F90E002109005210CA8FDF70F
:103F90000DFF13B030BD00004038024000700040FB
:103FA0000548016841F47001016003494FF0006069
:103FB000803908607047000088ED00E00148FEF796
:103FC000DEBA000054010020F0B50268254C264DF1
:103FD000264E274F274B4FF0804CA04209D060451A
:103FE00007D0A84205D0B04203D0B84201D09842D1
:103FF00004D122F0700E4A6842EA0E02A0421BD0A1
:10400000604519D0A84217D0B04215D0B84213D09D
:10401000984211D0184DA8420ED0184DA8420BD08E
:10402000174DA84208D0174DA84205D0164DA842FA
:1040300002D0164DA84203D122F44075CA682A4323
:104040004D6922F080022A4302608A68C2620A68CF
:104050008262A04201D0984201D109690163012125
:104060004161F0BD00000140000400400008004034
:10407000000C0040000401400040014000440140A9
:104080000048014000180040001C00400020004093
:1040900010B5846842EA032224F47F440A43224391
:1040A000826010BD826822F070020A4342F007016C
:1040B0008160704710B5036A046A24F00104046249
:1040C000846924F0F00444EA021423F00A020A434B
:1040D0008461026210BD10B5036A23F0100303620D
:1040E0008369046A23F4704343EA023224F0A00394
:1040F00043EA01118261016210BD000010B5FCF7B6
:1041000057FF0649064A11F8240F927940F08000C3
:1041100002F0010210430870002010BD0C020020C4
:10412000D40100202DE9F041044600680169E268ED
:1041300021F44051114301612169A068E2690843FB
:104140006169114308432168CA6849F20C639A43C4
:104150000243CA6020684169A26921F44071114399
:104160004161E069192764253226B0F5004F354AD0
:10417000354920684FF0000806D0884201D09042AF
:1041800036D1FDF7BDFE35E0884201D0904202D124
:10419000FDF7B6FE01E0FDF7A3FE61684A18A0FB3B
:1041A000070148EB0803FCF70BF80146B0FBF5F0FC
:1041B0000201B1FBF5F06FF01803584301EB8000EA
:1041C00006EBC000B0FBF5F000F0F80002EB400297
:1041D000B1FBF5F0584301EB800006EBC000B0FBEB
:1041E000F5F000F00700216810448860BDE8F08118
:1041F000FDF776FE61688B0F8A00A0FB0701FBF7D5
:10420000DFFF0146B0FBF5F06FF01802504301EB01
:10421000800006EB0010B0FBF5F000F0F002B1FBFF
:10422000F5F002EB0012B1FBF5F06FF01803584304
:1042300001EB800006EB0010B0FBF5F000F00F0082
:10424000D1E700000014014000100140FEE700002B
:104250000FB4054B10B503A9044A029800F0EAF820
:1042600010BC5DF814FB0000E94B0008580000206A
:104270000907090E002804DB00F1E02080F8001493
:10428000704700F00F0000F1E02080F8141D704727
:1042900002E008C8121F08C1002AFAD1704770470F
:1042A000002001E001C1121F002AFBD1704700006D
:1042B0002DE9FF5F82B00021DDE90430020DDDF859
:1042C00040B0034318D044F61050A2F2FF324243EC
:1042D0001514119801281FD0A5EB0B00401C5FEAB4
:1042E000000A4FF000064E4FDFF83891B0465046B6
:1042F00015D5CAF1000413E0119801244AA301283E
:1043000001D16FEA0B010298119AC0E90031C0E9AE
:10431000024206B0BDE8F09FCBF10000DFE70446A3
:104320000021404A491842EB0450CDE9001012E048
:10433000E00707D032463B4640464946FBF791FF2F
:104340008046894632463B4610461946FBF789FFB0
:1043500006460F466410002CEAD1DDE90401DDE9D0
:104360000023BAF1000F06DAFBF77BFF42464B460B
:10437000FBF777FF05E0FBF7E6FF42464B46FBF70E
:10438000E2FF04460E460022284BFCF703FA03D84E
:104390004FF0FF30014607E00022254B2046314612
:1043A000FCF738F9FCF7DDF9102409E0002C0ADBF2
:1043B0000A220023FBF704FF039B30321A55641EC8
:1043C00050EA0102F2D1641C039AC4F111031444AF
:1043D000119A012A03D0012208430DD10AE00843B3
:1043E00004D000204FF0110B119072E7A3EB0B05E6
:1043F0006D1E0DE05B4504DD4FF0000205F1010587
:1044000004E003DA4FF00002A5F10105002AECD028
:1044100002981199C0E90231C0E9004579E700002E
:10442000000014400000F03F300000000000F043A6
:104430000000E03F2DE9FF4F95B09B4689460646B8
:1044400000250FE2252877D100242746F84A0121CC
:10445000059400E0044316F8013F203B01FA03F005
:104460001042F7D130782A2811D06FF02F0330781E
:10447000A0F13002092A16D8059A44F0020402EB92
:10448000820203EB42021044761C0590EFE759F8D4
:10449000042B0592002A03DA504244F4005405909C
:1044A00044F00204761C30782E2816D116F8010F3D
:1044B00044F004042A280DD06FF02F023078A0F1C8
:1044C0003003092B09D807EB870302EB4303C71816
:1044D000761CF3E759F8047B761C30786C280FD0F3
:1044E00006DC4C2817D068280DD06A2814D104E0C7
:1044F000742810D07A280FD10DE044F400140AE09B
:1045000044F4801401E044F440147278824202D1F1
:1045100004F58014761C761C307866280BD013DCEA
:10452000582877D009DC002875D04528F6D04628D1
:10453000F4D047281AD19DE118E0632835D06428CB
:1045400079D0652812D195E1702873D008DC6728EE
:10455000F1D069286FD06E280DD06F2806D1B5E054
:1045600073282CD0752875D0782874D05A4617999E
:1045700090476D1C75E1C4F30250022809D003284E
:104580000DD0D9F8001004280DD00D6009F10409F0
:1045900067E1D9F80010EA17C1E90052F6E7D9F847
:1045A00000100D80F2E70D70F0E719F8041B8DF88C
:1045B000001000208DF80100EA46012003E059F8C0
:1045C00004AB4FF0FF3061074FF0000102D40DE063
:1045D00008F101018846B9420FDA8045F8DB1AF884
:1045E00008100029F4D108E008F101018846814251
:1045F000FADB1AF808100029F6D105985B46A0EB03
:10460000080721463846179A00F094FA284400EB30
:10461000080507E04DE029E10DE01AF8010B5A46C4
:1046200017999047B8F10108F7D25B462146384602
:10463000179A13E142E00A220092C4F302524FF0AB
:10464000000A022A08D059F804CB032A4FEAEC7179
:104650000AD00DE029E02AE009F1070121F0070264
:10466000F2E802C1914609E00FFA8CFC4FEAEC71C6
:10467000042A03D14FFA8CFC4FEAEC71002907DAC7
:104680000A460021DCF1000C61EB02012D2202E060
:10469000220504D52B228DF80420012203E0E20735
:1046A00001D02022F7E7904659E00A2102E01022CB
:1046B0000DE010214FF0000A00910BE010224FF0A6
:1046C000000A44F004040827009203E008224FF097
:1046D000000A0092C4F30252022A05D059F804CB12
:1046E0000021032A08D009E009F1070121F007029F
:1046F000F2E802C1914605E01FFA8CFC042A01D1C0
:104700000CF0FF0C4FF00008220728D5702806D0C7
:10471000009B83F0100353EA0A0305D00EE0402209
:104720008DF80420012208E05CEA010206D0302264
:104730008DF804208DF8050002229046009B83F03E
:10474000080353EA0A030AD15CEA010201D16207B5
:1047500005D530228DF804204FF001087F1E58281F
:1047600004D034A003900EA802900DE036A0F9E723
:1047700053466046009AFBF723FD84460398825C0B
:104780000298401E029002705CEA0100F0D102988B
:1047900006A9081A00F1200A600702D524F4803423
:1047A00000E00127574502DDA7EB0A0000E00020EA
:1047B00000EB0A01009005984144401A0590E0037F
:1047C00006D45B462146179A059800F0B3F90544D4
:1047D000002706E001A85A46C05D179990476D1C56
:1047E0007F1C4745F6DBE0030CD55B462146179A54
:1047F000059800F09FF9054404E030205A461799C7
:1048000090476D1C0099481E00900029F5DC08E0D7
:10481000029802995A460078491C029117999047CC
:104820006D1CBAF10001AAF1010AF1DC65E100009A
:104830000928010030313233343536373839616276
:10484000636465660000000030313233343536373A
:1048500038394142434445460000000000F058F911
:104860000544761C307800287FF4ECAD19B028465A
:10487000BDE8F08F620700D4062709F1070222F095
:10488000070CFCE80223E14603F000485FEA080C4D
:1048900002D00FF2702C0DE05FEA045C02D50FF23B
:1048A000682C07E05FEAC47C02D00FF2602C01E0C4
:1048B000AFF2700C4FF0FF3823F00043CDF850C03A
:1048C00065280CD006DC452809D046281DD047288D
:1048D0003DD13DE0662818D067287ED138E0002120
:1048E000112F01DB112000E0781CCDE9000106A9A1
:1048F0000EA8FFF7DDFCDDE90F010E9A0391002100
:10490000009207F1010A04914DE04FF0004000973A
:10491000CDE9011006A90EA8FFF7CAFCDDE90F02D8
:1049200003920E9B11990022DDF80CA000930492D3
:1049300011B9791C00EB010AB7EB0A0004D4C0F1ED
:10494000FF3007F1010A0490AAEB0700019044E050
:10495000012F00DA01270021112F01DD112000E0D5
:104960003846CDE9000106A90EA8FFF7A1FCDDE954
:104970000F010E9A0391002104910092BA4621077B
:104980000CD40399514500DA8A46BAF1010F05DDCE
:10499000009AAAF10101515C302908D0B84202DA2C
:1049A00010F1040F06DA0121CDE9011015E0AAF19A
:1049B0000101E9E7002805DC049901440491AAEB10
:1049C000000102E0411C514500DD8A460499401A6D
:1049D000401C01904FF000400290200704D4019841
:1049E000504501DBCDF8048000208DF84F0002987F
:1049F0000DF14F07B0F1004F25D02B200E900298FB
:104A00004FF0020800280CDA404202902D200E9050
:104A100007E00A210298FBF734FD3031029007F8D5
:104A2000011DB8F10001A8F10108F2DC029800288C
:104A3000EFD1791E0E980870307800F0200040F019
:104A4000450007F8020D12A8C01B00F107081498D2
:104A5000007800B1012000EB0A01019801EBE07140
:104A600005984144401A401E0590E00306D45B4679
:104A70002146179A059800F05DF8054414980078CF
:104A800018B15A46179990476D1CE00324D55B4630
:104A90002146179A059800F04DF805441CE004984B
:104AA000002807DBDDE90301884203DD0098405C54
:104AB000179901E0179930205A469047049805F15C
:104AC0000105401C04900198401E019004D12E2045
:104AD0005A46179990476D1CBAF10001AAF1010AD4
:104AE000DDDC05E017F8010B5A46179990476D1C5D
:104AF000B8F10001A8F10108F4DC5B462146179AE1
:104B00000598ABE62D0000002B00000020000000FF
:104B10002DE9F041044600251E461746880404D4BA
:104B200005E039462020B0476D1C641EF9D52846A3
:104B3000BDE8F0812DE9F041044600251E4690466F
:104B4000C80301D5302700E02027880404D505E0FC
:104B500041463846B0476D1C641EF9D52846BDE86D
:104B6000F08100000549064BC979814201D201223A
:104B700000E0002208211846FDF773B81C00002051
:104B8000001C024010B504460420FDF7D6FB014886
:104B9000047010BD0800002070B5054600244FF4D5
:104BA0007A7603E0304600F005F8641CAC42F9D395
:104BB00070BD000070B54FF0E0240022656909491E
:104BC000A36909784843A1699942FCD002D2A3EBBA
:104BD000010302E0A5EB010633441A440B4682426E
:104BE000F1D370BD0800002003490A685206FCD5C5
:104BF000C2B24A6070470000001001400649074BEE
:104C0000CA794FF48041824201D2012200E00022A1
:104C10001846FDF726B800001C00002000040240E2
:104C200008B5074800214FF4F073C1720173417356
:104C3000044800904FF448720846FDF73DFE08BD59
:104C40001C0000208268000808B50F48FDF71AFC18
:104C500000224FF420410D48FDF703F800224021C7
:104C60000B48FCF7FEFF01220A490B48FCF7B8FC91
:104C70000A48002100904FF4F0734FF44872084640
:104C8000FDF71AFE08BD000054010020001C024080
:104C900000100240400000205C00002082680008F4
:104CA00010B500F0E7F809481421006AB0FBF1F2F2
:104CB00001FB1200002808D1044824300068FBF7EB
:104CC00081FEBDE8104000F003B810BD1C000020BC
:104CD0002DE9FC5F654C664E1827207800254FF4BF
:104CE000784A4FF0640901281AD1E07A401CC0B21A
:104CF000E072642802D3484684F80B902570358012
:104D0000CDE90075C2B2042391218C20FEF74CFF3F
:104D1000A4F816A0504694ED070AE17A00F03EF997
:104D200060784FF00108012819D1E07A10B94046A7
:104D300084F80B80C0B2401EC2B2E272657035804A
:104D4000CDE90075042391218C20FEF72DFFA4F8F6
:104D500016A0504694ED070AE17A00F01FF9A078FA
:104D60004FF4FC6A01281AD1207B401CC0B220738A
:104D7000642802D3484684F80C90A5703580CDE9AC
:104D80000075C2B20423C8218C20FEF70DFFA4F8E1
:104D900016A0504694ED070A217B00F0FFF8E0785A
:104DA000012819D1207B10B9404684F80C80C0B28C
:104DB000401EC2B22273E5703580CDE90075042330
:104DC000C8218C20FEF7F0FEA4F816A0504694ED02
:104DD000070A217B00F0E2F820794FF4827B40F251
:104DE000CF1A01281AD1607B401CC0B260736428BE
:104DF00002D3484684F80D9025713580CDE90075C1
:104E0000C2B2042359468C20FEF7CEFEA4F816A0A9
:104E1000504694ED070A617B00F0C0F860790128E4
:104E200019D1607B10B9404684F80D80C0B2401E95
:104E3000C2B2627365713580CDE9007504235946AD
:104E40008C20FEF7B1FEA4F816A0504694ED070A98
:104E5000617B00F0A3F8A079012804D1A571BDE819
:104E6000FC5FFFF7DDBEBDE8FC9F00001C000020DA
:104E7000120000202DE9F0410020FCF767F9294CD1
:104E8000294D2AA022882988FFF7E2F928880121E4
:104E9000A0F10E03284A4FF4A0764FF4B8774FF4F0
:104EA000BF7C4FF4D678502B0AD82388B34202D364
:104EB000BB4200D21170634502D3434500D8517004
:104EC000A0F17303522B0BD82388B34208D3BB4203
:104ED00001D2917004E0634502D3434500D8D170FC
:104EE000A0F1DF03582B0BD82388B34208D3BB4271
:104EF00001D2117104E0634502D3434500D85171DA
:104F00002238B0F5807F07D82088B0F5D97F03D943
:104F1000B0F5F07F00D891714FF6FF7028802080A7
:104F2000BDE8F081100000200E000020783A2564D2
:104F30002C793A25640D0A001C000020FCF7A4FE21
:104F4000FEF7EAFFFEF712FFFEF7C2FEFEF78CFE49
:104F5000FEF7D4FEFEF78AFFFEF7BCFFA820FFF79E
:104F600011FEFDF71DFDFFF7C9F8FFF76DFE00BF4D
:104F7000FFF796FEFCE700000649074BCA794FF49D
:104F80000041824201D2012200E000221846FCF7D3
:104F900068BE00001C00002000040240164A4FF6C4
:104FA000FF7313804FF47843984203D04FF4FC63AF
:104FB000984201D1138002E01F2800D110800F4ACF
:104FC000508A41435A2091FBF0F0D1890844918ADC
:104FD000128A00EE901A80B2F8EE600A20EE200AE3
:104FE000F3EE080A80EE201ABCEEC10A10EE101A89
:104FF000511A89B2FDF78EBC120000201C0000205F
:1050000060E001200305350002081E08503C0F0532
:105010000000FF67500000181A1E1489280A302E5D
:10502000BB0A03000002331D000000000000003234
:1050300000002A1C5A94C50207000000B51F00900A
:105040002800773200623F005250005200000000FA
:105050000000000000000000000000000000000050
:105060000000000F0F03061042F80F1400000000AC
:105070001A18161412100E0C0A0800000000000086
:1050800000000000000000000000000000002928CF
:105090002422201F1E1D0E0C0A080605040200FF14
:1050A0000000000000000000000000FFFFFFFFFF05
:1050B000FFFFFFFFFFFFFFFF508158816081688184
:1050C00070810000000000000000000000000000EF
:1050D0000404040404040004000000140A0A00008C
:1050E000000000000000000014143F140A3F0A0AE8
:1050F000000000041E1505060C14150F0400000026
:1051000012150D0A142C2A1200000000040A0A1EAF
:105110001515093600000002020100000000000021
:1051200000000020100808080808081020000002ED
:105130000408080808080804020000000004150E0E
:105140000E150400000000000404041F0404040001
:10515000000000000000000000000002020100004A
:105160000000001F00000000000000000000000020
:1051700000000002000000100808080404020202F7
:10518000010000000E1111111111110E000000009C
:10519000040604040404040E000000000E111108AB
:1051A0000402011F000000000E11100C1010110E5F
:1051B00000000000080C0A0A091E08180000000080
:1051C0001F01010F1010110E000000000E09010F49
:1051D0001111110E000000001F090804040404044A
:1051E000000000000E11110E1111110E0000000040
:1051F0000E1111111E10120E00000000000004001C
:105200000000000400000000000000040000000492
:105210000400002010080402040810200000000010
:1052200000001F00001F0000000000020408102002
:1052300010080402000000000E111108040400040C
:10524000000000000E111915151D011E00000000C0
:1052500004040C0A0A1E1233000000000F12120E82
:105260001212120F000000001E1101010101110EA7
:10527000000000000F1212121212120F00000000A4
:105280001F120A0E0A02121F000000001F120A0E4F
:105290000A020207000000001C1201013911120C61
:1052A000000000003312121E121212330000000020
:1052B0001F0404040404041F000000003E08080842
:1052C000080808090700000037120A060A0A123700
:1052D00000000000070202020202223F000000005C
:1052E0001B1B1B1B15151515000000003B12161685
:1052F0001A1A1217000000000E1111111111110ECF
:10530000000000000F12120E02020207000000004F
:105310000E1111111117190E180000000F12120EA4
:105320000A121237000000001E1101060810110FAA
:10533000000000001F1504040404040E0000000017
:10534000331212121212120C000000003312120A51
:105350000A0C0404000000001515150E0A0A0A0ABA
:10536000000000001B0A0A04040A0A1B00000000D7
:105370001B0A0A040404040E000000001F090804AC
:105380000402121F0000001C0404040404040404AA
:105390001C00000202020404080808100000000EAD
:1053A00008080808080808080E0000040A000000A1
:1053B00000000000000000000000000000000000ED
:1053C000003F00040000000000000000000000009A
:1053D0000000000C121C123C000000000302020E30
:1053E0001212120E000000000000001C1202021C2B
:1053F000000000001810101C1212123C00000000E7
:105400000000000C121E021C000000003804041EE4
:105410000404041E000000000000003C120C021EE8
:10542000221C00000302020E1212123700000000BC
:10543000040000060404040E000000000800000C34
:1054400008080808080700000302023A0A0E12378B
:1054500000000000070404040404041F000000000E
:105460000000000F15151515000000000000000FCA
:1054700012121237000000000000000C1212120C71
:10548000000000000000000F1212120E02070000C0
:105490000000001C1212121C103800000000001B3B
:1054A00006020207000000000000001E020C101E91
:1054B000000000000004040E0404041800000000B2
:1054C0000000001B1212123C000000000000003718
:1054D000120A0C040000000000000015150E0A0A54
:1054E000000000000000001B0A040A1B000000006E
:1054F00000000037120A0C04040300000000001E24
:105500000804041E00000018080808040808080819
:10551000180008080808080808080808080800060D
:105520000404040804040404060002251800000012
:10553000000000000000000000000000000000006B
:105540000000000000000000000808080808080823
:1055500000001818000000486C2412000000000031
:105560000000000000000000002424247F1212121A
:105570007F12121200000000081C2A2A0A0C1828A8
:10558000282A2A1C080800000022251515152A586B
:105590005454542200000000000C1212120A762506
:1055A0002911916E000000060604030000000000AF
:1055B0000000000000000040201010080808080843
:1055C00008101020400000020408081010101010ED
:1055D0001008080402000000000008086B1C1C6B87
:1055E00008080000000000000000080808087F0804
:1055F0000808080000000000000000000000000093
:105600000000060604030000000000000000FE0089
:10561000000000000000000000000000000000008A
:105620000000060600000000804040202010100806
:1056300008040402020000000018244242424242D0
:10564000424224180000000000080E08080808085C
:105650000808083E00000000003C424242202010A2
:105660000804427E00000000003C42422018204016
:105670004042221C00000000002030282424222266
:105680007E20207800000000007E0202021A2640E0
:105690004042221C0000000000382402021A264268
:1056A0004242241800000000007E22221010080848
:1056B0000808080800000000003C42424224182468
:1056C0004242423C0000000000182442424264581A
:1056D0004040241C000000000000000018180000DA
:1056E0000000181800000000000000000008000082
:1056F0000000000808040000004020100804020414
:105700000810204000000000000000007F000000A2
:105710007F0000000000000000020408102040206C
:105720001008040200000000003C424246402010E5
:105730001000181800000000001C225A555555553D
:105740002D42221C00000000000808181414243CFC
:10575000224242E700000000001F2222221E2242B5
:105760004242221F00000000007C42420101010170
:105770000142221C00000000001F2242424242421D
:105780004242221F00000000003F4212121E12126D
:105790000242423F00000000003F4212121E12125D
:1057A0000202020700000000003C222201010171F8
:1057B0002122221C0000000000E7424242427E42B9
:1057C000424242E700000000003E080808080808BE
:1057D0000808083E00000000007C10101010101097
:1057E00010101010110F0000007722120A0E0A127A
:1057F00012222277000000000007020202020202C9
:105800000202427F000000000077363636362A2A30
:105810002A2A2A6B0000000000E346464A4A5252F8
:105820005262624700000000001C22414141414198
:105830004141221C00000000003F424242423E0221
:105840000202020700000000001C224141414141C8
:105850004D53321C60000000003F4242423E121293
:10586000222242C700000000007C424202041820AD
:105870004042423E00000000007F49080808080836
:105880000808081C0000000000E742424242424271
:105890004242423C0000000000E74242222424141D
:1058A0001418080800000000006B49494949555583
:1058B000362222220000000000E742242418181893
:1058C000242442E700000000007722221414080874
:1058D0000808081C00000000007E212010100804A9
:1058E0000442423F00000078080808080808080839
:1058F00008080808780000000202040408080810DC
:10590000102020204040001E101010101010101009
:10591000101010101E0000384400000000000000AD
:105920000000000000000000000000000000000077
:105930000000000000FF000608000000000000005A
:10594000000000000000000000000000003C427861
:10595000444242FC0000000000030202021A2642F8
:105960004242261A000000000000000000384402F5
:105970000202443800000000006040404078444289
:10598000424264D80000000000000000003C427E5B
:105990000202423C0000000000F08808087E08086F
:1059A0000808083E0000000000000000007C2222E1
:1059B0001C023C42423C000000030202023A464202
:1059C000424242E700000000000C0C00000E0808F4
:1059D0000808083E00000000003030000038202099
:1059E00020202020221E0000000302020272120A60
:1059F0001612227700000000000E080808080808A8
:105A00000808083E0000000000000000007F92929D
:105A1000929292B70000000000000000003B464256
:105A2000424242E70000000000000000003C424209
:105A30004242423C0000000000000000001B2642E1
:105A40004242221E0207000000000000007844428B
:105A50004242447840E000000000000000774C041F
:105A60000404041F0000000000000000007C42024B
:105A70003C40423E0000000000000008083E0808CC
:105A800008080830000000000000000000634242E7
:105A9000424262DC000000000000000000E74224F7
:105AA00024140808000000000000000000EB494931
:105AB0005555222200000000000000000076241846
:105AC0001818246E000000000000000000E74224C7
:105AD000241418080807000000000000007E2210AF
