:020000040800F2
:10000000B80400209D010008C70E0008AD0D0008CF
:10001000C50E0008A90200088510000800000000B5
:10002000000000000000000000000000CB0E0008EF
:10003000AB02000800000000C90E0008CD0E000849
:10004000B7010008B7010008B7010008B7010008B0
:10005000B7010008B7010008B7010008B7010008A0
:10006000B7010008B7010008B7010008B701000890
:10007000B7010008B7010008B7010008B701000880
:10008000B7010008B7010008B7010008B701000870
:10009000B7010008B7010008B7010008B701000860
:1000A000B7010008B7010008B7010008B701000850
:1000B000B7010008B7010008B7010008B701000840
:1000C000B7010008B7010008B7010008B701000830
:1000D000B7010008B7010008B7010008B701000820
:1000E000B7010008B7010008B7010008B701000810
:1000F000B7010008B7010008B7010008B701000800
:10010000B7010008B7010008B7010008B7010008EF
:10011000B7010008B7010008B7010008B7010008DF
:10012000B7010008B7010008B7010008B7010008CF
:10013000B7010008B7010008B7010008B7010008BF
:10014000B7010008B7010008B7010008B7010008AF
:10015000B7010008B7010008B7010008B70100089F
:10016000B7010008B7010008B7010008B70100088F
:10017000B7010008B7010008B7010008000000003F
:10018000B7010008B7010008DFF80CD000F07AF8DA
:1001900000480047BD130008B80400200648804707
:1001A00006480047FEE7FEE7FEE7FEE7FEE7FEE75C
:1001B000FEE7FEE7FEE7FEE7410F000889010008C1
:1001C0002DE9F05F0546002092469B46884606468C
:1001D000814640241BE0284641464746224600F01F
:1001E00041F853465A46C01A914110D31146184659
:1001F000224600F028F82D1A67EB01084F462246E8
:100200000120002100F01FF817EB00094E41201ECD
:10021000A4F10104DFDC484631462A464346BDE8E6
:10022000F09FD2B201E000F8012B491EFBD27047CB
:100230000022F6E710B513460A4604461946FFF7B2
:10024000F0FF204610BD202A04DB203A00FA02F11C
:10025000002070479140C2F1200320FA03F31943B4
:1002600090407047202A04DB203A21FA02F0002156
:10027000704721FA02F3D040C2F1200291400843B6
:1002800019467047064C074D06E0E06840F0010350
:1002900094E8070098471034AC42F6D3FFF778FF94
:1002A0006836040888360408FEE770477047000087
:1002B00070B5B3F5804F05D06FF0704140F8221053
:1002C000002070BD50F82240084B8E891C40D1E9B7
:1002D000003543EA05138D6889692D0245EA064514
:1002E0002B430B43234340F82230E9E70000F0CFD3
:1002F000F0B50C6850F82430114A1340D1E90125BB
:10030000D1E903672A433E4332434E6932438E6943
:100310003243CE6932430E6A32434E6A32438E6AAA
:100320003243CE6A3243CE6B096B32430A431A43DF
:10033000082D01D142F0400240F824200020F0BDF9
:100340008000F0FF30B500EB820250688D8900F02C
:100350004043D1E9000440EA04108C68240244EAD6
:10036000054420430C8A074D05EB045420430C7DC3
:100370006D0105EB0464896920430843184350600C
:10038000002030BD0000F0FFF0B587B014216846B2
:10039000FFF74EFF2048016800293AD10121016092
:1003A0001E480024016841F0010101600068022537
:1003B00000F0010005904FF6FC70CDE9000502AA9F
:1003C00003260C2782E8D0006946154800F030F873
:1003D0004FF63370CDE9000502AA694682E8D000E5
:1003E000104800F025F840F23F20CDE9000502AAB0
:1003F000694682E8D0000C4800F01AF84FF23F003E
:10040000CDE9000502AA694682E8D000074800F05D
:100410000FF807B0F0BD00000C0000203838024093
:1004200000100240000C024000180240001402407C
:100430002DE9F84F00224FF0010803254FF00F0E71
:100440000B6808FA02F42340A3426ED14E68012ED5
:1004500005D0022E03D0112E01D0122E12D18668A3
:100460004FEA420C05FA0CF7BE43CF6807FA0CF7C7
:10047000374387604668A6430C79C4F30014944060
:1004800034434460C668570005FA07FC8C6826EAC6
:100490000C06BC403443C4604C68022C01D0122CC2
:1004A00013D1D40800EB8404A346D4F82090540759
:1004B0004FEAD46A0EFA0AF629EA06090E6906FA24
:1004C0000AF646EA0906CBF8206006680C7926EAA7
:1004D0000C0604F00304BC40344304604C68E400A0
:1004E00065D5364C266846F480462660246822F09E
:1004F000030604F480440094314C3444A446D4F8F8
:1005000008489607370F0EFA07F6B4432D4EB0424F
:1005100001D1002624E02C4EB04201D101261FE07B
:100520002A4EB04202D102261AE040E0284EB042E4
:1005300001D1032614E0274EB04201D104260FE07A
:10054000254EB04201D105260AE0244EB04201D129
:10055000062605E0224EB04201D1072600E008261B
:10056000BE402643CCF808681E4E34684F689C4352
:10057000FF0300D51C4334601A4C241D26684F68C5
:100580009E43BF0300D51E432660164E08363468CE
:100590004F689C43FF0200D51C433460114E0C365B
:1005A00034684F689C43BF0200D51C433460521C22
:1005B000102AFFF445AFBDE8F88F00004438024030
:1005C00000300140000002400004024000080240E8
:1005D000000C0240001002400014024000180240CB
:1005E000001C0240003C0140014880687047000048
:1005F000140000200248816802781144816070472D
:10060000140000200B4810B5016841F4007101602E
:10061000016841F480610160016841F4807101600A
:10062000032000F09BF8002000F006F800F024F80A
:10063000002010BD003C024070B50D4D04464FF443
:100640007A712878B1FBF0F00A490968B1FBF0F043
:1006500000F030FB48B9102C07D200222146501E72
:1006600000F05CF800206C6070BD012070BD0000DF
:1006700014000020240000200A4808B5016841F455
:1006800080410160006800F4804000900548001F30
:10069000016841F080510160006800F080500090D6
:1006A00008BD0000443802402DE9F04116460F46CF
:1006B000040004D094F84900002518B107E0012097
:1006C000BDE8F08184F84850204600F025F804F198
:1006D00008012068FFF70CFE3946A2682068FFF782
:1006E00031FED4E901023146236BFFF7E1FDA16839
:1006F000206850F8212042F0010240F821200548EE
:100700006269012122B1016084F849100020D7E715
:100710000560F9E720000020FFF736BEF0B40E4B6D
:100720001B680C46C3F30223C3F10705042D00D94F
:100730000425191D072901D2002300E0DB1E012634
:1007400006FA05F1491E214099409E40761E16404A
:100750003143F0BC00F0A8BC0CED00E0064900F00D
:10076000070208684FF6FF03184040EA0220034AD8
:1007700010430860704700000CED00E00000FA052F
:100780002DE9F0470E46050065D0DFF81481D8F852
:100790000000F7B200F00F00B04207D288F80070F6
:1007A000D8F8000000F00F00B04254D128683D4C4A
:1007B000810712D5400703D5206840F4E05020603F
:1007C0002878000703D5206840F460402060206846
:1007D000A96820F0F000084320602878C0072DD0D9
:1007E000304968680839012812D0022813D003283C
:1007F00011D00968890700292DDA216821F0030149
:1008000001432160FFF7F0FE814641F2883A0EE095
:1008100009688903EFE709688901ECE7FFF7E4FE5F
:10082000A0EB0901514502D90320BDE8F0872068FB
:10083000696800F00C00B0EB810FEFD1D8F8001020
:10084000404601F00F01B14207D90770006800F07F
:100850000F00B04201D00120E7E72878400705D516
:100860002068E96820F4E0500843206028780007F9
:1008700006D52068296920F4604040EAC100206064
:1008800000F038F82168084AC1F30311515CC840F0
:100890000649086006480068FFF7CEFE0020C4E75E
:1008A000003C024008380240503604082400002072
:1008B000180000200448054900680968044AC1F38B
:1008C0008221515CC8407047240000200838024053
:1008D000603604080448054900680968044AC1F301
:1008E0004231515CC8407047240000200838024063
:1008F00060360408154810B5006810F00C02144862
:1009000013D01449042A0FD0082A0ED10F4C241FEB
:100910002268236802F03F025B0207D52068C0F31B
:100920008810A0FB010106E0084610BD2168C1F354
:100930008811A1FB00010023FFF742FC2168C1F3ED
:100940000141491C4900B0FBF1F010BD08380240DC
:100950000024F40040787D012DE9F84F04006ED0AA
:100960002078DFF83C93C007A9F104054AD009F1CB
:1009700004000168C1F38101012908D00068C0F3B7
:10098000810002280AD1D9F80000400206D5286863
:10099000800337D560680028E1D033E06068B0F5A7
:1009A000803F10D0B0F5A02F286810D020F4803000
:1009B0002860286820F4802028606068A8B1FFF7CC
:1009C00013FE06460DE0286840F48030F4E740F45A
:1009D00080202860F7E700BFFFF706FE801B642831
:1009E00073D828688003F7D50CE0FFF7FDFD0646B5
:1009F00005E000BFFFF7F8FD801B6428F0D82868E9
:100A00008003F7D42078DFF89C8280074FF0000A3B
:100A10003ED5A348001D016811F00C0F08D00068F6
:100A2000C0F3810002280BD1D9F80000400207D49E
:100A30002868800716D5E068012800D112E02BE174
:100A4000E068B8B10120C8F80000FFF7CDFD064608
:100A500005E000BFFFF7C8FD801B0228C0D828684A
:100A60008007F7D52868216920F0F80040EAC10026
:100A700028600DE0C8F800A0FFF7B6FD064604E0C8
:100A8000FFF7B2FD801B02281FD828688007F7D423
:100A90002078000722D5824E83486169703671B193
:100AA00001210160FFF7A0FD074604E0FFF79CFD70
:100AB000C01B022809D830688007F7D50EE0C0F8BF
:100AC00000A0FFF791FD074605E082E0FFF78CFDEF
:100AD000C01B02287DD830688007F7D420784007F3
:100AE00068D5DFF8BCB100270BF13C0BDBF8000048
:100AF000C0000BD4DBF8001041F08051CBF800109F
:100B0000DBF80000012700F080500090674E30684D
:100B1000C00510D4306840F480703060FFF764FD89
:100B2000009005E0FFF760FD0099401A022850D8B8
:100B30003068C005F6D55A4EA0686C3601280FD033
:100B40000528306810D020F001003060306820F0B7
:100B500004003060A068B8B1FFF746FD00900FE0D8
:100B6000306840F00100F4E740F004003060F7E73F
:100B7000FFF73AFD0099411A41F28830814266D868
:100B800030688007F4D50EE0FFF72EFD009007E0F7
:100B9000FFF72AFD0099411A41F28830814256D868
:100BA00030688007F4D42FB1DBF8001021F08051B9
:100BB000CBF80010A069C8B33949091D0968C1F311
:100BC000810102294AD00228504607D0C8F86000A7
:100BD00000E03CE0FFF708FD04463BE04746C8F86C
:100BE0006000FFF701FD064605E000BFFFF7FCFCD3
:100BF000801B02282BD828688001F7D4D4E907018C
:100C00000843A16A2A4A490802EB0141626A41EAA3
:100C10008211084394F82C1040EA0161C9F80010D1
:100C200001203866FFF7E0FC044606E036E000BF2E
:100C3000FFF7DAFC001B022809D828688001F7D5E5
:100C40002CE000BFFFF7D0FC001B022802D90320D4
:100C5000BDE8F88F28688001F4D41FE00128F7D0A0
:100C6000D9F80000E26900F48001914214D1226AAF
:100C700000F03F0191420FD147F6C071626A014016
:100C8000914209D1A26A00F44031914204D1E16A53
:100C900000F07060884201D00120D9E70020D7E73A
:100CA0000438024000004742800E47420070004076
:100CB0000000FFFF10B5401EB0F1807F01D301207E
:100CC00010BD4FF0E02460610F21601700F0ECF9D7
:100CD0000020A06107202061002010BD70B5040035
:100CE00004D094F83900002510B106E0012070BD51
:100CF00084F83850204600F023F8242084F8390086
:100D00002068C16821F40051C160204600F026F936
:100D10002068016921F4904101612068416921F056
:100D20002A0141612068C16841F40051C160E56356
:100D3000202084F8390084F83A00002070BD0000BB
:100D400010B586B0044614216846FFF771FA1449BD
:100D50002068884221D113480021026842F0100225
:100D60000260006800F0100005900E481438026818
:100D700042F001020260006800F0010005904FF4AB
:100D8000C06000900220CDE90101032003900720FC
:100D9000049069460448FFF74BFB06B010BD000005
:100DA000001001404438024000000240FEE700000D
:100DB00000B587B01C216846FFF73AFA16484FF095
:100DC0002041082201601549416002218160002113
:100DD000C0E903121022C0E90521C16113020162BA
:100DE000C0E90913C16201634163816341640F205B
:100DF000FF230090CDE90103CDE903021120CDE9E5
:100E00000501002269460448FFF74EFC002801D086
:100E1000FFF74CFA07B000BD2C000020040100A031
:100E2000194808B5016841F010010160016801F03E
:100E300010010091016841F008010160016801F0B2
:100E400008010091016841F040010160016801F072
:100E500040010091016841F001010160016801F069
:100E600001010091016841F020010160016801F079
:100E700020010091016841F080010160006800F0EC
:100E80008000009008BD0000303802400C4810B5CA
:100E90000A4901604FF4E1314160002181600C2278
:100EA000C160C0E904128161C161FFF717FF00282A
:100EB00003D0BDE81040FFF7F9B910BD00100140A4
:100EC00078000020FEE7704770477047FFF792BB3D
:100ED00010B592B030216846FFF7AAF914210CA88A
:100EE000FFF7A6F914480024016841F08051016021
:100EF000006800F0805011901048016841F4804172
:100F000001600068069400F4804011900220009077
:100F100001200390102004906846FFF71DFD0F206C
:100F2000CDE90C040E940F9400210CA81094FFF747
:100F300027FC12B010BD0000403802400070004095
:100F40000548016841F47001016003494FF00060F9
:100F5000803908607047000088ED00E02DE9F0411D
:100F6000044600680169E26821F4405111430161BF
:100F70002169A068E2690843616911430843216857
:100F8000CA6849F20C639A430243CA602068416907
:100F9000A26921F4407111434161E0691927642578
:100FA0003226B0F5004F354A354920684FF0000829
:100FB00006D0884201D0904236D1FFF78BFC35E055
:100FC000884201D0904202D1FFF784FC01E0FFF794
:100FD00071FC61684A18A0FB070148EB0803FFF7A2
:100FE000EFF80146B0FBF5F00201B1FBF5F06FF050
:100FF0001803584301EB800006EBC000B0FBF5F08E
:1010000000F0F80002EB4002B1FBF5F0584301EBB1
:10101000800006EBC000B0FBF5F000F0070021688F
:1010200010448860BDE8F081FFF744FC61688B0FD5
:101030008A00A0FB0701FFF7C3F80146B0FBF5F0FB
:101040006FF01802504301EB800006EB0010B0FB7C
:10105000F5F000F0F002B1FBF5F002EB0012B1FB8D
:10106000F5F06FF01803584301EB800006EB001019
:10107000B0FBF5F000F00F00D1E7000000140140D4
:1010800000100140FEE700000FB4054B10B503A9A6
:10109000044A029800F028F810BC5DF814FB000028
:1010A000A9130008280000200907090E002804DB06
:1010B00000F1E02080F80014704700F00F0000F10C
:1010C000E02080F8141D704702E008C8121F08C114
:1010D000002AFAD170477047002001E001C1121FB9
:1010E000002AFBD1704700002DE9FF4F8DB09B46D1
:1010F0000F460446002606E025280BD05A460F99D5
:101100009047641C761C20780028F5D111B0304639
:10111000BDE8F08F0025A8460122984900E005436C
:1011200014F8013F203B02FA03F00842F7D120787F
:101130002E2817D114F8010F45F004052A280ED0E7
:101140006FF02F022078A0F1300109290AD808EBAE
:10115000880102EB410100EB0108641CF2E757F83B
:10116000048B641C20786C280DD004DC4C2812D031
:101170006A2811D104E074280DD07A280CD10AE035
:1011800045F4001507E0617845F48015814202D1ED
:10119000641C05F58015641C2278692A45D008DC9A
:1011A000002AB3D0582A69D0632A10D0642A08D103
:1011B0003BE0702A67D0732A13D0752A5CD0782A56
:1011C0005CD010465A460F999047761CD3E017F82A
:1011D000040B8DF8000000208DF80100E946012085
:1011E00003E057F8049B4FF0FF3069074FF000050C
:1011F00001D40AE06D1C45450DDA8542FADB19F889
:1012000005100029F6D106E06D1C8542FCDB19F8BB
:1012100005100029F8D12E4404E019F8010B5A46B4
:101220000F9990476D1EF8D2A5E00A200021CDE964
:101230000801C5F3025002280DD001CFC117031ECB
:1012400071F100030DDA4FF0000CD0EB0C006CEBE9
:1012500001012D2308E0FF1D27F00707F7E8020131
:10126000EDE72B0504D52B238DF8283001233BE037
:10127000EB0739D02023F7E70A2000E010200021F7
:10128000CDE9080107E01020002145F00405CDE973
:1012900008014FF00808C5F3025002280FD001CF13
:1012A00000214FF0000A2B071FD5702A0DD0DDE971
:1012B00008C38CF0100C5CEA030C0CD015E0FF1D89
:1012C00027F00707F7E80201EBE740228DF8282016
:1012D0004FF0010A0BE050EA010306D030238DF8ED
:1012E00028308DF8292002239A46582A04D024A2B7
:1012F0000DF120090B9209E026A2F9E7DDE90823A8
:10130000FEF75EFF0B9B9B5C09F8013D50EA010272
:10131000F4D1ADEB090020300890680701D44FF0FC
:1013200001080899884502DDA8EB010000E00020D3
:101330008046002506E00AA85A46405D0F9990476E
:101340006D1C761C5545F6DB04E030205A460F999B
:101350009047761CB8F10001A8F10108F5DC05E022
:1013600019F8010B5A460F999047761C0899481EA8
:1013700008900029F4DC641CC5E60000092801007F
:1013800030313233343536373839616263646566FB
:1013900000000000303132333435363738394142BD
:1013A000434445460000000003490A685206FCD544
:1013B000C2B24A60704700000010014008B5FFF754
:1013C00021F9FFF785FDFFF72BFDFFF7F1FCFFF794
:1013D0005DFD174C00204FF0C845A060154E164A21
:1013E000616807E0335C2F5CBB4200D0411C401CAD
:1013F000904201D20029F5D0C4E901100FA0FFF7F7
:1014000043FE606890B113A0FFF73EFEE8780090BD
:10141000AB786A78297814A0FFF736FE19A0FFF799
:1014200033FE3078217808442070FEE721A0EBE7F6
:1014300000000020C8140008882104000D0A204E76
:101440006F7220466C617368CAB5D1E9BDE1B9FB22
:101450003A2000000D0A204E6F7220466C617368BE
:10146000CAA7B0DC0D0A00004755495F66756E20BB
:101470003A2025237820252378202523782025232A
:10148000780D0A000D0A203D3D3D3D3D3D3D3E208D
:101490004E6F7220466C617368B7C3CECAB3CCD0AE
:1014A000F2BDE1CAF821203C3D3D3D3D3D3D3D20A2
:1014B0000D0A00000D0A204E6F7220466C617368A1
:1014C000B3C9B9A60D0A00000010E0011A01011B02
:1014D000E4FBE4FBE4FBE4FBE4FBE4FBE4FBE4FB14
:1014E000E4FBE4FBE4FBE4FBE4FBE4FBE4FBE4FB04
:1014F000E4FBE4FBE4FBE4FBE4FBE4FBE4FBE4FBF4
:10150000E4FBE4FBE4FBE4FBE4FBE4FBE4FBE4FBE3
:10331000D8FEB0F5B0F5B0F5B0F5B0F5B0F5B0F554
:10332000B0F5B0F5B0F5B0F5B0F5B0F5B0F5B0F575
:10333000B0F5B0F5B0F5B0F5B0F5B0F5B0F5B0F565
:10334000B0F5B0F5B0F5B0F5B0F5B0F5B0F5B0F555
:10335000B0F5B0F5B0F5B0F5B0F5B0F5B0F5B0F545
:10336000B0F5B0F5B0F5B0F5B0F5D1F5DEFFE4FBA2
:10337000E4FBE4FBE4FBE4FBE4FBE4FBE4FBE4FB55
:10338000E4FBE4FBE4FBE4FBE4FBE4FBE4FBE4FB45
:10339000E4FBE4FBE4FBE4FBE4FBE4FBE4FBE4FB35
:1033A000E4FBE4FBE4FBE4FBE4FBE4FBE4FBE4FB25
:1035E000E4FBE4FBE4FBBEFFB0F5B0F5B0F5B0F5ED
:1035F000B0F5B0F5B0F5B0F5B0F5B0F5B0F5B0F5A3
:10360000B0F5B0F5B0F5B0F5B0F5B0F5B0F5B0F592
:10361000B0F5B0F5B0F5B0F5B0F5B0F5B0F5B0F582
:10362000B0F5B0F5B0F5B0F5B0F5B0F5B0F5B0F572
:10363000B0F5B0F5B0F5B0F5B0F5B0F5B0F5B0F562
:10364000B0F596F6E4FBE4FBE4FBE4FBE4FBE4FB0F
:10365000E4FBE4FBE4FBE4FBE4FBE4FBE4FBE4FB72
:10366000E4FBE4FBE4FBE4FBE4FBE4FBE4FBE4FB62
:10367000E4FBE4FBE4FBE4FBE4FBE4FBE4FBE4FB52
:10368000E4FBE4FBE4FBE4FBE4FBE4FBE4FBE4FB42
:10369000E4FBE4FBE4FBE4FBE4FBE4FBE4FBE4FB32
:1036A000E4FBE4FBE4FBE4FBE4FBE4FBE4FBE4FB22
:1036B000E4FBE4FBE4FBE4FBE4FBE4FBE4FBE4FB12
:1036C000E4FBE4FBE4FBE4FBE4FBE4FBE4FB9DFF45
:1036D00005E4AAD4AAD4AAD4AAD4AAD4AAD4AAD48F
:1036E000AAD4AAD4AAD4AAD4AAD4AAD4AAD4AAD4EA
:1036F000AAD4AAD4AAD4AAD4AAD4AAD4AAD4AAD4DA
:10370000AAD4AAD4AAD4AAD4AAD4AAD4AAD4AAD4C9
:10371000AAD4AAD4AAD4AAD4AAD4AAD4AAD4AAD4B9
:10372000AAD4AAD4AAD4AAD468D4A3E39DFFE4FB64
:10373000E4FBE4FBE4FBE4FBE4FBE4FBE4FBE4FB91
:10374000E4FBE4FBE4FBE4FBE4FBE4FBE4FBE4FB81
:10375000E4FBE4FBE4FBE4FBE4FBE4FBE4FBE4FB71
:10376000E4FBE4FBE4FBE4FBE4FBE4FBE4FBE4FB61
:1039A000E4FBE4FBE4FBE4FB96F647DC80FF80FFEE
:1039B00080FF80FF80FF80FF80FF80FF80FF80FF0F
:1039C00080FF80FF80FF80FF80FF80FF80FF80FFFF
:1039D00080FF80FF80FF80FF80FF80FF80FF80FFEF
:1039E00080FF80FF80FF80FF80FF80FF80FF80FFDF
:1039F00080FF80FF80FF80FF80FF80FF80FF80FFCF
:103A000080FF0DCDAAECE4FBE4FBE4FBE4FBE4FB6C
:103A1000E4FBE4FBE4FBE4FBE4FBE4FBE4FBE4FBAE
:103A2000E4FBE4FBE4FBE4FBE4FBE4FBE4FBE4FB9E
:103A3000E4FBE4FBE4FBE4FBE4FBE4FBE4FBE4FB8E
:103A4000E4FBE4FBE4FBE4FBE4FBE4FBE4FBE4FB7E
:103A5000E4FBE4FBE4FBE4FBE4FBE4FBE4FBE4FB6E
:103A6000E4FBE4FBE4FBE4FBE4FBE4FBE4FBE4FB5E
:103A7000E4FBE4FBE4FBE4FBE4FBE4FBE4FBE4FB4E
:103A8000E4FBE4FBE4FBE4FBE4FBE4FBF9FE06E41B
:103A900080FF80FF80FF80FF80FF80FF80FF80FF2E
:103AA00080FF80FF80FF80FF80FF80FF80FF80FF1E
:103AB00080FF80FF80FF80FF80FF80FF80FF80FF0E
:103AC00080FF80FF80FF80FF80FF80FF80FF80FFFE
:103AD00080FF80FF80FF80FF80FF80FF80FF80FFEE
:103AE00080FF80FF80FF4ECD47E4E4FBE4FBE4FB76
:103AF000E4FBE4FBE4FBE4FBE4FBE4FBE4FBE4FBCE
:103B0000E4FBE4FBE4FBE4FBE4FBE4FBE4FBE4FBBD
:103B1000E4FBE4FBE4FBE4FBE4FBE4FBE4FBE4FBAD
:103B2000E4FBE4FBE4FBE4FBE4FBE4FBE4FBE4FB9D
:103D6000E4FBE4FBE4FBE4FBE4FB89E42DCD80FF12
:103D700080FF80FF80FF80FF80FF80FF80FF80FF4B
:103D800080FF80FF80FF80FF80FF80FF80FF80FF3B
:103D900080FF80FF80FF80FF80FF80FF80FF80FF2B
:103DA00080FF80FF80FF80FF80FF80FF80FF80FF1B
:103DB00080FF80FF80FF80FF80FF80FF80FF80FF0B
:103DC00080FF80FF47DCB7F6E4FBE4FBE4FBE4FBA9
:103DD000E4FBE4FBE4FBE4FBE4FBE4FBE4FBE4FBEB
:103DE000E4FBE4FBE4FBE4FBE4FBE4FBE4FBE4FBDB
:103DF000E4FBE4FBE4FBE4FBE4FBE4FBE4FBE4FBCB
:103E0000E4FBE4FBE4FBE4FBE4FBE4FBE4FBE4FBBA
:103E1000E4FBE4FBE4FBE4FBE4FBE4FBE4FBE4FBAA
:103E2000E4FBE4FBE4FBE4FBE4FBE4FBE4FBE4FB9A
:103E3000E4FBE4FBE4FBE4FBE4FBE4FBE4FBE4FB8A
:103E4000E4FBE4FBE4FBE4FBE4FBE4FB26E46FCDF2
:103E500080FF80FF80FF80FF80FF80FF80FF80FF6A
:103E600080FF80FF80FF80FF80FF80FF80FF80FF5A
:103E700080FF80FF80FF80FF80FF80FF80FF80FF4A
:103E800080FF80FF80FF80FF80FF80FF80FF80FF3A
:103E900080FF80FF80FF80FF80FF80FF80FF80FF2A
:103EA00080FF80FF80FFE5E31AFFE4FBE4FBE4FB17
:103EB000E4FBE4FBE4FBE4FBE4FBE4FBE4FBE4FB0A
:103EC000E4FBE4FBE4FBE4FBE4FBE4FBE4FBE4FBFA
:103ED000E4FBE4FBE4FBE4FBE4FBE4FBE4FBE4FBEA
:103EE000E4FBE4FBE4FBE4FBE4FBE4FBE4FBE4FBDA
:10412000E4FBE4FBE4FBE4FBE4FBE4FB8FEDAAD45B
:1041300080FF80FF80FF80FF80FF80FF80FF80FF87
:1041400080FF80FF80FF80FF80FF80FF80FF80FF77
:1041500080FF80FF80FF80FF80FF80FF80FF80FF67
:1041600080FF80FF80FF80FF80FF80FF80FF80FF57
:1041700080FF80FF80FF80FF80FF80FF80FF80FF47
:1041800080FF80FF80FFAAD48FEDE4FBE4FBE4FB1B
:10419000E4FBE4FBE4FBE4FBE4FBE4FBE4FBE4FB27
:1041A000E4FBE4FBE4FBE4FBE4FBE4FBE4FBE4FB17
:1041B000E4FBE4FBE4FBE4FBE4FBE4FBE4FBE4FB07
:1041C000E4FBE4FBE4FBE4FBE4FBE4FBE4FBE4FBF7
:1041D000E4FBE4FBE4FBE4FBE4FBE4FBE4FBE4FBE7
:1041E000E4FBE4FBE4FBE4FBE4FBE4FBE4FBE4FBD7
:1041F000E4FBE4FBE4FBE4FBE4FBE4FBE4FBE4FBC7
:10420000E4FBE4FBE4FBE4FB9DFFC4E3D2C580FFD9
:1042100080FF80FF80FF80FF80FF80FF80FF80FFA6
:1042200080FF80FF80FF80FF80FF80FF80FF80FF96
:1042300080FF80FF80FF80FF80FF80FF80FF80FF86
:1042400080FF80FF80FF80FF80FF80FF80FF80FF76
:1042500080FF80FF80FF80FF80FF80FF80FF80FF66
:1042600080FFB1C5C4E3DEFFE4FBE4FBE4FBE4FB59
:10427000E4FBE4FBE4FBE4FBE4FBE4FBE4FBE4FB46
:10428000E4FBE4FBE4FBE4FBE4FBE4FBE4FBE4FB36
:10429000E4FBE4FBE4FBE4FBE4FBE4FBE4FBE4FB26
:1042A000E4FBE4FBE4FBE4FBE4FBE4FBE4FBE4FB16
:1044E000E4FBE4FBE4FBE4FBE4FBE4FBE4FBB7F606
:1044F00047DC80FF80FF80FF80FF80FF80FF80FF20
:1045000080FF80FF80FF80FF80FF80FF80FF80FFB3
:1045100080FF80FF80FF80FF80FF80FF80FF80FFA3
:1045200080FF80FF80FF80FF80FF80FF80FF80FF93
:1045300080FF80FF80FF80FF80FF80FF80FF80FF83
:1045400080FF80FF80FF80FF2DCD89E4E4FBE4FB4A
:10455000E4FBE4FBE4FBE4FBE4FBE4FBE4FBE4FB63
:10456000E4FBE4FBE4FBE4FBE4FBE4FBE4FBE4FB53
:10457000E4FBE4FBE4FBE4FBE4FBE4FBE4FBE4FB43
:10458000E4FBE4FBE4FBE4FBE4FBE4FBE4FBE4FB33
:10459000E4FBE4FBE4FBE4FBE4FBE4FBE4FBE4FB23
:1045A000E4FBE4FBE4FBE4FBE4FBE4FBE4FBE4FB13
:1045B000E4FBE4FBE4FBE4FBE4FBE4FBE4FBE4FB03
:1045C000E4FBE4FBE4FBB7F647DC80FF80FF80FF01
:1045D00080FF80FF80FF80FF80FF80FF80FF80FFE3
:1045E00080FF80FF80FF80FF80FF80FF80FF80FFD3
:1045F00080FF80FF80FF80FF80FF80FF80FF80FFC3
:1046000080FF80FF80FF80FF80FF80FF80FF80FFB2
:1046100080FF80FF80FF80FF80FF80FF80FF80FFA2
:104620002DCD89E4E4FBE4FBE4FBE4FBE4FBE4FBE9
:10463000E4FBE4FBE4FBE4FBE4FBE4FBE4FBE4FB82
:10464000E4FBE4FBE4FBE4FBE4FBE4FBBBFF11FF66
:1046500099FFE4FBE4FBE4FBE4FBE4FBE4FBE4FBA9
:10466000E4FBE4FBE4FBE4FBE4FBE4FBE4FBE4FB52
:10467000E4FBDCFFCDFE99FFE4FBE4FBE4FBE4FBA1
:10468000E4FBE4FBFFFF33FF11FF99FFE4FBE4FBD6
:10469000E4FBE4FBE4FBE4FBE4FBE4FBE4FBE4FB22
:1046A000E4FBE4FBE4FBE4FBE4FBE4FBE4FBE4FB12
:1046B000E4FBE4FBE4FBE4FBE4FBE4FBE4FBE4FB02
:1046C000E4FBE4FBE4FBE4FBE4FBE4FBE4FBE4FBF2
:1046D000E4FBE4FBE4FBE4FBE4FBE4FBE4FBE4FBE2
:1046E000E4FBE4FBE4FBE4FBE4FBE4FBE4FBE4FBD2
:1046F000E4FBE4FBE4FBE4FBE4FBE4FBE4FBE4FBC2
:10470000E4FBE4FBE4FBE4FBE4FBE4FBE4FBE4FBB1
:10471000E4FBE4FBE4FBE4FBE4FBE4FBE4FBE4FBA1
:10472000E4FBE4FBE4FBE4FBE4FBDDFFDCFFE4FB98
:10473000E4FBE4FBE4FB33FF55FFDEFFE4FBE4FBBB
:10474000E4FBE4FBFFFF76FFDCFFE4FBE4FBE4FBC0
:10475000E4FBE4FBE4FBE4FBE4FBE4FBE4FBDEFF63
:1047600011FF55FFDDFFE4FBE4FBE4FBE4FBE4FBAE
:10477000E4FBDDFFFFFFE4FBE4FBE4FBE4FBE4FB25
:10478000E4FBE4FBE4FBE4FBE4FBE4FBE4FBE4FB31
:10479000E4FBE4FBE4FBE4FBDEFF11FF76FFE4FB5C
:1047A000E4FBE4FBE4FBE4FBE4FBE4FBE4FBE4FB11
:1047B000E4FBE4FBFFFF33FFDDFFE4FBE4FBE4FB92
:1047C000E4FBE4FBE4FBE4FBE4FBE4FBE4FBE4FBF1
:1047D000E4FBE4FBE4FBE4FBE4FBE4FBE4FBE4FBE1
:1047E000E4FBE4FBE4FBE4FBE4FBE4FBE4FBE4FBD1
:1047F000E4FBE4FBE4FBE4FBE4FBE4FBE4FBE4FBC1
:10480000E4FBE4FBE4FBE4FB11FFCDFE55FFDEFF20
:10481000E4FBE4FBE4FBE4FBE4FBE4FBE4FBE4FBA0
:10482000E4FBE4FBE4FBE4FBE4FBE4FBE4FBE4FB90
:10483000E4FBE4FBE4FBE4FBE4FBE4FBE4FBE4FB80
:10484000E4FBE4FBE4FBFFFF54FF54FFDEFFE4FB6B
:10485000E4FBE4FBE4FBE4FBE4FBE4FBE4FBE4FB60
:10486000E4FBE4FBE4FBE4FBBBFFCDFE54FFDEFF17
:10487000E4FBE4FBE4FBE4FBE4FBE4FB99FF32FF35
:10488000BBFFE4FBE4FBE4FBE4FBE4FBE4FBE4FB55
:10489000E4FBE4FBE4FBE4FBE4FBE4FBE4FBE4FB20
:1048A000E4FBE4FBE4FBE4FBE4FBE4FBE4FBE4FB10
:1048B000CBEC0CCD80FF80FF80FF80FF80FF80FF6E
:1048C00080FF80FF80FF80FF80FF80FF80FF80FFF0
:1048D00080FF80FF80FF80FF80FF80FF80FF80FFE0
:1048E00080FF80FF80FF80FF80FF80FF80FF80FFD0
:1048F00080FF80FF80FF80FF80FF80FF80FF80FFC0
:1049000080FF80FF80FF80FF80FF68DC55F6E4FBBE
:10491000E4FBE4FBE4FBE4FBE4FBE4FBE4FBE4FB9F
:10492000E4FBE4FBE4FBE4FBE4FBE4FBE4FBE4FB8F
:10493000E4FBE4FBE4FBE4FBE4FBE4FBE4FBE4FB7F
:10494000E4FBE4FBE4FBE4FBE4FBE4FBE4FBE4FB6F
:10495000E4FBE4FBE4FBE4FBE4FBE4FBE4FBE4FB5F
:10496000E4FBE4FBE4FBE4FBE4FBE4FBE4FBE4FB4F
:10497000E4FBE4FBE4FBE4FBE4FBE4FBE4FBE4FB3F
:10498000E4FBE4FBDEFF06E490CD80FF80FF80FFC8
:1049900080FF80FF80FF80FF80FF80FF80FF80FF1F
:1049A00080FF80FF80FF80FF80FF80FF80FF80FF0F
:1049B00080FF80FF80FF80FF80FF80FF80FF80FFFF
:1049C00080FF80FF80FF80FF80FF80FF80FF80FFEF
:1049D00080FF80FF80FF80FF80FF80FF80FFD2C5C7
:1049E00005E45BFFE4FBE4FBE4FBE4FBE4FBE4FB4A
:1049F000E4FBE4FBE4FBE4FBE4FBE4FBE4FBE4FBBF
:104A0000E4FBE4FBE4FBE4FBFEFF10FFCCFECCFE8A
:104A1000CCFECCFE7BFFE4FBE4FBE4FBDCFFDDFF34
:104A2000E4FBE4FBE4FBE4FBE4FBE4FBE4FBE4FB8E
:104A3000E4FB98FFCCFECCFEADFEBEFFE4FBE4FB46
:104A4000E4FBE4FBE4FB32FFCCFECCFECCFEF1FE4B
:104A5000E4FBE4FBE4FBE4FBE4FBE4FBE4FBE4FB5E
:104A6000E4FBE4FBE4FBE4FBE4FBE4FBE4FBE4FB4E
:104A7000E4FBEFFECCFE32FFDDFFE4FBE4FBE4FBF6
:104A8000E4FBE4FBE4FBE4FBE4FBE4FBE4FBE4FB2E
:104A9000E4FBE4FBE4FBE4FBE4FBE4FBE4FBE4FB1E
:104AA000E4FBE4FBE4FBE4FBE4FBE4FBE4FBE4FB0E
:104AB000E4FBE4FBE4FBE4FBE4FBE4FBE4FBE4FBFE
:104AC000E4FBE4FBE4FBE4FBE4FBE4FBE4FBE4FBEE
:104AD000E4FBE4FBE4FBE4FBE4FBE4FBE4FBE4FBDE
:104AE000E4FBE4FBE4FBE4FB77FFCCFECCFECCFE76
:104AF00032FFE4FBBBFFCCFECCFECCFE11FFE4FB9F
:104B0000E4FBE4FB76FFCCFECCFECCFECDFEE4FB6A
:104B1000E4FBE4FBE4FBE4FBE4FBE4FBE4FB98FFE5
:104B2000CCFECCFECCFECCFEE4FBE4FBE4FBE4FBE1
:104B300099FFCCFECCFECCFECDFE76FFE4FBE4FB81
:104B4000E4FBE4FBE4FBE4FBE4FBE4FBE4FBE4FB6D
:104B5000FFFF76FFDDFFE4FB98FFCCFECCFE11FFEC
:104B6000E4FBE4FBE4FBE4FBE4FBE4FBE4FBE4FB4D
:104B7000E4FBE4FBBBFFCCFECCFECEFEE4FBE4FB9F
:104B8000E4FBE4FBE4FB55FFCCFECCFECCFECCFE0C
:104B9000CCFECCFECCFECEFEBBFF11FFCCFECCFE8D
:104BA000CCFECCFECCFECCFECCFECCFE11FFE4FB5A
:104BB000E4FBE4FBE4FBE4FBE4FBE4FBE4FBE4FBFD
:104BC000E4FBE4FBE4FBE4FB98FFCCFECCFECCFE74
:104BD000CCFEBBFFE4FBE4FBE4FBE4FBE4FBE4FB17
:104BE000E4FBE4FBE4FBE4FBE4FBBAFF76FF76FFC7
:104BF00076FF76FF76FF76FF10FFCCFEEEFEE4FB3D
:104C0000E4FBE4FBE4FB54FFCCFECCFECCFECDFE8B
:104C1000FFFFE4FBE4FBE4FBE4FBE4FBE4FBE4FB7D
:104C2000E4FBE4FBE4FB99FFCCFECCFECCFECCFE27
:104C3000B1FEFFFF98FF76FFFFFF77FFCCFECCFEB3
:104C4000CCFECCFEBBFFE4FBFFFF75FF99FFE4FB4E
:104C5000E4FBE4FBE4FBE4FBE4FBE4FBE4FBE4FB5C
:104C6000E4FBE4FBE4FBE4FBE4FBE4FBE4FBE4FB4C
:104C70009DFFC4E3D2C580FF80FF80FF80FF80FFDF
:104C800080FF80FF80FF80FF80FF80FF80FF80FF2C
:104C900080FF80FF80FF80FF80FF80FF80FF80FF1C
:104CA00080FF80FF80FF80FF80FF80FF80FF80FF0C
:104CB00080FF80FF80FF80FF80FF80FF80FF80FFFC
:104CC00080FF80FF80FF80FF80FFB1C5C4E3DEFF6F
:104CD000E4FBE4FBE4FBE4FBE4FBE4FBE4FBE4FBDC
:104CE000E4FBE4FBE4FBE4FBE4FBE4FBE4FBE4FBCC
:104CF000E4FBE4FBE4FBE4FBE4FBE4FBE4FBE4FBBC
:104D0000E4FBE4FBE4FBE4FBE4FBE4FBE4FBE4FBAB
:104D1000E4FBE4FBE4FBE4FBE4FBE4FBE4FBE4FB9B
:104D2000E4FBE4FBE4FBE4FBE4FBE4FBE4FBE4FB8B
:104D3000E4FBE4FBE4FBE4FBE4FBE4FBE4FBE4FB7B
:104D4000E4FBE4FB8FEDAAD480FF80FF80FF80FFAF
:104D500080FF80FF80FF80FF80FF80FF80FF80FF5B
:104D600080FF80FF80FF80FF80FF80FF80FF80FF4B
:104D700080FF80FF80FF80FF80FF80FF80FF80FF3B
:104D800080FF80FF80FF80FF80FF80FF80FF80FF2B
:104D900080FF80FF80FF80FF80FF80FF80FFAAD41C
:104DA0008FEDE4FBE4FBE4FBE4FBE4FBE4FBE4FB6E
:104DB000E4FBE4FBE4FBE4FBE4FBE4FBE4FBE4FBFB
:104DC000E4FBE4FBE4FBFEFF10FFCCFECCFECCFEDC
:104DD000CCFE6CFE44BAD3E5BBFFBBFFCCFECDFEE0
:104DE000BAFFE4FBE4FBE4FBE4FBE4FBE4FBE4FBF1
:104DF000E4FB98FFCCFECCFE24BAC3A0EFCB7DFF32
:104E0000E4FBE4FBE4FBDDFFCDFECCFECCFE8CFE40
:104E100030CCE4FBDCFF76FFFEFFE4FBE4FBE4FBCD
:104E2000E4FBE4FBE4FBE4FBE4FBE4FBE4FBE4FB8A
:104E3000E4FBCEFECCFECCFECDFE98FFE4FBE4FB13
:104E4000E4FBE4FBE4FBE4FBE4FBE4FBE4FBE4FB6A
:104E5000E4FBE4FBE4FBE4FBE4FBE4FBE4FBDCFF5E
:104E600076FFE4FBE4FBE4FBE4FBE4FBE4FBBBFFD9
:104E7000BBFFBBFFBBFFBBFFBBFFBBFFE4FBE4FB18
:104E8000E4FBE4FBE4FBDEFFBBFFBBFFBBFFFFFF7C
:104E9000E4FBE4FBE4FBE4FBDEFFBBFFBBFFBBFF8B
:104EA000DDFFE4FBE4FBFFFFEEFECCFECCFECCFE20
:104EB000ACFE10FF55FFCCFECCFECCFECCFEECF5DC
:104EC00053EEE4FB55FFCCFECCFECCFEAADCE4FBAB
:104ED000E4FBE4FBE4FBE4FBE4FBE4FBE4FB98FF22
:104EE000CCFECCFECCFE07D475DDE4FBE4FBE4FB9A
:104EF000E4FB76FFCCFECCFECCFECCFE98FFE4FBC0
:104F0000E4FBE4FBE4FBE4FBE4FBE4FBE4FBE4FBA9
:104F100077FFCCFECCFE55FF77FFCCFECCFEC1A0C8
:104F20000CC338EEE4FBE4FBE4FBE4FBE4FBE4FB52
:104F3000E4FBE4FBBBFFCCFECCFE84BA86A975DDA6
:104F4000E4FBE4FBE4FB76FFCCFECCFECCFECCFE27
:104F5000CCFECCFECCFECCFEF1FE11FFCCFECCFE96
:104F6000CCFECCFECCFECCFECCFECCFECCFEE4FBDC
:104F7000E4FBE4FBE4FBE4FBE4FBE4FBDCFFE4FB3D
:104F8000E4FBE4FBE4FBE4FBE4FB11FFCCFECCFE22
:104F9000CCFE4BE538EEE4FBE4FBE4FBE4FBE4FB96
:104FA000E4FBE4FBE4FBE4FBDDFFCCFECCFECCFE4B
:104FB000CCFECCFECCFECCFECCFECCFECCFEFFFF6D
:104FC000E4FBE4FBFFFFCEFECCFECCFECCFEE9E42E
:104FD00086A938E6E4FBE4FBE4FBE4FBE4FBE4FB4A
:104FE000E4FBE4FBE4FB10FFCCFECCFECCFEABED1F
:104FF000E3B129C3CCFECCFE55FFEEFECCFECCFEC9
:10500000CCFE2BF645BA72E532FFCCFECCFEE4FBBB
:10501000E4FBE4FBE4FBE4FBE4FBE4FBE4FBE4FB98
:10502000E4FBE4FBE4FBE4FBE4FBE4FBE4FBE4FB88
:10503000E4FBF2F589DC80FF80FF80FF80FF80FFCA
:1050400080FF80FF80FF80FF80FF80FF80FF80FF68
:1050500080FF80FF80FF80FF80FF80FF80FF80FF58
:1050600080FF80FF80FF80FF80FF80FF80FF80FF48
:1050700080FF80FF80FF80FF80FF80FF80FF80FF38
:1050800080FF80FF80FF80FF80FF80FFCBD44EED4C
:10509000E4FBE4FBE4FBE4FBE4FBE4FBE4FBE4FB18
:1050A000E4FBE4FBE4FBE4FBE4FBE4FBE4FBE4FB08
:1050B000E4FBE4FBE4FBE4FBE4FBE4FBE4FBE4FBF8
:1050C000E4FBE4FBE4FBE4FBE4FBE4FBE4FBE4FBE8
:1050D000E4FBE4FBE4FBE4FBE4FBE4FBE4FBE4FBD8
:1050E000E4FBE4FBE4FBE4FBE4FBE4FBE4FBE4FBC8
:1050F000E4FBE4FBE4FBE4FBE4FBE4FBE4FBE4FBB8
:10510000E4FB7CFFE4E3D2C580FF80FF80FF80FFEB
:1051100080FF80FF80FF80FF80FF80FF80FF80FF97
:1051200080FF80FF80FF80FF80FF80FF80FF80FF87
:1051300080FF80FF80FF80FF80FF80FF80FF80FF77
:1051400080FF80FF80FF80FF80FF80FF80FF80FF67
:1051500080FF80FF80FF80FF80FF80FF90C5E5E338
:10516000DEFFE4FBE4FBE4FBE4FBE4FBE4FBE4FB49
:10517000E4FBE4FBE4FBE4FBE4FBE4FBE4FBE4FB37
:10518000E4FBE4FBDCFFEFFECCFECCFECCFECCFE71
:10519000CCFECCFECCFECCFECCFECCFECCFECCFEBF
:1051A000CDFEBAFFE4FBE4FBE4FBE4FBE4FBE4FB41
:1051B000E4FBBAFFCCFECCFEA3B10098A1A0ECD3D7
:1051C000BBFFBBFFBBFFBBFF32FFCCFECCFE4CFEE8
:1051D000A3B158FFCDFECCFE10FFFEFFE4FBE4FBC5
:1051E000E4FBE4FBE4FBE4FBE4FBE4FBE4FBE4FBC7
:1051F000E4FB99FFCCFECCFECCFECCFE54FFE4FBDE
:10520000E4FBE4FBE4FBE4FBE4FBE4FBE4FBE4FBA6
:10521000E4FBE4FBE4FBE4FBE4FBE4FB99FFCCFEF2
:10522000CCFEFEFFE4FBE4FBE4FBE4FB55FFCCFE1D
:10523000CCFECCFECCFECCFECCFECCFEEEFE33FF94
:10524000DCFFE4FBDEFFCDFECCFECCFECCFEEEFEB2
:10525000E4FBE4FBE4FBE4FBCDFECCFECCFECCFEA9
:10526000CCFEDCFFE4FB55FFCCFECCFECCFE6EE5B5
:10527000C5C2CCFECCFECCFECCFECCFECCFECCFE21
:10528000CCFE4EF632FFCCFECCFE2CF6009804A1EC
:1052900038EEE4FBE4FBE4FBE4FBE4FBE4FB98FF17
:1052A000CCFECCFECCFEA3B10098AACBCEFE76FFFE
:1052B000E4FBE4FB54FFCCFECCFECCFE0BE579EE28
:1052C000E4FB55FF98FFE4FBE4FBE4FBE4FBE4FBB9
:1052D00032FFCCFECCFECCFEEFFECCFECCFE009826
:1052E000009842A954DDE4FBE4FBE4FB76FF77FF82
:1052F000FEFFE4FBBBFFCCFECCFEA3B10098009800
:1053000030CCE4FBE4FB76FFCCFECCFECCFE09E522
:105310000DF6ADFECCFEADFEA3B1A9DCCCFECCFEFD
:105320006CFE2AE54EF6CDFECCFECCFE0CF68ABA1B
:105330007DFFE4FBE4FBE4FBE4FB76FFCCFE32FF05
:10534000E4FBE4FBE4FBE4FBE4FB99FFCCFECCFED6
:10535000CCFE68DC009834DDE4FBE4FBE4FBE4FB1A
:1053600054FFCEFEE4FBE4FBE4FB32FFCCFECCFEBC
:10537000CCFECCFECCFECCFECCFECCFECCFE49B2AC
:10538000BAEEE4FB77FFCCFECCFECCFECCFECCFE2E
:1053900042A90098B2D4E4FBE4FBE4FBE4FBE4FBA9
:1053A000E4FBE4FBDCFFCCFECCFECCFECCFECCFE72
:1053B000CCFECCFECCFECCFECCFECCFECCFECCFE9D
:1053C000CCFECCFECCFECCFECCFECCFECCFEBAFF9E
:1053D000E4FBE4FBE4FBE4FBE4FBE4FBE4FBE4FBD5
:1053E000E4FBE4FBE4FBE4FBE4FBE4FBE4FBE4FBC5
:1053F000E4FBE4FB26E46FCD80FF80FF80FF80FFAD
:1054000080FF80FF80FF80FF80FF80FF80FF80FFA4
:1054100080FF80FF80FF80FF80FF80FF80FF80FF94
:1054200080FF80FF80FF80FF80FF80FF80FF80FF84
:1054300080FF80FF80FF80FF80FF80FF80FF80FF74
:1054400080FF80FF80FF80FF80FF80FF80FFE5E31B
:105450001AFFE4FBE4FBE4FBE4FBE4FBE4FBE4FB1A
:10546000E4FBE4FBE4FBE4FBE4FBE4FBE4FBE4FB44
:10547000E4FBE4FBE4FBE4FBE4FBE4FBE4FBE4FB34
:10548000E4FBE4FBE4FBE4FBE4FBE4FBE4FBE4FB24
:10549000E4FBE4FBE4FBE4FBE4FBE4FBE4FBE4FB14
:1054A000E4FBE4FBE4FBE4FBE4FBE4FBE4FBE4FB04
:1054B000E4FBE4FBE4FBE4FBE4FBE4FBE4FBE4FBF4
:1054C00096F647DC80FF80FF80FF80FF80FF80FF33
:1054D00080FF80FF80FF80FF80FF80FF80FF80FFD4
:1054E00080FF80FF80FF80FF80FF80FF80FF80FFC4
:1054F00080FF80FF80FF80FF80FF80FF80FF80FFB4
:1055000080FF80FF80FF80FF80FF80FF80FF80FFA3
:1055100080FF80FF80FF80FF80FF0DCDAAECE4FBC1
:10552000E4FBE4FBE4FBE4FBE4FBE4FBE4FBE4FB83
:10553000E4FBE4FBE4FBE4FBE4FBE4FBE4FBE4FB73
:10554000E4FB98FFCDFECCFECCFECCFECCFECCFE28
:10555000CCFECCFECCFECCFECCFECCFE2BFECCFE9C
:10556000CCFE4DF6F7E5E4FBE4FBE4FBE4FBE4FBF7
:10557000E4FBBBFFCCFECCFEA3B1E3B1EBF5CCFE6C
:10558000CCFECCFECCFECCFECCFECCFECCFECCFECB
:10559000CCFECCFECCFECCFECCFE10FFFEFFE4FB2E
:1055A000E4FBE4FBE4FBE4FBE4FBE4FBE4FBE4FB03
:1055B000E4FBE4FB54FFCCFECCFE4CFECCFE92F6AA
:1055C000E4FBE4FBE4FBE4FBE4FBE4FBE4FBE4FBE3
:1055D000E4FBE4FBE4FBE4FBE4FBE4FB11FFCCFEB7
:1055E0008CFE99FFE4FBE4FBE4FBE4FB33FFCCFE21
:1055F000CCFECCFECCFECCFECCFECCFECCFECCFE5B
:10560000CCFE77FFDCFFCCFECCFECCFE8CFECCFECD
:10561000DCFFE4FBE4FBE4FBCCFE2BFE8CFECCFECB
:10562000CCFE99FFBBFFCCFECCFECCFE76FF86A95C
:10563000A3B1CCFECCFECCFECCFECCFECCFECCFE90
:10564000CCFEEDF5CEFECCFECCFECAE40098009870
:105650000CC3E4FBE4FBE4FBE4FBE4FBE4FB98FFAA
:10566000CCFECCFECCFE09E542A96BEDCCFECDFE16
:1056700011FF11FF10FFCCFECCFECCFEEBF509E5CF
:105680000DF6CCFECCFE76FFE4FBE4FBE4FBE4FB92
:10569000EFFECCFECCFEADFECBDCCCFECCFE00980B
:1056A00084BACCFEADFEDCFFE4FBBBFFCCFECCFE3F
:1056B000CEFE98FFBBFFCCFECCFEA3B100980098B5
:1056C000B2D4E4FBE4FB76FFCCFECCFECCFE00982B
:1056D000009848DCCCFE09E5009848DCCCFECCFE06
:1056E00009E500980098EBF5CCFECCFE66CB00985F
:1056F000C7B1E4FBE4FBE4FBE4FB10FFCCFECDFE12
:1057000011FF11FF11FF11FF11FF11FFCCFECCFEA5
:10571000CCFEEBF509E529E5F0FE11FF11FF10FFC6
:10572000CCFECCFEBCFFE4FBE4FBFFFF98FFCCFE0D
:10573000CCFE4CFE0AD4AADCCCFECCFECCFE0098FB
:10574000619838EEEEFECCFECCFECDFECCFECCFE5B
:10575000A8DC00988EC3FFFFE4FBE4FBE4FBE4FB62
:10576000E4FBE4FB11FFCCFECCFECCFECCFECCFE79
:10577000CCFECCFECCFECCFECCFECCFECCFECCFED9
:10578000CCFECCFECCFECCFECCFECCFECCFE2AE584
:10579000F3DCE4FBE4FBE4FBE4FBE4FBE4FBE4FB21
:1057A000E4FBE4FBE4FBE4FBE4FBE4FBE4FBE4FB01
:1057B000E4FBE4FBE4FB2DEDEBD480FF80FF80FFF6
:1057C00080FF80FF80FF80FF80FF80FF80FF80FFE1
:1057D00080FF80FF80FF80FF80FF80FF80FF80FFD1
:1057E00080FF80FF80FF80FF80FF80FF80FF80FFC1
:1057F00080FF80FF80FF80FF80FF80FF80FF80FFB1
:1058000080FF80FF80FF80FF80FF80FF80FF80FFA0
:1058100089DC13F6E4FBE4FBE4FBE4FBE4FBE4FBE0
:10582000E4FBE4FBE4FBE4FBE4FBE4FBE4FBE4FB80
:10583000E4FBE4FBE4FBE4FBE4FBE4FBE4FBE4FB70
:10584000E4FBE4FBE4FBE4FBE4FBE4FBE4FBE4FB60
:10585000E4FBE4FBE4FBE4FBE4FBE4FBE4FBE4FB50
:10586000E4FBE4FBE4FBE4FBE4FBE4FBE4FBE4FB40
:10587000E4FBE4FBE4FBE4FBE4FBE4FBE4FBDEFF32
:10588000C4E3B1C580FF80FF80FF80FF80FF80FF01
:1058900080FF80FF80FF80FF80FF80FF80FF80FF10
:1058A00080FF80FF80FF80FF80FF80FF80FF80FF00
:1058B00080FF80FF80FF80FF80FF80FF80FF80FFF0
:1058C00080FF80FF80FF80FF80FF80FF80FF80FFE0
:1058D00080FF80FF80FF80FFD2C5C4E39DFFE4FB13
:1058E000E4FBE4FBE4FBE4FBE4FBE4FBE4FBE4FBC0
:1058F000E4FBE4FBE4FBE4FBE4FBE4FBE4FBE4FBB0
:10590000DEFFCCFECCFECCFECCFECCFE8CFE66CB0D
:1059100066CB66CB66CBC7D3CCFECCFECCFECCFE32
:105920004BF684BA4198B6E5E4FBE4FBBBFFBBFF52
:10593000BBFF77FFCCFECCFEE9E4CCFECCFECCFE78
:10594000CCFECCFECCFECCFECCFECCFECCFECCFE07
:10595000CCFECCFECCFECCFECCFECCFEEAD37DFF52
:10596000E4FBE4FBE4FBE4FBE4FBE4FBBAFF77FFCE
:10597000FEFFE4FBFEFFCEFECCFE26DBCCFE8CFE63
:1059800091D4E4FBE4FBE4FBE4FBE4FBE4FBE4FB99
:10599000E4FBE4FBE4FBE4FBE4FBFFFFCDFECCFE19
:1059A000CCFE4CE508B2F3DCE4FBE4FBDEFF76FF63
:1059B000CCFECCFECCFE6DFE6EE58EEDCCFECCFEBC
:1059C000CCFECDFEDCFF99FFCEFECCFE09EDCCFE79
:1059D0000EE530CC3CF7E4FBCCFE07E4CCFEACFE9D
:1059E0000EE54FD48DFECCFECCFE76FFCFEDA8DCCD
:1059F00044BACCFECCFECCFECCFECCFECCFECCFE23
:105A0000CCFE24BACCFECCFECCFE65BA0098EAE40B
:105A1000F3FEE4FBE4FB99FFCDFECCFECCFECCFE16
:105A2000CCFECCFECCFECCFE6CFECDFECCFECCFE85
:105A3000CCFECCFECCFECCFECCFECCFECCFECCFE16
:105A4000CCFECCFECCFECCFE98FFE4FBE4FBDCFFFE
:105A5000CCFECCFECCFECCFECCFECCFECCFECCFEF6
:105A6000CCFECCFECCFECEFEDCFFBBFFCCFECCFEE3
:105A7000CCFEEEFEBBFFCCFECCFEA3B1009804A191
:105A8000E4FBE4FBE4FB76FFCCFECCFECCFE00980E
:105A9000009848DCCCFE09E5009848DCCCFECCFE42
:105AA00009E500980098EBF5CCFECCFE66CB00989B
:105AB00045A9FFFFE4FBE4FBFEFFCCFECCFECCFEE1
:105AC000CCFECCFECCFECCFECCFECCFECCFECCFE86
:105AD000CCFECCFECCFECCFECCFECCFECCFECCFE76
:105AE000CCFEEBF5CEFEFAF6E4FBE4FBDEFFCCFEEB
:105AF000CCFECCFE4CFEC7D3CCFECCFE2BF60098E1
:105B00000098ABDCCCFECCFECCFE6FE509E5CCFE0C
:105B1000CCFEE5C230CCE4FBE4FBE4FBE4FBE4FBBD
:105B2000E4FB76FFCCFECCFECCFE30F6E5C2CCFE2C
:105B3000CCFECCFE29C30CF6CCFECCFECCFE8ADC1F
:105B400009E5CCFECCFECCFE2CF66EE52DE502A9D7
:105B50002098B6E5E4FBE4FBE4FBE4FBE4FBE4FBB8
:105B6000E4FBE4FBE4FBE4FBE4FBE4FBE4FBE4FB3D
:105B7000E4FBE4FBE4FBE4FB54F668DC80FF80FF1D
:105B800080FF80FF80FF80FF80FF80FF80FF80FF1D
:105B900080FF80FF80FF80FF80FF80FF80FF80FF0D
:105BA00080FF80FF80FF80FF80FF80FF80FF80FFFD
:105BB00080FF80FF80FF80FF80FF80FF80FF80FFED
:105BC00080FF80FF80FF80FF80FF80FF80FF80FFDD
:105BD00080FFECD40CEDE4FBE4FBE4FBE4FBE4FB32
:105BE000E4FBE4FBE4FBE4FBE4FBE4FBE4FBE4FBBD
:105BF000E4FBE4FBE4FBE4FBE4FBE4FBE4FBE4FBAD
:105C0000E4FBE4FBE4FBE4FBE4FBE4FBE4FBE4FB9C
:105C1000E4FBE4FBE4FBE4FBE4FBE4FBE4FBE4FB8C
:105C2000E4FBE4FBE4FBE4FBE4FBE4FBE4FBE4FB7C
:105C3000E4FBE4FBE4FBE4FBE4FBE4FB1AFF06E427
:105C4000D2C580FF80FF80FF80FF80FF80FF80FF44
:105C500080FF80FF80FF80FF80FF80FF80FF80FF4C
:105C600080FF80FF80FF80FF80FF80FF80FF80FF3C
:105C700080FF80FF80FF80FF80FF80FF80FF80FF2C
:105C800080FF80FF80FF80FF80FF80FF80FF80FF1C
:105C900080FF80FF80FF6FCD27E4DEFFE4FBE4FBA5
:105CA000E4FBE4FBE4FBE4FBE4FBE4FBE4FBE4FBFC
:105CB000E4FBE4FBE4FBE4FBE4FBE4FBFEFF76FF38
:105CC000CDFECCFECCFECDFECCFECCFECCFEE9E47F
:105CD00000980098C1A0EBF5CCFECCFECCFE07D41A
:105CE000209800980098419838EE55FFCCFECCFEE5
:105CF000CCFECCFECCFECCFECCFECCFECCFECCFE54
:105D000010FF8ED48ADCCCFECCFECCFECCFEC9E4E7
:105D100044BA66BA29C329C3A7BA42A9009886A97A
:105D20007DFFE4FBE4FBE4FBE4FBE4FBCDFECCFE07
:105D3000CEFE77FFFFFF77FFCCFEA8ECEBF5CCFEA5
:105D4000C1A00CC3E4FBE4FBE4FBE4FBE4FBE4FBE9
:105D5000E4FBE4FBE4FBE4FBE4FB99FFCCFECCFEBC
:105D6000CCFE8AED009886A9E4FBE4FBE4FBE4FBAF
:105D7000CCFECCFECCFE09E50098009807D4CCFE02
:105D8000CCFECCFEA9DC34DDEFFECCFECCFECCFE9E
:105D900048DC0098CBBAE4FBCCFECCFECCFEEBF5A5
:105DA000009848DCCCFECCFE76FFB8F6CCFECCFEEC
:105DB000CCFECCFECCFECCFECCFECCFECCFECCFE93
:105DC000CCFE07D4CCFECCFECCFE4AED09E5CCFEE1
:105DD000CCFE54FFE4FB33FFCCFECCFECCFECCFE6D
:105DE000CCFECCFECCFECCFECCFECCFECCFECCFE63
:105DF000CCFECCFECCFECCFECCFECCFECCFECCFE53
:105E0000CCFECCFECCFECCFE67CB30CCE4FB55FF09
:105E1000CCFECCFECCFECCFECCFECCFECCFECCFE32
:105E2000CCFECCFECCFECCFEACED98EECCFECCFE97
:105E3000CCFE84BAECD3CCFECCFEA3B1009804A176
:105E4000E4FBE4FBE4FB76FFCCFECCFECCFECCFE18
:105E5000CCFECCFECCFE8AED009848DCCCFECCFE1D
:105E6000CCFECCFECCFECCFECCFECCFE07D4009803
:105E700079EEE4FBE4FBE4FB55FFCCFECCFECDFE6B
:105E800029E52BF6CCFECCFE8FFE8FFEAFFECCFEBE
:105E9000CCFECCFE8AED09E52DF68FFEAEFECCFEE3
:105EA000CCFECCFECCFE85BA38E6E4FBDCFFCCFEB3
:105EB000CCFECCFE4AED48DCCCFECCFEABED00982F
:105EC00063A9ADFECCFECCFE11FFC2A024BACCFE6D
:105ED000CCFE8CFEA3B13CF7E4FBE4FBE4FBE4FB6B
:105EE000DCFFCDFECCFECCFECCFE4AED44BA2BF658
:105EF000CCFECCFE84BACCFECCFECCFE66CB0098A9
:105F000060982BF6CCFECCFE2BF6009800980098FB
:105F100000982098BAEEE4FBE4FBE4FBE4FBE4FB2E
:105F2000E4FBE4FBE4FBE4FBE4FBE4FBE4FBE4FB79
:105F3000E4FBE4FBE4FBE4FBE4FB47E44ECD80FF41
:105F400080FF80FF80FF80FF80FF80FF80FF80FF59
:105F500080FF80FF80FF80FF80FF80FF80FF80FF49
:105F600080FF80FF80FF80FF80FF80FF80FF80FF39
:105F700080FF80FF80FF80FF80FF80FF80FF80FF29
:105F800080FF80FF80FF80FF80FF80FF80FF80FF19
:105F900080FF80FF06E4F9FEE4FBE4FBE4FBE4FBA6
:105FA000E4FBE4FBE4FBE4FBE4FBE4FBE4FBE4FBF9
:105FB000E4FBE4FBE4FBE4FBE4FBE4FBE4FBE4FBE9
:105FC000E4FBE4FBE4FBE4FBE4FBE4FBE4FBE4FBD9
:105FD000E4FBE4FBE4FBE4FBE4FBE4FBE4FBE4FBC9
:105FE000E4FBE4FBE4FBE4FBE4FBE4FBE4FBE4FBB9
:105FF000E4FBE4FBE4FBE4FBE4FBE4FB47E44ECD21
:1060000080FF80FF80FF80FF80FF80FF80FF80FF98
:1060100080FF80FF80FF80FF80FF80FF80FF80FF88
:1060200080FF80FF80FF80FF80FF80FF80FF80FF78
:1060300080FF80FF80FF80FF80FF80FF80FF80FF68
:1060400080FF80FF80FF80FF80FF80FF80FF80FF58
:1060500080FF80FF80FF06E4F9FEE4FBE4FBE4FB45
:10606000E4FBE4FBE4FBE4FBE4FBE4FBE4FBE4FB38
:10607000E4FBE4FBE4FBE4FBDEFFCCFECCFECCFE69
:10608000CEFE3BF74DC30098E5C2CCFECCFECCFE65
:10609000EBF5CCFECCFECCFECCFEADFE009800981D
:1060A0000098009804A134DDE4FBE4FBBBFF76FF1D
:1060B00013EEEBF5CCFECCFEE5C2A3B1E4B104B225
:1060C000609824BACCFECCFECCFE4AED209884BA6F
:1060D000CCFECCFEE9E40098009800980098009867
:1060E000C7B1E4FBE4FBE4FBE4FBE4FBCCFECCFE49
:1060F000CCFECCFE6BD479EE55FFCCFECCFE84BA40
:106100000098009849B2E4FBE4FBE4FBE4FBE4FB09
:10611000E4FBE4FBE4FBE4FBE4FB10FFCCFECCFE81
:10612000CCFECCFE24BA009875DDE4FBE4FBE4FB76
:10613000CCFECCFECCFE09E500980098F7E5CCFE3D
:10614000CCFECCFEEBF50098EBF5CCFECCFECCFE05
:10615000CCFE60980098F8F6CCFECCFECCFEEBF5B9
:1061600000980098CBBABEFFCDCB8CFECCFECCFE07
:10617000CCFECCFECCFECCFECCFECCFECCFECCFECF
:10618000CCFECCFECCFECCFECCFECCFECCFECCFEBF
:10619000CCFECCFE26CB0CC3FFFF7DFFA2A084BAB1
:1061A000CCFECCFECCFEA3B1CCFECCFECCFE68DC9B
:1061B0008CFECCFECCFECCFE4CFECCFECCFE2BF6F8
:1061C0008CFEAAED6098009800980098E5C2CCFE7D
:1061D000CCFE11FFCBCBA3B186CBCCFECCFEA3B1C2
:1061E000A3B1E3B1EBF5CCFE48DCC1A0CCFECCFE04
:1061F000CCFEC1A0A3B1CCFECCFEA3B1009804A1FB
:10620000E4FBE4FBE4FB76FFCCFECCFE8CFE09E570
:1062100009E56CFECCFECCFECCFE8CFECCFECCFEAA
:10622000CCFECCFECCFECCFECCFECCFE68DC0098D6
:10623000FBF6E4FBE4FB33FFCCFECCFECCFEEDF53D
:10624000009824BACCFECCFECCFEC7D342A9CCFE2B
:106250008CFECCFECCFE26CB009802A9CCFECCFE58
:106260008CFE84BA00980098009804A177FFCCFEB9
:10627000CCFECCFE6098AAEDCCFECCFE69DCE5C27B
:10628000CCFECCFECCFE16FFA2A000980098E7C280
:10629000CCFECCFECCFECCFE0EF6E4FBE4FB11FF04
:1062A000CCFECCFE32FF3BF74AEDCCFECCFECCFE62
:1062B000CCFECCFECCFECCFE8EFE55EEE4B1A3B1FE
:1062C000A3B1CACBCCFECCFECCFEAAED42A9F7E529
:1062D000F7E5BAEEE4FBE4FBE4FBE4FBE4FBE4FB00
:1062E000E4FBE4FBE4FBE4FBE4FBE4FBE4FBE4FBB6
:1062F000E4FBE4FBE4FBE4FBE4FBE4FB4EEDCBD48A
:1063000080FF80FF80FF80FF80FF80FF80FF80FF95
:1063100080FF80FF80FF80FF80FF80FF80FF80FF85
:1063200080FF80FF80FF80FF80FF80FF80FF80FF75
:1063300080FF80FF80FF80FF80FF80FF80FF80FF65
:1063400080FF80FF80FF80FF80FF80FF80FF80FF55
:1063500080FF80FF80FF89DCF2F5E4FBE4FBE4FBD7
:10636000E4FBE4FBE4FBE4FBE4FBE4FBE4FBE4FB35
:10637000E4FBE4FBE4FBE4FBE4FBE4FBE4FBE4FB25
:10638000E4FBE4FBE4FBE4FBE4FBE4FBE4FBE4FB15
:10639000E4FBE4FBE4FBE4FBE4FBE4FBE4FBE4FB05
:1063A000E4FBE4FBE4FBE4FBE4FBE4FBE4FBE4FBF5
:1063B000E4FBE4FBE4FBE4FBBEFFE5E3B1C580FFE7
:1063C00080FF80FF80FF80FF80FF80FF80FF80FFD5
:1063D00080FF80FF80FF80FF80FF80FF80FF80FFC5
:1063E00080FF80FF80FF80FF80FF80FF80FF80FFB5
:1063F00080FF80FF80FF80FF80FF80FF80FF80FFA5
:1064000080FF80FF80FF80FF80FF80FF80FF80FF94
:1064100080FFB1C5E5E39DFFE4FBE4FBE4FBE4FBA7
:10642000E4FBE4FBE4FBE4FBE4FBE4FBE4FBE4FB74
:10643000E4FBE4FBE4FBE4FBFFFF10FFEFFE77FF70
:10644000BDFF419800980098A1A08CFECCFECCFE28
:10645000CCFECCFECCFECCFE33FFCABA009800982E
:106460000098C7B17DFFC4F184FB84FB04F2E4E82B
:1064700065A98CFECCFECCFE86CB60980098009877
:10648000A1A0EBF5CCFECCFEEEFEE6B12098EBF53C
:10649000CCFECCFEACFE13DDE4FBE4FBE4FBE4FB52
:1064A000E4FBE4FBE4FBDCFF32FF77FFEFFECCFE16
:1064B000CCFE4AED009800988ABA78FF2DD4009857
:1064C0000098009809C311FFFFFFE4FBE4FBE4FB25
:1064D000E4FBE4FBE4FBE4FBFEFFCCFECCFECCFEE5
:1064E000CCFECCFEC7D300988EC3E4FBE4FBE4FBF8
:1064F000CCFECCFECCFE09E500980098DEFFCCFE79
:10650000CCFECCFE4AED0098EBF5CCFECCFECCFEEA
:10651000CCFEE3B1009831EECCFECCFECCFEEBF528
:1065200000980098EFCB7DFFC7D3CCFECCFECCFE0D
:10653000ABDCCCFEA8DC66CB66CB66CB8CFECCFE9F
:106540008CFECCFECCFECCFE2BE5C1A0CCFECCFE5E
:1065500024BA0098009800980CC3BEFF04A184BA26
:10656000CCFECCFECCFEA3B184BA09E5E5C2AAED0F
:10657000CCFECCFECCFECCFE09E58CFECCFECCFEE7
:10658000CCFE6ADC82980098009824BAACFECCFE5F
:10659000CCFECCFECCFECCFECCFECCFECCFECCFEAB
:1065A000CCFECCFECCFECCFECCFEE9E4CCFECCFE98
:1065B000CCFEC1A0A3B1CCFECCFEA3B1009804A137
:1065C000E4FBE4FBE4FB76FFCCFECCFEE8D30098D2
:1065D000009824BACCFECCFECCFECCFECCFE32FF22
:1065E000CCFECCFECCFECCFEAAED4AEDCCFE6098F3
:1065F000F7E5E4FBE4FB54FFCCFECCFECCFEC3B1DC
:106600000098009869DCCCFECCFE8CFECACBCCFE98
:10661000CCFECCFE09E5209800984CC38DFE8DFE83
:10662000AFDCC3A000980098009886A934FFCCFE88
:10663000CCFE8CFE00984CFECCFECCFE26CBCCFED5
:10664000CCFECCFE32FFCBCBA3B1A3B1E4B1B1FE03
:10665000CCFECCFECCFECCFECCFE33FFFFFFEEFE2C
:10666000CCFE33FFFFFFCBBA09E5CCFECCFE2BF608
:10667000C6C24CF62BF6CCFECCFECCFECCFECCFE3D
:10668000CCFECCFECCFECCFECCFECCFE8CFEFFFFC6
:10669000E4FBE4FBE4FBE4FBE4FBE4FBE4FBE4FB02
:1066A000E4FBE4FBE4FBE4FBE4FBE4FBE4FBE4FBF2
:1066B000E4FBE4FBE4FBE4FBE4FBE4FBDEFFC4E31C
:1066C000B1C580FF80FF80FF80FF80FF80FF80FFDB
:1066D00080FF80FF80FF80FF80FF80FF80FF80FFC2
:1066E00080FF80FF80FF80FF80FF80FF80FF80FFB2
:1066F00080FF80FF80FF80FF80FF80FF80FF80FFA2
:1067000080FF80FF80FF80FF80FF80FF80FF80FF91
:1067100080FF80FF80FFD2C5C4E39DFFE4FBE4FB64
:10672000E4FBE4FBE4FBE4FBE4FBE4FBE4FBE4FB71
:10673000E4FBE4FBE4FBE4FBE4FBE4FBE4FBE4FB61
:10674000E4FBE4FBE4FBE4FBE4FBE4FBE4FBE4FB51
:10675000E4FBE4FBE4FBE4FBE4FBE4FBE4FBE4FB41
:10676000E4FBE4FBE4FBE4FBE4FBE4FBE4FBE4FB31
:10677000E4FBE4FBE4FBE4FB2DEDEBD480FF80FFC6
:1067800080FF80FF80FF80FF80FF80FF80FF80FF11
:1067900080FF80FF80FF80FF80FF80FF80FF80FF01
:1067A00080FF80FF80FF80FF80FF80FF80FF80FFF1
:1067B00080FF80FF80FF80FF80FF80FF80FF80FFE1
:1067C00080FF80FF80FF80FF80FF80FF80FF80FFD1
:1067D00080FF89DC13F6E4FBE4FBE4FBE4FBE4FB71
:1067E000E4FBE4FBE4FBE4FBE4FBE4FBE4FBE4FBB1
:1067F000E4FBE4FBE4FBE4FBE4FBE4FBE4FB38EE5A
:10680000C3A00098009804BAADEDCCFECCFECCFE3F
:10681000CCFECCFECAEDF4ED45A900980098009896
:106820004DC3B7FE84FBE4FBE4FBE4FBE4FBE4E8DC
:1068300071E5CCFE8AF5CCFECCFE8CFE66CB62A95F
:106840008AEDCCFECCFECCFE11EEA3B148DCCCFE32
:10685000CCFE4DF662A900980CC3BEFFE4FBE4FB3E
:10686000E4FBE4FBE4FB54FFCCFECDFEEFFECCFEEC
:10687000CCFE09E500980098009875DD79EE009847
:10688000009800986EE5CCFE11FFFEFFE4FBE4FBF0
:10689000E4FBE4FBE4FBE4FB99FFCCFECCFE32FF1F
:1068A0006CFECCFE8AED009886A9E4FBE4FBE4FBD9
:1068B000CCFECCFECCFE09E50098009855FFCCFE3E
:1068C000CCFECCFE86CB0098EBF5CCFECCFECCFE0D
:1068D000CCFE66CB0098EDF5CCFECCFECCFEEBF505
:1068E00000980098EFCBDEFFACFECCFECCFECCFED9
:1068F00026CB4CFE09E509E509E54AEDCCFECCFEC8
:106900004CFECCFECCFECCFE2AE562A9CCFECCFE31
:1069100062A90098009800980098B6E5FBF68CDC18
:10692000CCFECCFECCFE26CBCCFE8EED2AE5CCFEFA
:10693000CCFECCFE6DFE45BA009862A98DFECCFE61
:10694000CCFECCFE46CB0098419834EECCFECCFE7B
:10695000CCFECCFECCFECCFECCFECCFECCFECCFEE7
:10696000CCFECCFECCFECCFECCFECCFECCFECCFED7
:10697000CCFEC1A0A3B1CCFECCFEA3B1009804A173
:10698000DDFF32FF11FF10FFCCFEEEFE4AED09E500
:1069900009E509E5CCFECCFECCFECCFE8AED4EF638
:1069A0004CFECCFECCFECCFEEBF5CCFECCFE8AED54
:1069B00017E6E4FBE4FBE4FB99FF76FF6BDC09E5FB
:1069C00084BA20988DC3F0FECCFECCFE44BACCFE37
:1069D000CCFECCFEC7D30098009841983CF7FEFF50
:1069E00079EE009800988ABA75DDE4FB32FFCCFEA0
:1069F000CCFEECF52098CCFECCFECCFEC7D3CCFE72
:106A0000CCFECCFECCFECCFECCFECCFECCFECCFE36
:106A1000CCFECCFECCFECCFECCFE4DF6FFFFBAFF8A
:106A2000EFFE76FF2DE566CBEBF5CCFECCFEEBF56D
:106A3000EBF5CCFEEBF5CCFECCFECCFECCFECCFEDA
:106A4000CCFECCFECCFECCFECCFECCFECCFE3CF78D
:106A5000E4FBE4FBE4FBE4FBE4FBE4FBE4FBE4FB3E
:106A6000E4FBE4FBE4FBE4FBE4FBE4FBE4FBE4FB2E
:106A7000E4FBE4FBE4FBE4FBE4FBE4FBE4FB96F671
:106A800047DC80FF80FF80FF80FF80FF80FF80FF6A
:106A900080FF80FF80FF80FF80FF80FF80FF80FFFE
:106AA00080FF80FF80FF80FF80FF80FF80FF80FFEE
:106AB00080FF80FF80FF80FF80FF80FF80FF80FFDE
:106AC00080FF80FF80FF80FF80FF80FF80FF80FFCE
:106AD00080FF80FF80FF80FF0DCDAAECE4FBE4FB8C
:106AE000E4FBE4FBE4FBE4FBE4FBE4FBE4FBE4FBAE
:106AF000E4FBE4FBE4FBE4FBE4FBE4FBE4FBE4FB9E
:106B0000E4FBE4FBE4FBE4FBE4FBE4FBE4FBE4FB8D
:106B1000E4FBE4FBE4FBE4FBE4FBE4FBE4FBE4FB7D
:106B2000E4FBE4FBE4FBE4FBE4FBE4FBE4FBE4FB6D
:106B3000E4FBE4FBE4FB1AFFE5E380FF80FF80FF5A
:106B400080FF80FF80FF80FF80FF80FF80FF80FF4D
:106B500080FF80FF80FF80FF80FF80FF80FF80FF3D
:106B600080FF80FF80FF80FF80FF80FF80FF80FF2D
:106B700080FF80FF80FF80FF80FF80FF80FF80FF1D
:106B800080FF80FF80FF80FF80FF80FF80FF80FF0D
:106B90006FCD26E4E4FBE4FBE4FBE4FBE4FBE4FB75
:106BA000E4FBE4FBE4FBE4FBE4FBE4FBE4FBE4FBED
:106BB000E4FBE4FBE4FBE4FBE4FBE4FBE4FB30CCC0
:106BC0000098C7D38CFECCFECCFECCFECCFECCFE17
:106BD000CCFECCFE66CB0098009800988298F3DC3F
:106BE000E4E884FBE4FBE4FBE4FBE4FB24FBE4E8F3
:106BF00055FFCCFE8AF5CCFECCFECCFECCFECCFE06
:106C0000CCFECCFECCFECCFECCFECCFECCFECCFE34
:106C1000CCFE66BAC1A0009800984DC3E4FBE4FB2B
:106C2000E4FBE4FBE4FBEFFECCFECCFEEFFECCFE8F
:106C3000CCFE09E500980098C7B1BEFFE4FB8EC307
:106C400000988ABABDFFCDFECCFEAEFEFEFFE4FB8F
:106C5000E4FBE4FBE4FBE4FB55FFCCFECCFE94F646
:106C6000A8DCCCFECCFE609800987DFFE4FBE4FB42
:106C7000CCFECCFECCFEEBF566CB66CBCCFECCFEE0
:106C8000CCFEADFEA1A00098EBF5CCFECCFECCFE78
:106C9000CCFEA8DC00986CFECCFECCFECCFEEBF566
:106CA00000980098EFCB33FFCCFECCFECCFECCFEA0
:106CB0008CFECCFECCFECCFECCFECCFECCFECCFEC4
:106CC000CCFECCFECCFECCFEAAED24BACCFECCFE93
:106CD000C1A00098009808B24DC37DFFFFFF98FF48
:106CE000CCFECCFECCFECCFECCFECCFECCFECCFE54
:106CF000CCFECBEDC6B1009800980098C1A0EBF592
:106D0000CCFECCFE8CFEA1A075DDE4FB98FF11FF4C
:106D1000CCFEC9E466CB66CB8CEDCCFECCFE66CB5C
:106D200066CBAADCCCFEAEEDABDC66CBCCFECCFEFB
:106D3000CCFEC1A0A3B1CCFECCFEA3B1009804A1AF
:106D400098FFCCFECCFECCFECCFECCFECCFECCFE26
:106D5000CCFECCFECCFECCFECCFECCFECCFECCFEE3
:106D6000CCFECCFECCFECCFECCFECCFECCFECCFED3
:106D7000EDF57DFFE4FBE4FBE4FBE4FB4AEDCCFE38
:106D8000CCFE4CFEF0EDBBFFCCFE8AEDE3B1CCFEB9
:106D9000CCFECCFEE5C20098009804A1BEFFE4FB47
:106DA000CFCB0098EFCBE4FBE4FBE4FBEFFECCFEA3
:106DB000CCFECAE402A9CCFECCFECCFECCFECCFEBE
:106DC000CCFECCFECCFECCFECCFECCFECCFECCFE73
:106DD000CCFECCFECCFECCFECCFE02A9C3A06DFE48
:106DE000CCFECCFECCFECCFECCFECCFECCFECCFE53
:106DF000CCFECCFECCFECCFECCFEEBF566CB8ADC2A
:106E00006EE56EE56EE58DFECCFECCFE68DCC3A0C3
:106E1000F7E5E4FBE4FBE4FBE4FBE4FBE4FBE4FB7D
:106E2000E4FBE4FBE4FBE4FBE4FBE4FBE4FBE4FB6A
:106E3000E4FBE4FBE4FBE4FBE4FBE4FBE4FBE4FB5A
:106E400089E42DCD80FF80FF80FF80FF80FF80FFE1
:106E500080FF80FF80FF80FF80FF80FF80FF80FF3A
:106E600080FF80FF80FF80FF80FF80FF80FF80FF2A
:106E700080FF80FF80FF80FF80FF80FF80FF80FF1A
:106E800080FF80FF80FF80FF80FF80FF80FF80FF0A
:106E900080FF80FF80FF80FF80FF47DCB7F6E4FBC8
:106EA000E4FBE4FBE4FBE4FBE4FBE4FBE4FBE4FBEA
:106EB000E4FBE4FBE4FBE4FBE4FBE4FBE4FBE4FBDA
:106EC000E4FBE4FBE4FBE4FBE4FBE4FBE4FBE4FBCA
:106ED000E4FBE4FBE4FBE4FBE4FBE4FBE4FBE4FBBA
:106EE000E4FBE4FBE4FBE4FBE4FBE4FBE4FBE4FBAA
:106EF000E4FBE4FBE4FB26E46FCD80FF80FF80FF32
:106F000080FF80FF80FF80FF80FF80FF80FF80FF89
:106F100080FF80FF80FF80FF80FF80FF80FF80FF79
:106F200080FF80FF80FF80FF80FF80FF80FF80FF69
:106F300080FF80FF80FF80FF80FF80FF80FF80FF59
:106F400080FF80FF80FF80FF80FF80FF80FF80FF49
:106F5000E5E31AFFE4FBE4FBE4FBE4FBE4FBE4FB16
:106F6000E4FBE4FBE4FBE4FBE4FBE4FBE4FBE4FB29
:106F7000E4FBE4FBE4FBE4FBFFFFBAFF76FFF1FE7A
:106F8000CCFECCFECCFECCFECCFECCFECCFECCFEB1
:106F9000CCFECCFECCFEA3B1009800983CF7BBFF22
:106FA00076FF12FEE4FBE4FBE4FBE4FBE4FBE4E835
:106FB000EFFECCFECCFECCFECCFECCFECCFECCFE5E
:106FC000CCFECCFECCFECCFECCFECCFECCFECCFE71
:106FD000CCFE8CFE8CFEC5C200984DC3E4FBE4FBE6
:106FE000E4FBE4FBDCFFCCFECCFECCFEEBF5CCFE00
:106FF000CCFE09E500980098F3DCE4FBE4FBE4FB3D
:107000007DFFE4FBE4FB55FFCCFECCFEABEDBEFF09
:10701000E4FBE4FBE4FBE4FB10FFCCFECCFEF0DC85
:10702000E5C2CCFECCFEA3B1009875DDE4FBE4FB29
:10703000CCFECCFECCFECCFECCFECCFECCFECCFE00
:10704000CEFE8EDC00980098EBF5CCFECCFECCFE9C
:10705000CCFE4CFE42A9CCFECCFECCFECCFEEBF529
:10706000009800988FD4CCFECCFECCFECCFECCFE9B
:1070700084BACCFECCFECCFECCFECCFECCFECCFE4C
:10708000CCFECCFECCFECCFE8CFEE5C2CCFEACFE33
:1070900000980098C3A0E4FBE4FBE4FBE4FB32FFB0
:1070A000CCFECCFECCFECCFECCFECCFECCFECCFE90
:1070B00090F68DC3009800980098009886A952E534
:1070C000CCFECCFECCFE42A930CCE4FBE4FB98FF26
:1070D000CCFEEBF566CB66CBA8DCCCFECCFE66CB5B
:1070E00066CB8AEDCCFE4CFE24BAC1A0CCFECCFE11
:1070F000CCFEC1A0A3B1CCFECCFEA3B1009804A1EC
:10710000FEFF10FFCCFECCFECCFECCFECCFECCFEB7
:10711000CCFECCFECCFECCFECCFECCFECCFECCFE1F
:10712000CCFECCFECCFECCFECCFECCFECCFECCFE0F
:10713000C7D386A97DFFE4FBE4FBE4FBEAD3CCFEE6
:10714000CCFECCFECCFE11FFECF542A984BACCFEFD
:10715000CCFECCFE24BA00980098B6E5E4FBE4FB34
:10716000FBF649B2E4FBE4FBE4FB99FFCDFECCFE69
:10717000CCFECCFECCFECCFECCFECCFECCFEA8DC05
:10718000B6F66AED4CFECCFE09E54DE56EE56EE522
:107190006EE5CCFE4CFEC7D384BA0098009826CB8F
:1071A000CCFECCFECCFECCFECCFECCFECCFECCFE8F
:1071B000CCFECCFECCFECCFECCFE09E500980098BF
:1071C000009800980098EBF5CCFECCFE48DC0098C7
:1071D0004198FFFFE4FBE4FBE4FBE4FBE4FBE4FB9E
:1071E000E4FBE4FBE4FBE4FBE4FBE4FBE4FBE4FBA7
:1071F000E4FBE4FBE4FBE4FBE4FBE4FBE4FBE4FB97
:10720000E4FB8FEDAAD480FF80FF80FF80FF80FF2A
:1072100080FF80FF80FF80FF80FF80FF80FF80FF76
:1072200080FF80FF80FF80FF80FF80FF80FF80FF66
:1072300080FF80FF80FF80FF80FF80FF80FF80FF56
:1072400080FF80FF80FF80FF80FF80FF80FF80FF46
:1072500080FF80FF80FF80FF80FF80FFAAD48FED3A
:10726000E4FBE4FBE4FBE4FBE4FBE4FBE4FBE4FB26
:10727000E4FBE4FBE4FBE4FBE4FBE4FBE4FBE4FB16
:10728000E4FBE4FBE4FBE4FBE4FBE4FBE4FBE4FB06
:10729000E4FBE4FBE4FBE4FBE4FBE4FBE4FBE4FBF6
:1072A000E4FBE4FBE4FBE4FBE4FBE4FBE4FBE4FBE6
:1072B000E4FB9DFFE5E3B1C580FF80FF80FF80FF19
:1072C00080FF80FF80FF80FF80FF80FF80FF80FFC6
:1072D00080FF80FF80FF80FF80FF80FF80FF80FFB6
:1072E00080FF80FF80FF80FF80FF80FF80FF80FFA6
:1072F00080FF80FF80FF80FF80FF80FF80FF80FF96
:1073000080FF80FF80FF80FF80FF80FFB1C5E5E345
:10731000BEFFE4FBE4FBE4FBE4FBE4FBE4FBE4FB97
:10732000E4FBE4FBE4FBE4FBE4FBE4FBE4FBE4FB65
:10733000E4FBE4FBE4FBE4FB32FFCCFECCFECCFE42
:10734000CCFECCFECCFEEFFE10FFADFECCFECCFEA4
:10735000CCFECCFECCFE48DCA7CB72F655FFCDFEB2
:10736000CCFE32FFFFFF44F2E4FBE4FBA4FADCFFB7
:10737000CCFECCFECCFECCFE2BF6CCFECCFE8CFEA6
:10738000CCFECCFE6CFE8AEDCCFECCFECCFECCFE60
:107390006EE5CCFECCFECCFE50F6E4FBE4FBE4FB59
:1073A000E4FBE4FB55FFCCFECCFECDFEEBF5CCFEC2
:1073B000CCFE09E500980098F3DCE4FBE4FBE4FB79
:1073C000E4FBE4FBE4FBDEFFCCFECCFECCFE8ADC7F
:1073D0007DFFE4FBE4FBFEFFCCFECCFECEFE8ABAD2
:1073E00042A9CCFECCFE66CB0098EFCBE4FBE4FBDD
:1073F000CCFECCFECCFECCFECCFECCFECCFE11FFF7
:10740000B4E5209800980098EBF5CCFECCFECCFEBD
:10741000CCFECCFEC7D3CCFECCFECCFECCFEEBF536
:10742000009820984DF6CCFECCFECCFECCFECCFED7
:107430000098CCFE48DCA3B1A3B168DCCCFEE9E443
:10744000CCFECCFE2BF6CCFECCFE09E5CCFE2CF619
:107450000098009886A9DDFFE4FBEFFECCFECCFE91
:10746000CCFECCFECCFE2BF6CCFECCFECCFEA8DCBB
:1074700029C3A3B1A3B1A3B1E4B172E5BBFF10FF6F
:10748000CCFECCFE2BF600980098B2D4E4FB76FF3D
:10749000CCFECCFECCFECCFECCFECCFECCFECCFE9C
:1074A000CCFECCFECCFECCFE8CFE02A9CCFECCFEEB
:1074B000CCFEC1A0A3B1CCFECCFEA3B1009804A128
:1074C000E4FBE4FBBBFF2DD400980098209868DC17
:1074D000CCFECCFEEBF5C1A00098009807D4CCFE02
:1074E000CCFECCFE09E542A90098009800980098CF
:1074F0000098009886A97DFFE4FBE4FBE4FB76FF9F
:10750000CCFECCFECCFECCFEBEFFC3A066CBCCFE38
:10751000CCFECCFE42A900980098BAEEE4FBE4FB56
:10752000E4FBE4FBE4FBE4FBE4FB54FFCCFECCFE19
:10753000CCFECCFECCFECCFECCFECCFECCFECCFEFB
:107540006BEDC1A0E9E4CCFE2BF6A1A00098009859
:1075500062A9CCFECCFE8CFEC5C2009800980098B3
:1075600071E535FF0CD4CAE4CCFE8CFECCFEEBF505
:10757000A3B1A3B10288CCFECCFE4CFE09E509E51F
:1075800009E509E509E58CFECCFECCFE48DC009857
:107590002CC3FFFFE4FBE4FBE4FBE4FBE4FBE4FBC4
:1075A000E4FBE4FBE4FBE4FBE4FBE4FBE4FBE4FBE3
:1075B000E4FBE4FBE4FBE4FBE4FBE4FBE4FBE4FBD3
:1075C000E4FBDEFF06E490CD80FF80FF80FF80FFBC
:1075D00080FF80FF80FF80FF80FF80FF80FF80FFB3
:1075E00080FF80FF80FF80FF80FF80FF80FF80FFA3
:1075F00080FF80FF80FF80FF80FF80FF80FF80FF93
:1076000080FF80FF80FF80FF80FF80FF80FF80FF82
:1076100080FF80FF80FF80FF80FF80FFD2C505E4F0
:107620005BFFE4FBE4FBE4FBE4FBE4FBE4FBE4FBE7
:10763000E4FBE4FBE4FBE4FBE4FBE4FBE4FBE4FB52
:10764000E4FBE4FBE4FBE4FBE4FBE4FBE4FBE4FB42
:10765000E4FBE4FBE4FBE4FBE4FBE4FBE4FBE4FB32
:10766000E4FBE4FBE4FBE4FBE4FBE4FBE4FBE4FB22
:10767000E4FB5BFF05E4D2C580FF80FF80FF80FF55
:1076800080FF80FF80FF80FF80FF80FF80FF80FF02
:1076900080FF80FF80FF80FF80FF80FF80FF80FFF2
:1076A00080FF80FF80FF80FF80FF80FF80FF80FFE2
:1076B00080FF80FF80FF80FF80FF80FF80FF80FFD2
:1076C00080FF80FF80FF80FF80FF80FF90CD06E479
:1076D000DEFFE4FBE4FBE4FBE4FBE4FBE4FBE4FBB4
:1076E000E4FBE4FBE4FBE4FBE4FBE4FBE4FBE4FBA2
:1076F000E4FBE4FBE4FBE4FBDEFFBBFFFFFF34DD68
:10770000CBBA609807D4CCFECCFECCFECCFECCFE2F
:10771000CCFECCFECCFECCFECCFECCFECCFECCFE19
:107720008CFECCFE8CFE2CC3BEFFE4E8DEFFCDFE5B
:10773000CCFECCFECCFECCFEA3B162A9C5C20098A3
:107740000098009848DCCCFECCFECCFEE9E402A90F
:107750008CFECCFECCFE6CEDC1A0009830CCE4FBDE
:10776000E4FB11FFCCFE4AF5CCFE0CF6EBF5CCFEAB
:10777000CCFE09E500980098F3DCE4FBE4FBE4FBB5
:10778000E4FB77FFCCFEEEFECCFE2BFEEBF5CCFE51
:10779000C1A049B2BEFF54FFCCFECCFECCFECCFE55
:1077A000CCFECCFECCFE8CFE20984198BEFFE4FBC4
:1077B000CCFECCFECCFE09E50098EBF5CCFE8CFEB1
:1077C00060980098009830CCEFFECCFECEFECCFE48
:1077D000CCFECCFECCFECCFE6CFECCFECCFEEBF5A3
:1077E0006098CCFECCFE10FF55FFCCFECCFECCFE4C
:1077F0000098CCFECCFECCFECCFECCFECCFECCFE6B
:107800006BEDA9BA89CBCCFECCFECCFECCFEA9CBCD
:10781000009800988EC332FFCCFECCFECCFECCFE8E
:10782000CCFECCFECCFEA3B144BA8CFECCFECCFE8A
:10783000CCFECCFECCFECCFECCFECCFECCFECCFEF8
:10784000CCFECCFE66CB0098009808B2E4FB76FF35
:10785000CCFECCFE4BF6A3B1E8D3CCFECCFEA3B15C
:1078600044BACCFECCFECCFEA3B1C1A0CCFECCFE73
:10787000CCFEC1A0A3B1CCFECCFEA3B1009804A164
:10788000E4FBE4FBE4FB7CFFABDC8CFECCFECCFE3B
:10789000CCFE4DF6AAEDA3B1609866CBADDC0FCC63
:1078A000ACEDCCFECCFECCFECCFECCFECCFE4DF640
:1078B000EDED6FD4EFCBF5F676FF76FF76FF76FF32
:1078C00054FFCCFECCFECCFE66CBECE48DFECCFEB1
:1078D000CCFEACFE66CB66CBE8D376FF76FF11FF1D
:1078E000CCFECCFE9AFFE4FBE4FBE4FBDDFF55FF9E
:1078F000A7BA009800980098E3B1CCFECCFE4CFEED
:10790000CCFECCFE0EDDCDFECCFECCFEE5C238EECC
:1079100032FFCCFECCFECCFE66CBB2D4BEFFE4FB85
:10792000E4FBE4FB8FDCCCFECCFECCFECCFECCFE3C
:10793000CCFECCFE6BEDCCFECCFECCFECCFECCFE69
:10794000CCFECCFECCFECCFECCFECCFE48DC0098BF
:10795000F7E5E4FBE4FBE4FBE4FBE4FBE4FBE4FB32
:10796000E4FBE4FBE4FBE4FBE4FBE4FBE4FBE4FB1F
:10797000E4FBE4FBE4FBE4FBE4FBE4FBE4FBE4FB0F
:10798000E4FBBEFFE5E3B1C580FF80FF80FF80FF21
:1079900080FF80FF80FF80FF80FF80FF80FF80FFEF
:1079A00080FF80FF80FF80FF80FF80FF80FF80FFDF
:1079B00080FF80FF80FF80FF80FF80FF80FF80FFCF
:1079C00080FF80FF80FF80FF80FF80FF80FF80FFBF
:1079D00080FF80FF80FF80FF80FF80FFB1C5E5E36F
:1079E0009DFFE4FBE4FBE4FBE4FBE4FBE4FBE4FBE2
:1079F000E4FBE4FBE4FBE4FBE4FBE4FBE4FBE4FB8F
:107A0000E4FBE4FBE4FBE4FBE4FBE4FBE4FBE4FB7E
:107A1000E4FBE4FBE4FBE4FBE4FBE4FBE4FBE4FB6E
:107A2000E4FBE4FBE4FBE4FBE4FBE4FBE4FBE4FB5E
:107A3000E4FBE4FB8FEDAAD480FF80FF80FF80FF92
:107A400080FF80FF80FF80FF80FF80FF80FF80FF3E
:107A500080FF80FF80FF80FF80FF80FF80FF80FF2E
:107A600080FF80FF80FF80FF80FF80FF80FF80FF1E
:107A700080FF80FF80FF80FF80FF80FF80FF80FF0E
:107A800080FF80FF80FF80FF80FF80FF80FFAAD4FF
:107A90008FEDE4FBE4FBE4FBE4FBE4FBE4FBE4FB51
:107AA000E4FBE4FBE4FBE4FBE4FBE4FBE4FBE4FBDE
:107AB000E4FBE4FBE4FBE4FBE4FBE4FBFBF6009803
:107AC00000984CFECCFECCFECCFECCFE8DFE67BA00
:107AD0000098009800980098009889DCCCFECCFEB5
:107AE000CCFE4AED42A9009849B2BEFF55FFCCFE3C
:107AF000CCFECDFECCFECCFEA3B10098C3A0C3A0AB
:107B0000209868DCCCFECCFECCFECCEDC5B18AED75
:107B1000CCFECCFE4FF6209800980098009830CC10
:107B200077FFCCFE2BFE07E4CCFE48DCEBF5CCFE69
:107B3000CCFE09E500980098F3DCE4FBE4FBE4FBF1
:107B4000E4FB54FFCCFECCFEEFFECCFECCFECCFE24
:107B5000C1A0009871D4EFFECCFECCFE6EE566CBE2
:107B600066CBCCFECCFECCFEA3B10098F7E5E4FBDF
:107B7000CCFECCFECCFE09E5009826CBCCFECCFE9C
:107B8000E5C20098F7E5FFFFEFFECCFECEFE8AEDE2
:107B9000CCFECCFECCFECCFE2BF6CCFECCFEEBF528
:107BA000009848DC4DF6DDFF8EE5CCFECCFECCFE29
:107BB0000098CCFECCFE6CFEA8DCCCFECCFECCFE4D
:107BC000209824BA68DCCCFECCFECCFECCFEC1A052
:107BD00000980098B2D4DEFFCDFECCFE6CFE48DCEF
:107BE000CCFECCFECCFEA3B141982DD468DC66CB94
:107BF00066CB08D4CCFECCFECCFE0DF66EE56EE571
:107C00006EE5E5C2209800980098B2D4E4FB76FFB8
:107C1000CCFECCFE0BF6009884BACCFECCFE0098CD
:107C2000C1A0CCFECCFECCFEA3B1C1A0CCFECCFE4C
:107C3000CCFE62A9A3B1CCFECCFEA3B1009804A1F6
:107C4000E4FBE4FBE4FBEEFECCFECCFECCFECCFE83
:107C5000CCFECCFECCFE8CFEE9E4CCFECCFECCFE11
:107C6000CCFECCFECCFECCFE8CFE09EDCCFECCFED8
:107C7000CCFE76FF99FFCCFECCFECCFECCFECCFE3B
:107C8000CCFECCFECCFECCFECCFECCFECCFECCFEA4
:107C9000CCFECCFECCFECCFECCFECCFECCFECCFE94
:107CA000CCFECCFECDFE18FFE4FBE4FBE4FBE4FBE2
:107CB00047BAA3B166CBA8DC2BF6CCFECCFE48DCE1
:107CC000CCFECCFEEBF58AEDCCFECCFE2BF624A947
:107CD000CDFECCFECCFE2CF600980098F3D4E4FB4D
:107CE000E4FBE4FB32FFCCFECCFECCFECCFECCFEB3
:107CF000CCFECCFECCFECCFECCFE09E50098009874
:107D0000009800980098EBF5CCFECCFE48DC00987B
:107D1000F7E5E4FBE4FBE4FBE4FBE4FBE4FBE4FB6E
:107D2000E4FBE4FBE4FBE4FBE4FBE4FBE4FBE4FB5B
:107D3000E4FBE4FBE4FBE4FBE4FBE4FBE4FBE4FB4B
:107D40001AFFE5E380FF80FF80FF80FF80FF80FF58
:107D500080FF80FF80FF80FF80FF80FF80FF80FF2B
:107D600080FF80FF80FF80FF80FF80FF80FF80FF1B
:107D700080FF80FF80FF80FF80FF80FF80FF80FF0B
:107D800080FF80FF80FF80FF80FF80FF80FF80FFFB
:107D900080FF80FF80FF80FF80FF6FCD26E4E4FB43
:107DA000E4FBE4FBE4FBE4FBE4FBE4FBE4FBE4FBDB
:107DB000E4FBE4FBE4FBE4FBE4FBE4FBE4FBE4FBCB
:107DC000E4FBE4FBE4FBE4FBE4FBE4FBE4FBE4FBBB
:107DD000E4FBE4FBE4FBE4FBE4FBE4FBE4FBE4FBAB
:107DE000E4FBE4FBE4FBE4FBE4FBE4FBE4FBE4FB9B
:107DF000E4FBE4FBE4FBB7F647DC80FF80FF80FF99
:107E000080FF80FF80FF80FF80FF80FF80FF80FF7A
:107E100080FF80FF80FF80FF80FF80FF80FF80FF6A
:107E200080FF80FF80FF80FF80FF80FF80FF80FF5A
:107E300080FF80FF80FF80FF80FF80FF80FF80FF4A
:107E400080FF80FF80FF80FF80FF80FF80FF80FF3A
:107E50002DCD89E4E4FBE4FBE4FBE4FBE4FBE4FB81
:107E6000E4FBE4FBE4FBE4FBE4FBE4FBE4FBE4FB1A
:107E7000E4FBE4FBE4FBE4FBE4FBE4FBBEFF09C33F
:107E80008BEDCCFECCFECCFECCFECCFECCFEE9E4F1
:107E9000009800980098009848DCCCFECCFECCFE00
:107EA000A8DC20980098009800988DCBCDFECCFEE1
:107EB000CDFE16FFCCFECCFEA3B1009804A173E565
:107EC0008AEDCCFECCFECCFE13FFB1D48AEDCCFE05
:107ED000CCFEAFFEE3A0009800980098009871D403
:107EE00011FFCCFE4CFECCFECCFEE3B1EBF5CCFE9C
:107EF000CCFE09E500980098F3DCE4FBE4FBE4FB2E
:107F0000E4FB54FFCCFECCFE4CE5CCFECCFE2BF6C5
:107F10000098009867BACCFECCFEEFFE08B200983D
:107F20000098CCFECCFECCFE66CB0098EFCBE4FBF9
:107F3000CCFECCFECCFE09E50098A1A0CCFECCFE88
:107F40008AED009871D4FFFFEFFECCFECEFE07D481
:107F5000CCFECCFECCFECCFEEBF5CCFECCFEEBF5A5
:107F600000980098EFCB79EE86CBCCFECCFECCFE11
:107F70000098CCFECCFE0BF684BACCFECCFECCFE38
:107F8000C7D3CCFECCFECCFECCFECCFECCFE009803
:107F90000098009879EEE4FBBBFF71F6609884BA14
:107FA000CCFECCFECCFEA3B104A1BEFFC7B1C3A0E2
:107FB0000098C1A0CCFECCFECCFE66CB0098009809
:107FC000009800980098009882983CF7E4FB76FFB0
:107FD000CCFECCFE0BF6009884BACCFECCFE00980A
:107FE000C1A0CCFECCFECCFEA3B102A9CCFECCFE3F
:107FF000CCFEA3B1A3B1CCFECCFEA3B1009864A982
:1080000033FFCCFECCFECCFECCFECCFECCFECCFEB8
:10801000CCFECCFECCFECCFECCFECCFECCFECCFE10
:10802000CCFECCFECCFECCFECCFECCFECCFECCFE00
:108030006EFE16E63BF7EFFECCFECCFECCFECCFE91
:10804000CCFECCFECCFECCFECCFECCFECCFECCFEE0
:10805000CCFECCFECCFECCFECCFECCFECCFECCFED0
:10806000CCFECCFECCFEE5C213EE11FF11FFCDFE1F
:10807000CCFECCFECCFECCFECCFECCFECCFE24BA9C
:10808000CCFECCFECCFE4CFECCFECCFECCFE07D40F
:10809000CCFECCFECCFE48CB00980098CBBAFFFFBC
:1080A000E4FBE4FBCCFECCFECCFECCFECCFEAAED89
:1080B0008CFECCFECCFECCFECCFE8AEDA3B1A3B1EF
:1080C000A3B1A3B1A3B12BF6CCFECCFE48DC009843
:1080D000F7E5E4FBE4FBE4FBE4FBE4FBE4FBE4FBAB
:1080E000E4FBE4FBE4FBE4FBE4FBE4FBE4FBE4FB98
:1080F000E4FBE4FBE4FBE4FBE4FBE4FBE4FBE4FB88
:1081000026E46FCD80FF80FF80FF80FF80FF80FF2F
:1081100080FF80FF80FF80FF80FF80FF80FF80FF67
:1081200080FF80FF80FF80FF80FF80FF80FF80FF57
:1081300080FF80FF80FF80FF80FF80FF80FF80FF47
:1081400080FF80FF80FF80FF80FF80FF80FF80FF37
:1081500080FF80FF80FF80FF80FFE5E31AFFE4FBE4
:10816000E4FBE4FBE4FBE4FBE4FBE4FBE4FBE4FB17
:10817000E4FBE4FBE4FBE4FBE4FBE4FBE4FBE4FB07
:10818000E4FBE4FBE4FBE4FBE4FBE4FBE4FBE4FBF7
:10819000E4FBE4FBE4FBE4FBE4FBE4FBE4FBE4FBE7
:1081A000E4FBE4FBE4FBE4FBE4FBE4FBE4FBE4FBD7
:1081B000E4FBE4FBE4FBE4FBAAEC0DCD80FF80FFD5
:1081C00080FF80FF80FF80FF80FF80FF80FF80FFB7
:1081D00080FF80FF80FF80FF80FF80FF80FF80FFA7
:1081E00080FF80FF80FF80FF80FF80FF80FF80FF97
:1081F00080FF80FF80FF80FF80FF80FF80FF80FF87
:1082000080FF80FF80FF80FF80FF80FF80FF80FF76
:1082100080FF47DC96F6E4FBE4FBE4FBE4FBE4FBD5
:10822000E4FBE4FBE4FBE4FBE4FBE4FBE4FBE4FB56
:10823000E4FBE4FBE4FBE4FBE4FBFFFF54FFCCFEC8
:10824000CCFECCFECEFE35FFAEEDCCFECCFECCFEA1
:10825000C5C2009828B20BE5CCFECCFECCFE89DC72
:10826000009800980098009800982EE5CCFECCFE6F
:1082700076FF4DD4CCFECCFEA3B10098C6C2CDFE95
:10828000CCFECCFECDFE98FF95E58AEDCCFECCFE73
:10829000CCFE4CC300980098009804A1BAEEE4FB11
:1082A00099FFCEFECCFEADFEE5C20098EBF5CCFE0C
:1082B000CCFE09E500980098F3DCE4FBE4FBE4FB6A
:1082C000E4FB33FFCCFECCFEA1A08CEDEEF542A981
:1082D0000098009827CBCCFECCFE13FF4198009865
:1082E0000098CCFECCFECCFE09E5009808B2E4FB79
:1082F000CCFECCFECCFE09E500980098CCFECCFE6E
:10830000CCFEA3B186A9FFFFEFFECCFECEFE84BA61
:10831000CCFECCFECCFECCFEEBF5CCFECCFEEBF5E1
:1083200000980098EFCB71D466CBCCFECCFECCFE8F
:108330000098CCFECCFE2BF684BACCFECCFECCFE54
:10834000CCFECCFE2BF6B0FECCFECCFECCFE0098D4
:1083500000988298E4FBE4FBE4FBBEFF86A984BAA4
:10836000CCFECCFECCFEA3B104A1E4FBE4FBF7E51C
:108370002098C1A0CCFECCFECCFE66CB0098009825
:108380000098009800980098C3A0FBF6E4FB76FFE5
:10839000CCFECCFE0BF6009884BACCFECCFE009846
:1083A000C1A0CCFECCFECCFEA3B1A3B1CCFECCFED2
:1083B000CCFE42A9A3B1CCFECCFEA3B1009827CB42
:1083C000CCFECCFECCFECDFECCFECCFECCFE8AEDAF
