:020000040800F2
:10000000600400209D010008DB100008CD0D0008F1
:10001000D9100008D5020008911300080000000064
:10002000000000000000000000000000591100085E
:10003000D702000800000000DD1000085B11000876
:10004000B7010008B7010008B7010008B7010008B0
:10005000B7010008B7010008B7010008B7010008A0
:10006000B7010008B7010008B7010008B701000890
:10007000B7010008B7010008B7010008B701000880
:10008000B7010008B7010008B7010008B701000870
:10009000B7010008B7010008B7010008B701000860
:1000A000B7010008B7010008B7010008B701000850
:1000B000B7010008B7010008B7010008B701000840
:1000C000B7010008B7010008B7010008B701000830
:1000D000B7010008B7010008B7010008B701000820
:1000E000B7010008B7010008B7010008B701000810
:1000F000B7010008B7010008B7010008B701000800
:10010000B7010008B7010008B7010008B7010008EF
:10011000B7010008B7010008B7010008B7010008DF
:10012000B7010008B7010008B7010008B7010008CF
:10013000B7010008B7010008B7010008B7010008BF
:10014000B7010008B7010008B7010008B7010008AF
:10015000B7010008B7010008B7010008B70100089F
:10016000B7010008B7010008B7010008B70100088F
:10017000B7010008B7010008B7010008000000003F
:10018000B7010008B7010008DFF80CD000F090F8C4
:1001900000480047E5160008600400200648804734
:1001A00006480047FEE7FEE7FEE7FEE7FEE7FEE75C
:1001B000FEE7FEE7FEE7FEE7E91100088901000817
:1001C0002DE9F05F0546002092469B46884606468C
:1001D000814640241BE0284641464746224600F01F
:1001E00057F853465A46C01A914110D31146184643
:1001F000224600F03EF82D1A67EB01084F462246D2
:100200000120002100F035F817EB00094E41201EB7
:10021000A4F10104DFDC484631462A464346BDE8E6
:10022000F09FD2B201E000F8012B491EFBD27047CB
:100230000022F6E710B513460A4604461946FFF7B2
:10024000F0FF204610BD30B50B46014600202022AD
:10025000012409E021FA02F59D4205D303FA02F5D3
:10026000491B04FA02F52844151EA2F10102F1DC33
:1002700030BD202A04DB203A00FA02F1002070474A
:100280009140C2F1200320FA03F3194390407047D4
:10029000202A04DB203A21FA02F00021704721FADB
:1002A00002F3D040C2F12002914008431946704742
:1002B000064C074D06E0E06840F0010394E80700B3
:1002C00098471034AC42F6D3FFF762FFDC17000802
:1002D000FC170008FEE770477047000070B5044641
:1002E00000F0F4F80546601C02D00448007804448D
:1002F00000F0ECF8401BA042FAD370BD0C000020C7
:100300002DE9F84F00224FF0010803254FF00F0EA2
:100310000B6808FA02F42340A3426ED14E68012E06
:1003200005D0022E03D0112E01D0122E12D18668D4
:100330004FEA420C05FA0CF7BE43CF6807FA0CF7F8
:10034000374387604668A6430C79C4F30014944091
:1003500034434460C668570005FA07FC8C6826EAF7
:100360000C06BC403443C4604C68022C01D0122CF3
:1003700013D1D40800EB8404A346D4F8209054078A
:100380004FEAD46A0EFA0AF629EA06090E6906FA55
:100390000AF646EA0906CBF8206006680C7926EAD8
:1003A0000C0604F00304BC40344304604C68E400D1
:1003B00065D5364C266846F480462660246822F0CF
:1003C000030604F480440094314C3444A446D4F829
:1003D00008489607370F0EFA07F6B4432D4EB04281
:1003E00001D1002624E02C4EB04201D101261FE0AD
:1003F0002A4EB04202D102261AE040E0284EB04216
:1004000001D1032614E0274EB04201D104260FE0AB
:10041000254EB04201D105260AE0244EB04201D15A
:10042000062605E0224EB04201D1072600E008264C
:10043000BE402643CCF808681E4E34684F689C4383
:10044000FF0300D51C4334601A4C241D26684F68F6
:100450009E43BF0300D51E432660164E08363468FF
:100460004F689C43FF0200D51C433460114E0C368C
:1004700034684F689C43BF0200D51C433460521C53
:10048000102AFFF445AFBDE8F88F00004438024061
:100490000030014000000240000402400008024019
:1004A000000C0240001002400014024000180240FC
:1004B000001C0240003C01400069084000D00120BF
:1004C00070470AB1816170470904FBE70148806801
:1004D000704700000C000020024881680278114437
:1004E000816070470C0000200B4810B5016841F492
:1004F00000710160016841F480610160016841F4AC
:1005000080710160032000F061F8002000F006F81F
:1005100000F024F8002010BD003C024070B50D4DE5
:1005200004464FF47A712878B1FBF0F00A49096863
:10053000B1FBF0F000F0F6FA48B9102C07D2002217
:100540002146501E00F022F800206C6070BD012092
:1005500070BD00000C000020180000200A4808B5FB
:10056000016841F480410160006800F4804000901F
:100570000548001F016841F080510160006800F0EB
:100580008050009008BD000044380240F0B40E4B8B
:100590001B680C46C3F30223C3F10705042D00D9E1
:1005A0000425191D072901D2002300E0DB1E0126C6
:1005B00006FA05F1491E214099409E40761E1640DC
:1005C0003143F0BC00F0F6BE0CED00E0064900F04F
:1005D000070208684FF6FF03184040EA0220034A6A
:1005E00010430860704700000CED00E00000FA05C1
:1005F0002DE9F0470E46050065D0DFF81481D8F8E4
:100600000000F7B200F00F00B04207D288F8007087
:10061000D8F8000000F00F00B04254D128683D4CDB
:10062000810712D5400703D5206840F4E0502060D0
:100630002878000703D5206840F4604020602068D7
:10064000A96820F0F000084320602878C0072DD06A
:10065000304968680839012812D0022813D00328CD
:1006600011D00968890700292DDA216821F00301DA
:1006700001432160FFF72AFF814641F2883A0EE0EC
:1006800009688903EFE709688901ECE7FFF71EFFB6
:10069000A0EB0901514502D90320BDE8F08720688D
:1006A000696800F00C00B0EB810FEFD1D8F80010B2
:1006B000404601F00F01B14207D90770006800F011
:1006C0000F00B04201D00120E7E72878400705D5A8
:1006D0002068E96820F4E05008432060287800078B
:1006E00006D52068296920F4604040EAC1002060F6
:1006F00000F038F82168084AC1F30311515CC84082
:100700000649086006480068FFF708FF0020C4E7B4
:10071000003C024008380240C317000818000020BF
:10072000100000200448054900680968044AC1F324
:100730008221515CC84070471800002008380240F0
:10074000D31700080448054900680968044AC1F342
:100750004231515CC8407047180000200838024000
:10076000D3170008154810B5006810F00C021448A3
:1007700013D01449042A0FD0082A0ED10F4C241F7D
:100780002268236802F03F025B0207D52068C0F3AD
:100790008810A0FB010106E0084610BD2168C1F3E6
:1007A0008811A1FB00010023FFF70AFD2168C1F3B6
:1007B0000141491C4900B0FBF1F010BD083802406E
:1007C0000024F40040787D012DE9F84F04006ED03C
:1007D0002078DFF83C93C007A9F104054AD009F15D
:1007E00004000168C1F38101012908D00068C0F349
:1007F000810002280AD1D9F80000400206D52868F5
:10080000800337D560680028E1D033E06068B0F538
:10081000803F10D0B0F5A02F286810D020F4803091
:100820002860286820F4802028606068A8B1FFF75D
:100830004DFE06460DE0286840F48030F4E740F4B1
:1008400080202860F7E700BFFFF740FE801B642888
:1008500073D828688003F7D50CE0FFF737FE06460B
:1008600005E000BFFFF732FE801B6428F0D828683F
:100870008003F7D42078DFF89C8280074FF0000ACD
:100880003ED5A348001D016811F00C0F08D0006888
:10089000C0F3810002280BD1D9F80000400207D430
:1008A0002868800716D5E068012800D112E02BE106
:1008B000E068B8B10120C8F80000FFF707FE06465F
:1008C00005E000BFFFF702FE801B0228C0D82868A1
:1008D0008007F7D52868216920F0F80040EAC100B8
:1008E00028600DE0C8F800A0FFF7F0FD064604E020
:1008F000FFF7ECFD801B02281FD828688007F7D47B
:100900002078000722D5824E83486169703671B124
:1009100001210160FFF7DAFD074604E0FFF7D6FD8D
:10092000C01B022809D830688007F7D50EE0C0F850
:1009300000A0FFF7CBFD074605E082E0FFF7C6FD0C
:10094000C01B02287DD830688007F7D42078400784
:1009500068D5DFF8BCB100270BF13C0BDBF80000D9
:10096000C0000BD4DBF8001041F08051CBF8001030
:10097000DBF80000012700F080500090674E3068DF
:10098000C00510D4306840F480703060FFF79EFDE1
:10099000009005E0FFF79AFD0099401A022850D810
:1009A0003068C005F6D55A4EA0686C3601280FD0C5
:1009B0000528306810D020F001003060306820F049
:1009C00004003060A068B8B1FFF780FD00900FE030
:1009D000306840F00100F4E740F004003060F7E7D1
:1009E000FFF774FD0099411A41F28830814266D8C0
:1009F00030688007F4D50EE0FFF768FD009007E04F
:100A0000FFF764FD0099411A41F28830814256D8BF
:100A100030688007F4D42FB1DBF8001021F080514A
:100A2000CBF80010A069C8B33949091D0968C1F3A2
:100A3000810102294AD00228504607D0C8F8600038
:100A400000E03CE0FFF742FD04463BE04746C8F8C3
:100A50006000FFF73BFD064605E000BFFFF736FDEF
:100A6000801B02282BD828688001F7D4D4E907011D
:100A70000843A16A2A4A490802EB0141626A41EA35
:100A80008211084394F82C1040EA0161C9F8001063
:100A900001203866FFF71AFD044606E036E000BF85
:100AA000FFF714FD001B022809D828688001F7D53C
:100AB0002CE000BFFFF70AFD001B022802D903202B
:100AC000BDE8F88F28688001F4D41FE00128F7D032
:100AD000D9F80000E26900F48001914214D1226A41
:100AE00000F03F0191420FD147F6C071626A0140A8
:100AF000914209D1A26A00F44031914204D1E16AE5
:100B000000F07060884201D00120D9E70020D7E7CB
:100B10000438024000004742800E47420070004007
:100B20000000FFFF10B5401EB0F1807F01D301200F
:100B300010BD4FF0E02460610F21601700F03AFC17
:100B40000020A06107202061002010BD70B50400C6
:100B500004D094F83900002510B106E0012070BDE2
:100B600084F83850204600F023F8242084F8390017
:100B70002068C16821F40051C160204600F042FBAA
:100B80002068016921F4904101612068416921F0E8
:100B90002A0141612068C16841F40051C160E563E8
:100BA000202084F8390084F83A00002070BD00004D
:100BB00010B586B0044614216846FFF739FB144986
:100BC0002068884221D113480021026842F01002B7
:100BD0000260006800F0100005900E4814380268AA
:100BE00042F001020260006800F0010005904FF43D
:100BF000C06000900220CDE901010320039007208E
:100C0000049069460448FFF77BFB06B010BD000066
:100C10000010014044380240000002402DE9F84332
:100C2000044690F839001F4616460D46202850D13C
:100C3000B5B1AEB194F8380001284AD0012084F84B
:100C400038004FF00008C4F83C80212084F83900B7
:100C5000FFF73CFCA6848146E68484F8388026E0D1
:100C60000120BDE8F883E08C401EE084A0684B467C
:100C7000B0F5805F4FF000024FF0800120460097F2
:100C800003D000F053FBE8B90DE000F04FFBC8B90A
:100C900028882168C0F308004860206908B16D1CED
:100CA00005E0AD1C03E0216815F8010B4860E08CFD
:100CB0000028D8D14B46002240212046009700F062
:100CC00035FB08B10320CCE7202084F83900002050
:100CD000C7E70220C5E700002DE9F0411D46144694
:100CE0000F46064600F02CF90A2000F06DFC304655
:100CF00000F0ECF800F06EF948B100F045F9154A43
:100D0000472115A000F046FB0120BDE8F0813846E0
:100D100000F0DCF800F05EF900F012F90A2000F0B3
:100D200053FC46F0010000F0D1F800F053F909E05F
:100D3000012C0DD05FF0010000F092F8641E05F860
:100D4000010BE4B2002CF3D100F01EF90020DCE727
:100D50000020F1E7931700085B25645D25732829BF
:100D60000D0A000070B50C46054600F0E9F81A209F
:100D700000F0ACF800F02EF920B100F005F90F4AB0
:100D8000142111E0284600F0A1F800F023F92046D4
:100D900000F09CF8052000F017FC00F01BF940B1B2
:100DA00000F0F2F8054A1D2105A000F0F3FA012039
:100DB00070BD00F0E9F8002070BD00008417000845
:100DC0005B25645D257328290D0A0000FEE70000FD
:100DD00070B5104D4FF48044002221462846FFF79D
:100DE00070FB00F09BF9002261002846FFF769FBC9
:100DF000022000F0E9FB012221462846FFF761FBB3
:100E0000022000F0E1FB21462846BDE870400022A8
:100E1000FFF757BB0004024070B5104D4FF48044FB
:100E2000002221462846FFF74CFB00F077F901220B
:100E3000D1032846FFF745FB022000F0C5FB012245
:100E400021462846FFF73DFB022000F0BDFB21466E
:100E50002846BDE870400022FFF733BB0004024083
:100E60002DE9F0478046002400F03AF9164F00259E
:100E70004FF480464FF40049002231463846FFF7D0
:100E800020FB022000F0A0FB012231463846FFF78C
:100E900018FB6006040E49463846FFF70DFB08B103
:100EA000641CE4B2012000F08FFB6D1CEDB2082D34
:100EB000E2D3B8F1000F04D0FFF78AFF2046BDE867
:100EC000F087FFF7A9FFF9E7000402402DE9F041A0
:100ED000054600F023F9194F4FF4804600223146B1
:100EE0003846FFF7EEFA052000F06EFB00244FF4C1
:100EF0000048E80901D0012200E0002241463846BE
:100F0000FFF7DFFA6806050E052000F05DFB012201
:100F100031463846FFF7D5FA052000F055FB002290
:100F200031463846FFF7CDFA052000F04DFB641C32
:100F3000E4B2082CDDD3BDE8F081000000040240DB
:100F400070B500F0EBF801220E4DD403214628467F
:100F5000FFF7B7FA0122960331462846FFF7B1FAA8
:100F6000052000F031FB002221462846FFF7A9FAB0
:100F7000052000F029FB31462846BDE870400022DC
:100F8000FFF79FBA0004024070B500F0C7F8104D9B
:100F90004FF48044002221462846FFF792FA66006B
:100FA000002231462846FFF78CFA052000F00CFBA2
:100FB000012221462846FFF784FA012231462846BD
:100FC000FFF77FFABDE87040052000F0FDBA000091
:100FD000000402402DE9F041002400F081F80122D4
:100FE000144DD60331462846FFF76BFA042000F073
:100FF000EBFA0122970339462846FFF762FA0420EC
:1010000000F0E2FA08E0641CE4B2FA2C04D9FFF71D
:10101000BBFF0120BDE8F08131462846FFF74CFABE
:101020000028F0D1002239462846FFF74AFA00206E
:10103000F0E7000000040240F0B587B014216846D4
:10104000FFF7F6F814480024016841F0020101603E
:101050000068012200F00200104F95030590294618
:101060003846FFF72EFA0122D60331463846FFF7FD
:1010700028FA00950125CDE90154694638460394C4
:10108000FFF73EF90096CDE90154694638460394CE
:10109000FFF736F907B0F0BD3038024000040240D7
:1010A0000C4810B50A4901604FF4E131416000215C
:1010B00081600C22C160C0E904128161C161FFF747
:1010C00045FD002803D0BDE81040FFF705B910BD6D
:1010D0000010014020000020FEE77047704700002C
:1010E00000B587B014216846FFF7A2F8094800212F
:1010F000026842F002020260006800F002000590FF
:101100004FF40040CDE9000169460348FFF7F8F8C5
:1011100007B000BD303802400004024000B587B07F
:1011200014216846FFF784F80948016841F002017C
:1011300001600068694600F0020005904FF400402D
:101140000090012001900348FFF7DAF807B000BDD6
:1011500030380240000402407047FFF7BDB900007C
:1011600030B593B030216846FFF762F814210CA81F
:10117000FFF75EF81A480025016841F080510160D0
:10118000006800F0805011901648016841F48041D9
:1011900001600068022400F480401190012000905A
:1011A000000401908001CDE90640192008904FF419
:1011B000A870CDE9090404200B906846FFF704FBF2
:1011C0000CA90F2081E831004FF4A0500F90E002ED
:1011D000109005210CA8FFF70BFA13B030BD0000EA
:1011E00040380240007000400548016841F4700139
:1011F000016003494FF000608039086070470000CB
:1012000088ED00E02DE9F041044600680169E268DC
:1012100021F44051114301612169A068E26908434A
:101220006169114308432168CA6849F20C639A4313
:101230000243CA6020684169A26921F440711143E8
:101240004161E069192764253226B0F5004F354A1F
:10125000354920684FF0000806D0884201D09042FE
:1012600036D1FFF76FFA35E0884201D0904202D1C3
:10127000FFF768FA01E0FFF755FA61684A18A0FB2A
:10128000070148EB0803FEF79BFF0146B0FBF5F0B2
:101290000201B1FBF5F06FF01803584301EB800039
:1012A00006EBC000B0FBF5F000F0F80002EB4002E6
:1012B000B1FBF5F0584301EB800006EBC000B0FB3A
:1012C000F5F000F00700216810448860BDE8F08167
:1012D000FFF728FA61688B0F8A00A0FB0701FEF771
:1012E0006FFF0146B0FBF5F06FF01802504301EBC1
:1012F000800006EB0010B0FBF5F000F0F002B1FB4F
:10130000F5F002EB0012B1FBF5F06FF01803584353
:1013100001EB800006EB0010B0FBF5F000F00F00D1
:10132000D1E7000000140140001001402DE9F04118
:10133000984617460E460446069D1DE0681C1BD0C5
:101340002DB1FFF7C3F8A0EB0800A84214D920681C
:10135000C16821F4D071C1602068416921F00101A8
:101360004161202084F8390084F83A00002084F894
:1013700038000320BDE8F0812068006836EA0000EC
:1013800004D00020B842D9D00020F3E70120F9E7CB
:10139000FEE700000FB4054B10B503A9044A0298FC
:1013A00000F028F810BC5DF814FB0000FD150008E3
:1013B0001C0000200907090E002804DB00F1E020D2
:1013C00080F80014704700F00F0000F1E02080F872
:1013D000141D704702E008C8121F08C1002AFAD184
:1013E00070477047002001E001C1121F002AFBD1A5
:1013F000704700002DE9FF4F8BB09A460F46054617
:10140000002606E025280BD052460D9990476D1C0A
:10141000761C28780028F5D10FB03046BDE8F08F53
:101420000024A0460122604900E0044315F8013F72
:10143000203B02FA03F00842F7D128782E2817D172
:1014400015F8010F44F004042A280ED06FF02F0283
:101450002878A0F1300109290AD808EB880102EBAD
:10146000410100EB01086D1CF2E757F8048B6D1C7D
:10147000287869283ED006DC0028CDD063280BD020
:10148000642804D136E0732810D075284BD052461A
:101490000D999047761C85E017F8040B8DF8000035
:1014A00000208DF80100E946012003E057F8049B75
:1014B0004FF0FF3061074FF0000401D40AE0641CD4
:1014C00044450DDA8442FADB19F804100029F6D1FC
:1014D00006E0641C8442FCDB19F804100029F8D1F2
:1014E000264404E019F8010B52460D999047641EFA
:1014F000F8D257E001CF4FF00A0B002802DA404241
:101500002D2102E0210504D52B218DF82410012185
:1015100003E0E10705D02021F7E70DF1200908914C
:101520000CE00021F9E701CF4FF00A0BF9E759462B
:10153000FEF789FE01F1300209F8012D0028F6D1ED
:10154000ADEB090000F1200B600701D44FF001085A
:10155000D84502DDA8EB0B0000E000208046002407
:1015600006E009A85246005D0D999047641C761C60
:1015700008988442F5DB04E0302052460D999047EC
:10158000761CB8F10001A8F10108F5DC05E019F8B6
:10159000010B52460D999047761CBBF10001ABF14F
:1015A000010BF4DC6D1C34E70928010070B5054619
:1015B00000244FF47A7603E0304600F005F8641C0E
:1015C000AC42F9D370BD000070B54FF0E0240022AA
:1015D00065690949A36909684843A1699942FCD032
:1015E00002D2A3EB010302E0A5EB010633441A4447
:1015F0000B468242F1D370BD0000002013B5642376
:10160000012269460248FFF709FB00981CBD000053
:10161000200000201FB50020009001900290039050
:1016200001466B4606221A20FFF756FB040007D03E
:10163000094A872109A0FFF7ADFE04B0204610BD7E
:101640000F48BDF800100180BDF802104180BDF8C0
:1016500004108180F1E70000AD1700085B25645D90
:10166000257328293A20686D63353838335F536510
:101670007175656E63655F526561640D0A000000F7
:101680000400002010B519210920FFF76BFB012889
:1016900004D10C4A6A210CA0FFF77CFE0A20FFF758
:1016A00085FF01210B20FFF75DFB012804D1054ACE
:1016B0006E2105A0FFF76EFEBDE810400A20FFF77F
:1016C00075BF0000A01700085B25645D25732829FD
:1016D0003A20484D435F57726974655F427974657B
:1016E0000D0A0000FEF700FFFFF73AFDFFF7A4FC2C
:1016F000FFF7D6FC0D49A8200860FFF7C3FF0C4C8C
:101700004FF4FA75FFF786FF58B90AA0FFF742FEBB
:10171000B4F90430B4F90220B4F9001010A0FFF7B6
:1017200039FE2846FEF7DAFDECE700000000002055
:10173000040000203D3D3D3D3D3D3D3D3D3D3D3DA9
:101740003D3D3D3D3D3D3D3D3D3D3D3D3D3D3D3DC9
:101750003D3D3D3D3D3D3D3D3D3D3D0D0A000000D3
:101760006D61672D783A2025642C206D61672D7995
:101770003A2025642C206D61672D7A3A2025640D6E
:101780000A000000484D435F57726974655F4279F3
:10179000746500484D435F526561645F4C656E003F
:1017A000686D63353838335F6C6E697400686D63DB
:1017B000353838335F53657175656E63655F5265A3
:1017C0006164000000000000000000010203040644
:1017D000070809000000000102030400FC170008CC
:1017E0000000002020000000D41300081C1800088E
:1017F0002000002040040000E41300080000000066
:1018000000000000000000000100000010000000C7
:0C181000000000000024F40000000000B4
:040000050800018965
:00000001FF
