:020000040800F2
:10000000600400209D010008450E0008410E000814
:10001000430E0008A90200089D110008000000001E
:10002000000000000000000000000000490E000871
:10003000AB02000800000000470E00084B0E00084D
:10004000B7010008B7010008B7010008B7010008B0
:10005000B7010008B7010008B7010008B7010008A0
:10006000B7010008B7010008B7010008B701000890
:10007000B7010008B7010008B7010008B701000880
:10008000B7010008B7010008B7010008B701000870
:10009000B7010008B7010008B7010008B701000860
:1000A000B7010008B7010008B7010008B701000850
:1000B000B7010008B7010008B7010008B701000840
:1000C000B7010008B7010008B7010008B701000830
:1000D000B701000891110008B7010008B701000836
:1000E000B7010008B7010008B7010008B701000810
:1000F000B7010008B7010008B7010008B701000800
:10010000B7010008B7010008B7010008B7010008EF
:10011000B7010008B7010008B7010008B7010008DF
:10012000B7010008B7010008B7010008B7010008CF
:10013000B7010008B7010008B7010008B7010008BF
:10014000B7010008B7010008B7010008B7010008AF
:10015000B7010008B7010008B7010008B70100089F
:10016000B7010008B7010008B7010008B70100088F
:10017000B7010008B7010008B7010008000000003F
:10018000B7010008B7010008DFF80CD000F07AF8DA
:1001900000480047251200086004002006488047F8
:1001A00006480047FEE7FEE7FEE7FEE7FEE7FEE75C
:1001B000FEE7FEE7FEE7FEE7C10E00088901000842
:1001C0002DE9F05F0546002092469B46884606468C
:1001D000814640241BE0284641464746224600F01F
:1001E00041F853465A46C01A914110D31146184659
:1001F000224600F028F82D1A67EB01084F462246E8
:100200000120002100F01FF817EB00094E41201ECD
:10021000A4F10104DFDC484631462A464346BDE8E6
:10022000F09FD2B201E000F8012B491EFBD27047CB
:100230000022F6E710B513460A4604461946FFF7B2
:10024000F0FF204610BD202A04DB203A00FA02F11C
:10025000002070479140C2F1200320FA03F31943B4
:1002600090407047202A04DB203A21FA02F0002156
:10027000704721FA02F3D040C2F1200291400843B6
:1002800019467047064C074D06E0E06840F0010350
:1002900094E8070098471034AC42F6D3FFF778FF94
:1002A000FC1200081C130008FEE7704790F8351098
:1002B000022903D08021416501207047052180F883
:1002C00035100068016821F00101016000207047CD
:1002D0002DE9F84F00224FF0010803254FF00F0ED3
:1002E0000B6808FA02F42340A3426ED14E68012E37
:1002F00005D0022E03D0112E01D0122E12D1866805
:100300004FEA420C05FA0CF7BE43CF6807FA0CF728
:10031000374387604668A6430C79C4F300149440C1
:1003200034434460C668570005FA07FC8C6826EA27
:100330000C06BC403443C4604C68022C01D0122C23
:1003400013D1D40800EB8404A346D4F820905407BA
:100350004FEAD46A0EFA0AF629EA06090E6906FA85
:100360000AF646EA0906CBF8206006680C7926EA08
:100370000C0604F00304BC40344304604C68E40001
:1003800065D5364C266846F480462660246822F0FF
:10039000030604F480440094314C3444A446D4F859
:1003A00008489607370F0EFA07F6B4432D4EB042B1
:1003B00001D1002624E02C4EB04201D101261FE0DD
:1003C0002A4EB04202D102261AE040E0284EB04246
:1003D00001D1032614E0274EB04201D104260FE0DC
:1003E000254EB04201D105260AE0244EB04201D18B
:1003F000062605E0224EB04201D1072600E008267D
:10040000BE402643CCF808681E4E34684F689C43B3
:10041000FF0300D51C4334601A4C241D26684F6826
:100420009E43BF0300D51E432660164E083634682F
:100430004F689C43FF0200D51C433460114E0C36BC
:1004400034684F689C43BF0200D51C433460521C83
:10045000102AFFF445AFBDE8F88F00004438024091
:100460000030014000000240000402400008024049
:10047000000C02400010024000140240001802402C
:10048000001C0240003C01400148806870470000A9
:10049000080000200248816802781144816070479A
:1004A000080000200B4810B5016841F4007101609C
:1004B000016841F480610160016841F4807101606C
:1004C000032000F06FF8002000F006F800F024F898
:1004D000002010BD003C024070B50D4D04464FF4A5
:1004E0007A712878B1FBF0F00A490968B1FBF0F0A5
:1004F00000F004FB48B9102C07D200222146501E00
:1005000000F030F800206C6070BD012070BD00006C
:1005100008000020140000200A4808B5016841F4D2
:1005200080410160006800F4804000900548001F91
:10053000016841F080510160006800F08050009037
:1005400008BD000044380240002809DB00F01F020B
:10055000012191404009800000F1E020C0F8001125
:1005600070470000F0B40E4B1B680C46C3F3022327
:10057000C3F10705042D00D90425191D072901D24F
:10058000002300E0DB1E012606FA05F1491E21408A
:1005900099409E40761E16403143F0BC00F008BEE4
:1005A0000CED00E0064900F0070208684FF6FF0373
:1005B000184040EA0220034A1043086070470000D8
:1005C0000CED00E00000FA052DE9F0470E460500AD
:1005D00065D0DFF81481D8F80000F7B200F00F0002
:1005E000B04207D288F80070D8F8000000F00F0081
:1005F000B04254D128683D4C810712D5400703D53D
:10060000206840F4E05020602878000703D5206877
:1006100040F4604020602068A96820F0F0000843A2
:1006200020602878C0072DD0304968680839012833
:1006300012D0022813D0032811D009688907002995
:100640002DDA216821F0030101432160FFF71CFF2F
:10065000814641F2883A0EE009688903EFE70968AC
:100660008901ECE7FFF710FFA0EB0901514502D922
:100670000320BDE8F0872068696800F00C00B0EB4B
:10068000810FEFD1D8F80010404601F00F01B142C0
:1006900007D90770006800F00F00B04201D00120B8
:1006A000E7E72878400705D52068E96820F4E0509E
:1006B000084320602878000706D52068296920F4BF
:1006C000604040EAC100206000F038F82168084A24
:1006D000C1F30311515CC840064908600648006830
:1006E000FFF7FAFE0020C4E7003C02400838024051
:1006F000E4120008140000200C0000200448054902
:1007000000680968044AC1F38221515CC8407047FF
:100710001400002008380240F4120008044805497B
:1007200000680968044AC1F34231515CC84070470F
:100730001400002008380240F4120008154810B5D3
:10074000006810F00C02144813D01449042A0FD08A
:10075000082A0ED10F4C241F2268236802F03F02A2
:100760005B0207D52068C0F38810A0FB010106E0FA
:10077000084610BD2168C1F38811A1FB00010023C8
:10078000FFF71EFD2168C1F30141491C4900B0FB80
:10079000F1F010BD083802400024F40040787D01DB
:1007A0002DE9F84F04006ED02078DFF83C93C007A5
:1007B000A9F104054AD009F104000168C1F38101DF
:1007C000012908D00068C0F3810002280AD1D9F8B5
:1007D0000000400206D52868800337D560680028ED
:1007E000E1D033E06068B0F5803F10D0B0F5A02FC5
:1007F000286810D020F480302860286820F48020F9
:1008000028606068A8B1FFF73FFE06460DE0286843
:1008100040F48030F4E740F480202860F7E700BF20
:10082000FFF732FE801B642873D828688003F7D551
:100830000CE0FFF729FE064605E000BFFFF724FEA7
:10084000801B6428F0D828688003F7D42078DFF86C
:100850009C8280074FF0000A3ED5A348001D016826
:1008600011F00C0F08D00068C0F3810002280BD1F2
:10087000D9F80000400207D42868800716D5E06840
:10088000012800D112E02BE1E068B8B10120C8F8DE
:100890000000FFF7F9FD064605E000BFFFF7F4FD95
:1008A000801B0228C0D828688007F7D528682169EE
:1008B00020F0F80040EAC10028600DE0C8F800A070
:1008C000FFF7E2FD064604E0FFF7DEFD801B02288D
:1008D0001FD828688007F7D42078000722D5824ED9
:1008E00083486169703671B101210160FFF7CCFD69
:1008F000074604E0FFF7C8FDC01B022809D830688E
:100900008007F7D50EE0C0F800A0FFF7BDFD074651
:1009100005E082E0FFF7B8FDC01B02287DD83068F3
:100920008007F7D42078400768D5DFF8BCB10027EE
:100930000BF13C0BDBF80000C0000BD4DBF800101F
:1009400041F08051CBF80010DBF80000012700F0E7
:1009500080500090674E3068C00510D4306840F475
:1009600080703060FFF790FD009005E0FFF78CFD90
:100970000099401A022850D83068C005F6D55A4E62
:10098000A0686C3601280FD00528306810D020F000
:1009900001003060306820F004003060A068B8B119
:1009A000FFF772FD00900FE0306840F00100F4E7BF
:1009B00040F004003060F7E7FFF766FD0099411A48
:1009C00041F28830814266D830688007F4D50EE065
:1009D000FFF75AFD009007E0FFF756FD0099411A16
:1009E00041F28830814256D830688007F4D42FB164
:1009F000DBF8001021F08051CBF80010A069C8B3DB
:100A00003949091D0968C1F3810102294AD0022828
:100A1000504607D0C8F8600000E03CE0FFF734FD26
:100A200004463BE04746C8F86000FFF72DFD064648
:100A300005E000BFFFF728FD801B02282BD828689F
:100A40008001F7D4D4E907010843A16A2A4A49087A
:100A500002EB0141626A41EA8211084394F82C10CA
:100A600040EA0161C9F8001001203866FFF70CFD6B
:100A7000044606E036E000BFFFF706FD001B022833
:100A800009D828688001F7D52CE000BFFFF7FCFCEF
:100A9000001B022802D90320BDE8F88F28688001D6
:100AA000F4D41FE00128F7D0D9F80000E26900F47F
:100AB0008001914214D1226A00F03F0191420FD18E
:100AC00047F6C071626A0140914209D1A26A00F4FE
:100AD0004031914204D1E16A00F07060884201D057
:100AE0000120D9E70020D7E7043802400000474240
:100AF000800E4742007000400000FFFF10B5401E0E
:100B0000B0F1807F01D3012010BD4FF0E02460617F
:100B10000F21601700F04CFB0020A061072020612E
:100B2000002010BD7047000070B5026804461068D0
:100B3000D168536910F00F0F52D003F0010501F492
:100B400090762E435FD0C20705D0CA0503D5E26B6D
:100B500042F00102E263420705D5DA0703D0E26BF7
:100B600042F00202E263820705D5DA0703D0E26BA6
:100B700042F00402E263020707D501F020022A4393
:100B800003D0E26B42F00802E263E26B002A33D04A
:100B9000800604D5880602D5204600F0B5F9206805
:100BA0004069E16BC0F38010090700D428B32046E8
:100BB00000F09CF92068416949061AD5416921F085
:100BC00040014161606BA0B11B490165606BFFF79B
:100BD0006DFB002810D0606B016DBDE870400847C8
:100BE000830610D58B060ED52046BDE8704000F078
:100BF0008BB92046FFF796FF70BD2046FFF792FFA6
:100C00000020E06370BD030606D50B0604D5204620
:100C1000BDE8704000F058BA4006F3D54806F1D55B
:100C2000D168204621F04001D160202184F839109C
:100C300000F005F970BD0000DD0E000870B504007D
:100C400004D094F83900002510B106E0012070BDF1
:100C500084F83850204600F023F8242084F8390026
:100C60002068C16821F40051C160204600F098F965
:100C70002068016921F4904101612068416921F0F7
:100C80002A0141612068C16841F40051C160E563F7
:100C9000202084F8390084F83A00002070BD00005C
:100CA00010B586B0044614216846FFF7C1FA18490A
:100CB0002068884229D117480021026842F01002BA
:100CC0000260006800F010000590124814380268B5
:100CD00042F001020260006800F0010005904FF44C
:100CE000C06000900220CDE901010320039007209D
:100CF000049069460848FFF7EBFA002211462520C8
:100D0000FFF730FC2520FFF71FFC06B010BD0000E8
:100D100000100140443802400000024090F83A3090
:100D2000202B22D1F9B1F2B190F83830012B1CD030
:100D300081628285C2850021C163222280F83A2027
:100D400080F838100168CA6842F48072CA6001688D
:100D50004A6942F001024A610068C16841F020011D
:100D6000C1600020704701207047022070470000DA
:100D7000642305220149024800F004B80000002065
:100D80001C0000202DE9F843044690F839001F4666
:100D900016460D46202850D1B5B1AEB194F83800B2
:100DA00001284AD0012084F838004FF00008C4F828
:100DB0003C80212084F83900FFF766FBA684814639
:100DC000E68484F8388026E00120BDE8F883E08CD2
:100DD000401EE084A0684B46B0F5805F4FF00002F3
:100DE0004FF080012046009703D000F09EF9E8B94B
:100DF0000DE000F09AF9C8B928882168C0F308000E
:100E00004860206908B16D1C05E0AD1C03E0216855
:100E100015F8010B4860E08C0028D8D14B46002221
:100E200040212046009700F080F908B10320CCE76C
:100E3000202084F839000020C7E70220C5E770476A
:100E4000FEE7FEE7704770477047FFF723BB0000DF
:100E500010B592B030216846FFF7EAF914210CA8CA
:100E6000FFF7E6F914480024016841F08051016061
:100E7000006800F0805011901048016841F48041F2
:100E800001600068069400F48040119002200090F8
:100E900001200390102004906846FFF781FC0F208A
:100EA000CDE90C040E940F9400210CA81094FFF7C8
:100EB0008BFB12B010BD00004038024000700040B3
:100EC0000548016841F47001016003494FF000607A
:100ED000803908607047000088ED00E010B5806B35
:100EE0000021C185C184FFF71DFE10BD0168CA68DD
:100EF00022F49072CA6001684A6922F001024A61D4
:100F0000202180F83A10704710B590F83A10222945
:100F100001D0022010BD8168B1F5805F11D0016958
:100F2000002901681FD0496801F07F03816A4A1CCB
:100F300082620B70C18D491E0904090CC18518D04D
:100F40002BE00269816A002A0268526805D0D2B299
:100F50000A80816A491C8162ECE7C2F308020A80B8
:100F6000816A891CF7E74A68816A4B1C83620A70B0
:100F7000E0E70168CA6822F02002CA600168CA6816
:100F800022F48072CA6001684A6922F001024A6153
:100F9000202180F83A10FFF7EBFE002010BD000082
:100FA0002DE9F041044600680169E26821F44051EE
:100FB000114301612169A068E26908436169114335
:100FC00008432168CA6849F20C639A430243CA6025
:100FD00020684169A26921F4407111434161E069CF
:100FE000192764253226B0F5004F354A3549206867
:100FF0004FF0000806D0884201D0904236D1FFF76A
:101000008DFB35E0884201D0904202D1FFF786FB8C
:1010100001E0FFF773FB61684A18A0FB070148EB8A
:101020000803FFF7CDF80146B0FBF5F00201B1FB74
:10103000F5F06FF01803584301EB800006EBC00099
:10104000B0FBF5F000F0F80002EB4002B1FBF5F068
:10105000584301EB800006EBC000B0FBF5F000F058
:101060000700216810448860BDE8F081FFF746FB67
:1010700061688B0F8A00A0FB0701FFF7A1F801460A
:10108000B0FBF5F06FF01802504301EB800006EB67
:101090000010B0FBF5F000F0F002B1FBF5F002EB50
:1010A0000012B1FBF5F06FF01803584301EB80001C
:1010B00006EB0010B0FBF5F000F00F00D1E70000E8
:1010C000001401400010014090F83910212901D08E
:1010D000022070478168B1F5805F016A0BD04A1C1D
:1010E0000262026809785160C18C491E0904090C2A
:1010F000C1840ED017E009880268C1F3080151606D
:1011000001690029016A02D0491C0162ECE7891CCF
:10111000FBE70168CA6822F08002CA600068C16803
:1011200041F04001C160002070472DE9F041984630
:1011300017460E460446069D1DE0681C1BD02DB1C7
:10114000FFF7A2F9A0EB0800A84214D92068C168F3
:1011500021F4D071C1602068416921F00101416131
:10116000202084F8390084F83A00002084F8380000
:101170000320BDE8F0812068006836EA000004D052
:101180000020B842D9D00020F3E70120F9E70000A1
:101190000148FFF7C9BC00001C000020FEE700006A
:1011A000014A024900F023B811120008180000207B
:1011B0000907090E002804DB00F1E02080F8001484
:1011C000704700F00F0000F1E02080F8141D704718
:1011D00002E008C8121F08C1002AFAD17047704700
:1011E000002001E001C1121F002AFBD170472DE948
:1011F000F04116460F460446002503E03946B04745
:10120000641C6D1C20780028F8D12846BDE8F081C8
:1012100003490A685206FCD5C2B24A607047000012
:101220000010014008B5FFF73DF9FFF711FE144823
:101230000021026842F0010202600068114A00F0D9
:1012400001000090104802604FF4E132C0E9012132
:101250000C22C160C0E904128161C161FFF7EEFC9C
:101260000AA0FFF79DFF0AA0FFF79AFF16A0FFF75D
:1012700097FF05221A490448FFF750FDF9E70000DF
:1012800030380240001001401C0000200A0D000010
:101290000A0D2D2D2D2D2D2D2D2D2D2D2D2D2D2DC1
:1012A0002D2D2D2D2D2D2D2D2D2D2D2D2D2D2D2D6E
:1012B0002D2D2D2D2D2D2D2D2D2D2D2D2D2D2D2D5E
:1012C0002D2D2D0D0A0000000A0D20B4AEBFDAD678
:1012D000D0B6CFB2E2CAD4C0FDB3CC0D0A00000034
:1012E00000000020000000000000000001020304D4
:1012F0000607080900000000010203041C1300088F
:10130000000000201C000000D01100083813000865
:101310001C00002044040000E01100080000000050
:1013200000000000010000001000000000000000AC
:081330000024F400000000009D
:040000050800018965
:00000001FF
