:020000040800F2
:10000000000A0020A1010008EB160008AD1400084A
:10001000E916000877080008A51A0008000000008B
:100020000000000000000000000000003F17000872
:100030007908000800000000ED16000841170008CC
:10004000BB010008BB010008BB010008BB010008A0
:10005000BB010008BB010008BB010008BB01000890
:10006000BB010008BB010008BB010008BB01000880
:10007000BB010008BB010008BB010008BB01000870
:10008000BB010008BB010008BB010008BB01000860
:10009000BB010008BB010008BB010008BB01000850
:1000A000BB010008BB010008BB010008BB01000840
:1000B000BB010008BB010008BB010008BB01000830
:1000C000BB010008BB010008BB010008BB01000820
:1000D000BB010008BB010008BB010008851A00082D
:1000E000BB010008BB010008BB010008BB01000800
:1000F000BB010008BB010008BB010008BB010008F0
:10010000BB010008BB010008BB010008BB010008DF
:10011000BB010008BB010008BB010008BB010008CF
:10012000BB010008BB010008BB010008BB010008BF
:10013000BB010008BB010008BB010008BB010008AF
:10014000BB010008BB010008BB010008BB0100089F
:10015000BB010008BB010008BB010008BB0100088F
:10016000BB010008BB010008BB010008BB0100087F
:10017000BB010008BB010008BB0100080000000033
:10018000BB010008BB010008DFF810D000F010FB35
:10019000004800475D330008AFF30080000A0020EC
:1001A0000648804706480047FEE7FEE7FEE7FEE711
:1001B000FEE7FEE7FEE7FEE7FEE7FEE7B51700080D
:1001C000890100082DE9F05F0546002092469B4614
:1001D00088460646814640241BE02846414647465D
:1001E000224600F0C8F953465A46C01A914110D32E
:1001F00011461846224600F0AFF92D1A67EB0108A8
:100200004F4622460120002100F0A6F917EB000915
:100210004E41201EA4F10104DFDC484631462A4647
:100220004346BDE8F09FD2B201E000F8012B491E21
:10023000FBD270470022F6E710B513460A46044683
:100240001946FFF7F0FF204610BD30B505460020E7
:10025000034600E05B1C934205D2EC5CC85C201AAC
:1002600001D1002CF6D130BD2DE9FE4F804681EA48
:100270000300C00F0C46009021F0004123F0004520
:10028000B8EB0200A94105D24046214690461C46E3
:100290000B46024623F00040104347D0270DC7F31A
:1002A0000A00C3F30A510290401A019040286BDA09
:1002B000C3F3130040F4801B0098924620B1002342
:1002C000D2EB030A63EB0B0B01985946C0F14002D5
:1002D000504600F041F906460D4650465946019AEF
:1002E00000F059F910EB08006141002487EA11522F
:1002F00084EAE7731A4340D0009A62B3019A012A54
:100300004FEA075215DC001B61EB02014FF000427F
:1003100002EA0752CDE90042001C41F58011324645
:100320002B4600F059F903B0BDE8F08F4046214656
:10033000F9E7001B61EB0201001C41F58013001876
:100340005B412018A2F5001747EB030140EAD57086
:10035000B6196D4111E06D084FEA360645EAC075E1
:100360004FEA0752001B61EB0201001C41F58011AE
:1003700049084FEA30000019514132462B4603B07C
:10038000BDE8F04F00F019B90098012240000023A9
:10039000D0EB020263EBE073009821464FEAE07471
:1003A000B8EB000061EB0401E9E783F000435BE791
:1003B00081F0004158E72DE9FE4F81EA030404F083
:1003C000004421F0004100944FF0000B23F0004363
:1003D00050EA01045ED052EA03045BD0C3F30A542E
:1003E000C1F30A552C44A4F2F3340194A0FB025447
:1003F000C1F3130141F48011C3F3130343F48013D9
:1004000001FB024400FB034E840A970A44EA81542C
:1004100047EA8357A4FB076802958D0A05FB078509
:100420004FEA932C04FB0C542705029D4FEA065813
:1004300047EA1637B5EB08056EEB070C870E920EF0
:1004400047EA811742EA8312A7FB0201B6EB0B01D0
:1004500064EB00042B0D43EA0C335E1844EB1C5094
:10046000DA465146E7FB0201C5F313044FEA0B33AA
:1004700043EA14534FEA0432019C43EA0603A4F111
:100480000C040294009CCDE900B400F0A5F803B080
:10049000BDE8F08F00200146F9E70EB5C10F80EAF4
:1004A000E0700844CA07002140F233438DE80E0093
:1004B0000A460B4600F090F803B000BD70B5C1F3DA
:1004C0000A5201F000450024C1F3130140F2FF334A
:1004D00041F480119A4201DA002070BD40F23343AA
:1004E0009A42A2F2334203DC524200F044F800E0A8
:1004F00090402C43F1D0404270BD000030B5041E46
:1005000071F1000404DB4FF00044404264EB010150
:10051000141E73F1000405DB1C464FF000435242E9
:1005200063EB0403994208BF904230BD30B50B46DF
:10053000014600202022012409E021FA02F59D4213
:1005400005D303FA02F5491B04FA02F52844151EE7
:10055000A2F10102F1DC30BD202A04DB203A00FACE
:1005600002F1002070479140C2F1200320FA03F30A
:10057000194390407047202A04DB203A21FA02F008
:100580000021704721FA02F3D040C2F120029140CD
:10059000084319467047202A06DBCB17203A41FA58
:1005A00002F043EAE07306E041FA02F3D040C2F100
:1005B0002002914008431946704710B5141E73F18C
:1005C000000408DA401C41F1000192185B411A4313
:1005D00001D120F0010010BD2DE9F04D92469B465F
:1005E00011B1B1FA81F202E0B0FA80F22032904605
:1005F000FFF7B2FF04460F4640EA0A0041EA0B014A
:1006000053465A46084313D0114653EA010019D005
:10061000C8F140025046FFF7AEFF05460E46504671
:1006200059464246FFF798FF084305D0012004E0F1
:1006300020463946BDE8F08D0020054346EAE076C5
:100640002C4337430A986305E40AA0EB0800002214
:10065000FD0A44EA47540A3002D500200146E9E782
:10066000010510196941DDE9084500196941BDE836
:10067000F04DA2E72DE9F04D81EA030404F0004BB0
:1006800021F0004514464FF0000A23F0004150EAE3
:10069000050220D054EA01021DD0C5F30A570246D4
:1006A000C5F31303C1F31300C1F30A5640F48015D8
:1006B00043F48013A7EB0608101BD64608F2FD385A
:1006C00073EB050002D308F1010801E092185B41C9
:1006D000B8F1000F03DA00200146BDE8F08D0020DC
:1006E0004FF48011064684460EE0171B73EB050796
:1006F00005D3121B63EB050306434CEA010C4908C2
:100700004FEA300092185B4150EA0107EDD152EAFE
:10071000030012D082EA040083EA0501084305D0F1
:10072000101BAB4106D20122002306E000224FF04D
:10073000004302E06FF0010253101AEB06004CEB8D
:10074000085110EB0A0041EB0B01BDE8F04DFFF73B
:1007500034BF70B521F0004303430CD0C1F30A55F8
:100760000024D5EB040564EB0403D617AD1AB3419E
:1007700002DB0020014670BD201841EB025170BD24
:10078000C1F30A52C1F3130140F2FF3341F4801167
:100790009A4202DA00200146704740F233439A42FF
:1007A000A2F2334202DC5242FFF7E5BEFFF7D4BEAD
:1007B000064C074D06E0E06840F0010394E80700AE
:1007C00098471034AC42F6D3FFF7E2FC703C0008C7
:1007D000903C00082DE9F04D00231A461B1A8A416F
:1007E00003DB00200146BDE8F08DC1F30A52C1F3DE
:1007F000130141F480154FF0000BD10702D100180E
:100800006D41521E0027044640F2FF11384601EBAD
:10081000620A3E468046024600204FF48011FFF7F0
:10082000AAFEC2197141BB1846EB0100B4EB030CE0
:1008300075EB000C04D3E41A65EB000517460E4671
:10084000241908F101006D4180463428E3DDF919CF
:1008500046EB0600091BA84103D24FF0FF321346B6
:1008600001E0002213461BEB070046EB0A51BDE8EE
:10087000F04DFFF7A2BEFEE77047704790F83510C5
:10088000022903D08021416501207047052180F8AD
:1008900035100068016821F00101016000207047F7
:1008A00070B5044600F0F4F80546601C02D0044818
:1008B0000078044400F0ECF8401BA042FAD370BD6D
:1008C000180000202DE9F84F00224FF00108032501
:1008D0004FF00F0E0B6808FA02F42340A3426ED1CA
:1008E0004E68012E05D0022E03D0112E01D0122EFB
:1008F00012D186684FEA420C05FA0CF7BE43CF6866
:1009000007FA0CF7374387604668A6430C79C4F3AF
:100910000014944034434460C668570005FA07FC4D
:100920008C6826EA0C06BC403443C4604C68022C38
:1009300001D0122C13D1D40800EB8404A346D4F8C0
:10094000209054074FEAD46A0EFA0AF629EA0609FB
:100950000E6906FA0AF646EA0906CBF82060066830
:100960000C7926EA0C0604F00304BC40344304600E
:100970004C68E40065D5364C266846F4804626600F
:10098000246822F0030604F480440094314C34447B
:10099000A446D4F808489607370F0EFA07F6B44372
:1009A0002D4EB04201D1002624E02C4EB04201D1A0
:1009B00001261FE02A4EB04202D102261AE040E092
:1009C000284EB04201D1032614E0274EB04201D197
:1009D00004260FE0254EB04201D105260AE0244E40
:1009E000B04201D1062605E0224EB04201D10726D1
:1009F00000E00826BE402643CCF808681E4E346846
:100A00004F689C43FF0300D51C4334601A4C241DDF
:100A100026684F689E43BF0300D51E432660164ECE
:100A2000083634684F689C43FF0200D51C4334608D
:100A3000114E0C3634684F689C43BF0200D51C43EE
:100A40003460521C102AFFF445AFBDE8F88F000057
:100A500044380240003001400000024000040240DF
:100A600000080240000C0240001002400014024046
:100A700000180240001C0240003C01400069084090
:100A800000D0012070470AB1816170470904FBE77B
:100A90000148806870470000180000200248816803
:100AA0000278114481607047180000200B4810B58F
:100AB000016841F400710160016841F480610160E6
:100AC000016841F480710160032000F06FF800209C
:100AD00000F006F800F024F8002010BD003C0240B1
:100AE00070B50D4D04464FF47A712878B1FBF0F0E3
:100AF0000A490968B1FBF0F000F004FB48B9102C7A
:100B000007D200222146501E00F030F800206C6011
:100B100070BD012070BD00001800002024000020DE
:100B20000A4808B5016841F480410160006800F49A
:100B3000804000900548001F016841F0805101602D
:100B4000006800F08050009008BD0000443802406A
:100B5000002809DB00F01F020121914040098000BC
:100B600000F1E020C0F8001170470000F0B40E4B17
:100B70001B680C46C3F30223C3F10705042D00D9FB
:100B80000425191D072901D2002300E0DB1E0126E0
:100B900006FA05F1491E214099409E40761E1640F6
:100BA0003143F0BC00F0BCBF0CED00E0064900F0A2
:100BB000070208684FF6FF03184040EA0220034A84
:100BC00010430860704700000CED00E00000FA05DB
:100BD0002DE9F0470E46050065D0DFF81481D8F8FE
:100BE0000000F7B200F00F00B04207D288F80070A2
:100BF000D8F8000000F00F00B04254D128683D4CF6
:100C0000810712D5400703D5206840F4E0502060EA
:100C10002878000703D5206840F4604020602068F1
:100C2000A96820F0F000084320602878C0072DD084
:100C3000304968680839012812D0022813D00328E7
:100C400011D00968890700292DDA216821F00301F4
:100C500001432160FFF71CFF814641F2883A0EE014
:100C600009688903EFE709688901ECE7FFF710FFDE
:100C7000A0EB0901514502D90320BDE8F0872068A7
:100C8000696800F00C00B0EB810FEFD1D8F80010CC
:100C9000404601F00F01B14207D90770006800F02B
:100CA0000F00B04201D00120E7E72878400705D5C2
:100CB0002068E96820F4E0500843206028780007A5
:100CC00006D52068296920F4604040EAC100206010
:100CD00000F038F82168084AC1F30311515CC8409C
:100CE0000649086006480068FFF7FAFE0020C4E7DE
:100CF000003C024008380240C13B000824000020AC
:100D00001C0000200448054900680968044AC1F332
:100D10008221515CC84070472400002008380240FE
:100D2000D13B00080448054900680968044AC1F33A
:100D30004231515CC840704724000020083802400E
:100D4000D13B0008154810B5006810F00C0214489B
:100D500013D01449042A0FD0082A0ED10F4C241F97
:100D60002268236802F03F025B0207D52068C0F3C7
:100D70008810A0FB010106E0084610BD2168C1F300
:100D80008811A1FB00010023FFF71CFA2168C1F3C1
:100D90000141491C4900B0FBF1F010BD0838024088
:100DA0000024F40040787D012DE9F84F04006ED056
:100DB0002078DFF83C93C007A9F104054AD009F177
:100DC00004000168C1F38101012908D00068C0F363
:100DD000810002280AD1D9F80000400206D528680F
:100DE000800337D560680028E1D033E06068B0F553
:100DF000803F10D0B0F5A02F286810D020F48030AC
:100E00002860286820F4802028606068A8B1FFF777
:100E10003FFE06460DE0286840F48030F4E740F4D9
:100E200080202860F7E700BFFFF732FE801B6428B0
:100E300073D828688003F7D50CE0FFF729FE064633
:100E400005E000BFFFF724FE801B6428F0D8286867
:100E50008003F7D42078DFF89C8280074FF0000AE7
:100E60003ED5A348001D016811F00C0F08D00068A2
:100E7000C0F3810002280BD1D9F80000400207D44A
:100E80002868800716D5E068012800D112E02BE120
:100E9000E068B8B10120C8F80000FFF7F9FD064688
:100EA00005E000BFFFF7F4FD801B0228C0D82868CA
:100EB0008007F7D52868216920F0F80040EAC100D2
:100EC00028600DE0C8F800A0FFF7E2FD064604E048
:100ED000FFF7DEFD801B02281FD828688007F7D4A3
:100EE0002078000722D5824E83486169703671B13F
:100EF00001210160FFF7CCFD074604E0FFF7C8FDC4
:100F0000C01B022809D830688007F7D50EE0C0F86A
:100F100000A0FFF7BDFD074605E082E0FFF7B8FD42
:100F2000C01B02287DD830688007F7D4207840079E
:100F300068D5DFF8BCB100270BF13C0BDBF80000F3
:100F4000C0000BD4DBF8001041F08051CBF800104A
:100F5000DBF80000012700F080500090674E3068F9
:100F6000C00510D4306840F480703060FFF790FD09
:100F7000009005E0FFF78CFD0099401A022850D838
:100F80003068C005F6D55A4EA0686C3601280FD0DF
:100F90000528306810D020F001003060306820F063
:100FA00004003060A068B8B1FFF772FD00900FE058
:100FB000306840F00100F4E740F004003060F7E7EB
:100FC000FFF766FD0099411A41F28830814266D8E8
:100FD00030688007F4D50EE0FFF75AFD009007E077
:100FE000FFF756FD0099411A41F28830814256D8E8
:100FF00030688007F4D42FB1DBF8001021F0805165
:10100000CBF80010A069C8B33949091D0968C1F3BC
:10101000810102294AD00228504607D0C8F8600052
:1010200000E03CE0FFF734FD04463BE04746C8F8EB
:101030006000FFF72DFD064605E000BFFFF728FD25
:10104000801B02282BD828688001F7D4D4E9070137
:101050000843A16A2A4A490802EB0141626A41EA4F
:101060008211084394F82C1040EA0161C9F800107D
:1010700001203866FFF70CFD044606E036E000BFAD
:10108000FFF706FD001B022809D828688001F7D564
:101090002CE000BFFFF7FCFC001B022802D9032054
:1010A000BDE8F88F28688001F4D41FE00128F7D04C
:1010B000D9F80000E26900F48001914214D1226A5B
:1010C00000F03F0191420FD147F6C071626A0140C2
:1010D000914209D1A26A00F44031914204D1E16AFF
:1010E00000F07060884201D00120D9E70020D7E7E6
:1010F0000438024000004742800E47420070004022
:101100000000FFFF10B5401EB0F1807F01D3012029
:1011100010BD4FF0E02460610F21601700F000FD6A
:101120000020A06107202061002010BD7047000052
:1011300070B5026804461068D168536910F00F0F4B
:1011400052D003F0010501F490762E435FD0C20720
:1011500005D0CA0503D5E26B42F00102E263420703
:1011600005D5DA0703D0E26B42F00202E2638207A0
:1011700005D5DA0703D0E26B42F00402E26302070E
:1011800007D501F020022A4303D0E26B42F00802A7
:10119000E263E26B002A33D0800604D5880602D5CC
:1011A000204600F02BFB20684069E16BC0F3801003
:1011B000090700D428B3204600F012FB20684169DB
:1011C00049061AD5416921F040014161606BA0B127
:1011D0001B490165606BFFF751FB002810D0606B65
:1011E000016DBDE870400847830610D58B060ED50B
:1011F0002046BDE8704000F001BB2046FFF796FF97
:1012000070BD2046FFF792FF0020E06370BD03062B
:1012100006D50B0604D52046BDE8704000F0CEBBD5
:101220004006F3D54806F1D5D168204621F04001AB
:10123000D160202184F8391000F037F970BD00002A
:10124000D117000870B5040004D094F839000025C7
:1012500010B106E0012070BD84F83850204600F03F
:1012600023F8242084F839002068C16821F4005153
:10127000C160204600F00EFB2068016921F4904116
:1012800001612068416921F02A0141612068C1683B
:1012900041F40051C160E563202084F8390084F8EE
:1012A0003A00002070BD000070B586B004461421DD
:1012B0006846FEF7BFFF284E226800212748022318
:1012C00003240725B2421DD1244A1432166846F081
:1012D00010061660126802F010020592026842F0D1
:1012E00001020260006802AA00F00100059082E895
:1012F00032006002CDE9000369461948FFF7E2FABF
:1013000006B070BD174EB242FAD1144A10321668B8
:1013100046F480261660126802F480220592026864
:1013200042F002020260006802AA00F0020005908A
:1013300082E832004FF44060CDE9000369460A4874
:10134000FFF7C0FA002211462720FFF70FFC2720E5
:10135000FFF7FEFBD4E700000010014030380240E8
:1013600000000240004800400004024090F83A307B
:10137000202B22D1F9B1F2B190F83830012B1CD0DA
:1013800081628285C2850021C163222280F83A20D1
:1013900080F838100168CA6842F48072CA60016837
:1013A0004A6942F001024A610068C16841F02001C7
:1013B000C160002070470120704702207047000084
:1013C000084910B588420CD107484178074800F019
:1013D0008EF905490122BDE81040491C0148FFF77C
:1013E000C5BF10BDBC0300200C0000207800002009
:1013F0002DE9F843044690F839001F4616460D467D
:10140000202850D1B5B1AEB194F8380001284AD0A7
:10141000012084F838004FF00008C4F83C802120F7
:1014200084F83900FFF734FBA6848146E68484F80B
:10143000388026E00120BDE8F883E08C401EE0847F
:10144000A0684B46B0F5805F4FF000024FF080017E
:101450002046009703D000F0E2FAE8B90DE000F072
:10146000DEFAC8B928882168C0F3080048602069FE
:1014700008B16D1C05E0AD1C03E0216815F8010BF7
:101480004860E08C0028D8D14B46002240212046FD
:10149000009700F0C4FA08B10320CCE7202084F8BC
:1014A00039000020C7E70220C5E77047FEE70000CB
:1014B0002DE9F05F002501F0DFFE070056D001F0B6
:1014C000C4FE06464FF4007ADFF8A4804FF4806B28
:1014D000DFF8A09043E02946384601F0ADFE040055
:1014E0003CD00B2224A1206AFEF7AFFEA0B96069B0
:1014F000C8B1002251464046FFF7C5FA00225946BE
:101500004046FFF7C0FA00224FF400611D48FFF784
:10151000BAFA1DA000F0C8FA0A221EA1206AFEF73E
:1015200094FE88B11AE0012251464046FFF7ABFA1B
:10153000012259464046FFF7A6FA0122D10211487E
:10154000FFF7A1FA16A0E5E76069012801D010B104
:1015500004E0002100E0012189F802106D1CB54271
:10156000B9DB3846BDE8F05F01F042BEBDE8F09F50
:10157000002002400C000020706F77657273746168
:1015800074650000001402404C4544204F50454E05
:101590000D0A0000436F6E6E6563746564000000A1
:1015A0004C454420434C4F53450D0A002DE9F04172
:1015B00086B014216846FEF73DFE2B4800240168E2
:1015C00041F040010160016801F0400105910168AE
:1015D00041F480710160016801F480710591016836
:1015E00041F001010160016801F00101059101680C
:1015F00041F020010160016801F0200105910168BE
:1016000041F0020101600068184F00F002004FF441
:10161000C0650590002229463846FFF734FADFF806
:101620005080FE14002231464046FFF72CFAB010DD
:10163000CDE9000469460F480294FFF743F900958D
:101640000125CDE90154694638460394FFF73AF97C
:101650000096CDE90154694640460394FFF732F9FC
:1016600006B0BDE8F08100003038024000200240A2
:1016700000140240001802400C4810B50A490160ED
:101680004FF4E1314160002181600C22C160C0E96A
:1016900004128161C161FFF7D5FD002803D0BDE8C8
:1016A0001040FFF7EAB810BD001001407C03002095
:1016B0000C4810B50A4901604FF4E1314160002146
:1016C00081600C22C160C0E904128161C161FFF731
:1016D000B9FD002803D0BDE81040FFF7CEB810BD1B
:1016E00000480040BC030020FEE770477047437885
:1016F000C21C99544178491C41708178491C817001
:10170000022070470021417000F8021B00F8011B05
:101710004FF40071FEF78EBD027843789A4201D1F2
:10172000837853B1C31CD25C0A700178491C0170E4
:101730008178491E817002207047012070477047F0
:10174000FFF7ACB910B592B030216846FEF772FDD4
:1017500014210CA8FEF76EFD14480024016841F026
:1017600080510160006800F08050119010480168BD
:1017700041F4804101600068069400F480401190BB
:101780000220009001200390102004906846FFF78B
:101790000BFB0F20CDE90C040E940F9400210CA834
:1017A0001094FFF715FA12B010BD00004038024047
:1017B000007000400548016841F470010160034970
:1017C0004FF00060803908607047000088ED00E04D
:1017D00010B5806B0021C185C184FFF7A7FC10BD47
:1017E0000168CA6822F49072CA6001684A6922F0EE
:1017F00001024A61202180F83A10704710B590F834
:101800003A10222901D0022010BD8168B1F5805F15
:1018100011D00169002901681FD0496801F07F03D8
:10182000816A4A1C82620B70C18D491E0904090C31
:10183000C18518D02BE00269816A002A02685268CB
:1018400005D0D2B20A80816A491C8162ECE7C2F3FA
:1018500008020A80816A891CF7E74A68816A4B1C82
:1018600083620A70E0E70168CA6822F02002CA6059
:101870000168CA6822F48072CA6001684A6922F06D
:1018800001024A61202180F83A10FFF799FD0020FB
:1018900010BD00002DE9F041044600680169E268CE
:1018A00021F44051114301612169A068E2690843B4
:1018B0006169114308432168CA6849F20C639A437D
:1018C0000243CA6020684169A26921F44071114352
:1018D0004161E069192764253226B0F5004F354A89
:1018E000354920684FF0000806D0884201D0904268
:1018F00036D1FFF717FA35E0884201D0904202D185
:10190000FFF710FA01E0FFF7FDF961684A18A0FB44
:10191000070148EB0803FEF755FC0146B0FBF5F064
:101920000201B1FBF5F06FF01803584301EB8000A2
:1019300006EBC000B0FBF5F000F0F80002EB40024F
:10194000B1FBF5F0584301EB800006EBC000B0FBA3
:10195000F5F000F00700216810448860BDE8F081D0
:10196000FFF7D0F961688B0F8A00A0FB0701FEF733
:1019700029FC0146B0FBF5F06FF01802504301EB73
:10198000800006EB0010B0FBF5F000F0F002B1FBB8
:10199000F5F002EB0012B1FBF5F06FF018035843BD
:1019A00001EB800006EB0010B0FBF5F000F00F003B
:1019B000D1E70000001401400010014090F83910F8
:1019C000212901D0022070478168B1F5805F016A4A
:1019D0000BD04A1C0262026809785160C18C491E12
:1019E0000904090CC1840ED017E009880268C1F30C
:1019F0000801516001690029016A02D0491C016295
:101A0000ECE7891CFBE70168CA6822F08002CA6023
:101A10000068C16841F04001C160002070472DE9B5
:101A2000F041984617460E460446069D1DE0681C88
:101A30001BD02DB1FFF72CF8A0EB0800A84214D959
:101A40002068C16821F4D071C1602068416921F02B
:101A500001014161202084F8390084F83A00002017
:101A600084F838000320BDE8F0812068006836EA79
:101A7000000004D00020B842D9D00020F3E70120B4
:101A8000F9E70000054800680068C043800602D4FA
:101A90000349012008700148FFF74ABBBC0300203E
:101AA0000C000020FEE700000FB4054B10B503A9A1
:101AB000044A029801F014F810BC5DF814FB000011
:101AC000F9320008280000200FB4084B10B504A913
:101AD00002AA039801F004F8044602A9002001F0CC
:101AE00082FB204610BC5DF814FB0000E7310008C3
:101AF00003B401984100009850EAC12018BF0420A7
:101B00004A0D18BF40F0010040F2FF72B2EB515F86
:101B100008BF40F00200012808BF052002B070474E
:101B20000907090E002804DB00F1E02080F800140A
:101B3000704700F00F0000F1E02080F8141D70479E
:101B40002DE9F04D2DED040B2DED0E8B96B0DDE95A
:101B50002550279CDDF890A025F0004624F0004891
:101B6000BAF1000F14BF0121002101EB4502FC492D
:101B700053184A1093422AD3002814BF012300238C
:101B800003EB44030B44F7498B4220D358EA00018E
:101B90009FEDF59B76D0DFF8D8B35D4503D1BAF160
:101BA000000F05D188E0BAF1000F08BF002100D076
:101BB000012101EB450111F5001F08D8002814BFD1
:101BC0000121002101EB440111F5001F0BD99DED0E
:101BD000261B9DED240B16B0BDEC0E8B04B0BDE8AA
:101BE000F04D00F069BE0027002DBCBFE1498845DB
:101BF00021DAE1498845A8BF02271CDAC3451ADC6F
:101C0000DE4901EB2851142908DDC1F1340220FA24
:101C100002F101FA02F282420DD108E058B9C1F195
:101C2000140228FA02F101FA02F2424503D101F04E
:101C30000101C1F1020756EA0A0124D1002C22DA7F
:101C4000002D18BF022F01D0012F0AD0022000F072
:101C50007FFE16B0BDEC0E8B04B0BDE8F04D00F079
:101C600013BE022000F074FE00F00EFE51EC100BCB
:101C700081F0004141EC100B16B0BDEC0E8B04B0AE
:101C8000BDE8F08D18E09FEDBEAB9FEDBF8B002847
:101C900071D1B848804522D105F1804010F58010FF
:101CA00008BFBAF1000F07D0B3450ADC002CA8BF6B
:101CB0009DED260BE0DA0DE0B0EE490AF0EE690A80
:101CC000DAE7002C06DA9DED260B51EC100B81F0C3
:101CD00000416FE0AE48784490ED000BCCE7D8456A
:101CE0004DD1002C48DA2EB186423AD1BAF1000F1C
:101CF00042D126E0BAF1000F13D0022000F028FEF6
:101D000000F0F6FD8DED020B9DED240B8DED000B2B
:101D100010EE900A039961F31E0003909DED020BF3
:101D2000AAE78DED02AB9DED240B1AEE901A10EE92
:101D3000900A8DED000B61F31E0003909DED020BE8
:101D40009AE78DED028B9DED240B18EE901A10EEA4
:101D5000900A8DED000B61F31E0003909DED020BC8
:101D60008AE709DA9DED240B51EC190B53EC102B8B
:101D7000FEF780FC1EE020E09DED240B7CE7864210
:101D80001BDAB4F1804F0DD0A4F10050B0F1FF5038
:101D900013D1002D11DB9DED240B51EC100B01F044
:101DA000D5FE07E09DED240B53EC102B51EC100BEE
:101DB00000F0C2BC41EC100B5EE79DED240B51EC32
:101DC000100B01F08DFABAF1000FCDE90E0142D1EE
:101DD0009FED710B46B3A6F1E040B0F17F600CD0EF
:101DE0005E4538D1002D00DAA7B3022F0CBF0120C9
:101DF0004FF0FF30FEF751FBDCE7002D01DD002C3A
:101E00000DDA002D01DD002C1FDB002D16DA002C71
:101E100014DB012F08BF9FED620B3FF42DAFB0EE36
:101E20004A0AF0EE6A0A27E7022F18BF002D0CD0ED
:101E3000012F0AD1002DFFF61FAF06E0002DB8BF1D
:101E4000002C08DA012F3FF417AFB0EE480AF0EE8D
:101E5000680A11E71BE0012000EBE57050EA07017A
:101E600015D0791EB0EE498AF0EE698A084308BFA2
:101E70009FED4D8B4E480025804570DD4D494E4805
:101E8000884514DDB0420DDB002C19DB2FE001206A
:101E900000F05EFD16B0BDEC0E8B04B0BDE8F04D59
:101EA00000F016BDB34502DC002C09DC1FE08642C1
:101EB00002DA002C1BDA03E05E452BDD002C16DD78
:101EC000022000F045FD00F013FD8DED020B53ECF8
:101ED0001A2B51EC180BFEF76EFACDE900010399AD
:101EE000019861F31E0003909DED020BC4E60220F1
:101EF00000F02EFD00F00CFD10EE901A18EE900A86
:101F00008DED020B8DED008B61F31E0003909DEDB6
:101F1000020BB1E69DED0E0B53EC192B51EC100B9F
:101F2000FEF743FA9FED260BCDE9080153EC102B89
:101F30009DED080B51EC100BFEF73DFA9FED221BB7
:101F400053EC112BFEF734FA9DED081B53EC112BCB
:101F5000FEF731FA9FED1E1B53EC112B3CE08CE099
:101F6000FFFF1F00FFFF0F00000000000000F03F18
:101F70000000F03F0000F07F0000404301FCFFFF45
:101F8000000000000000F07F0000000000000000E2
:101F90008E1F000000000000000000000000008014
:101FA000000000000000F0FF000000000000F0BF93
:101FB0000000E0410000F043FFFFEF3F00000000A1
:101FC000000000000000D03F555555555555D53FF0
:101FD000000000000000E03FFEF7EAF99DED080B6D
:101FE00041EC1A0B53EC102B51EC100BFEF7E3F9FC
:101FF00053EC1A2BFEF7DFF941EC1A0B9FEDFE0BA9
:1020000053EC102B9DED080B51EC100BFEF7D3F9A0
:1020100041EC1B0B9FEDFA0B51EC1A0B53EC102B00
:10202000FEF7C9F941EC1A0B9FEDF70B53EC102B9F
:102030009DED080B51EC100BFEF7BDF953EC1A2B7C
:10204000FEF7B3F941EC1A0B51EC1B0B53EC1A2BB6
:10205000FEF70AF90690CDE906519DED060B53EC0B
:102060001B2B51EC100BFEF7A0F953EC1A2BFEF7CB
:102070009FF941EC100B00F0A1B90020B6F5801FCC
:102080000EDA9FEDE30B53EC102B9DED0E0B51EC94
:10209000100BFEF790F9CDE90E016FF034000E46FB
:1020A00000EB2650A0F2FF37C6F31300DA4940F0E8
:1020B0007F6646F040568842D8BF002408DDD749E5
:1020C0008142C8BF012403DC0024A6F580167F1CD2
:1020D000D348784400EBC4000F9690ED00CB9DED03
:1020E0000E0B53EC1C2B51EC100BFEF75EF99DED23
:1020F0000E0B41EC1B0B53EC1C2B51EC100BFEF7A1
:10210000B3F841EC100B51EC190B53EC102BFEF70C
:10211000B1FA41EC1D0B51EC1B0B53EC1D2BFEF7E0
:102120004AF941EC1A0BBF488DED10AB784410957D
:1021300090ED000B4FF0005040EA660000EB844049
:102140008DED080B00F5002009909DED080B53EC78
:102150001C2B51EC100BFEF728F99DED0E1B53ECD8
:10216000112BFEF725F941EC100B53EC102B9DEDD4
:10217000100B51EC100BFEF71EF99DED080B41EC16
:102180001C0B53EC102B9DED100B51EC100BFEF7BC
:1021900012F953EC1B2BFEF70BF953EC1C2BFEF73B
:1021A00004F953EC1D2BFEF706F941EC1C0B53EC24
:1021B0001A2B51EC1A0BFEF7FEF841EC1B0B9A4858
:1021C0000621B0EE4B0AF0EE6B0A784400F0E0FA1C
:1021D000B0EE401AF0EE601AB0EE41DAF0EE61DADD
:1021E00053EC1B2B51EC1B0BFEF7E5F853EC1D2BAE
:1021F000FEF7E1F89DED100B41EC1B0B53EC1A2B95
:1022000051EC100BFEF730F853EC1C2BFEF7D3F813
:1022100053EC1B2BFEF728F89DED100B41EC1B0B2C
:1022200053EC102B51EC100BFEF7C5F841EC1D0BD5
:102230009FED7FEB53EC1E2BFEF716F853EC1B2B98
:10224000FEF712F80890CDE908519DED080B53EC0C
:102250001E2B51EC100BFEF7A8F853EC1D2BFEF7CC
:10226000A4F853EC1B2BFEF7A3F89DED080B41ECF3
:102270001D0B53EC102B9DED100B51EC100BFEF7CA
:102280009AF841EC1B0B53EC1A2B51EC1D0BFEF78B
:1022900092F89DED080B41EC1A0B53EC102B51EC0E
:1022A0001C0BFEF788F853EC1A2BFDF7DDFF41EC11
:1022B0001A0B51EC1B0B53EC1A2BFDF7D5FF0C90AE
:1022C000CDE90C519DED0C0B53EC1B2B51EC100B7D
:1022D000FEF76BF853EC1A2BFEF76AF841EC1B0B78
:1022E0009FED550B53EC102B9DED0C0B51EC100B8F
:1022F000FEF761F841EC1A0B9FED510B51EC1B0BF3
:1023000053EC102BFEF757F841EC1B0B9FED4E0BD7
:1023100053EC102B9DED0C0B51EC100BFEF74BF812
:1023200053EC1B2BFDF7A0FF41EC100B4848784401
:1023300000EBC40090ED001B51EC100B53EC112B83
:10234000FDF792FF41EC1B0B3846FEF7A6F8CDE9EE
:10235000080153EC1B2B51EC1A0BFDF785FF41ECE8
:10236000100B3C48784400EBC40090ED00CB51ECDE
:10237000100B53EC1C2BFDF777FF9DED081B53EC66
:10238000112BFDF771FF0690CDE906519DED080B6D
:1023900053EC102B9DED060B51EC100BFEF705F8DE
:1023A00053EC1C2BFEF701F853EC1A2BFDF7FDFF45
:1023B00053EC1B2BFDF7FCFF41EC100B9DED261B96
:1023C00053EC102B8DED001B00959DED260B51EC71
:1023D000100BFDF7F0FF9DED000B41EC1A0B53ECD9
:1023E000102B9DED260B51EC100BFDF7DEFF9DED44
:1023F000061B53EC112B2FE0000000604715F73F40
:10240000FE822B654715F73F44DF5DF80BAE543E67
:1024100000000000000040438E9803007AB60B00D5
:102420000A1B0000381B0000421A000000000000D8
:102430000000000000000840000000E009C7EE3F77
:10244000FD033ADC09C7EE3FF5015B14E02F3EBE09
:10245000CE18000088180000FDF7ADFF53EC1A2BD2
:10246000FDF702FF9DED060B41EC1A0B53EC102B10
:102470009DED000B51EC100BFDF79DFFCDE90C011C
:102480009DED0C0B51EC1A0B53EC102BFDF7ECFEF1
:10249000CDE902010C46AA498C422FDB611A0843A0
:1024A00018D19DED0C0B53EC102B9DED020B51EC54
:1024B000100BFDF77AFF41EC1B0B9FEDA30B51ECCA
:1024C0001A0B53EC102BFDF7CFFE53EC1B2BFEF732
:1024D00015F82DD2022000F03BFA00F009FA10EEB8
:1024E000901A18EE900A8DED020B8DED008B61F3C2
:1024F0001E0003909DED020BFFF7BEBB944A24F033
:102500000041914214D39349214408437FF4EFAC36
:102510009DED0C0B53EC102B9DED020B51EC100BB1
:10252000FDF743FF53EC1A2BFDF7E8FF7FF6DFAC16
:1025300024F000408849894A002601EB205182425C
:102540002BDA481C4FF4801121FA00F02044844A11
:10255000C0F30A517A44A1F2FF3192ED000B814A97
:102560008DED080BCA4020EA0202C0F3130040F4CC
:102570008010C1F1140120FA01F60992002CB8BFB5
:1025800076429DED080B53EC102B9DED0C0B51EC9E
:10259000100BFDF70AFFCDE90C019DED0C0B51EC82
:1025A0001A0B53EC102BFDF75FFE9FED6F0B08909D
:1025B000CDE9085153EC102B9DED080B51EC100B9D
:1025C000FDF7F9FE41EC1B0B9FED690B53EC102B53
:1025D0009DED080B51EC100BFDF7EDFE9DED0C0B86
:1025E00041EC1C0B53EC102B9DED080B51EC100B28
:1025F000FDF7DBFE53EC1A2BFDF7DAFE9FED5E1BB9
:1026000053EC112BFDF7D7FE53EC1C2BFDF72CFEE2
:1026100041EC1A0B51EC1B0B53EC1A2BFDF724FE6B
:10262000CDE902019DED020B53EC1B2B51EC100B7D
:10263000FDF7BBFE53EC1A2BFDF7BAFE9DED020B26
:1026400041EC1A0B53EC102B51EC100BFDF7B3FEC1
:10265000CDE908014A489DED080B0521784400F0BA
:1026600097F89DED081B51EC100B53EC112BFDF767
:10267000A2FE9DED021B53EC112BFDF799FECDE957
:1026800006019DED020B53EC1A2B51EC100BFDF7DC
:1026900092FE53EC1A2BFDF7E7FD9FED3B0B41EC4F
:1026A0001A0B53EC102B9DED060B51EC100BFDF7A4
:1026B0007CFE9DED060B41EC1B0B53EC102B9DEDAE
:1026C000020B51EC100BFDF776FE53EC1B2BFDF7C4
:1026D000D1FF53EC1A2BFDF768FE9DED021B53EC66
:1026E000112BFDF762FE53EC192BFDF761FECDE9CE
:1026F000020101EB065001150029C8BF039015DC4B
:102700009DED020B324651EC100BFEF722F8FFF75D
:10271000EFF9042808BF00F0FBF832469DED020BEC
:1027200051EC100BFEF715F8CDE902019DED020BFF
:1027300051EC180B53EC102BFDF73DFEFFF73ABBA5
:102740000000904000000000FE822B654715973C7A
:1027500000CC904000346F3F01FCFFFF0000E03FE1
:1027600010170000FFFF0F0000000000432EE63F9F
:10277000396CA80C615C20BEEF39FAFE422EE63FB0
:10278000E015000000000000000000000000004014
:1027900070B504462DED028B4D1E00EBC500B0EE6A
:1027A000408AF0EE608A90ED000B35F0060017D0FD
:1027B00053EC182B51EC100BFDF7FDFD41EC100B09
:1027C0006D1E04EBC50090ED001B51EC100B53EC9B
:1027D000112BFDF749FD41EC100B35F00600E7D158
:1027E000022D36D0042D1CD0062D1CBFBDEC028B53
:1027F00070BD53EC182B51EC100BFDF7DCFD94ED84
:102800000A1B53EC112BFDF72FFD53EC182BFDF792
:10281000D2FD94ED081B53EC112BFDF725FD41EC87
:10282000100B53EC182B51EC100BFDF7C4FD94ED7D
:10283000061B53EC112BFDF717FD53EC182BFDF77E
:10284000BAFD94ED040B53EC102BFDF70DFD41EC9C
:10285000100B53EC182B51EC100BFDF7ACFD94ED65
:10286000021B53EC112BFDF7FFFC53EC182BFDF76B
:10287000A2FD94ED001B53EC112BFDF7F5FCBDEC14
:10288000028B41EC100B70BD9FED070B10B553ECA4
:10289000102B9FED070B51EC100BFDF7EBFE41ECFD
:1028A000100B10BD00000000000000000000000040
:1028B000000000000000F03F10B553EC112B51EC6C
:1028C000100BFDF7D1FC41EC100B10BD0000000017
:1028D0009FED050B10B553EC102B51EC100BFDF7D1
:1028E000C9FE41EC100B10BD00000000000000000C
:1028F0009FED050B10B553EC102B51EC100BFDF7B1
:102900005AFD41EC100B10BD0000000000000070EB
:102910009FED050B10B553EC102B51EC100BFDF790
:102920004AFD41EC100B10BD00000000000000103B
:1029300002E008C8121F08C1002AFAD17047704788
:10294000002001E001C1121F002AFBD170470000E6
:102950000149086070470000340000202DE9FF5F46
:1029600082B00021DDE90430020DDDF840B0034300
:1029700018D044F61050A2F2FF32424315141198B9
:1029800001281FD0A5EB0B00401C5FEA000A4FF0A6
:1029900000064E4FDFF83891B046504615D5CAF1C3
:1029A000000413E0119801244AA3012801D16FEA21
:1029B0000B010298119AC0E90031C0E9024206B049
:1029C000BDE8F09FCBF10000DFE704460021404A5C
:1029D000491842EB0450CDE9001012E0E00707D09F
:1029E00032463B4640464946FDF7E5FC804689466F
:1029F00032463B4610461946FDF7DDFC06460F46BB
:102A00006410002CEAD1DDE90401DDE90023BAF10C
:102A1000000F06DAFDF7CFFC42464B46FDF7CBFC34
:102A200005E0FDF727FE42464B46FDF723FE044630
:102A30000E460022284BFDF761FD03D84FF0FF3012
:102A4000014607E00022254B20463146FDF70CFCED
:102A5000FDF796FE102409E0002C0ADB0A22002371
:102A6000FDF7B0FB039B30321A55641E50EA010299
:102A7000F2D1641C039AC4F111031444119A012A7F
:102A800003D0012208430DD10AE0084304D00020FE
:102A90004FF0110B119072E7A3EB0B056D1E0DE0CB
:102AA0005B4504DD4FF0000205F1010504E003DAA7
:102AB0004FF00002A5F10105002AECD0029811990F
:102AC000C0E90231C0E9004579E700000000144088
:102AD0000000F03F300000000000F0430000E03F45
:102AE0002DE9FF4F95B09A46884606460025EEE14F
:102AF000252877D100242746F94A0121039400E0D4
:102B0000044316F8013F203B01FA03F01042F7D1CD
:102B100030782A2811D06FF02F033078A0F13002DE
:102B2000092A16D8039A44F0020402EB820203EB4E
:102B300042021044761C0390EFE758F8042B0392EE
:102B4000002A03DA504244F40054039044F0020493
:102B5000761C30782E2816D116F8010F44F00404A4
:102B60002A280DD06FF02F023078A0F13003092B06
:102B700009D807EB870302EB4303C718761CF3E77A
:102B800058F8047B761C30786C280FD006DC4C2873
:102B900017D068280DD06A2814D104E0742810D00A
:102BA0007A280FD10DE044F400140AE044F48014B4
:102BB00001E044F440147278824202D104F580149A
:102BC000761C761C307866280BD013DC582877D01A
:102BD00009DC002875D04528F6D04628F4D04728CF
:102BE0001AD193E118E0632835D0642879D065289C
:102BF00012D18BE1702873D008DC6728F1D06928E6
:102C00006FD06E280DD06F2806D1ACE073282CD081
:102C1000752874D0782853D05246179990476D1C68
:102C200054E1C4F30250022809D003280DD0D8F88B
:102C3000001004280DD00D6008F1040846E1D8F812
:102C40000010EA17C1E90052F6E7D8F800100D802D
:102C5000F2E70D70F0E718F8041B8DF80010002063
:102C60008DF80100EB46012003E058F804BB4FF05B
:102C7000FF3061074FF0000102D40DE009F10101BE
:102C80008946B9420FDA8145F8DB1BF809100029A3
:102C9000F4D108E009F1010189468142FADB1BF811
:102CA00009100029F6D103985346A0EB09072146E5
:102CB0003846179A00F080FA284400EB090507E02F
:102CC00044E008E10DE01BF8010B524617999047CC
:102CD000B9F10109F7D2534621463846179AF2E076
:102CE00039E00A21C4F302524FF0000B0091022A8E
:102CF00006D058F8040BC117032A09D00AE023E0D4
:102D000008F1070020F00702F2E80201904605E012
:102D100000B2C117042A01D140B2C117002906DA56
:102D20000A460021404261EB02012D2202E0220509
:102D300004D52B228DF80420012203E0E20701D004
:102D40002022F7E7914657E00A2100E010214FF0DA
:102D5000000B00910BE010214FF0000B44F0040435
:102D60000827009103E008204FF0000B0090C4F307
:102D70000252022A05D058F8040B0021032A08D079
:102D800008E008F1070020F00702F2E8020190468F
:102D900003E080B2042A00D1C0B24FF0000922073C
:102DA0002AD53278702A07D0DDF800C08CF0100CDC
:102DB0005CEA0B0C05D00EE040228DF804200122C5
:102DC00008E050EA010306D030238DF804308DF876
:102DD000052002229146009B83F0080353EA0B036F
:102DE0000AD150EA010201D1620705D530228DF8DF
:102DF00004204FF001097F1E3278582A04D039A2EE
:102E00000C920CAA02920BE03BA2F9E75B46009AF7
:102E1000FDF7D8F90C9B9B5C029A521E029213702C
:102E200050EA0102F2D1029804A9081A00F1200B1D
:102E3000600702D524F4803400E001275F4502DDFD
:102E4000A7EB0B0000E0002000EB0B0100900398C3
:102E50004944401A0390E00306D453462146179A8A
:102E6000039800F0A9F90544002706E001A852469E
:102E7000C05D179990476D1C7F1C4F45F6DBE00342
:102E80000CD553462146179A039800F095F905444E
:102E900004E030205246179990476D1C0099481E57
:102EA00000900029F5DC08E002980299524600786B
:102EB000491C0291179990476D1CBBF10001ABF1C1
:102EC000010BF1DC5BE100F065F90544761C30781C
:102ED00000287FF40DAE19B02846BDE8F08F000041
:102EE00009280100303132333435363738396162E0
:102EF00063646566000000003031323334353637A4
:102F0000383941424344454600000000600700D480
:102F1000062708F1070020F00700F0E802238046AA
:102F200003F0004C5FEA0C0001D097A009E02005F7
:102F300001D596A005E0E00701D095A001E0AFF231
:102F40004C001390307823F0004365280CD006DC49
:102F5000452809D046281DD047287FD13BE0662868
:102F600018D067287AD136E00021112F01DB11201B
:102F700000E0781CCDE9000104A90CA8FFF7EEFCE5
:102F8000DDE90D010C9A4FF0000B07F101091092D9
:102F900000914EE04FF000400097CDE9011004A9E8
:102FA0000CA8FFF7DBFCDDE90D020C9B0F994FF03D
:102FB000000B91461093009211B9791C00EB0109A6
:102FC000B7EB090003D4C0F1FF3B07F10109A9EBFE
:102FD0000700019042E0012F00DA01270021112FA4
:102FE00001DD112000E03846CDE9000104A90CA85C
:102FF000FFF7B4FCDDE90D010C9A00914FF0000BD6
:10300000B946109221070FD4009A4A4503DA914637
:1030100001E0A9F10109B9F1010F05DD109AA9F14B
:103020000101515C3029F4D0B84202DA10F1040FEA
:1030300003DA0121CDE9011010E0002803DC83440C
:10304000A9EB000102E0411C494500DD8946A0EBE7
:103050000B00401C01904FF000400290200705D467
:103060000198484502DB4FF0FF30019000208DF8B9
:103070004B0002980DF14B07B0F1004F25D0022014
:103080000C902B200D90029800280CDA4042029000
:103090002D200D9007E00A210298FDF747FA303104
:1030A000029007F8011D0C99481E0C900029F2DCD3
:1030B00002980028EFD1791E0D980870307800F042
:1030C000200040F0450007F8020D11A8C01BC01DEC
:1030D00002901398007800B1012000EB09010198DB
:1030E00001EBE071029801440398401A401E0390DE
:1030F000E00306D453462146179A039800F05CF883
:1031000005441398007818B15246179990476D1CE2
:10311000E00323D553462146179A039800F04CF854
:1031200005441BE0BBF1000F07DB0098584504DDA8
:103130001098179910F80B0001E0179930205246AB
:10314000904701980BF1010B401E05F1010501901C
:1031500004D12E205246179990476D1CB9F10001F9
:10316000A9F10109DEDC05E017F8010B52461799B9
:1031700090476D1C0299481E02900029F4DC5346CA
:103180002146179A03989EE62D0000002B000000B0
:10319000200000002DE9F041044600251E46174698
:1031A000880404D405E039462020B0476D1C641E15
:1031B000F9D52846BDE8F0812DE9F0410446002507
:1031C0001E469046C80301D5302700E0202788041A
:1031D00004D505E041463846B0476D1C641EF9D55C
:1031E0002846BDE8F0810A68531C0B6010707047D8
:1031F00070B504460F4E19E0A0892568C0050AD4B1
:10320000A06820B1FFF7F4FFA089C00503D42069AE
:1032100008B171688847A089800503D4206A08B185
:10322000716888477168204688472C46002CE3D196
:1032300070BD000000000020806801E00068491EA9
:10324000002801D00029F9DC70478168002001E0E6
:103250000968401C0029FBD170470000054910B5E2
:10326000096828208847040002D02821FCF7E2FFE3
:10327000204610BD0000002000221146AFF3008060
:103280002DE9F04190460E460446FFF7E7FF134F45
:1032900005004FF00000B86015D0204600F04CFC4F
:1032A0000146284600F0EEFB04000FD0B8F1000FF5
:1032B00010D0204600F040FC0446007850B128466B
:1032C000FFF796FFBC600020BDE8F0812846FFF7BD
:1032D0008FFFF8E706B134602846F5E700000020CC
:1032E00082B0CDE9000121F0004001909DED000B7E
:1032F00002B051EC100B704703490A685206FCD526
:10330000C2B24A60704700000010014010B50028AA
:1033100021D0114B0022001F196803E0814203D81D
:103320000A4649680029F9D152B11368841A9C42AF
:1033300004D1006818441060104602E0506000E0BC
:10334000186039B102680B1A934203D10B681A4412
:1033500002604968416010BD2C000020FDF7A6FB0B
:10336000FEF7F0F9FEF722F9FEF786F9FEF7A0F96D
:103370001BA0FEF799FB01221B491C48FDF7F6FF35
:10338000194E761E00F070F8307820B300203070AF
:103390000446174800F20327857805E039191448D8
:1033A000FEF7BAF9641CE4B2AC42F7D3114912A09B
:1033B000FEF77AFB29460F48FEF77AF84FF4807142
:1033C0000C48FCF737FF0A48FEF79CF90122064932
:1033D0000648FDF7CBFF6420FDF762FAD2E7000054
:1033E0005354415254210A000D000020BC03002018
:1033F000780000207B02002025730A00F0B50B3016
:10340000154D20F007010024144A0FE003688B4299
:103410000BD38B4205D95E1A43184768C3E900678E
:1034200000E04368136002C004E0021D1068002839
:10343000ECD12046002802D1286808B10020F0BD58
:10344000064A07481060074A121A22F00702C0E92C
:10345000002401202860D7E7300000202C00002045
:1034600004040020000600202DE9F0413B4E4FF4FB
:10347000007421463046FDF701FB394D90B94FF4F9
:10348000FA773846FDF70CFA21463046FDF7F6FA92
:1034900040B940F6C410FDF703FA21463046FDF767
:1034A000EDFA68B3A878002855D02E4D01222146A8
:1034B0002846FDF7E8FA0122960231462846FDF734
:1034C000E2FA0122DFF8A080D70239464046FDF734
:1034D000DAFAFA20FDF7E4F9002221462846FDF742
:1034E000D2FA002231462846FDF7CDFA00223946AD
:1034F0004046FDF7C8FABDE8F041FA20FDF7D0B923
:1035000040211A48FCF796FE002219A11748FEF741
:10351000DBFA4FF47A763346402214491948FDF716
:1035200067FF3846FDF7BCF90D4933460222C91C36
:103530001448FDF75DFF3846FDF7B2F908493346F8
:103540000722491D0F48FDF753FF0FA0FEF7ACFA05
:103550000120A870A9E7BDE8F08100000018024032
:103560000C0000200020024000140240380000201F
:103570007B22436F6E6E6563746564223A25647DB9
:1035800000000000BC0300206E657420636F6E6E47
:10359000656374210A0000002DE9F04104460878B3
:1035A0001A4E5B2801D0B1602BE00520E060481C7A
:1035B00000F0C2FA074600785D2806D0FFF74EFEFD
:1035C000051EA06002D038460AE0781CBDE8F081F4
:1035D000FFF744FE0028F9D0286045600546601CCE
:1035E00000F0AAFA0146284600F04CFA00F0A4FACE
:1035F000040006D020782C28EAD020785D2802D05C
:10360000B4600020E2E7601CE0E70000000000205A
:103610000178A1F13002092A01D811460AE0A1F18E
:103620004102052A01D8373904E0A1F16102052AD7
:103630003FD857390A0110F8011FA1F13003092BB7
:1036400001D8303A0AE0A1F14103052B01D8373AFD
:1036500004E0A1F16103052B2BD8573A11440A016C
:1036600010F8011FA1F13003092B01D8303A0AE00C
:10367000A1F14103052B01D8373A04E0A1F1610320
:10368000052B16D8573A114440780901A0F13002B1
:10369000092A01D8303904E0A0F14102052A02D8F4
:1036A000373908447047A0F16102052A01D857391B
:1036B000F7E70020704700002DE9F04106462DEDA8
:1036C0000C8B0C469FED598B9FED5ACB087800254B
:1036D0000127B0EE4CBAF0EE6CBAB0EE489AF0EEBC
:1036E000689A2D2802D19FED55BB4C1C20783028BC
:1036F00000D1641C20789FED53AB313808281AD8CC
:1037000014F8010B3038FCF7C8FE41EC1D0BB0EE8D
:103710004A0AF0EE6A0A53EC102B51EC180BFCF736
:103720004AFE53EC1D2BFCF79FFD41EC180B207853
:1037300030380928E4D920782E282CD16078302818
:1037400047D3392845D8B0EE4CDAF0EE6CDA641C79
:1037500014F8010B3038FCF7A0FE41EC1C0BB0EE66
:103760004A0AF0EE6A0A53EC102B51EC180BFCF7E6
:1037700022FE53EC1C2BFCF777FD41EC180B53ECAD
:103780001D2B51EC190BFCF710FE41EC190B2078A6
:1037900030380928DCD92078652801D0452818D18F
:1037A00014F8010F2B2802D02D280FD000E0641C44
:1037B0006FF02F012078A0F13002092A09D805EB1B
:1037C000850201EB42028518641CF3E74FF0FF37D6
:1037D000EDE705FB07F0FCF760FE53EC192BFCF757
:1037E00043FD41EC110BB0EE4A0AF0EE6A0AFEF717
:1037F000A7F9B0EE409AF0EE609A53EC182B51EC1A
:103800001B0BFCF7D8FD53EC192BFCF7D4FD41EC56
:10381000100B86ED060BFCF751FE70610320F06083
:103820002046BDEC0C8BBDE8F081000000000000DC
:1038300000000000000000000000F03F0000000059
:103840000000F0BF00000000000024402DE9F0411E
:10385000054608782A4E7B2801D0B16033E0062067
:10386000E860481C00F068F9074600787D2813D00E
:10387000FFF7F4FC041EA8600FD0384600F05CF996
:103880000146204600F03EF800F056F9002804D02A
:103890002169002721622CE0781CBDE8F081B0602E
:1038A00011E0401C00F048F90146204600F0EAF81B
:1038B00000F042F9051EF0D028782C2805D0287891
:1038C0007D281BD0B5600020E7E7FFF7C7FC002884
:1038D000E3D0206044600446681C00F02DF90146E6
:1038E000204600F00FF800F027F90028D5D0216914
:1038F0002162276101783A29D3D0D0E7681CCCE750
:10390000000000202DE9F0470C460646481C2278AE
:1039100000215A4B222A07D000209C60BDE8F08786
:10392000401C5C2A00D1401C0278222A02D00AB135
:10393000491CF5D1481C19688847051EEED0601C4B
:103940002C464FF4806788E05C2903D004F8011B03
:10395000401C82E000F101084078722814D006DC97
:10396000622809D0662809D06E2808D10AE0742898
:103970000CD0752803D10BE0082000E00C2004F8DF
:10398000010B68E00A20FAE70D20F8E70920F6E7C6
:1039900008F10100FFF73CFE8146A0F55C4008F10C
:1039A0000408B84257D3B9F1000F54D0A9F55840D4
:1039B000B84217D298F801005C284CD198F8020060
:1039C000752848D108F10300FFF722FEA0F55C41FD
:1039D00008F10608B9423ED2C9F3090161F39F20FC
:1039E00000F580390420B9F1800F02D20120641C57
:1039F0002AE0B9F5006F02D20220A41C06E0B9F556
:103A0000803F02D20320E41C0EE0241D022813D0C4
:103A1000032809D004281DD109F0BF0141F080011D
:103A200004F8011D4FEA991909F0BF0141F0800126
:103A300004F8011D4FEA991909F0BF0141F0800116
:103A400004F8011D4FEA99190D49095C41EA090181
:103A500004F8011D044408F101000178222902D074
:103A600000297FF471AF002121700178222900D153
:103A7000401C0421C6E9031550E7000000000020A7
:103A8000BA3B000870B50C00054620D0042223A1E3
:103A90002046FCF7DAFBE0B1052222A12046FCF724
:103AA000D4FBC8B1042221A12046FCF7CEFBB8B15B
:103AB0002078222819D02D2803D0A0F1300109291F
:103AC00019D821462846BDE87040FFF7F5BD002013
:103AD00070BD0220E86006E00020E860601D70BD57
:103AE0000120E8606861201D70BD21462846BDE8C0
:103AF0007040FFF707BF5B2804D07B2808D00D4833
:103B00008460E4E721462846BDE87040FFF744BDE5
:103B100021462846BDE87040FFF798BE6E756C6C74
:103B20000000000066616C736500000074727565CA
:103B3000000000000000002000E0401C002804D02D
:103B40000178002901D02029F7D9704700B52DED63
:103B5000048B83B041EC190BFCF73CFE41EC180BD5
:103B600018EE100A18EE901A8DED008B002818BF81
:103B70000120084320F00040C0F17F6000F1E040E8
:103B8000C00F14D019EE101A19EE900A8DED009B9B
:103B9000002918BF0121084320F00040C0F17F60D8
:103BA00000F1E040C00F04BF0120FEF7D1FE51EC50
:103BB000180B03B0BDEC048B00BD0000C0E0F0F8B2
:103BC000FC000000000000000001020304060708DA
:103BD00009000000000102030400000000000000D2
:103BE000000000000000F03F000000000000F83F6F
:103BF00000000000000000000000004003B8E23FA9
:103C0000000000000000000006D0CF43EBFD4C3E5A
:103C1000033333333333E33FFFAB6FDBB66DDB3F4F
:103C20004D268F515555D53F01411DA96074D13F97
:103C300065DBC9934A86CD3FEF4E454A287ECA3F91
:103C40003E5555555555C53F93BDBE166CC166BF13
:103C50002CDE25AF6A56113FF16BD2C541BDBBBE0C
:103C6000D0A4BE726937663E00000000000000006C
:103C7000903C0008000000203800000030290008B7
:103C8000C83C000838000020C8090000402900088E
:103C9000FD3300080D330008000000000000000D97
:103CA0000A72657365740D0A0100000010000000BF
:103CB000000000000024F4000000000000000000EC
:083CC0000000000000000000FC
:040000050800018965
:00000001FF
