:020000040800F2
:10000000F00700209D010008A73E000859270008BE
:10001000A53E0008390A00081D4300080000000042
:10002000000000000000000000000000AB3E0008DF
:10003000250E000800000000A93E0008E53F00086A
:10004000B7010008B7010008B7010008B7010008B0
:10005000B7010008B7010008B7010008B7010008A0
:10006000B7010008B7010008B7010008B701000890
:10007000B7010008B7010008B7010008B701000880
:10008000B7010008B7010008B7010008B701000870
:10009000B7010008B7010008B7010008B701000860
:1000A000B7010008B7010008B7010008B701000850
:1000B000B70100088D400008B7010008B70100082B
:1000C000B7010008B7010008B7010008B701000830
:1000D000B7010008B7010008B7010008B701000820
:1000E000B7010008B7010008B7010008B701000810
:1000F000B7010008B7010008B7010008B701000800
:10010000B7010008B7010008B7010008B7010008EF
:10011000B7010008B7010008B7010008B7010008DF
:10012000750D0008B7010008B7010008B701000805
:10013000B7010008B7010008B7010008B7010008BF
:10014000B7010008B7010008B7010008B7010008AF
:10015000B7010008B7010008B7010008B70100089F
:10016000B7010008B7010008B7010008B70100088F
:10017000B7010008B7010008B7010008000000003F
:10018000B7010008B7010008DFF80CD000F03CFB15
:1001900000480047DD4C0008F00700200648804773
:1001A00006480047FEE7FEE7FEE7FEE7FEE7FEE75C
:1001B000FEE7FEE7FEE7FEE7714000088901000860
:1001C0002DE9F05F0546002092469B46884606468C
:1001D000814640241BE0284641464746224600F01F
:1001E0002DFA53465A46C01A914110D3114618466B
:1001F000224600F014FA2D1A67EB01084F462246FA
:100200000120002100F00BFA17EB00094E41201EDF
:10021000A4F10104DFDC484631462A464346BDE8E6
:10022000F09FD2B201E000F8012B491EFBD27047CB
:100230000022F6E710B513460A4604461946FFF7B2
:10024000F0FF204610BD10B5002200E0521C835C78
:100250008C5CA34201D1002BF8D1D8B2E1B2401A94
:1002600010BD2DE9FE4F804681EA0300C00F0C4609
:10027000009021F0004123F00045B8EB0200A941B5
:1002800005D24046214690461C460B46024623F0C6
:100290000040104347D0270DC7F30A00C3F30A51AB
:1002A0000290401A019040286BDAC3F3130040F427
:1002B000801B0098924620B10023D2EB030A63EB27
:1002C0000B0B01985946C0F14002504600F0A7F9C7
:1002D00006460D4650465946019A00F0BFF910EB0C
:1002E00008006141002487EA115284EAE7731A4347
:1002F00040D0009A62B3019A012A4FEA075215DCF6
:10030000001B61EB02014FF0004202EA0752CDE907
:100310000042001C41F5801132462B4600F0F6F9F0
:1003200003B0BDE8F08F40462146F9E7001B61EBC2
:100330000201001C41F5801300185B412018A2F552
:10034000001747EB030140EAD570B6196D4111E083
:100350006D084FEA360645EAC0754FEA0752001BA2
:1003600061EB0201001C41F5801149084FEA3000A1
:100370000019514132462B4603B0BDE8F04F00F062
:10038000B6B90098012240000023D0EB020263EBD3
:10039000E073009821464FEAE074B8EB000061EB8F
:1003A0000401E9E783F000435BE781F0004158E78F
:1003B0002DE9FE4F81EA030404F0004421F00041DE
:1003C00000944FF0000B23F0004350EA01045ED08C
:1003D00052EA03045BD0C3F30A54C1F30A552C4418
:1003E000A4F2F3340194A0FB0254C1F3130141F4CD
:1003F0008011C3F3130343F4801301FB024400FB99
:10040000034E840A970A44EA815447EA8357A4FBBF
:10041000076802958D0A05FB07854FEA932C04FBBC
:100420000C542705029D4FEA065847EA1637B5EBEC
:1004300008056EEB070C870E920E47EA811742EA19
:100440008312A7FB0201B6EB0B0164EB00042B0D3A
:1004500043EA0C335E1844EB1C50DA465146E7FB86
:100460000201C5F313044FEA0B3343EA14534FEA76
:100470000432019C43EA0603A4F10C040294009C9C
:10048000CDE900B400F042F903B0BDE8F08F0020E0
:100490000146F9E72DE9F04D81EA030404F0004B31
:1004A00021F0004514464FF0000A23F0004150EAC5
:1004B000050220D054EA01021DD0C5F30A570246B6
:1004C000C5F31303C1F31300C1F30A5640F48015BA
:1004D00043F48013A7EB0608101BD64608F2FD383C
:1004E00073EB050002D308F1010801E092185B41AB
:1004F000B8F1000F03DA00200146BDE8F08D0020BE
:100500004FF48011064684460EE0171B73EB050777
:1005100005D3121B63EB050306434CEA010C4908A3
:100520004FEA300092185B4150EA0107EDD152EAE0
:10053000030012D082EA040083EA0501084305D0D3
:10054000101BAB4106D20122002306E000224FF02F
:10055000004302E06FF0010253101AEB06004CEB6F
:10056000085110EB0A0041EB0B01BDE8F04D00F023
:10057000BEB80EB5C10F80EAE0700844CA0700217A
:1005800040F233438DE80E000A460B4600F0BEF8F9
:1005900003B000BD00F0004230F000400AD0C10DB1
:1005A00001F56071C0F3160042EA0151C20840072C
:1005B0001143704700200146704701F0004330B4FA
:1005C00021F0004150EA010206D00A0DA2F5607246
:1005D000C1F31301002A02DC30BC00207047440F35
:1005E00044EAC104C100E01830BC00EBC25000F086
:1005F00047B830B50B46014600202022012409E00F
:1006000021FA02F59D4205D303FA02F5491B04FACB
:1006100002F52844151EA2F10102F1DC30BD202AAA
:1006200004DB203A00FA02F1002070479140C2F149
:10063000200320FA03F3194390407047202A04DB7B
:10064000203A21FA02F00021704721FA02F3D0404B
:10065000C2F120029140084319467047202A06DB68
:10066000CB17203A41FA02F043EAE07306E041FA80
:1006700002F3D040C2F1200291400843194670476E
:100680000029A8BF7047401C490008BF20F00100A6
:10069000704710B4B0FA80FC00FA0CF050EA010484
:1006A00004BF10BC704749B1CCF1200421FA04F416
:1006B00011FA0CF118BF012121430843A3EB0C01EF
:1006C000CB1D4FEA00614FEA102042BF002010BC52
:1006D000704700EBC35010440029A4BF10BC704702
:1006E000401C490008BF20F0010010BC704710B545
:1006F000141E73F1000408DA401C41F10001921845
:100700005B411A4301D120F0010010BD2DE9F04DED
:1007100092469B4611B1B1FA81F202E0B0FA80F242
:1007200020329046FFF77BFF04460F4640EA0A005E
:1007300041EA0B0153465A46084313D0114653EA87
:10074000010019D0C8F140025046FFF777FF054677
:100750000E46504659464246FFF761FF084305D012
:10076000012004E020463946BDE8F08D0020054315
:1007700046EAE0762C4337430A986305E40AA0EB87
:1007800008000022FD0A44EA47540A3002D500203E
:100790000146E9E7010510196941DDE9084500193D
:1007A0006941BDE8F04DA2E7C1F30A52C1F313015C
:1007B00040F2FF3341F480119A4202DA00200146F0
:1007C000704740F233439A42A2F2334202DC524273
:1007D000FFF734BFFFF723BF30B5041E71F10004EB
:1007E00004DB4FF00044404264EB0101141E73F13E
:1007F000000405DB1C464FF00043524263EB040348
:10080000994208BF904230BD064C074D06E0E068B3
:1008100040F0010394E8070098471034AC42F6D347
:10082000FFF7B6FC149D0C08349D0C0870B58C18AD
:1008300010F8015B15F0070301D110F8013B2A11F4
:1008400006D110F8012B03E010F8016B01F8016BE1
:100850005B1EF9D12B0705D40023521E0DD401F8DD
:10086000013BFAE710F8013BCB1A921C03E013F8A6
:10087000015B01F8015B521EF9D5A142D8D30020DB
:1008800070BD10B50146806B026C12F0500F05D0A0
:10089000026CD20626D500F0BDFD10BD016C41F4FE
:1008A0000071016401688A6812F0405F17D1027E0E
:1008B000AAB9CA6A12F4700F02D08A6852050ED41F
:1008C0004A6822F020024A60016C21F480710164C0
:1008D000016CC90403D4016C41F00101016400F012
:1008E00097FD10BD806BC26CBDE8104008461047F4
:1008F00010B5806B40210164416C41F004014164FA
:1009000000F088FD10BD10B5806B00F082FD10BDB9
:10091000464910B54A6822F440324A604A68436842
:100920001A434A6001684A6822F480724A6001688A
:100930004A68036942EA03224A6001684A6822F071
:1009400040724A6001684A6883681A434A600168D5
:100950008A6822F400628A6001688A68C3681A4360
:100960008A60816A6FF07062D14201688A6822F001
:1009700070628A6001688A680CD0836A1A438A6050
:1009800001688A6822F040528A6001688A68C36AF6
:100990001A4301E022F040528A6001688A6822F01E
:1009A00002028A6001688A68037E42EA43028A6022
:1009B00090F82010002901684A680FD042F40062C4
:1009C0004A6001684A6822F460424A6001684A68E5
:1009D000174C436A04EB43331A4301E022F40062EC
:1009E0004A600168CA6A22F47002CA620168CA6A6F
:1009F000838B104C04EB03531A43CA6201688A6864
:100A000022F400728A6001688A6890F8303042EA05
:100A100043228A6001688A6822F480628A600168E1
:100A20008A68406942EA8020886010BD0023014046
:100A300000E0FFFF0000F0FFFEE7000010B5144CDF
:100A400000228021204601F0B2F800F081F9022056
:100A500004F020F9002208210E4801F0A8F8022035
:100A600004F018F9022004F015F901228021204633
:100A700001F09DF8022004F00DF9022004F00AF9BB
:100A800020460022BDE81040802101F090B800000F
:100A9000001802400020024070B51A4886B0016874
:100AA00041F040010160016801F0400105910168D9
:100AB00041F4807101600068012400F480700590A9
:100AC0008020CDE90004104E022569463046CDE96C
:100AD000024500F08BFF01228021304601F067F8CB
:100AE0000820CDE90004CDE90245084C69462046BE
:100AF00000F07CFF01220821204601F058F806B0E2
:100B000070BD000030380240001802400020024052
:100B100010B5114C00228021204601F048F800F069
:100B200017F9022004F0B6F8012208210B4801F061
:100B30003EF8022004F0AEF801228021204601F0A8
:100B400036F8022004F0A6F820460022BDE8104046
:100B5000802101F02CB80000001802400020024063
:100B60002DE9F0410746002400F0E2F8144EDFF8CA
:100B70005480002500228021304601F018F804201E
:100B800004F088F801228021304601F010F8600658
:100B9000040E0821404601F005F808B1641CE4B2D7
:100BA000042004F077F86D1CEDB2082DE2D327B1D4
:100BB000FFF744FF2046BDE8F081FFF7A9FFF9E702
:100BC00000180240002002402DE9F041054600F0E7
:100BD000BFF8174E00228021304600F0E8FF0220C7
:100BE00004F058F8134F0024280601D5012200E034
:100BF00000220821384600F0DAFF6806050E0520BD
:100C000004F048F801228021304600F0D0FF052092
:100C100004F040F800228021304600F0C8FF052093
:100C200004F038F8641CE4B2082CDDD3BDE8F08190
:100C3000001802400020024070B500F089F80F4C07
:100C400001220821204600F0B2FF0D4D0122802133
:100C5000284600F0ACFF052004F01CF80022082113
:100C6000204600F0A4FF052004F014F82846BDE853
:100C700070400022802100F09ABF00000020024056
:100C80000018024070B500F063F80F4C012280217B
:100C9000204600F08CFF0D4D00220821284600F070
:100CA00086FF052003F0F6FF01220821284600F008
:100CB0007EFF052003F0EEFF2046BDE870400022D5
:100CC000802100F074BF00000018024000200240A4
:100CD00070B5002400F02CF8134D0122082128469D
:100CE00000F065FF022003F0D5FF104E01228021A5
:100CF000304600F05CFF07E0641CE4B2FA2C03D934
:100D0000FFF7C0FF012070BD022003F0C3FF0821E0
:100D1000284600F047FF0028EED10022802130460F
:100D200000F045FF002070BD002002400018024086
:100D300000B585B0082000900020019001200290AD
:100D40006946024800F052FE05B000BD0020024096
:100D500000B585B00820009001200190029002208B
:100D600003906946024800F041FE05B000BD000056
:100D700000200240014800F05FBC0000BC020020DF
:100D800001681823CAB2103AB2FBF3F2054B6FF3B5
:100D90000901032A9B5CC36500D9091D81650846CA
:100DA00070470000F29C0C0810B5014600208B69CA
:100DB0008A6A4FF0C07453B1B3F5005F15D072B1B9
:100DC000012A0CD0022A0AD0032A09D104E01AB160
:100DD000012A06D0022A03D1C96AC90100D501201F
:100DE00010BDC96AA142FAD010BD002AF7D0012A6D
:100DF000F2D0022AF3D0032AF3D010BD30B5046834
:100E0000256825F480252560046863608368402B8D
:100E1000036803D099600068C26030BD9A600068C2
:100E2000C16030BD7047704770B5B3F5804F05D0D5
:100E30006FF0704140F82210002070BD50F8224041
:100E4000084B8E891C40D1E9003543EA05138D68B3
:100E500089692D0245EA06452B430B43234340F89D
:100E60002230E9E70000F0CFF0B50C6850F82430EC
:100E7000114A1340D1E90125D1E903672A433E43D2
:100E800032434E6932438E693243CE6932430E6A31
:100E900032434E6A32438E6A3243CE6A3243CE6B5D
:100EA000096B32430A431A43082D01D142F0400234
:100EB00040F824200020F0BD8000F0FF30B500EBAA
:100EC000820250688D8900F04043D1E9000440EA75
:100ED00004108C68240244EA054420430C8A074D20
:100EE00005EB045420430C7D6D0105EB0464896916
:100EF0002043084318435060002030BD0000F0FF3D
:100F00002DE9F041404888B00024016841F4807127
:100F10000160016801F480710791016841F00401EA
:100F200001600068042600F00400079001AA012572
:100F300003270096DFF8D48082E8B0006946404677
:100F400000F054FDCDE902578020CDE90005304F77
:100F50006946384600F04AFDFFF79EFD00228021D9
:100F6000384600F024FE0A2003F086FE012280218C
:100F7000384600F01CFE0A2003F07EFE0096CDE904
:100F80000154022569464046039500F02FFD642078
:100F900003F072FE042205A948F2401000F04EF85A
:100FA0008DF8184005A91BA003F0BAF91CA105A8EB
:100FB000FFF749F918B1012008B0BDE8F0818DF8BC
:100FC000145048F24005012205A9284600F050F9C6
:100FD000012205A9E81D00F031F89DF814106029E0
:100FE00005D211A003F09CF9012000F019F90A20A4
:100FF00003F042FE8DF81440012205A9284600F0B6
:1010000037F90020D8E700003038024000200240C5
:101010000008024054502049443A25730D0A00004C
:10102000393134370000000044656661756C742006
:101030005665723A25640D0A000000002DE9F04162
:1010400015460E460446FFF7F7FD2820FFF7BCFDC6
:10105000FFF73EFE200AFFF7B7FDFFF739FEE0B2CB
:10106000FFF7B2FDFFF734FEFFF7E6FD2920FFF79B
:10107000ABFDFFF72DFE00246F1E09E0BC4201D03E
:10108000012000E00020FFF76BFD3055641CE4B246
:10109000AC42F3D3BDE8F041FFF7F4BD2DE9F147D1
:1010A0005B4E00244FF00A0A307885B0401CC0B275
:1010B000B0FBFAF20AFB1201564DA046307009B19E
:1010C0000A2879D248F24E19012205A94846FFF7AD
:1010D000B5FF9DF814004FF0000701060AD500F097
:1010E0000F00062806D28DF8007001226946484696
:1010F00000F0BEF89DF8140001075DD000F00F016C
:10110000062959D2FF2088408DF80000C04395F889
:10111000149040F0C000287528882881688968826A
:101120004FF00108287D08FA04F1084229D03A4816
:10113000042203A930F81400FFF780FF95F824007B
:101140009DF80D10C0079DF80C0000EB01200DD09C
:1011500005EB440148819DF80E009DF80F1000EB4F
:101160000120C0F5487025F814000AE025F81400A5
:101170009DF80E009DF80F1000EB012005EB4401D7
:101180004881641CE4B2052CCCD324492A884FF052
:1011900001080B8828469A4203D8428949888A4226
:1011A00009D99DF8141001F00F0101290BD94188CC
:1011B00001808189698137709DF8140000F08F00EB
:1011C00080280AD01BE001890180418A4181802169
:1011D0008DF8141085F81490EEE7287D010607D5E8
:1011E00020F080002875288870806889B08006E02B
:1011F0004FF6FF712980698100F0E0002875307892
:10120000F02801D986F800A006B04046BDE8F08776
:1012100004000020100200200452000800020020F8
:1012200008B500218DF800108DF801000F4800BFAF
:10123000435C9DF80020491C1A44C9B28DF8002077
:10124000B829F5D3D0B2C043401C8DF80000B822B5
:10125000064948F2470000F00BF80222694648F2BE
:10126000FF0000F005F8002008BD00004C51000808
:101270002DE9F04116460F4604460025FFF7DCFC39
:101280002820FFF7A1FCFFF723FD200AFFF79CFCB5
:10129000FFF71EFDE0B2FFF797FCFFF719FD0024F2
:1012A00008E0385DFFF790FCFFF712FD050003D161
:1012B000641CE4B2B442F4D3FFF7E4FC2846BDE872
:1012C000F081000078B50024009490F83C20012AB9
:1012D00019D0012280F83C200A6807230568092AF2
:1012E00013D9EE680A3A02EB420293409E43EE6045
:1012F0000B788A680A3B03EB43039A400368DD6876
:101300002A43DA6010E0022078BD2E6902EB420227
:1013100093409E432E610B788A6803EB43039A4007
:1013200003681D692A431A614A681F23072A13D2DA
:1013300005686E6B521E02EB820293409E436E6301
:101340000B790A885B1E92B203EB83039A40036811
:101350005D6B2A435A6327E005680D2A12D22E6B73
:10136000D21F02EB820293409E432E630B790A88C0
:10137000DB1F92B203EB83039A4003681D6B2A4381
:101380001A6311E0EE6A0D3A02EB820293409E432B
:10139000EE620B790A880D3B92B203EB83039A400D
:1013A0000368DD6A2A43DA62164B0568144A9D42D7
:1013B00006D10D68122D03D1556845F4800555609E
:1013C00005689D4218D10B68102B01D0112B13D149
:1013D000536843F400035360096810290CD10A498B
:1013E0000A4A0968B1FBF2F101EB8101490000E012
:1013F000491E00910029FBD180F83C40002078BDB7
:101400000023014000200140F801002040420F006D
:1014100070477047704770B504004FF0000503D067
:10142000206C002610B107E0012070BD204600F0BE
:101430001DF8666484F83C60206CC00610D4206CF3
:1014400020F4885040F0020020642046FFF760FA44
:101450006664206C20F0020040F00100206400E08F
:10146000012584F83C60284670BD0000F0B587B0C7
:10147000064614216846FEF7DBFE1E4930688842A6
:1014800035D11D480025016841F480610160006884
:1014900000F48060059018481438016841F020017C
:1014A000016000684FF4806700F02000009705900D
:1014B0000320CDE901056946104800F097FA114C68
:1014C0000F4820608005C4E90105C013E560C4E948
:1014D00004708000A0614011C4E9070520466562E0
:1014E00000F07AF908B1FFF79EFCB463A66307B079
:1014F000F0BD0000002201404438024000140240C8
:1015000010640240BC020020F8B50E4600210446DB
:10151000009190F83C00012807D0012084F83C009D
:1015200020688368DB0702D011E00220F8BD8368E1
:1015300043F0010383603748374B0068B0FBF3F09A
:1015400000EB400000E0401E00900028FBD1206826
:101550008368DB075CD0236C40F20165AB4343F446
:10156000807323644068400505D5206C20F400504A
:1015700040F480502064206CC00404D5606C20F0DE
:101580000600606400E0616484F83C10A16B2448AC
:10159000224DC863A16B23480864A16B2248C8642C
:1015A00021686FF0220008602068416841F0806186
:1015B00041602068816841F4807181602168134630
:1015C00032464C31A06B00F071F968681749C006CB
:1015D000206806D088421BD1816811F0405F13D08B
:1015E00016E08842F8D0124A904203D1D1F8042381
:1015F000D206F1D00F4A90420AD1D1F8041301F07B
:101600001F011029E8D303E0816841F08041816027
:101610000020F8BDF801002040420F0000230140E7
:101620008308000807090008F108000800200140AD
:1016300000210140002201402DE9F84304464FF00B
:101640000009CDF8009063484FF41651A56D00686D
:10165000B0FBF1F72E6894F85C10082000FA01F155
:1016600031420FD021680A6852070BD50A6822F070
:1016700004020A6094F85C108840A860606D40F035
:101680000100606594F85C104FF0010808FA01F061
:10169000304208D021684969090604D5A860606D08
:1016A00040F00200606594F85C10042088403042ED
:1016B00008D021680968890704D5A860606D40F0EA
:1016C0000400606594F85C1010208840304218D007
:1016D00021680968090714D5A860206801684903D2
:1016E00004D50068000308D5A16C07E00168C905AE
:1016F00003D4016821F008010160216C09B1204682
:10170000884794F85C1020208840304231D021680E
:101710000968C9062DD5A86094F835000528206809
:10172000016806D0490347D5006800031DD4616CE9
:101730001CE021F0160101602068416921F0800160
:101740004161206C08B9A06C20B12068016821F0CB
:101750000801016094F85C103F208840A86084F87C
:10176000349084F83580216D1FE0E16B09B120468B
:101770008847606D00282BD0606DC00714D005200D
:1017800084F835002068016821F0010101600098AB
:10179000401C0090B84203D820680068C007F6D10A
:1017A00084F8349084F83580E16C002910D001B0C1
:1017B0002046BDE8F04308470168C905D5D4016853
:1017C00021F01001016084F8349084F83580CCE772
:1017D000BDE8F883F80100202DE9F041044600F04F
:1017E000EBF906465CB1002584F83450022084F8F9
:1017F00035002068016821F0010101600DE0012041
:10180000BDE8F08100F0D8F9801B052805D920201B
:101810006065032084F83500F2E720680068C0079F
:10182000F0D12268116820480140D4E9010318432F
:10183000D4E903363343184363691843A369184353
:10184000E3691843236A18430843616A042903D1F2
:10185000D4E90B1319430843106020684069666A95
:1018600020F0070130460E43012704280CD1A06A5E
:101870000643E06A40B12046FFF796FA20B14020C7
:10188000606584F83570BAE7206846612046FFF746
:1018900077FA94F85C203F2191408160656584F877
:1018A00035700020ACE700003F8010F02DE9F041DA
:1018B0000446866D90F83400002501280DD00120E3
:1018C00084F8340094F835700020012F07D084F894
:1018D000340002252846BDE8F0810220FBE70227FC
:1018E00084F8357060652046FFF788FA94F85C103C
:1018F0003F208840B0602068016841F01601016017
:10190000206C20B12068016841F008010160206866
:10191000016841F001010160DCE7000070B5044698
:1019200000F04AF90546601C02D0044800780444DF
:1019300000F042F9401BA042FAD370BDEC01002038
:101940002DE9F04186B014216846FEF771FC21486C
:10195000016800293AD14FF00108C0F800801E4804
:101960000024016841F0010101600068022500F0D7
:10197000010005904FF48050CDE9000502AA03262E
:101980000C2782E8D0006946144800F02FF84CF28A
:101990003370CDE9000502AA694682E8D0001048FC
:1019A00000F024F802AA694682E8D000CDE900855B
:1019B0000C4800F01BF84FF68070CDE9000502AA34
:1019C000694682E8D000084800F010F806B0BDE88B
:1019D000F0810000E4010020383802400018024085
:1019E000000C024000140240001002402DE9F84FA4
:1019F00000224FF0010803254FF00F0E0B6808FA84
:101A000002F42340A3426ED14E68012E05D0022E6F
:101A100003D0112E01D0122E12D186684FEA420C4B
:101A200005FA0CF7BE43CF6807FA0CF73743876017
:101A30004668A6430C79C4F30014944034434460D0
:101A4000C668570005FA07FC8C6826EA0C06BC40FD
:101A50003443C4604C68022C01D0122C13D1D4083A
:101A600000EB8404A346D4F8209054074FEAD46ACC
:101A70000EFA0AF629EA06090E6906FA0AF646EA95
:101A80000906CBF8206006680C7926EA0C0604F0FB
:101A90000304BC40344304604C68E40065D5364C14
:101AA000266846F480462660246822F0030604F483
:101AB00080440094314C3444A446D4F80848960736
:101AC000370F0EFA07F6B4432D4EB04201D100266F
:101AD00024E02C4EB04201D101261FE02A4EB04234
:101AE00002D102261AE040E0284EB04201D103267E
:101AF00014E0274EB04201D104260FE0254EB0423B
:101B000001D105260AE0244EB04201D1062605E0A7
:101B1000224EB04201D1072600E00826BE402643EF
:101B2000CCF808681E4E34684F689C43FF0300D50C
:101B30001C4334601A4C241D26684F689E43BF0323
:101B400000D51E432660164E083634684F689C4305
:101B5000FF0200D51C433460114E0C3634684F68C8
:101B60009C43BF0200D51C433460521C102AFFF472
:101B700045AFBDE8F88F0000443802400030014016
:101B8000000002400004024000080240000C024035
:101B9000001002400014024000180240001C0240E5
:101BA000003C01400069084000D0012070470AB1A4
:101BB000816170470904FBE70148806870470000B5
:101BC000EC0100200248816802781144816070476E
:101BD000EC0100200B4810B5016841F40071016070
:101BE000016841F480610160016841F48071016025
:101BF000032000F06FF8002000F006F800F024F851
:101C0000002010BD003C024070B50D4D04464FF45D
:101C10007A712878B1FBF0F00A490968B1FBF0F05D
:101C200000F03DFB48B9102C07D200222146501E7F
:101C300000F030F800206C6070BD012070BD000025
:101C4000EC010020F80100200A4808B5016841F4C1
:101C500080410160006800F4804000900548001F4A
:101C6000016841F080510160006800F080500090F0
:101C700008BD000044380240002809DB00F01F02C4
:101C8000012191404009800000F1E020C0F80011DE
:101C900070470000F0B40E4B1B680C46C3F30223E0
:101CA000C3F10705042D00D90425191D072901D208
:101CB000002300E0DB1E012606FA05F1491E214043
:101CC00099409E40761E16403143F0BC02F04CBB5A
:101CD0000CED00E0064900F0070208684FF6FF032C
:101CE000184040EA0220034A104308607047000091
:101CF0000CED00E00000FA052DE9F0470E46050066
:101D000065D0DFF81481D8F80000F7B200F00F00BA
:101D1000B04207D288F80070D8F8000000F00F0039
:101D2000B04254D128683D4C810712D5400703D5F5
:101D3000206840F4E05020602878000703D5206830
:101D400040F4604020602068A96820F0F00008435B
:101D500020602878C0072DD03049686808390128EC
:101D600012D0022813D0032811D00968890700294E
:101D70002DDA216821F0030101432160FFF71CFFE8
:101D8000814641F2883A0EE009688903EFE7096865
:101D90008901ECE7FFF710FFA0EB0901514502D9DB
:101DA0000320BDE8F0872068696800F00C00B0EB04
:101DB000810FEFD1D8F80010404601F00F01B14279
:101DC00007D90770006800F00F00B04201D0012071
:101DD000E7E72878400705D52068E96820F4E05057
:101DE000084320602878000706D52068296920F478
:101DF000604040EAC100206000F038F82168084ADD
:101E0000C1F30311515CC8400649086006480068E8
:101E1000FFF7FAFE0020C4E7003C02400838024009
:101E2000FA9C0C08F8010020F00100200448054944
:101E300000680968044AC1F38221515CC8407047B8
:101E4000F8010020083802400A9D0C0804480549A2
:101E500000680968044AC1F34231515CC8407047C8
:101E6000F8010020083802400A9D0C08154810B5FA
:101E7000006810F00C02144813D01449042A0FD043
:101E8000082A0ED10F4C241F2268236802F03F025B
:101E90005B0207D52068C0F38810A0FB010106E0B3
:101EA000084610BD2168C1F38811A1FB0001002381
:101EB000FEF786F92168C1F30141491C4900B0FBD6
:101EC000F1F010BD083802400024F40040787D0194
:101ED0002DE9F84F04006ED02078DFF83C93C0075E
:101EE000A9F104054AD009F104000168C1F3810198
:101EF000012908D00068C0F3810002280AD1D9F86E
:101F00000000400206D52868800337D560680028A5
:101F1000E1D033E06068B0F5803F10D0B0F5A02F7D
:101F2000286810D020F480302860286820F48020B1
:101F300028606068A8B1FFF73FFE06460DE02868FC
:101F400040F48030F4E740F480202860F7E700BFD9
:101F5000FFF732FE801B642873D828688003F7D50A
:101F60000CE0FFF729FE064605E000BFFFF724FE60
:101F7000801B6428F0D828688003F7D42078DFF825
:101F80009C8280074FF0000A3ED5A348001D0168DF
:101F900011F00C0F08D00068C0F3810002280BD1AB
:101FA000D9F80000400207D42868800716D5E068F9
:101FB000012800D112E02BE1E068B8B10120C8F897
:101FC0000000FFF7F9FD064605E000BFFFF7F4FD4E
:101FD000801B0228C0D828688007F7D528682169A7
:101FE00020F0F80040EAC10028600DE0C8F800A029
:101FF000FFF7E2FD064604E0FFF7DEFD801B022846
:102000001FD828688007F7D42078000722D5824E91
:1020100083486169703671B101210160FFF7CCFD21
:10202000074604E0FFF7C8FDC01B022809D8306846
:102030008007F7D50EE0C0F800A0FFF7BDFD07460A
:1020400005E082E0FFF7B8FDC01B02287DD83068AC
:102050008007F7D42078400768D5DFF8BCB10027A7
:102060000BF13C0BDBF80000C0000BD4DBF80010D8
:1020700041F08051CBF80010DBF80000012700F0A0
:1020800080500090674E3068C00510D4306840F42E
:1020900080703060FFF790FD009005E0FFF78CFD49
:1020A0000099401A022850D83068C005F6D55A4E1B
:1020B000A0686C3601280FD00528306810D020F0B9
:1020C00001003060306820F004003060A068B8B1D2
:1020D000FFF772FD00900FE0306840F00100F4E778
:1020E00040F004003060F7E7FFF766FD0099411A01
:1020F00041F28830814266D830688007F4D50EE01E
:10210000FFF75AFD009007E0FFF756FD0099411ACE
:1021100041F28830814256D830688007F4D42FB11C
:10212000DBF8001021F08051CBF80010A069C8B393
:102130003949091D0968C1F3810102294AD00228E1
:10214000504607D0C8F8600000E03CE0FFF734FDDF
:1021500004463BE04746C8F86000FFF72DFD064601
:1021600005E000BFFFF728FD801B02282BD8286858
:102170008001F7D4D4E907010843A16A2A4A490833
:1021800002EB0141626A41EA8211084394F82C1083
:1021900040EA0161C9F8001001203866FFF70CFD24
:1021A000044606E036E000BFFFF706FD001B0228EC
:1021B00009D828688001F7D52CE000BFFFF7FCFCA8
:1021C000001B022802D90320BDE8F88F286880018F
:1021D000F4D41FE00128F7D0D9F80000E26900F438
:1021E0008001914214D1226A00F03F0191420FD147
:1021F00047F6C071626A0140914209D1A26A00F4B7
:102200004031914204D1E16A00F07060884201D00F
:102210000120D9E70020D7E70438024000004742F8
:10222000800E4742007000400000FFFF70B5154669
:102230000E46040003D094F8490010B107E00120D5
:1022400070BD002084F84800204600F01AF804F120
:1022500008012068FEF708FE3146A2682068FEF7F4
:102260002DFED4E901022946236BFEF7DDFDA168AE
:10227000206850F8212042F0010240F8212000207F
:1022800070BDFFF75DBB4FF0E0210428086903D063
:1022900020F004000861704740F00400FAE710B530
:1022A000401EB0F1807F01D3012010BD4FF0E0242B
:1022B00060610F21601702F057F80020A06107202D
:1022C0002061002010BD70477047000070B590F885
:1022D0003C20012A32D0012480F83C40022280F8C0
:1022E0003D2003685A689D6822F070060A683243F0
:1022F0005A60134B02689A4214D0B2F1804F11D049
:10230000104B9A420ED0104B9A420BD00F4B9A4270
:1023100008D00F4B9A4205D00E4B9A4202D00E4B7A
:102320009A4204D1496825F080031943916080F8EE
:102330003D40002180F83C10084670BD022070BD71
:10234000000001400004004000080040000C004074
:1023500000040140004001400018004010B5040096
:1023600003D094F83D0010B107E0012010BD00201B
:1023700084F83C00204600F00DF8022084F83D006F
:10238000211D206801F088FE012084F83D00002016
:1023900010BD000008B500680B49884212D10B48F7
:1023A000016841F0020101600068002200F00200B3
:1023B000009011461D20FFF76DFCBDE808401D2070
:1023C000FFF75ABC08BD000000040040403802403E
:1023D0000168CA6842F00102CA600068816801F0C1
:1023E0000701062903D0016841F0010101600020C6
:1023F000704770B5044690F83C00012817D00125BD
:1024000084F83C50022084F83D002068826822F065
:10241000770222F47F4282600868502830D00DDCB9
:1024200020284DD005DC98B310283BD148E002208D
:1024300070BD302844D0402834D139E0602828D0FD
:10244000702806D0B0F5805F2CD0B0F5005F29D1A0
:102450000AE0CB68D1E90121206801F081FE206803
:10246000816841F0770109E0CB68D1E9012120685A
:1024700001F076FE2068816841F48041816011E0BE
:10248000CA684968206801F07DFE5021206807E095
:1024900016E0CA684968206801F085FE602120685E
:1024A00001F068FE84F83D50002084F83C0070BDC7
:1024B000CA684968206801F065FE40212068EFE79E
:1024C000226801461046EBE7704770B50446006885
:1024D00001694FF00005C943890715D4C168C94394
:1024E000890711D4E91E01610120207720688069E5
:1024F0008007204602D0FFF7E7FF04E000F098F8DD
:10250000204600F096F8257720680169C9434907FD
:1025100017D4C168C943490713D46FF0040101619E
:10252000022020772068806910F4407F204602D086
:10253000FFF7CAFF04E000F07BF8204600F079F8CE
:10254000257720680169C943090716D4C168C943C2
:10255000090712D46FF00801016104202077206878
:10256000C0698007204602D0FFF7AEFF04E000F00C
:102570005FF8204600F05DF8257720680169C943BF
:10258000C90617D4C168C943C90613D46FF0100136
:102590000161082020772068C06910F4407F204640
:1025A00002D0FFF791FF04E000F042F8204600F06F
:1025B00040F8257720680169C943C90708D1C16877
:1025C000C943C90704D1891E0161204600F032F8D1
:1025D00020680169C943090609D4C168C9430906CD
:1025E00005D46FF0800101612046FFF76CFE206882
:1025F0000169C943490609D4C168C943490605D4DC
:102600006FF040010161204600F03EF8206801694A
:10261000C94389060BD4C168C943890607D46FF042
:10262000200101612046BDE87040FFF74DBE70BD3E
:102630007047704710B50068104988421CD1104C93
:1026400000216068401C6060B0F57A7F02D30120F1
:10265000C4E90110E0680A2800D1E16008481030A0
:1026600000680849E26841F822000A21054800F0A4
:1026700074F8E068401CE06010BD000000040040F9
:10268000C80100204C020020704770B5040004D03F
:1026900094F83900002510B106E0012070BD84F8DF
:1026A0003850204600F022F8242084F839002068B1
:1026B000C16821F40051C160204601F09BFD2068F3
:1026C000016921F4904101612068416921F02A01EA
:1026D00041612068C16841F40051C160E563202078
:1026E00084F8390084F83A00002070BD10B586B037
:1026F000044614216846FDF79BFD14492068884272
:1027000021D113480021026842F0100202600068E3
:1027100000F0100005900E481438026842F00102E3
:102720000260006800F0010005904FF4C060009066
:102730000220CDE90101032003900720049069469F
:102740000448FFF753F906B010BD00000010014027
:102750004438024000000240FEE770B50023491EE5
:1027600011E05A1C0CE000EB820550F8226055F88D
:10277000044CA64206D245F8046C40F82240521E92
:10278000002AF0DC5B1C8B42EBDB70BD70B50A49A4
:102790000646002408884D8821464543204601F01E
:1027A0005BF901F01FFA4FF0D84001E04680641C4D
:1027B000AC42FBD370BD00000002002070B40D4994
:1027C0004FF430564FF428520E814FF42C534A8167
:1027D0004FF4F0744FF448758B8138B10D804C8004
:1027E0000120887170BC062001F0BEB80C804D80BD
:1027F0000020F6E7000200202DE9FE4F161ACDE971
:1028000000104FF000085D1A47464FF0FF30002ED1
:1028100002DD4FF0010102E003D14FF000018B46D1
:1028200002E08346C6F10006002D02DD4FF00100F4
:1028300002E003D14FF00000824602E08246C5F17B
:102840000005AE4201DD344600E02C46601C4FF02E
:102850000009029018E0009881B2019880B200F05F
:1028600047F8B0442F44A04504DD0198A8EB0408C4
:1028700058440190A74203DD00983F1B504400904C
:1028800009F101001FFA80F902998945E3DDBDE8ED
:10289000FE8F00002DE9FF4F144C8A464FF0000BCD
:1028A0000D9D8046A4F806B0A3EB0A0719E000BF0F
:1028B000A4F804B002990AEB0009A1EB08060AE0AB
:1028C000404435F8022B1FFA89F180B200F01EF85F
:1028D000A088401CA080A0888642F1DCE088401CD3
:1028E000E080E0888742E3DCBDE8FF8F0A0000203B
:1028F00000B501F0B1F801F075F903484FF0D84187
:102900000088488000BD00000A00002010B5144671
:1029100001F0A2F801F066F94FF0D840448010BDF4
:1029200070B5154C06460D46A088A0F5AA41103991
:102930001BD1608901F04FF9300A01F045F9608937
:10294000401C80B201F047F9F0B201F03DF9A089D6
:1029500001F041F9280A01F037F9A089401C80B242
:1029600001F039F9E8B201F02FF94FF0D840218990
:102970000180428070BD0000000200202DE9F05F60
:10298000322002F079F90121002001F033F93220E0
:1029900002F072F9002000F0DCFFFE4C0146A0803E
:1029A000FDA001F0BDFCA0884FF6FF75FF2801D304
:1029B000A8421DD14FF45A4001F00DF94FF0D84212
:1029C0005088A0804FF45B4001F005F9907805EA4B
:1029D0000020A0804FF45C4001F0FDF85088A188F1
:1029E0000843A080B0F5004F02D145F21050A080FE
:1029F0004FF02040D0F81C1121F00F01C0F81C113D
:102A0000D0F81C1121F47061C0F81C11D0F81C1111
:102A100041F00301C0F81C11D0F81C1141F4007101
:102A2000C0F81C11A188DFA001F07AFC55214FF4F9
:102A3000704001F0DFF84FF20103AA21184601F0BF
:102A4000D9F84FF202045221204601F0D3F8651C58
:102A50000821284601F0CEF8A61C0121304601F0DD
:102A6000C9F80D214FF4304001F0C4F80D214BF2AC
:102A7000010001F0BFF80D214BF2020001F0BAF89D
:102A80004FF436473421384601F0B4F83421781C2D
:102A900001F0B0F83421B81C01F0ACF84FF4314823
:102AA0000D21404601F0A6F84BF201190D214846D0
:102AB00001F0A0F80D214BF2021001F09BF84FF449
:102AC000374A3421504601F095F84BF2017B34210E
:102AD000584601F08FF834214BF2027001F08AF869
:102AE00000214FF4324001F085F800214BF2012023
:102AF00001F080F800214BF2022001F07BF8242144
:102B00004FF4384001F076F824214BF6010001F033
:102B100071F824214BF6020001F06CF801214FF40A
:102B20003F4001F067F80F214FF4334001F062F8A5
:102B30000F214BF2013001F05DF80F214BF2023012
:102B400001F058F834214FF4394001F053F83421A2
:102B50004BF6011001F04EF834214BF6021001F053
:102B600049F808214FF4354001F044F808214BF2B0
:102B7000015001F03FF808214BF2025001F03AF801
:102B800003214FF4424001F035F824214FF43A403C
:102B900001F030F824214BF6012001F02BF824211C
:102BA0004BF6022001F026F800214FF43C4001F0E2
:102BB00021F878214BF6014001F01CF800214BF67A
:102BC000024001F017F800214FF43D4001F012F8E7
:102BD00078214BF6015001F00DF800214BF6025020
:102BE00001F008F800214FF43E4001F003F86421A1
:102BF0004BF6016000F0FEFF00214FF4514000F061
:102C0000F9FF33214DF2011000F0F4FF00214DF2E5
:102C1000021000F0EFFF34214DF2031000F0EAFF44
:102C200000214DF2041000F0E5FF3A214DF20510AD
:102C300000F0E0FF00214DF2061000F0DBFF4A211A
:102C40004DF2071000F0D6FF00214DF2081000F001
:102C5000D1FF5C214DF2091000F0CCFF00214DF2B4
:102C60000A1000F0C7FF81214DF20B1000F0C2FFE7
:102C700000214DF20C1000F0BDFFA6214DF20D1009
:102C800000F0B8FF00214DF20E1000F0B3FFE52177
:102C90004DF20F1000F0AEFF01214DF2101000F0C8
:102CA000A9FF13214DF2111000F0A4FF01214DF2F4
:102CB000121000F09FFF54214DF2131000F09AFF04
:102CC00001214DF2141000F095FF82214DF21510F4
:102CD00000F090FF01214DF2161000F08BFFCA2189
:102CE0004DF2171000F086FF02214DF2181000F08F
:102CF00081FF00214DF2191000F07CFF02214DF2FE
:102D00001A1000F077FF01214DF21B1000F072FF46
:102D100002214DF21C1000F06DFF34214DF21D1008
:102D200000F068FF02214DF21E1000F063FF6721E2
:102D30004DF21F1000F05EFF02214DF2201000F056
:102D400059FF84214DF2211000F054FF02214DF271
:102D5000221000F04FFFA4214DF2231000F04AFF93
:102D600002214DF2241000F045FFB7214DF225104D
:102D700000F040FF02214DF2261000F03BFFCF2172
:102D80004DF2271000F036FF02214DF2281000F01E
:102D900031FF0DE0000200204441542049443A250F
:102DA000780D0A004C43442049443A25780D0A0026
:102DB000DE214DF2291000F01DFF02214DF22A10F4
:102DC00000F018FFF2214DF22B1000F013FF02214A
:102DD0004DF22C1000F00EFFFE214DF22D1000F0F0
:102DE00009FF03214DF22E1000F004FF10214DF2D7
:102DF0002F1000F0FFFE03214DF2301000F0FAFE1C
:102E000033214DF2311000F0F5FE03214DF2321066
:102E100000F0F0FE6D214DF2331000F0EBFE0021CA
:102E20004FF4524000F0E6FE33214DF2012000F055
:102E3000E1FE00214DF2022000F0DCFE34214DF2D3
:102E4000032000F0D7FE00214DF2042000F0D2FE56
:102E50003A214DF2052000F0CDFE00214DF2062072
:102E600000F0C8FE4A214DF2072000F0C3FE002109
:102E70004DF2082000F0BEFE5C214DF2092000F06A
:102E8000B9FE00214DF20A2000F0B4FE81214DF27E
:102E90000B2000F0AFFE00214DF20C2000F0AAFE46
:102EA000A6214DF20D2000F0A5FE00214DF20E20CE
:102EB00000F0A0FEE5214DF20F2000F09BFE012165
:102EC0004DF2102000F096FE13214DF2112000F07B
:102ED00091FE01214DF2122000F08CFE54214DF2A2
:102EE000132000F087FE01214DF2142000F082FE35
:102EF00082214DF2152000F07DFE01214DF21620B9
:102F000000F078FECA214DF2172000F073FE022176
:102F10004DF2182000F06EFE00214DF2192000F055
:102F200069FE02214DF21A2000F064FE01214DF2EB
:102F30001B2000F05FFE02214DF21C2000F05AFE23
:102F400034214DF21D2000F055FE02214DF21E20CD
:102F500000F050FE67214DF21F2000F04BFE0221D1
:102F60004DF2202000F046FE84214DF2212000F099
:102F700041FE02214DF2222000F03CFEA4214DF240
:102F8000232000F037FE02214DF2242000F032FE13
:102F9000B7214DF2252000F02DFE02214DF2262012
:102FA00000F028FECF214DF2272000F023FE022161
:102FB0004DF2282000F01EFEDE214DF2292000F007
:102FC00019FE02214DF22A2000F014FEF2214DF2EA
:102FD0002B2000F00FFE02214DF22C2000F00AFE03
:102FE000FE214DF22D2000F005FE03214DF22E2092
:102FF00000F000FE10214DF22F2000F0FBFD032118
:103000004DF2302000F0F6FD33214DF2312000F07A
:10301000F1FD03214DF2322000F0ECFD6D214DF267
:10302000332000F0E7FD00214FF4534000F0E2FDB3
:1030300033214DF2013000F0DDFD00214DF2023070
:1030400000F0D8FD34214DF2033000F0D3FD002113
:103050004DF2043000F0CEFD3A214DF2053000F083
:10306000C9FD00214DF2063000F0C4FD4A214DF2A9
:10307000073000F0BFFD00214DF2083000F0BAFD2E
:103080005C214DF2093000F0B5FD00214DF20A300F
:1030900000F0B0FD81214DF20B3000F0ABFD0021BE
:1030A0004DF20C3000F0A6FDA6214DF20D3000F0DF
:1030B000A1FD00214DF20E3000F09CFDE5214DF206
:1030C0000F3000F097FD01214DF2103000F092FD1D
:1030D00013214DF2113000F08DFD01214DF212301F
:1030E00000F088FD54214DF2133000F083FD0121E2
:1030F0004DF2143000F07EFD82214DF2153000F0CB
:1031000079FD01214DF2163000F074FDCA214DF217
:10311000173000F06FFD02214DF2183000F06AFD0B
:1031200000214DF2193000F065FD02214DF21A30F8
:1031300000F060FD01214DF21B3000F05BFD02212B
:103140004DF21C3000F056FD34214DF21D3000F0E0
:1031500051FD02214DF21E3000F04CFD67214DF271
:103160001F3000F047FD02214DF2203000F042FDFB
:1031700084214DF2213000F03DFD02214DF222303C
:1031800000F038FDA4214DF2233000F033FD022180
:103190004DF2243000F02EFDB7214DF2253000F025
:1031A00029FD02214DF2263000F024FDCF214DF201
:1031B000273000F01FFD02214DF2283000F01AFDEB
:1031C000DE214DF2293000F015FD02214DF22A30AA
:1031D00000F010FDF2214DF22B3000F00BFD02212A
:1031E0004DF22C3000F006FDFE214DF22D3000F0A6
:1031F00001FD03214DF22E3000F0FCFC10214DF2B8
:103200002F3000F0F7FC03214DF2303000F0F2FCDB
:1032100033214DF2313000F0EDFC03214DF232301C
:1032200000F0E8FC6D214DF2333000F0E3FC0021AA
:103230004FF4544000F0DEFC33214DF2014000F029
:10324000D9FC00214DF2024000F0D4FC34214DF2B3
:10325000034000F0CFFC00214DF2044000F0CAFC16
:103260003A214DF2054000F0C5FC00214DF2064028
:1032700000F0C0FC4A214DF2074000F0BBFC0021E9
:103280004DF2084000F0B6FC5C214DF2094000F020
:10329000B1FC00214DF20A4000F0ACFC81214DF25E
:1032A0000B4000F0A7FC00214DF20C4000F0A2FC06
:1032B000A6214DF20D4000F09DFC00214DF20E4084
:1032C00000F098FCE5214DF20F4000F093FC012145
:1032D0004DF2104000F08EFC13214DF2114000F031
:1032E00089FC01214DF2124000F084FC54214DF282
:1032F000134000F07FFC01214DF2144000F07AFCF5
:1033000082214DF2154000F075FC01214DF216406E
:1033100000F070FCCA214DF2174000F06BFC022156
:103320004DF2184000F066FC00214DF2194000F00B
:1033300061FC02214DF21A4000F05CFC01214DF2CB
:103340001B4000F057FC02214DF21C4000F052FCE3
:1033500034214DF21D4000F04DFC02214DF21E4083
:1033600000F048FC67214DF21F4000F043FC0221B1
:103370004DF2204000F03EFC84214DF2214000F04F
:1033800039FC02214DF2224000F034FCA4214DF220
:10339000234000F02FFC02214DF2244000F02AFCD3
:1033A000B7214DF2254000F025FC02214DF22640C8
:1033B00000F020FCCF214DF2274000F01BFC022141
:1033C0004DF2284000F016FCDE214DF2294000F0BD
:1033D00011FC02214DF22A4000F00CFCF2214DF2CA
:1033E0002B4000F007FC02214DF22C4000F002FCC3
:1033F000FE214DF22D4000F0FDFB03214DF22E4049
:1034000000F0F8FB10214DF22F4000F0F3FB0321F8
:103410004DF2304000F0EEFB33214DF2314000F030
:10342000E9FB03214DF2324000F0E4FB6D214DF247
:10343000334000F0DFFB00214FF4554000F0DAFB91
:1034400033214DF2015000F0D5FB00214DF2025026
:1034500000F0D0FB34214DF2035000F0CBFB0021F3
:103460004DF2045000F0C6FB3A214DF2055000F039
:10347000C1FB00214DF2065000F0BCFB4A214DF289
:10348000075000F0B7FB00214DF2085000F0B2FBEE
:103490005C214DF2095000F0ADFB00214DF20A50C5
:1034A00000F0A8FB81214DF20B5000F0A3FB00219E
:1034B0004DF20C5000F09EFBA6214DF20D5000F095
:1034C00099FB00214DF20E5000F094FBE5214DF2E6
:1034D0000F5000F08FFB01214DF2105000F08AFBDD
:1034E00013214DF2115000F085FB01214DF21250D5
:1034F00000F080FB54214DF2135000F07BFB0121C2
:103500004DF2145000F076FB82214DF2155000F080
:1035100071FB01214DF2165000F06CFBCA214DF2F7
:10352000175000F067FB02214DF2185000F062FBCB
:1035300000214DF2195000F05DFB02214DF21A50AE
:1035400000F058FB01214DF21B5000F053FB02210B
:103550004DF21C5000F04EFB34214DF21D5000F096
:1035600049FB02214DF21E5000F044FB67214DF251
:103570001F5000F03FFB02214DF2205000F03AFBBB
:1035800084214DF2215000F035FB02214DF22250F2
:1035900000F030FBA4214DF2235000F02BFB022160
:1035A0004DF2245000F026FBB7214DF2255000F0DB
:1035B00021FB02214DF2265000F01CFBCF214DF2E1
:1035C000275000F017FB02214DF2285000F012FBAB
:1035D000DE214DF2295000F00DFB02214DF22A5060
:1035E00000F008FBF2214DF22B5000F003FB02210A
:1035F0004DF22C5000F0FEFAFE214DF22D5000F05D
:10360000F9FA03214DF22E5000F0F4FA10214DF298
:103610002F5000F0EFFA03214DF2305000F0EAFA9B
:1036200033214DF2315000F0E5FA03214DF23250D2
:1036300000F0E0FA6D214DF2335000F0DBFA00218A
:103640004FF4564000F0D6FA33214DF2016000F0FD
:10365000D1FA00214DF2026000F0CCFA34214DF293
:10366000036000F0C7FA00214DF2046000F0C2FAD6
:103670003A214DF2056000F0BDFA00214DF20660DE
:1036800000F0B8FA4A214DF2076000F0B3FA0021C9
:103690004DF2086000F0AEFA5C214DF2096000F0D6
:1036A000A9FA00214DF20A6000F0A4FA81214DF23E
:1036B0000B6000F09FFA00214DF20C6000F09AFAC6
:1036C000A6214DF20D6000F095FA00214DF20E603A
:1036D00000F090FAE5214DF20F6000F08BFA012125
:1036E0004DF2106000F086FA13214DF2116000F0E7
:1036F00081FA01214DF2126000F07CFA54214DF262
:10370000136000F077FA01214DF2146000F072FAB4
:1037100082214DF2156000F06DFA01214DF2166024
:1037200000F068FACA214DF2176000F063FA022136
:103730004DF2186000F05EFA00214DF2196000F0C1
:1037400059FA02214DF21A6000F054FA01214DF2AB
:103750001B6000F04FFA02214DF21C6000F04AFAA3
:1037600034214DF21D6000F045FA02214DF21E6039
:1037700000F040FA67214DF21F6000F03BFA022191
:103780004DF2206000F036FA84214DF2216000F005
:1037900031FA02214DF2226000F02CFAA4214DF200
:1037A000236000F027FA02214DF2246000F022FA93
:1037B000B7214DF2256000F01DFA02214DF226607E
:1037C00000F018FACF214DF2276000F013FA022121
:1037D0004DF2286000F00EFADE214DF2296000F073
:1037E00009FA02214DF22A6000F004FAF2214DF2AA
:1037F0002B6000F0FFF902214DF22C6000F0FAF985
:10380000FE214DF22D6000F0F5F903214DF22E60FE
:1038100000F0F0F910214DF22F6000F0EBF90321D8
:103820004DF2306000F0E6F933214DF2316000F0E6
:10383000E1F903214DF2326000F0DCF96D214DF227
:10384000336000F0D7F95521A01E00F0D3F9AA216A
:10385000184600F0CFF95221204600F0CBF908219C
:10386000284600F0C7F90021304600F0C3F9CC210A
:10387000404600F0BFF90021484600F0BBF90521A1
:10388000384600F0B7F97021504600F0B3F97021C6
:10389000584600F0AFF901214FF4384000F0AAF982
:1038A00003214BF6010000F0A5F903214BF60200BD
:1038B00000F0A0F903214BF6030000F09BF9022170
:1038C0004FF43C4000F096F900214BF6014000F027
:1038D00091F900214BF6024000F08CF9D0214FF411
:1038E000494000F087F902214CF6011000F082F9FE
:1038F00050214CF6021000F07DF950214CF60310D7
:1039000000F078F950214CF6041000F073F94FF4F0
:1039100054530021184600F06DF90021184600F0BC
:1039200069F955214FF4685000F064F94FF488505C
:1039300000F051F9A02001F0ADF94FF4245000F04F
:103940004AF90120FEF73AFFBDE8F05F0020FEF7DC
:103950001DBF10B500F03FF9052001F09BF94FF0B5
:10396000D840408810BD000010B53A4C0023A18813
:10397000A1F5AA42103A6CD1082812D2DFE800F073
:10398000110406080A0C0E1080230AE0402308E008
:10399000C02306E0202304E0602302E0A02300E02F
:1039A000E0234FF45850194600F024F99806208877
:1039B000618802D5884202D303E0884201D9218080
:1039C0006080608900F007F9002000F0FDF8608950
:1039D000401C80B200F0FFF8002000F0F5F860898C
:1039E000801C80B200F0F7F82088401EC0F30F2042
:1039F00000F0EAF86089C01C80B200F0ECF8207892
:103A0000401EC0B200F0E0F8A08900F0E4F8002009
:103A100000F0DAF8A089401C80B200F0DCF8002049
:103A200000F0D2F8A089801C80B200F0D4F8608841
:103A3000401EC0F30F2000F0C7F8A089C01C80B260
:103A400000F0C9F8A078BDE81040401EC0B200F0F8
:103A5000BBB810BD0002002030B5104A05460C4628
:103A6000508900F0B8F8280A00F0AEF85089401CE0
:103A700080B200F0B0F8E8B200F0A6F8908900F04B
:103A8000AAF8200A00F0A0F89089401C80B200F04B
:103A9000A2F8E0B2BDE8304000F096B80002002085
:103AA0002DE9FF4F1D460C468A46580700D00120DD
:103AB00000EBD500690810FB01F0203A00F0FF0987
:103AC000D0B20026DFF898B0029044E00C2D11D05F
:103AD000102D14D0182D40D10298224900EBC000BF
:103AE00001EB80004FF00008875D38060CD51E48BA
:103AF00002880DE002981D4900EB4000F0E71C49E8
:103B0000029801EB0010EDE70D9828B9164842889D
:103B100021460098FEF704FF7806070E641CBBF8E8
:103B20000200A4B2A04218D9A4EB0A00A84209D10D
:103B300000985446401C80B20090BBF800108142AF
:103B40000BD906E008F1010000F0FF08B8F1080FFA
:103B5000CBD3761CF6B24E45B8D3BDE8FF8F00003C
:103B600000020020725C00080A0000200E520008CB
:103B7000825600082DE9F84F044600F0FF0910199D
:103B80000D46DDE90AB61FFA80F8581987B24FF0E2
:103B9000000A12E0444503D305EB0B004C4685B206
:103BA000BD420FD25B4629462046CDF800A0FFF764
:103BB00077FF04EB5B0084B2761C3278A2F1200020
:103BC0005E28E7D9BDE8F88F08B5002100914FF0D5
:103BD000D841488008BD08B5002100914FF0D84178
:103BE000088008BD02484FF0D8410089088070471E
:103BF000000200204FF0D842108051807047000032
:103C00001FB500211648009101910291134A0391BA
:103C100002604FF48032C0E9012101240161047681
:103C200080F820100F4AC0E90A21C461C16080F801
:103C300030404461FDF7EFFB08B1FDF7F4F80820D0
:103C4000CDE900040520029069460548FDF73AFBDE
:103C5000002801D0FDF7E7F81FBD00000022014059
:103C6000740200200100000F094808B5016841F402
:103C7000800101600068002200F48000009011467D
:103C80003820FEF707F8BDE808403820FDF7F4BFFC
:103C90003038024000B587B01C216846FCF7C8FAEE
:103CA00016484FF02041102201601549416006215D
:103CB00081600021C160C0E904128161C161130209
:103CC0000162C0E90913C162016341638163416418
:103CD000092000900F20019002AB082083E8070024
:103CE0001120CDE90501002269460448FEF79EFA3D
:103CF000002801D0FDF797F807B000BD1C03002095
:103D0000040100A02DE9F04786B014216846FCF7B5
:103D10008FFA38480024016841F010010160016801
:103D200001F010010591016841F040010160016856
:103D300001F040010591016841F00801016001684E
:103D400001F008010591016841F0800101600168FE
:103D500001F080010591016841F0010101600168F5
:103D600001F001010591016841F020010160016845
:103D700001F020010591016841F002010160006835
:103D8000DFF8748000F002000590002240214046D8
:103D9000FDF70DFFDFF864904AF208060022314675
:103DA0004846FDF704FFDFF858A04FF440470022D3
:103DB00039465046FDF7FBFE402000900125CDE935
:103DC0000154694640460394FDF710FE0096CDE984
:103DD0000154694648460394FDF708FE0097CDE973
:103DE0000154694650460394FDF700FE06B0BDE855
:103DF000F08700003038024000100240001C0240F2
:103E00000004024010B586B00024174800940194C5
:103E10000294039404941349059401605321C0E96A
:103E200001144FF47A71C0E903148461FEF796FA25
:103E300008B1FCF7F8FF4FF48050009069460A483B
:103E4000FEF7D7FA08B1FCF7EEFF049404A9064880
:103E50000594FEF73BFA002801D0FCF7E4FF06B01A
:103E600010BD0000000400406C0300200C4810B599
:103E70000A4901604FF4E1314160002181600C2268
:103E8000C160C0E904128161C161FEF7FEFB002838
:103E900003D0BDE81040FCF7C6BF10BD00100140C4
:103EA000AC030020FEE77047704770472DE9FC47E0
:103EB00029484FF6FF76DFF8A49006804FF480483B
:103EC000012241464846FDF772FE254F0122082196
:103ED0003846FDF76CFE6420FDF720FD214C21687B
:103EE00021A000F01DFA20681825B0EB261128D07B
:103EF00021A0CDE900501823F02228211420FFF73B
:103F000039FE002208213846FDF751FE6420FDF7F6
:103F100005FD21681DA000F003FA2068B0B11FA0C4
:103F2000CDE900501823F02250211420FFF722FE83
:103F3000002241464846FDF73AFE1D480680BDE88E
:103F4000FC871CA000F0ECF91EA0D2E719A000F03D
:103F5000E7F920A0E4E700000A0000200004024086
:103F6000001C0240D80100204144435F4220313A06
:103F70002025640A0000000053656C6620436865D4
:103F8000636B204552524F52203100004144435F41
:103F90004220303A2025640A0000000053656C6618
:103FA00020436865636B204552524F522030000019
:103FB0000C00002053656C6620436865636B204FDE
:103FC0004B00000053656C6620436865636B204FAF
:103FD0004B20310053656C6620436865636B204F4E
:103FE0004B203000FDF7EEBD30B593B03021684670
:103FF000FCF71EF914210CA8FCF71AF91A48002541
:10400000016841F080510160006800F0805011901B
:104010001648016841F4804101600068022400F400
:104020008040119001200090000401908001CDE9B2
:104030000640192008904FF4A870CDE90904042027
:104040000B906846FDF744FF0CA90F2081E8310072
:104050004FF4A0500F90E002109005210CA8FDF73E
:104060004BFE13B030BD00004038024000700040ED
:104070000548016841F47001016003494FF0006098
:10408000803908607047000088ED00E00148FEF7C5
:104090001CBA00006C030020F0B50268254C264DC8
:1040A000264E274F274B4FF0804CA04209D0604549
:1040B00007D0A84205D0B04203D0B84201D0984200
:1040C00004D122F0700E4A6842EA0E02A0421BD0D0
:1040D000604519D0A84217D0B04215D0B84213D0CD
:1040E000984211D0184DA8420ED0184DA8420BD0BE
:1040F000174DA84208D0174DA84205D0164DA8422A
:1041000002D0164DA84203D122F44075CA682A4352
:104110004D6922F080022A4302608A68C2620A68FE
:104120008262A04201D0984201D109690163012154
:104130004161F0BD00000140000400400008004063
:10414000000C0040000401400040014000440140D8
:104150000048014000180040001C004000200040C2
:1041600010B5846842EA032224F47F440A432243C0
:10417000826010BD826822F070020A4342F007019B
:104180008160704710B5036A046A24F00104046278
:10419000846924F0F00444EA021423F00A020A437A
:1041A0008461026210BD10B5036A23F0100303623C
:1041B0008369046A23F4704343EA023224F0A003C3
:1041C00043EA01118261016210BD000010B5FCF7E5
:1041D00097FE0649064A11F8240F927940F08000B4
:1041E00002F0010210430870002010BD10020020F0
:1041F000000200202DE9F041044600680169E268F0
:1042000021F44051114301612169A068E26908432A
:104210006169114308432168CA6849F20C639A43F3
:104220000243CA6020684169A26921F440711143C8
:104230004161E069192764253226B0F5004F354AFF
:10424000354920684FF0000806D0884201D09042DE
:1042500036D1FDF7FBFD35E0884201D0904202D116
:10426000FDF7F4FD01E0FDF7E1FD61684A18A0FBF0
:10427000070148EB0803FBF7A3FF0146B0FBF5F08D
:104280000201B1FBF5F06FF01803584301EB800019
:1042900006EBC000B0FBF5F000F0F80002EB4002C6
:1042A000B1FBF5F0584301EB800006EBC000B0FB1A
:1042B000F5F000F00700216810448860BDE8F08147
:1042C000FDF7B4FD61688B0F8A00A0FB0701FBF7C7
:1042D00077FF0146B0FBF5F06FF01802504301EB99
:1042E000800006EB0010B0FBF5F000F0F002B1FB2F
:1042F000F5F002EB0012B1FBF5F06FF01803584334
:1043000001EB800006EB0010B0FBF5F000F00F00B1
:10431000D1E700000014014000100140FEE700005A
:104320000FB4054B10B503A9044A029800F0FEF83B
:1043300010BC5DF814FB0000C94C0008FC01002013
:104340000FB4084B10B504A902AA039800F0EEF8C8
:10435000044602A9002000F080FC204610BC5DF855
:1043600014FB00005B4C00080907090E002804DB61
:1043700000F1E02080F80014704700F00F0000F119
:10438000E02080F8141D704702E008C8121F08C121
:10439000002AFAD170477047002001E001C1121FC6
:1043A000002AFBD1704700002DE9FF5F82B0002199
:1043B000DDE90430020DDDF840B0034318D044F6C7
:1043C0001050A2F2FF3242431514119801281FD059
:1043D000A5EB0B00401C5FEA000A4FF000064E4FB1
:1043E000DFF83891B046504615D5CAF1000413E005
:1043F000119801244AA3012801D16FEA0B01029808
:10440000119AC0E90031C0E9024206B0BDE8F09F50
:10441000CBF10000DFE704460021404A491842EB97
:104420000450CDE9001012E0E00707D032463B46C9
:1044300040464946FBF7BCFF8046894632463B462C
:1044400010461946FBF7B4FF06460F466410002CD1
:10445000EAD1DDE90401DDE90023BAF1000F06DA53
:10446000FBF7A6FF42464B46FBF7A2FF05E0FCF731
:1044700011F842464B46FCF70DF804460E46002262
:10448000284BFCF7A9F903D84FF0FF30014607E0AD
:104490000022254B20463146FBF7E3FEFCF784F96A
:1044A000102409E0002C0ADB0A220023FBF788FE17
:1044B000039B30321A55641E50EA0102F2D1641C8B
:1044C000039AC4F111031444119A012A03D0012262
:1044D00008430DD10AE0084304D000204FF0110B2F
:1044E000119072E7A3EB0B056D1E0DE05B4504DD3B
:1044F0004FF0000205F1010504E003DA4FF000027D
:10450000A5F10105002AECD002981199C0E9023109
:10451000C0E9004579E70000000014400000F03FCA
:10452000300000000000F0430000E03F2DE9FF4FA5
:1045300095B09B468946064600250FE2252877D18F
:1045400000242746F84A0121059400E0044316F8A8
:10455000013F203B01FA03F01042F7D130782A28BE
:1045600011D06FF02F033078A0F13002092A16D84D
:10457000059A44F0020402EB820203EB420210446B
:10458000761C0590EFE759F8042B0592002A03DA10
:10459000504244F40054059044F00204761C3078F4
:1045A0002E2816D116F8010F44F004042A280DD045
:1045B0006FF02F023078A0F13003092B09D807EBF8
:1045C000870302EB4303C718761CF3E759F8047B13
:1045D000761C30786C280FD006DC4C2817D0682861
:1045E0000DD06A2814D104E0742810D07A280FD195
:1045F0000DE044F400140AE044F4801401E044F4B3
:1046000040147278824202D104F58014761C761C24
:10461000307866280BD013DC582877D009DC0028C6
:1046200075D04528F6D04628F4D047281AD19DE108
:1046300018E0632835D0642879D0652812D195E137
:10464000702873D008DC6728F1D069286FD06E28F5
:104650000DD06F2806D1B5E073282CD0752875D001
:10466000782874D05A46179990476D1C75E1C4F3A9
:104670000250022809D003280DD0D9F800100428D0
:104680000DD00D6009F1040967E1D9F80010EA17AF
:10469000C1E90052F6E7D9F800100D80F2E70D707D
:1046A000F0E719F8041B8DF8001000208DF80100C8
:1046B000EA46012003E059F804AB4FF0FF306107F0
:1046C0004FF0000102D40DE008F101018846B94223
:1046D0000FDA8045F8DB1AF808100029F4D108E059
:1046E00008F1010188468142FADB1AF80810002916
:1046F000F6D105985B46A0EB080721463846179A85
:1047000000F094FA284400EB080507E04DE029E1A9
:104710000DE01AF8010B5A4617999047B8F10108B5
:10472000F7D25B4621463846179A13E142E00A2247
:104730000092C4F302524FF0000A022A08D059F83E
:1047400004CB032A4FEAEC710AD00DE029E02AE0FD
:1047500009F1070121F00702F2E802C1914609E0E0
:104760000FFA8CFC4FEAEC71042A03D14FFA8CFC4F
:104770004FEAEC71002907DA0A460021DCF1000C4F
:1047800061EB02012D2202E0220504D52B228DF8D7
:104790000420012203E0E20701D02022F7E790463F
:1047A00059E00A2102E010220DE010214FF0000A2A
:1047B00000910BE010224FF0000A44F00404082797
:1047C000009203E008224FF0000A0092C4F3025264
:1047D000022A05D059F804CB0021032A08D009E0A9
:1047E00009F1070121F00702F2E802C1914605E054
:1047F0001FFA8CFC042A01D10CF0FF0C4FF00008CA
:10480000220728D5702806D0009B83F0100353EAB6
:104810000A0305D00EE040228DF80420012208E0B2
:104820005CEA010206D030228DF804208DF80500E4
:1048300002229046009B83F0080353EA0A030AD140
:104840005CEA010201D1620705D530228DF804200F
:104850004FF001087F1E582804D034A003900EA802
:1048600002900DE036A0F9E753466046009AFBF748
:10487000A7FC84460398825C0298401E0290027056
:104880005CEA0100F0D1029806A9081A00F1200A9A
:10489000600702D524F4803400E00127574502DD8B
:1048A000A7EB0A0000E0002000EB0A010090059849
:1048B0004144401A0590E00306D45B462146179A0E
:1048C000059800F0B3F90544002706E001A85A4610
:1048D000C05D179990476D1C7F1C4745F6DBE003D0
:1048E0000CD55B462146179A059800F09FF90544C0
:1048F00004E030205A46179990476D1C0099481ED5
:1049000000900029F5DC08E0029802995A460078E8
:10491000491C0291179990476D1CBAF10001AAF148
:10492000010AF1DC65E10000092801003031323371
:1049300034353637383961626364656600000000DB
:1049400030313233343536373839414243444546C5
:104950000000000000F058F90544761C307800286B
:104960007FF4ECAD19B02846BDE8F08F620700D4A3
:10497000062709F1070222F0070CFCE80223E146B2
:1049800003F000485FEA080C02D00FF2702C0DE033
:104990005FEA045C02D50FF2682C07E05FEAC47C92
:1049A00002D00FF2602C01E0AFF2700C4FF0FF3834
:1049B00023F00043CDF850C065280CD006DC452814
:1049C00009D046281DD047283DD13DE0662818D0A3
:1049D00067287ED138E00021112F01DB112000E093
:1049E000781CCDE9000106A90EA8FFF7DDFCDDE982
:1049F0000F010E9A03910021009207F1010A049120
:104A00004DE04FF000400097CDE9011006A90EA837
:104A1000FFF7CAFCDDE90F0203920E9B11990022F9
:104A2000DDF80CA00093049211B9791C00EB010A87
:104A3000B7EB0A0004D4C0F1FF3007F1010A04907B
:104A4000AAEB0700019044E0012F00DA01270021C2
:104A5000112F01DD112000E03846CDE9000106A943
:104A60000EA8FFF7A1FCDDE90F010E9A03910021CA
:104A700004910092BA4621070CD40399514500DAFB
:104A80008A46BAF1010F05DD009AAAF10101515CD5
:104A9000302908D0B84202DA10F1040F06DA0121F9
:104AA000CDE9011015E0AAF10101E9E7002805DCD4
:104AB000049901440491AAEB000102E0411C514514
:104AC00000DD8A460499401A401C01904FF00040D6
:104AD0000290200704D40198504501DBCDF80480F2
:104AE00000208DF84F0002980DF14F07B0F1004FF4
:104AF00025D02B200E9002984FF0020800280CDAE7
:104B0000404202902D200E9007E00A210298FBF708
:104B100070FD3031029007F8011DB8F10001A8F1D5
:104B20000108F2DC02980028EFD1791E0E98087077
:104B3000307800F0200040F0450007F8020D12A880
:104B4000C01B00F107081498007800B1012000EBA9
:104B50000A01019801EBE07105984144401A401E9A
:104B60000590E00306D45B462146179A059800F0AD
:104B70005DF805441498007818B15A461799904783
:104B80006D1CE00324D55B462146179A059800F07A
:104B90004DF805441CE00498002807DBDDE903011B
:104BA000884203DD0098405C179901E01799302096
:104BB0005A469047049805F10105401C049001985D
:104BC000401E019004D12E205A46179990476D1C23
:104BD000BAF10001AAF1010ADDDC05E017F8010BCA
:104BE0005A46179990476D1CB8F10001A8F10108C9
:104BF000F4DC5B462146179A0598ABE62D000000D1
:104C00002B000000200000002DE9F04104460025A3
:104C10001E461746880404D405E039462020B047D4
:104C20006D1C641EF9D52846BDE8F0812DE9F041E0
:104C3000044600251E469046C80301D5302700E0F3
:104C40002027880404D505E041463846B0476D1C4E
:104C5000641EF9D52846BDE8F0810A68531C0B6034
:104C60001070704710B504460420FDF70CFB014896
:104C7000047010BD0000002070B5054600244FF4FC
:104C80007A7603E0304600F005F8641CAC42F9D3B4
:104C900070BD000070B54FF0E0240022656909493D
:104CA000A36909784843A1699942FCD002D2A3EBD9
:104CB000010302E0A5EB010633441A440B4682428D
:104CC000F1D370BD0000002003490A685206FCD5EC
:104CD000C2B24A60704700000010014008B5FCF7FE
:104CE00079FFFFF781F9FFF70DF8FEF7BDFFFEF73B
:104CF00087FFFEF7CFFFFFF785F8FFF7B7F8A8208B
:104D0000FFF7B0FFFDF73AFEFFF760FA01223849DE
:104D10003848FCF7F9FBFFF7C9F84FF47A70FCF755
:104D2000FDFD3548002100904FF4F0734FF44872B8
:104D30000846FDF7AFFD3148FDF74AFB4FF4004B45
:104D4000012259462E48FCF732FF2E49284C4FF4D9
:104D500078402D4D2D4E08804FF4B4784FF4D87A1A
:104D60004FF00009103C4FF6FF770020FCF796F952
:104D700028880B386E281FD8308840451CD35045F2
:104D80001AD2206840B1002259461D48C4F800904C
:104D9000FCF70DFF1E4807E001200246206059463F
:104DA0001748FCF704FF1B48009040F2AF137A222B
:104DB00041460B20FDF76EFD2888A2386F280DD8DC
:104DC000308840450AD3504508D285234FF43972C4
:104DD0004FF4E1714FF4BA70FDF70EFDA0680128A1
:104DE00003D1C4F8089000F017F82F803780BCE793
:104DF000D801002074020020CE6900086C03002056
:104E0000000402400A0000200600002008000020E4
:104E1000CE210C08605F0C087CB59E48F5EE000AB8
:104E20009D4CD0E903121144D0E9052010440844F8
:104E300000EE100AB8EE400A20EE200A84ED000AC7
:104E400010EE100AFBF7A6FB41EC100B93A053ECFD
:104E5000102BFFF765FA2068FBF79CFB9FED931B77
:104E600053EC112BFBF7A4FA9FED921B53EC112B83
:104E7000FBF79EFAFBF7A1FB00EE900A8F4C9FED2B
:104E8000901A80EE810A84ED050AD4ED022AD4ED51
:104E9000031A94ED042A32EEA11A61EE020A60EEC2
:104EA000803AD4ED060A21EE000A83EEA03A80EEA5
:104EB000201A01EE823A72EEC10A83EE200A10EE49
:104EC000100AFBF767FB9FED7F1B53EC112BFBF7E1
:104ED00069FAFBF772FB6060FBF75CFB41EC100BBF
:104EE0007AA053EC102BFFF71BFA04F1240194ED88
:104EF000010AD1ED000AF4EEC00AF1EE10FA06DC68
:104F0000D1ED630AF4EEC00AF1EE10FA04D2BDE866
:104F10007C4071A0FFF704BA5FF0000001EB800253
:104F2000D2ED000AF4EEC00AF1EE10FA7DD2D2ED15
:104F3000010AF4EEC00AF1EE10FA76DD01EB800111
:104F4000D2ED001A91ED011A71EE400A30EE610ABD
:104F5000FDEEE00AF8EEE00AB4EEE00AF1EE10FA37
:104F600003DD84ED071A133802E0C4ED071A143884
:104F70002062E069FBF70EFB41EC100B206A009009
:104F800053EC102B57A0FFF7CBF9E069FBF702FBBE
:104F900041EC100B5CA153EC102B5D48FFF7D0F9EE
:104FA0005B485CA10A38226AFFF7CAF958481825FD
:104FB000CDE900502B46C82289218020FEF7DAFD7A
:104FC000534818230A38CDE90050C822F0218C201C
:104FD000FEF7D0FD206AFBF7CCFA9FED501B53EC97
:104FE000112BFBF73EF99FED4F1B53EC112BFBF7F9
:104FF000DFF99FED4E1B53EC112BFBF74BFAFBF740
:10500000DCFA00EE100ADFED4B0A30EEC00ABCEE0F
:10501000C00A10EE100A85B26580E069FBF7BAFAA3
:105020009FED451B53EC112B00E02EE0FBF7BAF986
:105030009FED431B53EC112BFBF7BAF9FBF7BDFABD
:1050400000EE100ADFED400A294630EE200ABCEEE1
:10505000C00A10EE100A80B22080FDF749FC60887B
:10506000401C81B22088FDF743FC20886188401CE9
:1050700080B2FDF73DFC6088401C81B22088BDE80D
:105080007C40401C80B2FDF733BC401C6428FFF616
:1050900045AF7CBD4C020020E00100204144435F4D
:1050A00076616C7565203A2025660A00666666663C
:1050B00066660A40000000000000303F1400002037
:1050C0000000494366666666666614405278203D75
:1050D0002025660A000000005278204552524F52A7
:1050E0000A00000052785F76616C7565203D2025CE
:1050F0002E303266202C74656D705F76616C75653C
:10510000203D2025640A0000252E30326600000074
:105110004202002020256420000000000000000062
:105120000000344000000000000059400000000072
:1051300000003E400000E1430000000000805640B7
:1051400000000000000024400000AF4360E00120A8
:105150000305350002081E08503C0F050000FF67DC
:10516000500000181A1E1489280A302EBB0A0300AA
:105170000002331D000000000000003200002A1C65
:105180005A94C50207000000B51F0090280077322E
:1051900000623F005250005200000000000000007A
:1051A0000000000000000000000000000000000FF0
:1051B0000F03061042F80F14000000001A1816140E
:1051C00012100E0C0A080000000000000000000091
:1051D0000000000000000000000029282422201FF9
:1051E0001E1D0E0C0A080605040200FF0000000048
:1051F00000000000000000FFFFFFFFFFFFFFFFFFB8
:10520000FFFFFFFF5081588160816881708100003D
:10521000000000000000000000000000040404047E
:1052200004040004000000140A0A0000000000004A
:105230000000000014143F140A3F0A0A0000000492
:105240001E1505060C14150F0400000012150D0A9A
:10525000142C2A1200000000040A0A1E1515093633
:105260000000000202010000000000000000002019
:1052700010080808080808102000000204080808A0
:1052800008080804020000000004150E0E150400B2
:10529000000000000404041F0404040000000000D7
:1052A0000000000000000002020100000000001FDA
:1052B00000000000000000000000000000000002EC
:1052C00000000010080808040402020201000000A7
:1052D0000E1111111111110E00000000040604043A
:1052E0000404040E000000000E1111080402011F46
:1052F000000000000E11100C1010110E0000000034
:10530000080C0A0A091E0818000000001F01010FFE
:105310001010110E000000000E09010F1111110EE6
:10532000000000001F090804040404040000000039
:105330000E11110E1111110E000000000E111111AD
:105340001E10120E00000000000004000000000407
:105350000000000000000004000000040400002021
:1053600010080402040810200000000000001F00C4
:10537000001F0000000000020408102010080402B2
:10538000000000000E1111080404000400000000D9
:105390000E111915151D011E0000000004040C0A51
:1053A0000A1E1233000000000F12120E1212120F0A
:1053B000000000001E1101010101110E000000009B
:1053C0000F1212121212120F000000001F120A0E0A
:1053D0000A02121F000000001F120A0E0A02020732
:1053E000000000001C1201013911120C0000000025
:1053F0003312121E12121233000000001F040404A4
:105400000404041F000000003E08080808080809FA
:105410000700000037120A060A0A123700000000CF
:10542000070202020202223F000000001B1B1B1B9E
:1054300015151515000000003B1216161A1A121742
:10544000000000000E1111111111110E00000000DA
:105450000F12120E02020207000000000E111111BD
:105460001117190E180000000F12120E0A1212372F
:10547000000000001E1101060810110F00000000BE
:105480001F1504040404040E00000000331212125D
:105490001212120C000000003312120A0A0C04044B
:1054A000000000001515150E0A0A0A0A0000000087
:1054B0001B0A0A04040A0A1B000000001B0A0A0453
:1054C0000404040E000000001F0908040402121F57
:1054D0000000001C04040404040404041C00000272
:1054E00002020404080808100000000E080808085A
:1054F000080808080E0000040A0000000000000070
:10550000000000000000000000000000003F000458
:105510000000000000000000000000000000000C7F
:10552000121C123C000000000302020E1212120EA6
:10553000000000000000001C1202021C000000001D
:105540001810101C1212123C000000000000000C89
:10555000121E021C000000003804041E0404041E75
:10556000000000000000003C120C021E221C000083
:105570000302020E1212123700000000040000069F
:105580000404040E000000000800000C08080808CD
:10559000080700000302023A0A0E1237000000005A
:1055A000070404040404041F000000000000000FAE
:1055B00015151515000000000000000F121212371B
:1055C000000000000000000C1212120C000000008D
:1055D0000000000F1212120E020700000000001C53
:1055E0001212121C103800000000001B06020207F5
:1055F000000000000000001E020C101E0000000051
:105600000004040E04040418000000000000001B45
:105610001212123C0000000000000037120A0C04B5
:105620000000000000000015150E0A0A000000002E
:105630000000001B0A040A1B0000000000000037E5
:10564000120A0C04040300000000001E0804041EDB
:1056500000000018080808040808080818000808CE
:1056600008080808080808080808000604040408D0
:1056700004040404060002251800000000000000D5
:10568000000000000000000000000000000000001A
:1056900000000000000808080808080800001818A2
:1056A000000000486C241200000000000000000010
:1056B00000000000002424247F1212127F12121214
:1056C00000000000081C2A2A0A0C1828282A2A1C74
:1056D000080800000022251515152A585454542294
:1056E00000000000000C1212120A76252911916E9A
:1056F0000000000606040300000000000000000097
:1057000000000040201010080808080808101020A9
:1057100040000002040808101010101010080804BF
:1057200002000000000008086B1C1C6B0808000049
:10573000000000000000080808087F0808080800AA
:10574000000000000000000000000000000006064D
:1057500004030000000000000000FE000000000044
:10576000000000000000000000000000000006062D
:1057700000000000804040202010100808040402AF
:1057800002000000001824424242424242422418D1
:105790000000000000080E08080808080808083E75
:1057A00000000000003C4242422020100804427EDB
:1057B00000000000003C4242201820404042221CD1
:1057C0000000000000203028242422227E2020789F
:1057D00000000000007E0202021A26404042221C05
:1057E0000000000000382402021A26424242241817
:1057F00000000000007E2222101008080808080897
:1058000000000000003C4242422418244242423C34
:105810000000000000182442424264584040241C0A
:105820000000000000000000181800000000181818
:105830000000000000000000000800000000000858
:105840000804000000402010080402040810204052
:1058500000000000000000007F0000007F0000004A
:10586000000000000002040810204020100804027C
:1058700000000000003C4242464020101000181872
:1058800000000000001C225A555555552D42221C7F
:1058900000000000000808181414243C224242E7CB
:1058A00000000000001F2222221E22424242221F2C
:1058B00000000000007C4242010101010142221C63
:1058C00000000000001F2242424242424242221F88
:1058D00000000000003F4212121E12120242423F1C
:1058E00000000000003F4212121E121202020207C4
:1058F00000000000003C2222010101712122221C33
:105900000000000000E7424242427E42424242E73B
:1059100000000000003E0808080808080808083EC3
:1059200000000000007C101010101010101010105B
:10593000110F0000007722120A0E0A12122222779B
:105940000000000000070202020202020202427F7F
:10595000000000000077363636362A2A2A2A2A6BBB
:105960000000000000E346464A4A52525262624733
:1059700000000000001C2241414141414141221CE4
:1059800000000000003F424242423E020202020783
:1059900000000000001C2241414141414D53321C96
:1059A00060000000003F4242423E1212222242C7E3
:1059B00000000000007C4242020418204042423EA7
:1059C00000000000007F4908080808080808081CB3
:1059D0000000000000E74242424242424242423C52
:1059E0000000000000E74242222424141418080892
:1059F00000000000006B49494949555536222222D2
:105A00000000000000E7422424181818242442E76C
:105A10000000000000772222141408080808081C5F
:105A200000000000007E2120101008040442423FC4
:105A3000000000780808080808080808080808088E
:105A4000780000000202040408080810102020203A
:105A50004040001E101010101010101010101010E8
:105A60001E0000384400000000000000000000009C
:105A70000000000000000000000000000000000026
:105A800000FF000608000000000000000000000009
:105A90000000000000000000003C4278444242FC4C
:105AA0000000000000030202021A26424242261AA7
:105AB00000000000000000000038440202024438E8
:105AC000000000000060404040784442424264D8F8
:105AD0000000000000000000003C427E0202423C48
